S01700004B616E646964617470726F6A656B742E73726563EE
S113000045C0000062C0000060C000005EC0000087
S11300105CC000005AC0000058C0000056C0000078
S113002054C0000052C0000050C000004EC0000088
S11300304CC000004AC0000048C0000046C0000098
S113004044C0000042C0000040C000000C94AF0A4D
S11300500C94810B3AC000000C94DC0B36C00000F9
S113006034C0000032C0000030C000002EC00000C8
S11300700C94BB092AC0000028C0000026C0000060
S113008024C0000022C0000020C0000011241FBEB4
S1130090CFEFD0E4DEBFCDBF11E0A0E0B1E0E8E9EE
S11300A0FCE100E00BBF02C007900D92A63DB10732
S11300B0D9F723E0A6EDB1E001C01D92AE31B2073D
S11300C0E1F70E94230A0C944A0E9ACF2F923F9292
S11300D04F925F926F927F928F929F92AF92BF9254
S11300E0CF92DF92EF92FF920F931F93CF93DF9300
S11300F0CDB7DEB7C45CD1400FB6F894DEBF0FBEF7
S1130100CDBF2C016B0188E0E0E0F1E0DE01119647
S113011001900D928A95E1F73E0121E1620E711C76
S11301200F2EF8E7EF2EF12CF02D0EE610E022E36F
S113013030E041E350E068E071E0C3010E948C09C3
S11301404E0147E2840E911C0F2EF4EBEF2EF12C9E
S1130150F02D05EA10E027E830E043E750E062E1E3
S113016071E0C4010E948C095E015DE3A50EB11C1F
S11301700F2EF7EEEF2EF12CF02D06EE10E028EC0A
S113018030E04FEA50E069E171E0C5010E948C095A
S11301907E866D869EA28DA2BCAEABAE63961FAE6C
S11301A01EAE639782E3481651042CF482E390E078
S11301B09C878B870BC0A7EE4A1651042CF086EE61
S11301C090E09C878B8702C05C864B8688E0E2E2E5
S11301D0F1E0DE01AD5ABF4F01900D928A95E1F72F
S11301E03E01B3E66B0E711C0F2EF9E1EF2EF12CDC
S11301F0F02D0FE010E021E030E040E050E06AE252
S113020071E0C3010E948C094E01E9E78E0E911C36
S11302100F2EF8E2EF2EF12CF02D0EE110E02EE17E
S113022030E044E150E062E371E0C4010E948C09D3
S11302305E01FFE8AF0EB11C0F2EFBE4EF2EF12C94
S1130240F02D0AE410E02CE330E043E250E069E3EF
S113025071E0C5010E948C09A1967FAE6EAEA19794
S1130260D30155969C928E925497F401B58AA48A30
S1130270D50155961C921E9254971C141D043CF0F3
S113028081E090E06F969FAF8EAF6F970FC0BBE495
S1130290CB16D1043CF08AE490E06F969FAF8EAF0A
S11302A06F9704C06F96DFAECEAE6F971E01E5EA7E
S11302B02E0E311C89E0E0E4F1E0D10101900D92B1
S11302C08A95E1F72E01F5EB4F0E511C0F2EFCE938
S11302D0EF2EF9E0FF2EF02D08E319E028E339E0D2
S11302E047E359E069E471E0C2010E948C093E01D0
S11302F02BEC620E711C0F2EF4E6EF2EFAE0FF2EAB
S1130300F02D00E01AE020E03AE044EC59E063E527
S113031071E0C3010E948C096E0141EEC40ED11C30
S11303200F2EF8ECEF2EFAE0FF2EF02D04E61AE083
S113033024E63AE040E05AE068E571E0C601ECD713
S11303404E0157EF850E911C0F2EF4E5EF2EFBE0C6
S1130350FF2EF02D00EF1AE020EF3AE04CE85AE0CF
S113036061E671E0C401D8D75E0183EFA81A8EEF6D
S1130370B80A0F2EF1E9EF2EFBE0FF2EF02D00E975
S11303801BE020E93BE04CE25BE067E671E0C5017D
S1130390C3D7D1011D96BC92AE921C97F501958AE4
S11303A0848AD4015596DC92CE925497F601758ACC
S11303B0648AD30155965C924E925497F201158A41
S11303C0148ACE0101969093F5028093F402E256CA
S11303D0F109F88BEF87178616863092F302209284
S11303E0F202D1011F961C921E921E97A258BF4F73
S11303F07301EAE0EE0EF11C1196FC92EE92139654
S11304001C921E9212979E01295D3E4F3E01F9E90E
S11304106F0E711CF9017182608213821282865DF3
S11304209E4F8E010F5C1F4FFC01118300833383A9
S11304302283349691838083B383A28315821482AA
S1130440225F3F4F4AE0840E911CD90111969C9281
S11304508E9213961C921E921297BE01675C7E4F79
S1130460DB0111967C926E9213961C921E92129747
S1130470AE01435C5E4F845E9109DA0111969C9350
S11304808E9313967C936E931297149611965C93A5
S11304904E9313963C932E9312971596FC93EE93DA
S11304A01497465F5F4FEAE0AE0EB11CFA01B182C9
S11304B0A082138212825E01F5EBAF1AFEEFBF0A2F
S11304C0225B3109F50131832083138212826A5E33
S11304D07F4FFB0191838083B382A2823496718320
S11304E0608353834283B583A4834AE0C40ED11C42
S11304F0C75ADE4FD982C882C955D140C55ADE4F8A
S113050019821882CB55D140625F7F4F5E015DE650
S1130510A50EB11CDB011196BC92AE9213961C92EF
S11305201E921297AE014F595E4FDA0111969C93B9
S11305308E9313967C936E931297825E9E4FDC018A
S113054011965C934E9349E551E04C0F5D1F139651
S11305505C934E9312971596FC93EE93149716960C
S11305605AE0450E511C11965C924E9213961C92C1
S11305701E9212972E01E1E94E1AEEEF5E0AF20185
S113058031832083138212826A5E7F4FAE01455EFF
S11305905F4FFB01518340835382428234967183BF
S11305A06083B383A28395838483665F7F4FDB017B
S11305B01196DC92CE9213961C921E9212974C9630
S11305C0DC0111963C932E9313961C921E92129763
S11305D02E5F3E4FD90111961C930E9313969C9354
S11305E08E9312970896DC0111963C932E931396E2
S11305F07C936E9312971596FC93EE9314976E5E0C
S11306007F4FFB01D182C082138212821A96119607
S11306107C926E9213961C921E9212972E5E3F4FFE
S1130620F90151834083B383A283189611963C93B6
S11306302E9313967C936E93129715969C938E9398
S113064014976E5E7F4FFB01F182E0821382128267
S11306504C96FC01B182A082138212822E5E3F4F1F
S1130660F90151834083938382830896FC0131838B
S1130670208373836283B583A483589611969C92D6
S11306808E9213961C921E92129744565E4FFA0154
S1130690B182A082138212822E5E3F4FF901118330
S11306A0008353834283349631832083B383A283AC
S11306B095838483F093F702E093F60203D529D55A
S11306C06ED5D1011A968D919C911B97863EB7E009
S11306D09B0724F486EE97E027D709C0853EECE01B
S11306E09E0724F084EE9CE01FD701C01DD7CC5395
S11306F0DE4F0FB6F894DEBF0FBECDBFDF91CF91B2
S11307001F910F91FF90EF90DF90CF90BF90AF902B
S11307109F908F907F906F905F904F903F902F901D
S1130720089531E06135710509F030E021E0813050
S1130730910509F020E0222331F0332321F084EEE7
S11307409CE0F2D60EC021E08230910509F020E051
S1130750222331F0332321F086EE97E0E5D601C061
S1130760B5DC81E090E008952F923F924F925F9222
S11307706F927F928F929F92AF92BF92CF92DF92AD
S1130780EF92FF920F931F93CF93DF93CDB7DEB712
S1130790C453D2400FB6F894DEBF0FBECDBF29E0DC
S11307A0E2E7F1E0DE01119601900D922A95E1F75E
S11307B026E0EBE7F1E0DE01519601900D922A95D7
S11307C0E1F7843B2AE092072CF484EB9AE09C8FB7
S11307D08B8F0BC085354BE094072CF084E59BE0B0
S11307E09C8F8B8F02C09C8F8B8F77231CF41C866D
S11307F01B860AC06B3F71052CF08AEF90E09C8742
S11308008B8702C07C876B876E0151E2C50ED11CB9
S11308100F2EF4E1EF2EF12CF02D0CE010E020E08F
S113082030E04FEF5FEF61E871E0C60175D53E013E
S113083067E3660E711C0F2EFFE5EF2EF12CF02DF1
S11308400CE310E02CE330E042E150E06AE871E0B0
S1130850C30162D50F2EFFEAEF2EF12CF02D0DE728
S113086010E02DE730E04BE450E06FE871E0CE019A
S1130870835B9F4F51D50F2EFBEFEF2EF12CF02D04
S11308800AEF10E02AEF30E046E950E064E971E055
S1130890CE018D599F4F40D5DE86CD867EAA6DAAA6
S11308A08DE490E08C0F9D1F2D969FAF8EAF2D97FA
S11308B0A3E6B0E0AC0FBD1FA396BFAFAEAFA39746
S11308C0E9961FAE1EAEE9970F2EEE24EA94FAE0E5
S11308D0FF2EF02D04EB1AE024EB3AE043EB5AE050
S11308E06BE971E08C9618D55E01BFE8AB0EB11CC4
S11308F00F2EF4E1EF2EFBE0FF2EF02D04E01BE0C1
S113090024E03BE044EF5AE06FEB71E0C50104D50D
S11309100F2EFBE2EF2EFBE0FF2EF02D0BE11BE090
S11309202BE13BE04BE05BE061EA71E0CE018B55EB
S11309309F4FF2D42E01EBEB4E0E511C0F2EF1E41F
S1130940EF2EFBE0FF2EF02D01E31BE021E33BE063
S113095041E25BE06AEA71E0C201DED40F2EF5E504
S1130960EF2EFBE0FF2EF02D04E51BE024E53BE039
S113097046E35BE061EB71E0CE018F529F4FCCD434
S113098049E750E04C0F5D1F5E8F4D8FC357DF4F1B
S1130990B982A882CD58D040E5EAF0E0EC0FFD1F03
S11309A0D5015596FC93EE935497C754DF4F598263
S11309B04882C95BD040E1EDF0E0EC0FFD1FD201AD
S11309C05596FC93EE935497CB51DF4F19821882BE
S11309D0C55ED04080E797E7ADE6B0E0C951DF4F90
S11309E088839983AA83BB83C75ED0404E01F7EF07
S11309F08F0E911C0F2EEE24EA94FAE0FF2EF02DB8
S1130A0004EB1AE024EB3AE043EB5AE066EB71E0C6
S1130A10C40182D46E0123EFC21A2EEFD20A0F2E24
S1130A20F4E1EF2EFBE0FF2EF02D04E01BE024E0C8
S1130A303BE044EF5AE06EEB71E0C6016DD41E0159
S1130A404DED241A4EEF340A0F2EFBE2EF2EFBE09D
S1130A50FF2EF02D0BE11BE02BE13BE04BE05BE0D4
S1130A6063EC71E0C10158D40F2EF1E4EF2EFBE0EA
S1130A70FF2EF02D01E31BE021E33BE041E25BE0CC
S1130A806AEC71E0CE01875C9E4F46D40F2EF5E5EB
S1130A90EF2EFBE0FF2EF02D04E51BE024E53BE008
S1130AA046E35BE062ED71E0CE01815B9E4F34D49E
S1130AB0CD50DF4F99828882C35FD040D4015596D0
S1130AC0DC92CE925497F601358A248AE9E3F1E068
S1130AD0EC0FFD1FD1015596FC93EE9354974FE410
S1130AE051E04C0F5D1FC35BDE4F59834883CD54E7
S1130AF0D140CD59DE4F19821882C356D140CE0160
S1130B0001969093F5028093F4024096988B8F8718
S1130B1018A21F8E87EE90E08C0F9D1F9093F30216
S1130B208093F202CB50DF4F19821882C55FD04008
S1130B309E012B593E4F3093F7022093F6028C57B7
S1130B409F4FD90115969C938E9314971C96FC0184
S1130B50B583A48347E751E04C0F5D1F15965C9362
S1130B604E9314978E0103581E4FC558DE4F1983B8
S1130B700883CB57D1407E015DE7E51A5EEFF50AA5
S1130B80F801F582E48249E851E04C0F5D1FF7015A
S1130B9055834483EFE8F1E0EC0FFD1FC357DE4FAC
S1130BA0F983E883CD58D14045E951E04C0F5D1FEE
S1130BB0CD56DE4F59834883C359D140EBE9F1E068
S1130BC0EC0FFD1FC756DE4FF983E883C959D140A6
S1130BD041EA51E04C0F5D1FC156DE4F59834883F3
S1130BE0CF59D140E7EAF1E0EC0FFD1FCB55DE4FC2
S1130BF0F983E883C55AD140C555DE4F198218825E
S1130C00CB5AD140BE0163557E4FF9017183608395
S1130C10FB0113821282405F5F4FF90153834283C9
S1130C20FA01138212822A533140FB01318320835B
S1130C30FAE08F0E911CFA0191828082685F7F4FE7
S1130C40FC0171836083485F5F4FFB0153834283E0
S1130C50FA01138212822E563E4FFC013383228303
S1130C60F90113821282FAE0AF0EB11CFB01B182CA
S1130C70A082FAE06F0E711CFA0171826082FAE0C0
S1130C80CF0ED11CF901D182C082485F5F4F11960B
S1130C905C934E93285F3F4FFA0133832283F9011B
S1130CA013821282825A9F4F13969C938E931297AB
S1130CB0DC0113961C921E921297BAE04B0E511C43
S1130CC0FA0151824082D9016D927C92BAE02B0ED6
S1130CD0311CFC0131822082285F3F4FC958DE4F0E
S1130CE039832883C757D1400896D90113969C931A
S1130CF08E931297FC01138212821896C758DE4F06
S1130D00B983A883C957D14013961C921E92129797
S1130D1041ED50E04C0F5D1F465F5F4FF901518379
S1130D204083FC01718260822D923C920896D80126
S1130D308D939C93685D7F4FFC0173836283DB0119
S1130D4013961C921E9212973896D8011396FC9310
S1130D50EE9312971382128229E730E02C0F3D1F85
S1130D60265F3F4FDC012D933C93DB016D927C9217
S1130D70D182C0820C96F7019183808304591F4F5E
S1130D80DC0113961C930E931297F80113821282BE
S1130D903496D7011396FC93EE9312971382128222
S1130DA065EA70E06C0F7D1F665F7F4FDC016D9319
S1130DB07C93D8016D927C92D182C0820C96C757E5
S1130DC0DE4F99838883C958D140045F1F4FFC01CB
S1130DD013830283D80113961C921E92129738969D
S1130DE0C557DE4FF983E883CB58D1401382128272
S1130DF0DC01AD92BC928DE490E08C0F9D1F0A96AD
S1130E00D8018D939C9331822082085F1F4FC15774
S1130E10DE4F19830883CF58D1407E01BFEFEB1A10
S1130E20BDEFFB0AF801F382E282D70113961C920C
S1130E301E9212971496CF56DE4FB983A883C159D8
S1130E40D14013961C921E92129751824082F70150
S1130E50918380830F2EF9E3CF2EDD24D394F02DDC
S1130E60CC0EDD1EFAE0CF0ED11CCD92DC927E01B9
S1130E70A7EFEA1AADEFFA0ACB56DE4FF982E88201
S1130E80C559D140005F1F4FF70113830283D80176
S1130E9013961C921E9212971496C956DE4FB9836C
S1130EA0A883C759D14013961C921E92129751835E
S1130EB04083F80191838083CD92DC92085F1F4FB9
S1130EC0C556DE4F19830883CB59D140425C5E4F2F
S1130ED0D80113965C934E931297FA0113821282EF
S1130EE01896C356DE4FB983A883CD59D1401396C3
S1130EF01C921E921297F80131832083FA01918388
S1130F0080832D923C92485F5F4FCF55DE4F5983CB
S1130F104883C15AD1402E553E4FDA0113963C9373
S1130F202E931297F901138212821896CD55DE4F33
S1130F30B983A883C35AD14013961C921E92129768
S1130F40FA0171836083F901918380831196DC92A5
S1130F50CE921496C955DE4FB983A883C75AD1409F
S1130F6013961C921E9212973C96C755DE4FF98336
S1130F70E883C95AD1401382128283E690E08C0F31
S1130F809D1F0A968D939C938FE491E08C0F9D1F77
S1130F900A969183808396D0BCD001D1CF50DF4F85
S1130FA088819981C15FD0408931FBE09F0724F09B
S1130FB088E19BE09ED209C08E3B2AE0920724F48C
S1130FC08EEB9AE096D201C094D2CC5CDD4F0FB682
S1130FD0F894DEBF0FBECDBFDF91CF911F910F916B
S1130FE0FF90EF90DF90CF90BF90AF909F908F9045
S1130FF07F906F905F904F903F902F900895FC01E9
S1131000848595859B01281B390B86859785861BCE
S1131010970B12161306F4F418161906F4F46089E3
S11310207189A289B3898A9FA0018B9F500D9A9FD1
S1131030500D1124269FC001279F900D369F900DBF
S11310401124481759070CF4CA018F3F910509F080
S11310503CF408C080E090E005C080E090E002C06D
S113106080E091E09387828708950F931F93CF9335
S1131070DF93FC01C685D78584859585C81BD90B6C
S11310802285338560897189C901D6D58E01061BF5
S1131090170B62897389C901CFD5061B170BC00FC3
S11310A0D11F2C9FC0012D9F900D3C9F900D1124AA
S11310B099230CF4019695958795DF91CF911F9113
S11310C00F9108950F931F93CF93DF930091F40230
S11310D01091F50201151105B9F0F801C485D58503
S11310E0209761F0209729F0F80162857385CE017D
S11310F086DF0C88DD89C02D2097A1F7F8010685CD
S113110017850115110549F7DF91CF911F910F91B3
S113111008950F931F93CF93DF93C091F602D0915C
S1131120F7022097B9F100E011E0E881F9813097E6
S113113081F0202F312FA081B1818D919C91821754
S113114093070CF49C010280F381E02D309799F70A
S113115002C0202F312FEA81FB813097B1F0722F2A
S1131160632FA081B1818D919C911197572F462FA8
S11311702817390714F4582F492F5C9311964C9370
S11311800280F381E02D309761F70C80DD81C02D62
S1131190209759F6DF91CF911F910F9108952F92C7
S11311A03F924F925F926F927F928F929F92AF92F3
S11311B0BF92CF92DF92EF92FF920F931F93CF9340
S11311C0DF9300D000D000D0CDB7DEB78091F2021B
S11311D09091F3029C838B83892B09F484C0EB8167
S11311E0FC810484F585E02DFE83ED83EF2B09F467
S11311F066C0512C612C712C412C312C212C19826C
S11312001A828D819E8131DFBC01882777FD80950C
S1131210982F23D46B017C01ED81FE810485158513
S1131220B801882777FD8095982F17D44B015C016E
S1131230ED81FE8186859785801B910BBC0112F49C
S11312406F5F7F4F75956795882777FD8095982FF9
S113125004D4A501940102D39B01AC01C701B601DA
S113126088D49B01AC01632D722D89819A81F6D2B9
S1131270362E272E89839A83A7019601652D762D14
S1131280872D942DEBD2562E672E782E492EED8184
S1131290FE810488F589E02DFE83ED83EF2B09F0B0
S11312A0B0CF262F372F482F592F632D722D8981C8
S11312B09A8138D3262F372F482F592F04C020E086
S11312C030E040E050E0622F732F842F952F92D3AB
S11312D0EB81FC8173876287868597859C838B83EA
S11312E0892B09F07CCF26960FB6F894DEBF0FBE8B
S11312F0CDBFDF91CF911F910F91FF90EF90DF90C1
S1131300CF90BF90AF909F908F907F906F905F90A1
S11313104F903F902F900895AF92BF92CF92DF925B
S1131320EF92FF920F931F93CF93DF93EC016A0127
S11313305901A9D41B861A86DD86CC86FF86EE86E3
S1131340B5016C197D0920E031E0C90175D4798BB0
S1131350688BB701601B710BC9016ED47B8B6A8BE0
S1131360DF91CF911F910F91FF90EF90DF90CF907D
S1131370BF90AF9008951F920F920FB60F92112451
S11313800BB60F928F939F93EF93FF938091CE00B0
S11313908F3F29F41092D7011092D60110C0E0912A
S11313A0D601F091D701E850FD4F80838091D6019A
S11313B09091D70101969093D7018093D601FF9124
S11313C0EF919F918F910F900BBE0F900FBE0F90D6
S11313D01F9018957FD08DEC9AE08BD084E69AE02C
S11313E0A3C00895ECECF0E01182108220E9209370
S11313F0C9002EE02093CA00918380831092D70104
S11314001092D6010895FC01A9ECB0E08C918F777D
S11314108C938091F80280838091F902818380917A
S1131420FA0282838091FB0283838091FC0284838D
S11314308091FD0285831092D7011092D6018C9180
S113144080688C930895CF93DF93CDB7DEB72B9745
S11314500FB6F894DEBF0FBECDBFBCDF2FEF8FEF0A
S113146090EE215080409040E1F700C0000087E0FA
S113147090E0B8DF8FEF81B9789408E810E00F2E80
S1131480FAE8AF2EB12CF02D8091D6019091D701BE
S11314900697D0F3BE016F5F7F4FCE010B9602D14A
S11314A0CE010196B0DF6B8170E0E980F12CCA8037
S11314B0D12CF894F8018081918156D9B601C701E5
S11314C030D97894F80180819181F50180819181EE
S11314D012B8DACF80E38AB982EA809380008FEF72
S11314E09FE890938700809386008AE1809381002F
S11314F0089580362AE092073CF48FE59AE09093B1
S113150089008093880008958B332BE092073CF088
S11315108BE39BE0909389008093880008959093D7
S11315208900809388000895853E2CE092073CF062
S113153084EE9CE090938B0080938A000895863E0D
S113154027E092073CF486EE97E090938B0080931B
S11315508A00089590938B0080938A0008951F92C7
S11315600F920FB60F9211240BB60F922F933F9345
S11315708F939F93AF93BF93EF93FF9310982EB5E0
S11315802D3FA9F0E2E6F2E080819181DC01A05ECA
S1131590BD4F2C93019691838083E4E6F2E0808131
S11315A0918101969183808381E08093D801809119
S11315B06202909163028034910521F410926302D7
S11315C01092620280911E0290911F02892B01F1F8
S11315D0E0911A02F0911B02E652FE4F80818EBD0B
S11315E0EAE1F2E080819181019691838083EEE1CA
S11315F0F2E0208131812150310931832083109A16
S11316008034910549F410921B0210921A0204C00E
S11316108DEF8EBD1092D901FF91EF91BF91AF91E3
S11316209F918F913F912F910F900BBE0F900FBE02
S11316300F901F901895F8942091640230916502E0
S113164021153105A9F0E0E6F2E040815181DA018B
S1131650A05EBD4F8C914F5F5F4F518340832150FB
S113166031093093650220936402232B21F401C0D5
S11316708EEF1092D80120916002309161022034E3
S1131680310521F410926102109260027894089559
S113169081E020916402309165022430310508F420
S11316A080E008950F931F93CF93DF938C01EB0198
S11316B02091640230916502232BE9F0E0916002ED
S11316C0F0916102E05EFD4F80818F3F61F4E0DFC5
S11316D0882391F0B0DFAFDF8883ADDF8983ABDF90
S11316E08A8381E009C0D4DF882331F0A4DFBE01FE
S11316F0C801D8DF01C080E0DF91CF911F910F9125
S113170008951F920F920FB60F9211240BB60F92E9
S11317102F933F934F938F939F93AF93BF93EF93E5
S1131720FF938091F0029091F1028034910531F49D
S113173081E080931C038091C60016C0803491051B
S1131740E8F4EEEEF2E0208131814091C600D90147
S1131750A455BD4F4C932F5F3F4F31832083019697
S11317609093F1028093F0028091F0029091F10243
S11317708034910519F481E080931A038091EE027C
S11317809091EF028034910521F41092EF021092AF
S1131790EE0281E080931903FF91EF91BF91AF9125
S11317A09F918F914F913F912F910F900BBE0F906E
S11317B00FBE0F901F9018951F920F920FB60F92A5
S11317C011240BB60F928F939F93EF93FF93809105
S11317D0AA029091AB028034910519F41092180377
S11317E002C0892BB9F0E091A602F091A702EA5950
S11317F0FD4F80818093C600E6EAF2E0808191810A
S1131800019691838083EAEAF2E0808191810197D5
S1131810918380838091A6029091A70280349105E0
S113182021F41092A7021092A6028091AA0290912C
S1131830AB02892B39F410921B03E1ECF0E08081B8
S11318408F7B8083FF91EF919F918F910F900BBEBF
S11318500F900FBE0F901F9018955058BB27AA27C2
S11318600ED04DC13ED130F043D120F031F49F3F32
S113187011F41EF433C10EF4E095E7FB29C1E92FFE
S11318804FD180F3BA17620773078407950718F0DE
S113189071F49EF567C10EF4E0950B2EBA2FA02DBE
S11318A00B01B90190010C01CA01A0011124FF2709
S11318B0591B99F0593F50F4503E68F11A16F04004
S11318C0A22F232F342F4427585FF3CF4695379503
S11318D02795A795F0405395C9F77EF41F16BA0BC8
S11318E0620B730B840BBAF09150A1F0FF0FBB1F76
S11318F0661F771F881FC2F70EC0BA0F621F731FBF
S1131900841F48F4879577956795B795F7959E3F1B
S113191008F0B3CF9395880F08F09927EE0F9795A9
S1131920879508950CD0EBC0E3D040F0DAD030F0C6
S113193021F45F3F19F0CCC0511115C1CFC0F0D0D4
S113194098F39923C9F35523B1F3951B550BBB2782
S1131950AA2762177307840738F09F5F5F4F220F2F
S1131960331F441FAA1FA9F333D00E2E3AF0E0E828
S113197030D091505040E695001CCAF729D0FE2F74
S113198027D0660F771F881FBB1F26173707480706
S1131990AB07B0E809F0BB0B802DBF01FF279358BC
S11319A05F4F2AF09E3F510568F092C0DCC05F3F54
S11319B0ECF3983EDCF3869577956795B795F795A4
S11319C09F5FC9F7880F911D9695879597F908959C
S11319D0E1E0660F771F881FBB1F62177307840738
S11319E0BA0720F0621B730B840BBA0BEE1F88F747
S11319F0E095089504D06894B111B5C0089598D0C5
S1131A0088F09F5790F0B92F9927B751A0F0D1F0E3
S1131A10660F771F881F991F1AF0BA95C9F712C06D
S1131A20B13081F09FD0B1E008959CC0672F782F2A
S1131A308827B85F39F0B93FCCF3869577956795D9
S1131A40B395D9F73EF490958095709561957F4F45
S1131A508F4F9F4F0895E89409C097FB3EF49095EB
S1131A608095709561957F4F8F4F9F4F9923A9F073
S1131A70F92F96E9BB279395F69587957795679502
S1131A80B795F111F8CFFAF4BB0F11F460FF1BC046
S1131A906F5F7F4F8F4F9F4F16C0882311F096E9D9
S1131AA011C0772321F09EE8872F762F05C0662387
S1131AB071F096E8862F70E060E02AF09A95660F40
S1131AC0771F881FDAF7880F9695879597F90895F9
S1131AD097F99F6780E870E060E008959FEF80ECDD
S1131AE0089500240A941616170618060906089580
S1131AF000240A9412161306140605060895092EE6
S1131B000394000C11F4882352F0BB0F40F4BF2B54
S1131B1011F460FF04C06F5F7F4F8F4F9F4F089594
S1131B2057FD9058440F551F59F05F3F71F047958A
S1131B30880F97FB991F61F09F3F79F0879508956F
S1131B40121613061406551FF2CF4695F1DF08C08E
S1131B50161617061806991FF1CF869571056105AB
S1131B6008940895E894BB2766277727CB0197F953
S1131B7008950BD0C4CFB5DF28F0BADF18F0952351
S1131B8009F0A6CFABCF1124EECFCADFA0F3959F07
S1131B90D1F3950F50E0551F629FF001729FBB2750
S1131BA0F00DB11D639FAA27F00DB11DAA1F649FFC
S1131BB06627B00DA11D661F829F2227B00DA11DAF
S1131BC0621F739FB00DA11D621F839FA00D611D35
S1131BD0221F749F3327A00D611D231F849F600D56
S1131BE0211D822F762F6A2F11249F5750408AF08F
S1131BF0E1F088234AF0EE0FFF1FBB1F661F771F1B
S1131C00881F91505040A9F79E3F510570F060CF56
S1131C10AACF5F3FECF3983EDCF386957795679502
S1131C20B795F795E7959F5FC1F7FE2B880F911D38
S1131C309695879597F9089597FB072E16F40094C7
S1131C4006D077FD08D00BD007FC05D03EF4909564
S1131C5081959F4F0895709561957F4F0895AA1BB4
S1131C60BB1B51E107C0AA1FBB1FA617B70710F083
S1131C70A61BB70B881F991F5A95A9F780959095B5
S1131C80BC01CD010895FB01DC0101900D920020FF
S10B1C90E1F70895F894FFCF79
S1131C9864656C74615F430072696768745369644E
S1131CA8650063656E747265006C65667453696477
S1131CB8650064656C74615F5600696E4D696E7584
S1131CC87300696E4E796C6C00696E506C757300A4
S1131CD87374656572696E670073686172704C65C8
S1131CE86674006C656674007374726169676874FD
S1131CF80072696768740073686172705269676812
S1131D08740064697374616E6365007370656564F7
S1131D180073746F7044697374006F6E654D00745A
S1131D28776F4D0074687265654D007374696C6CE7
S1131D38006372756973696E67006D656469756DB2
S1131D480068696768006E6F537065656400736C3A
S1131D586F7700637275697365006D6564486967B8
S1091D6868006D617800C3
S9030000FC
