S01700004B616E646964617470726F6A656B742E73726563EE
S113000045C0000062C0000060C000005EC0000087
S11300105CC000005AC0000058C0000056C0000078
S113002054C0000052C0000050C000004EC0000088
S11300304CC000004AC0000048C0000046C0000098
S113004044C0000042C0000040C000000C94130BE8
S11300500C94F00B3AC000000C944B0C36C000001A
S113006034C0000032C0000030C000002EC00000C8
S11300700C94200A2AC0000028C0000026C00000FA
S113008024C0000022C0000020C0000011241FBEB4
S1130090CFEFD0E4DEBFCDBF11E0A0E0B1E0E6E7F2
S11300A0FDE100E00BBF02C007900D92AA3DB1072D
S11300B0D9F723E0AAEDB1E001C01D92A232B20744
S11300C0E1F70E94850A0C94B90E9ACF2F923F92C1
S11300D04F925F926F927F928F929F92AF92BF9254
S11300E0CF92DF92EF92FF920F931F93CF93DF9300
S11300F0CDB7DEB7C45CD1400FB6F894DEBF0FBEF7
S1130100CDBF6C012B0191E06D32710509F090E0D7
S113011081E023EEC216D10409F080E0882339F08F
S1130120992329F084E69AE00E94F80A3AC381E010
S113013034E1C316D10409F080E0882339F099230F
S113014029F086EE97E00E94F80A2BC381E042ED85
S1130150C416D10409F080E0882339F0992329F0EA
S11301608FE39CE00E94F80A1CC388E0E0E0F1E021
S1130170DE01AD5EBE4F01900D928A95E1F73E011E
S11301806DED660E711C0F2EFEE6EF2EF12CF02D98
S11301900CE310E02DE230E04CE250E068E071E066
S11301A0C3010E94F1094E0187EC880E911C0F2EA9
S11301B0FFEAEF2EF12CF02D0DE710E02DE730E0F3
S11301C04BE450E063E171E0C4010E94F1095E0177
S11301D091EBA90EB11C0F2EFEECEF2EF12CF02D9D
S11301E00DEC10E02EEB30E04CE850E06AE171E0F9
S11301F0C5010E94F109C15EDE4F79826882CF5148
S1130200D140D30155969C928E925497F401B58AAD
S1130210A48AD50155961C921E925497DD203CF475
S1130220C35EDE4F19821882CD51D14013C0BEEC9B
S1130230CB16D1044CF08DEC90E0C35EDE4F998375
S11302408883CD51D14006C0C35EDE4FD982C882B7
S1130250CD51D14088E0E5E2F1E0DE01AD5FBE4F73
S113026001900D928A95E1F74E01EBE98E0E911CF7
S11302700F2EFEE1EF2EF12CF02D0AE010E020E02D
S113028030E04FEF5FEF6DE271E0C4010E94F109CD
S11302905E01F5E8AF0EB11C0F2EFCE3EF2EF12C3E
S11302A0F02D08E210E028E230E044E150E065E39C
S11302B071E0C5010E94F1096E011FE6C10ED11C57
S11302C00F2EF1E5EF2EF12CF02D00E510E026E4E1
S11302D030E042E350E06CE371E0C6010E94F109B2
S11302E0C15FDE4F99828882CF50D140D4015596A8
S11302F0BC92AE925497F501D58AC48AD60155961C
S11303001C921E92549755203CF4C35FDE4F198211
S11303101882CD50D14013C0B1E54B1651044CF0B6
S113032080E590E0C35FDE4F99838883CD50D14050
S113033006C0C35FDE4F59824882CD50D1401E01B2
S1130340E3EF2E0E311C89E0E3E4F1E0D1010190EA
S11303500D928A95E1F72E01F9E54F0E511C0F2EEF
S1130360FCE9EF2EF9E0FF2EF02D04ED18E024ED6A
S113037038E043ED58E06CE471E0C2010E94F109F9
S11303806E0113E4C10ED11C0F2EF4E6EF2EFAE039
S1130390FF2EF02D0CE919E02CE939E044ED58E08A
S11303A067E571E0C6010E94F1093E012DE2620E8B
S11303B0711C0F2EFCE2EF2EFBE0FF2EF02D04E665
S11303C01AE024E63AE04CE959E06DE571E0C30136
S11303D00E94F1094E0137E1830E911C0F2EF4EFB8
S11303E0EF2EFBE0FF2EF02D0CE21BE02CE23BE0B5
S11303F044E65AE066E671E0C401F3D70F2EF5EF48
S1130400EF2EFBE0FF2EF02D04EF1BE024EF3BE08A
S11304104CE25BE06BE671E0CE0101965C01E1D752
S1130420D1011D965C924E921C97F201D58AC48A22
S1130430D60155967C926E92549723969FAE8EAEBB
S11304402397BCA6ABA61E8A1D8AA053BF4FB093A8
S1130450F702A093F602E655FF4F1F96FC93EE9326
S11304601E97178616863092F5022092F402F10147
S113047017861686A255BF4F21E230E02C0F3D1F90
S113048011963C932E9313961C921E921297BE01C2
S113049063547E4F285A3F4FFB01318320831382DC
S11304A01282CE0187549E4F3E01F1ED6F0E711CF6
S11304B0FC017182608273836283E656F109918341
S11304C08083B383A28315821482AE014B545E4FA2
S11304D076011AE0E10EF11CDA011196FC92EE921B
S11304E013961C921E9212970897DC0111963C9366
S11304F02E9313961C921E921297605171098E01CD
S113050005541F4FDB0111961C930E9313969C9375
S11305108E93129784569109DC0111967C936E9305
S113052013965C934E9312971596FC93EE9314973F
S11305304C505109BAE04B0E511CFA0151824082D1
S11305401382128234976E517140718360831382D7
S113055012826E01AFE5CA1AAEEFDA0AD60111961D
S11305601C930E931396FC93EE931297EE55F10998
S1130570D182C0825383428395838483805B9F4F5F
S113058042575140DC0111965C934E9313961C9292
S11305901E9212975E01B7E6AB1ABEEFBB0A4E017C
S11305A0A5EA8A0E911CD50111969C928E921396FF
S11305B01C921E9212976E01BBE6CB1ABEEFDB0AA9
S11305C0D60111961C930E931396BC92AE92129779
S11305D0A455B1091196DC92CE9213969C938E93F6
S11305E012971596FC93EE9314976E01EFE6CE1ACC
S11305F0EEEFDE0A82599140F601918380831382E3
S113060012820E521F4FF80171836083138212828B
S11306105E01F7E7AF1AFEEFBF0A84529F4FF50160
S11306209183808313830283EE54F109B182A08203
S1130630D382C282B583A4835E011BE7A11A1EEF95
S1130640B10AD50111965C934E9313961C921E9297
S113065012976E01BFE7CB1ABEEFDB0AD6011196E3
S11306607C936E9313961C921E92129762517F4F45
S1130670DB0111967C926E921396DC92CE921297C5
S11306806E01BBECCB1ABEEFDB0AD60111967C934C
S11306906E931396BC92AE9212971596FC93EE93BA
S11306A0149764507109FB015183408313821282B1
S11306B0A05CBF4F11963C932E9313961C921E92EE
S11306C0129728503F4FF90191838083B383A2830B
S11306D0A654B10911963C932E9313967C936E9372
S11306E012971596DC92CE9214976C50710921E200
S11306F030E02C0F3D1FFB013183208313821282D3
S11307004E5C5E4FFA0191828082138212822C5BCE
S11307103E4FF90191838083538342838E5B9F4FC5
S1130720FC013183208373836283B583A483D296CF
S11307301196FC92EE9213961C921E9212974C50B4
S11307405109FA0191828082138212822C5031095C
S1130750F9017182608253834283F6973183208347
S1130760B383A28395838483F093F902E093F80220
S11307700ED534D579D5D1011A968D919C911B97BC
S1130780843DB8E09B0724F484ED98E031D709C098
S1130790853FEBE09E0724F084EF9BE029D701C05E
S11307A027D7CC53DE4F0FB6F894DEBF0FBECDBFB4
S11307B0DF91CF911F910F91FF90EF90DF90CF9039
S11307C0BF90AF909F908F907F906F905F904F906D
S11307D03F902F9008952F923F924F925F926F9285
S11307E07F928F929F92AF92BF92CF92DF92EF92BD
S11307F0FF920F931F93CF93DF93CDB7DEB7C4530C
S1130800D2400FB6F894DEBF0FBECDBF1C012B0142
S113081081E0633E710509F080E0882359F081E0AE
S11308204D32510509F080E0882321F08DEC9AE0E7
S1130830C4D630C489E0E5E7F1E0DE01AB5ABE4F2F
S113084001900D928A95E1F73E0131EE631A3EEF75
S1130850730A0F2EF4E3EF2EF12CF02D0CE010E0D0
S113086020E030E04FEF5FEF6EE771E0C301B9D5F0
S11308704E0147EF841A4EEF940A0F2EFFE5EF2E38
S1130880F12CF02D0CE310E02CE330E04EE150E0CD
S113089067E871E0C401A5D55E0163EFA60EB11C43
S11308A00F2EFFEAEF2EF12CF02D0DE710E02DE7CF
S11308B030E04BE450E06CE871E0C50192D56E0184
S11308C07DEDC70ED11C0F2EFBEFEF2EF12CF02D7A
S11308D00AEF10E02AEF30E046E950E061E971E008
S11308E0C6017FD5CF59DE4F79826882C156D14087
S11308F0D30155969C928E925497F401B58AA48A9A
S1130900D5015596DC92CE925497F601158A148A35
S113091055203CF4C15ADE4F19821882CF55D1407C
S113092013C0FBEF4F1651044CF08AEF90E0C15A0C
S1130930DE4F99838883CF55D14006C0C15ADE4F1C
S113094059824882CF55D14086E0E8E9F1E0DE01E2
S1130950AB5BBE4F01900D928A95E1F73E0127EC07
S1130960620E711C0F2EEE24EA94FAE0FF2EF02D95
S113097004EB1AE024EB3AE043EB5AE06EE971E051
S1130980C3012FD54E0131EB830E911C0F2EF4E1E0
S1130990EF2EFBE0FF2EF02D04E01BE024E03BE013
S11309A044EF5AE062EC71E0C4011BD55E014BE9EF
S11309B0A40EB11C0F2EFBE2EF2EFBE0FF2EF02D58
S11309C00BE11BE02BE13BE04BE05BE064EA71E010
S11309D0C50107D56E0165E8C60ED11C0F2EF1E4E2
S11309E0EF2EFBE0FF2EF02D01E31BE021E33BE0C3
S11309F041E25BE06DEA71E0C601F3D42E017FE6CB
S1130A00470E511C0F2EF5E5EF2EFBE0FF2EF02DC7
S1130A1004E51BE024E53BE046E35BE064EB71E0C6
S1130A20C201DFD4CF5ADE4F79826882C155D140EA
S1130A30D30155969C928E925497F401B58AA48A58
S1130A40D5015596DC92CE925497F601558A448A84
S1130A50D20155961C921E925497B4EB2B16BAE011
S1130A603B064CF484EB9AE0C15BDE4F99838883A8
S1130A70CF54D14014C0E5E52E16EBE03E064CF011
S1130A8084E59BE0C15BDE4F99838883CF54D140DA
S1130A9006C0C15BDE4F39822882CF54D1401E018B
S1130AA0FBEC2F1AFEEF3F0A80E797E7ADE6B0E0D4
S1130AB0F10180839183A283B3836E01F9E5CF0EA4
S1130AC0D11C0F2EEE24EA94FAE0FF2EF02D04EB55
S1130AD01AE024EB3AE043EB5AE069EB71E0C6011B
S1130AE080D42E0123E4420E511C0F2EF4E1EF2E8C
S1130AF0FBE0FF2EF02D04E01BE024E03BE044EF9C
S1130B005AE061EC71E0C2016CD43E013DE2630E37
S1130B10711C0F2EFBE2EF2EFBE0FF2EF02D0BE1FC
S1130B201BE02BE13BE04BE05BE066EC71E0C301D2
S1130B3058D44E0147E1840E911C0F2EF1E4EF2EA0
S1130B40FBE0FF2EF02D01E31BE021E33BE041E25B
S1130B505BE06DEC71E0C40144D40F2EF5E5EF2E9B
S1130B60FBE0FF2EF02D04E51BE024E53BE046E32B
S1130B705BE065ED71E0CE0101965C0132D4D101F8
S1130B801D96DC92CE921C97F601558A448AD201B6
S1130B9055967C926E92549723969FAE8EAE239771
S1130BA0BCA6ABA61E8A1D8AAE5EBE4FB093F702EA
S1130BB0A093F602E451FF4F1F96FC93EE931E9709
S1130BC0178616863092F5022092F402F1011786F8
S1130BD01686AE0149555E4F5093F9024093F802D0
S1130BE09E012F553E4FDA0115963C932E93149790
S1130BF0CE0185569E4FF901958384835297FC015B
S1130C00B583A4830F2EFFE88F2E99249394F02D9F
S1130C108C0E9D1E15969C928E9214974E0167E73A
S1130C20861A6EEF960ACD56DE4F99828882C35992
S1130C30D1403E017DE7671A7EEF770AF4017582A1
S1130C4064820F2EFDE7EF2EFF24F394F02DEC0EBB
S1130C50FD1EF301F582E4828E0109581E4FCF5721
S1130C60DE4F19830883C158D1407E016FE8E61A2C
S1130C706EEFF60AF801F582E4826BE671E06C0F20
S1130C807D1FF70175836483E5E6F1E0EC0FFD1F3A
S1130C90C159DE4FF983E883CF56D140C759DE4F9F
S1130CA019821882C956D1405E01FFECAF1AFDEFDC
S1130CB0BF0AFA01B182A082F501138212826E5337
S1130CC07F4FFA0173836283FB01138212824E57B2
S1130CD05109F50151834083FAE0CF0ED11CFB0189
S1130CE0D182C0826E01F7EDCF1AFDEFDF0AF90160
S1130CF0D182C08268507109F60173836283FB015B
S1130D001382128248505F4FF90153834283FA01E0
S1130D10138212822BEB30E02C0F3D1FF60131833E
S1130D202083285A3F4FFB0131832083FAE04F0E82
S1130D30511CFA01518240826E01F3EECF1AFDEF8D
S1130D40DF0AFC01D182C0826C507109F601738301
S1130D506283FB01138212824C505109FC015383BC
S1130D604283FA01138212828FE890E08C0F9D1F58
S1130D70F60191838083FB01318320838855910997
S1130D80FA01918380836E01FFEECF1AFDEFDF0A33
S1130D901196DC92CE926C507109F60173836283D2
S1130DA0FB01138212824C50510913965C934E93AB
S1130DB01297DA0113961C921E921297A9E7B0E0DB
S1130DC0AC0FBD1FF601B183A083FB0131832083E7
S1130DD0DA018D939C936E01BBEFCB1ABDEFDB0A56
S1130DE0C157DE4FD982C882CF58D1406C507109A7
S1130DF0F60173836283DB0113961C921E92129791
S1130E004C505109CF56DE4F59834883C159D140C4
S1130E10FA0113821282E1EDF0E0EC0FFD1FD6011E
S1130E20ED93FC93DB012D933C93FA0151824082B4
S1130E306E01F7E0CF1AFEEFDF0AD401CD92DC9207
S1130E406C507109F60173836283DB0113961C9263
S1130E501E9212974C505109F40153834283DA01D4
S1130E6013961C921E9212975E01B5EAAB0EB11C4A
S1130E70F601B182A082DB012D933C93FA015182E9
S1130E80408226523F4FD3012D933C936C507109FD
S1130E90F90173836283DB0113961C921E921297ED
S1130EA04C505109F30153834283DA0113961C9287
S1130EB01E9212970F2EFBEB8F2E912CF02D8C0E81
S1130EC09D1EF90191828082205F3109DB012D93FF
S1130ED03C93FA01918380836E01FFE1CF1AFEEF08
S1130EE0DF0AC358DE4FD982C882CD57D14048505B
S1130EF05109D60113965C934E931297FA0113820B
S1130F00128260517109C158DE4F79836883CF57CB
S1130F10D140DB0113961C921E9212970F2EFFE80C
S1130F208F2E912CF02D8C0E9D1EF60191828082C5
S1130F30DA012D933C934C5B5140FB015183408378
S1130F404E01FBE28F1AFEEF9F0AD8018D929C920C
S1130F506E01BFE2CB1ABEEFDB0AF401D382C28278
S1130F60D60113961C921E9212976C507109F801C7
S1130F7073836283DB0113961C921E921297A9E776
S1130F80B0E0AC0FBD1FF401B183A083F60131833F
S1130F902083DB014D935C930E5A1F4FF70111839D
S1130FA0008368507109D80113967C936E9312974D
S1130FB0FB01138212821897F701B383A28313965D
S1130FC01C921E9212970F2EF1ED8F2E912CF02D64
S1130FD08C0E9D1EF80191828082FB013183208357
S1130FE011969C938E938A579E4FC559DE4F9983D1
S1130FF08883CB56D1401897FC01B383A283139600
S11310001C921E92129760517109C359DE4F798365
S11310106883CD56D140FB0113821282FC01B18258
S1131020A0822D933C93DB0111965C934E9314970D
S1131030CB59DE4FB983A883C556D14013961C9271
S11310401E9212977097C959DE4FF983E883C756E9
S1131050D14013821282865D91098D939C938C5D9D
S113106091099183808393D0B9D0FED0F101828518
S113107093858A30FBE09F0724F089E09BE09DD2B2
S113108009C08E3B2AE0920724F48EEB9AE095D2B5
S113109001C093D2CC5CDD4F0FB6F894DEBF0FBE17
S11310A0CDBFDF91CF911F910F91FF90EF90DF9013
S11310B0CF90BF90AF909F908F907F906F905F90F4
S11310C04F903F902F900895FC01848595859B0156
S11310D0281B390B86859785861B970B12161306DA
S11310E0F4F418161906F4F460897189A289B38995
S11310F08A9FA0018B9F500D9A9F500D1124269F0B
S1131100C001279F900D369F900D11244817590751
S11311100CF4CA018F3F910509F03CF408C080E04B
S113112090E005C080E090E002C080E091E0938709
S1131130828708950F931F93CF93DF93FC01C68595
S1131140D78584859585C81BD90B2285338560890D
S11311507189C901E0D58E01061B170B6289738959
S1131160C901D9D5061B170BC00FD11F2C9FC00175
S11311702D9F900D3C9F900D112499230CF4019602
S113118095958795DF91CF911F910F9108950F93B6
S11311901F93CF93DF930091F6021091F70201158C
S11311A01105B9F0F801C485D585209761F0209721
S11311B029F0F80162857385CE0186DF0C88DD890C
S11311C0C02D2097A1F7F801068517850115110593
S11311D049F7DF91CF911F910F9108950F931F93BA
S11311E0CF93DF93C091F802D091F9022097B9F11F
S11311F000E011E0E881F981309781F0202F312F50
S1131200A081B1818D919C91821793070CF49C016C
S11312100280F381E02D309799F702C0202F312FFF
S1131220EA81FB813097B1F0722F632FA081B181E5
S11312308D919C911197572F462F2817390714F435
S1131240582F492F5C9311964C930280F381E02D23
S1131250309761F70C80DD81C02D209759F6DF911E
S1131260CF911F910F9108952F923F924F925F92C9
S11312706F927F928F929F92AF92BF92CF92DF92A2
S1131280EF92FF920F931F93CF93DF9300D000D080
S113129000D0CDB7DEB78091F4029091F5029C8323
S11312A08B83892B09F484C0EB81FC810484F5854C
S11312B0E02DFE83ED83EF2B09F466C0512C612CE5
S11312C0712C412C312C212C19821A828D819E8102
S11312D031DFBC01882777FD8095982F2DD46B01D1
S11312E07C01ED81FE8104851585B801882777FD91
S11312F08095982F21D44B015C01ED81FE81868578
S11313009785801B910BBC0112F46F5F7F4F75951D
S11313106795882777FD8095982F0ED4A5019401B1
S11313200CD39B01AC01C701B60192D49B01AC0163
S1131330632D722D89819A8100D3362E272E8983BD
S11313409A83A7019601652D762D872D942DF5D2CC
S1131350562E672E782E492EED81FE810488F5895C
S1131360E02DFE83ED83EF2B09F0B0CF262F372F2E
S1131370482F592F632D722D89819A8142D3262FAC
S1131380372F482F592F04C020E030E040E050E0D0
S1131390622F732F842F952F9CD3EB81FC8173874D
S11313A06287868597859C838B83892B09F07CCF04
S11313B026960FB6F894DEBF0FBECDBFDF91CF9156
S11313C01F910F91FF90EF90DF90CF90BF90AF905F
S11313D09F908F907F906F905F904F903F902F9051
S11313E00895AF92BF92CF92DF92EF92FF920F9344
S11313F01F93CF93DF93EC016A015901B3D41B8689
S11314001A86DD86CC86FF86EE86B5016C197D09C9
S113141020E031E0C9017FD4798B688BB701601B70
S1131420710BC90178D47B8B6A8BDF91CF911F91AB
S11314300F91FF90EF90DF90CF90BF90AF90089501
S11314401F920F920FB60F9211240BB60F928F9327
S11314509F93EF93FF938091CE008F3F29F41092D6
S11314601B0310921A0310C0E0911A03F0911B039E
S1131470E650FD4F808380911A0390911B030196DF
S113148090931B0380931A03FF91EF919F918F9187
S11314900F900BBE0F900FBE0F901F9018957ED02B
S11314A02ED18DEC9AE089D084E69AE0A1C008950B
S11314B0ECECF0E01182108220E92093C9002EE0C8
S11314C02093CA00918380830895FC01A9ECB0E0C5
S11314D08C918F778C938091FE0280838091FF02A0
S11314E081838091FC0284838091FA0282838091BB
S11314F0FB0283838091FD02858310921B0310926B
S11315001A038C9180688C930895CF93DF93CDB7A1
S1131510DEB72B970FB6F894DEBF0FBECDBFBFDF8B
S11315202FEF8FEF90EE215080409040E1F700C004
S11315300000789487E090E0BBDF0F2EF8E8EF2EF0
S1131540F12CF02D0F2EFAE8AF2EB12CF02D809156
S11315501A0390911B030697D4F3BE016F5F7F4F6C
S1131560CE010B960CD1CE010196AFDF6B8170E0FA
S1131570C980D12C0A8110E0F894F701808191810F
S1131580A80129D9B801C6010E9466007894F70120
S113159080819181F50180819181D9CF80E38AB9DD
S11315A082EA809380008FEF9FE890938700809376
S11315B086008AE180938100089580362AE09207AC
S11315C03CF48FE59AE09093890080938800089515
S11315D08B332BE092073CF08BE39BE090938900E4
S11315E080938800089590938900809388000895DB
S11315F0873E27E092073CF486EE97E090938B00B9
S113160080938A0008958F332CE092073CF08FE397
S11316109CE090938B0080938A00089590938B00B4
S113162080938A0008951F920F920FB60F9211248F
S11316300BB60F922F933F938F939F93AF93BF93C8
S1131640EF93FF9310982EB52D3FA9F0E4E6F2E056
S113165080819181DC01AE5DBD4F2C930196918315
S11316608083E6E6F2E08081918101969183808314
S113167081E08093DA018091640290916502803464
S1131680910521F410926502109264028091200267
S113169090912102892B01F1E0911C02F0911D022D
S11316A0E452FE4F80818EBDECE1F2E080819181B5
S11316B0019691838083E0E2F2E020813181215020
S11316C0310931832083109A8034910549F41092B2
S11316D01D0210921C0204C08DEF8EBD1092DB011E
S11316E0FF91EF91BF91AF919F918F913F912F9176
S11316F00F900BBE0F900FBE0F901F90189580E4B3
S113170084B980EC8CBD089A10988DEF8EBD089535
S1131710F894209166023091670221153105A9F0F1
S1131720E2E6F2E040815181DA01AE5DBD4F8C9179
S11317304F5F5F4F518340832150310930936702DB
S113174020936602232B21F401C08EEF1092DA015C
S113175020916202309163022034310521F4109209
S11317606302109262027894089581E020916602E7
S1131770309167022530310508F480E008950F9315
S11317801F93CF93DF938C01EB012091660230917C
S11317906702232BF9F0E0916202F0916302EE5D9F
S11317A0FD4F80818F3F71F4E0DF8823A1F0B0DF2B
S11317B0AFDF8A83ADDF8B83ABDF8C83A9DF8D83BF
S11317C081E009C0D2DF882331F0A2DFBE01C80165
S11317D0D6DF01C080E0DF91CF911F910F91089572
S11317E01F920F920FB60F9211240BB60F922F93E4
S11317F03F934F938F939F93AF93BF93EF93FF9335
S11318008091F2029091F3028034910531F481E0E9
S1131810809320038091C60016C080349105E8F4BB
S1131820E0EFF2E0208131814091C600D901A25558
S1131830BD4F4C932F5F3F4F31832083019690938C
S1131840F3028093F2028091F2029091F3028034C9
S1131850910519F481E080931E038091F002909128
S1131860F1028034910521F41092F1021092F002F9
S113187081E080931D03FF91EF91BF91AF919F9100
S11318808F914F913F912F910F900BBE0F900FBEF0
S11318900F901F9018951F920F920FB60F9211245C
S11318A00BB60F928F939F93EF93FF938091AC02AB
S11318B09091AD028034910519F410921C0302C07A
S11318C0892BB9F0E091A802F091A902E859FD4FE3
S11318D080818093C600E8EAF2E0808191810196DC
S11318E091838083ECEAF2E0808191810197918376
S11318F080838091A8029091A9028034910521F4FB
S11319001092A9021092A8028091AC029091AD02AB
S1131910892B39F410921F03E1ECF0E080818F7B76
S11319208083FF91EF919F918F910F900BBE0F9049
S11319300FBE0F901F9018955058BB27AA270ED0A2
S11319404DC13ED130F043D120F031F49F3F11F42A
S11319501EF433C10EF4E095E7FB29C1E92F4FD102
S113196080F3BA17620773078407950718F071F4B8
S11319709EF567C10EF4E0950B2EBA2FA02D0B0136
S1131980B90190010C01CA01A0011124FF27591BC0
S113199099F0593F50F4503E68F11A16F040A22FC6
S11319A0232F342F4427585FF3CF46953795279537
S11319B0A795F0405395C9F77EF41F16BA0B620B36
S11319C0730B840BBAF09150A1F0FF0FBB1F661F7D
S11319D0771F881FC2F70EC0BA0F621F731F841FC0
S11319E048F4879577956795B795F7959E3F08F0E6
S11319F0B3CF9395880F08F09927EE0F97958795A5
S1131A0008950CD0EBC0E3D040F0DAD030F021F4EC
S1131A105F3F19F0CCC0511115C1CFC0F0D098F37D
S1131A209923C9F35523B1F3951B550BBB27AA275B
S1131A3062177307840738F09F5F5F4F220F331FCD
S1131A40441FAA1FA9F333D00E2E3AF0E0E830D099
S1131A5091505040E695001CCAF729D0FE2F27D09C
S1131A60660F771F881FBB1F261737074807AB076A
S1131A70B0E809F0BB0B802DBF01FF2793585F4FDF
S1131A802AF09E3F510568F092C0DCC05F3FECF342
S1131A90983EDCF3869577956795B795F7959F5FA4
S1131AA0C9F7880F911D9695879597F90895E1E0F8
S1131AB0660F771F881FBB1F621773078407BA0757
S1131AC020F0621B730B840BBA0BEE1F88F7E095B2
S1131AD0089504D06894B111B5C0089598D088F0E1
S1131AE09F5790F0B92F9927B751A0F0D1F0660F06
S1131AF0771F881F991F1AF0BA95C9F712C0B13021
S1131B0081F09FD0B1E008959CC0672F782F88277B
S1131B10B85F39F0B93FCCF3869577956795B3955F
S1131B20D9F73EF490958095709561957F4F8F4FCE
S1131B309F4F0895E89409C097FB3EF490958095D3
S1131B40709561957F4F8F4F9F4F9923A9F0F92F7F
S1131B5096E9BB279395F695879577956795B795FD
S1131B60F111F8CFFAF4BB0F11F460FF1BC06F5FE3
S1131B707F4F8F4F9F4F16C0882311F096E911C0F5
S1131B80772321F09EE8872F762F05C0662371F016
S1131B9096E8862F70E060E02AF09A95660F771F2A
S1131BA0881FDAF7880F9695879597F9089597F91E
S1131BB09F6780E870E060E008959FEF80EC0895EF
S1131BC000240A9416161706180609060895002418
S1131BD00A9412161306140605060895092E039492
S1131BE0000C11F4882352F0BB0F40F4BF2B11F406
S1131BF060FF04C06F5F7F4F8F4F9F4F089557FD65
S1131C009058440F551F59F05F3F71F04795880F66
S1131C1097FB991F61F09F3F79F0879508951216FD
S1131C2013061406551FF2CF4695F1DF08C01616A9
S1131C3017061806991FF1CF86957105610508945A
S1131C400895E894BB2766277727CB0197F9089571
S1131C500BD0C4CFB5DF28F0BADF18F0952309F014
S1131C60A6CFABCF1124EECFCADFA0F3959FD1F35B
S1131C70950F50E0551F629FF001729FBB27F00D36
S1131C80B11D639FAA27F00DB11DAA1F649F66278B
S1131C90B00DA11D661F829F2227B00DA11D621FDA
S1131CA0739FB00DA11D621F839FA00D611D221F94
S1131CB0749F3327A00D611D231F849F600D211D78
S1131CC0822F762F6A2F11249F5750408AF0E1F01B
S1131CD088234AF0EE0FFF1FBB1F661F771F881F64
S1131CE091505040A9F79E3F510570F060CFAACFA4
S1131CF05F3FECF3983EDCF3869577956795B7954F
S1131D00F795E7959F5FC1F7FE2B880F911D969578
S1131D10879597F9089597FB072E16F4009406D03B
S1131D2077FD08D00BD007FC05D03EF49095819543
S1131D309F4F0895709561957F4F0895AA1BBB1B13
S1131D4051E107C0AA1FBB1FA617B70710F0A61BB7
S1131D50B70B881F991F5A95A9F780959095BC01D8
S1131D60CD010895FB01DC0101900D920020E1F703
S1091D700895F894FFCF72
S1131D7664656C74615F4300696E4E65676174697E
S1131D86766500696E5A65726F00696E506F736985
S1131D96746976650064656C74615F5600696E4D9E
S1131DA6696E757300696E4E796C6C00696E506C61
S1131DB67573007374656572696E67007368617222
S1131DC67052696768740072696768740073747224
S1131DD66169676874006C65667400736861727023
S1131DE64C6566740064697374616E63650073742C
S1131DF66F7044697374006F6E654D0074776F4D30
S1131E060074687265654D0073706565640073746B
S1131E16696C6C006372756973696E67006D6564DD
S1131E2669756D0068696768006E6F5370656564EF
S1131E3600736C6F7700637275697365006D656412
S10D1E4648696768006D61780000C8
S9030000FC
