:1000000045C0000060C000005EC000005CC0000091
:100010005AC0000058C0000056C0000054C0000084
:1000200052C0000050C000004EC000004CC0000094
:100030004AC0000048C0000046C0000044C00000A4
:1000400042C0000040C0000085C000003CC000006D
:100050000EC1000038C0000065C1000034C00000BF
:1000600032C0000030C000002EC000002CC00000D4
:100070002BC0000028C0000026C0000024C00000E3
:1000800022C0000020C000001EC0000011241FBEBE
:10009000CFEFD0E4DEBFCDBF11E0A0E0B1E0EAECED
:1000A000F3E000E00BBF02C007900D92A030B10753
:1000B000D9F721E0A0E0B1E001C01D92AF3BB2074B
:1000C000E1F76FD080C19CCF1F920F920FB60F92B5
:1000D00011240BB60F928F939F93EF93FF93809110
:1000E000CE008F3F29F41092B0011092AF0110C0E2
:1000F000E091AF01F091B001E157FE4F8083809114
:10010000AF019091B00101969093B0018093AF013F
:10011000FF91EF919F918F910F900BBE0F900FBEAB
:100120000F901F90189580E484B980EC8CBD0895E1
:100130003DD0F9DF8DEC9AE048D084E69AE060D0BB
:100140002FEF8FEF90EE215080409040E1F700C0FC
:10015000000008951F920F920FB60F9211242F9353
:100160008F939F9380910001909101018B3926E933
:10017000920730F40196909301018093000109C029
:10018000809102018160809302011092010110921E
:1001900000019F918F912F910F900FBE0F901F9094
:1001A0001895C6DF48D080E090E0089580E38AB9D2
:1001B00082EA809380008FEF9FE89093870080937E
:1001C00086008AE180938100089580362AE09207B4
:1001D0003CF48FE59AE0909389008093880008951D
:1001E0008B332BE092073CF08BE39BE090938900EC
:1001F00080938800089590938900809388000895E3
:10020000873E27E092073CF486EE97E090938B00C0
:1002100080938A0008958F332CE092073CF08FE39F
:100220009CE090938B0080938A00089590938B00BC
:1002300080938A00089584E69AE0E2DF2FEF8FEF43
:1002400099E5215080409040E1F700C0000087E22E
:100250009BE0BBDF2FEF8FEF96E82150804090406E
:10026000E1F700C000008DEC9AE0AFCF08951F9237
:100270000F920FB60F9211240BB60F922F933F934C
:100280004F938F939F93AF93BF93EF93FF9380917F
:100290008D0190918E018034910531F481E080933D
:1002A000BD018091C60016C080349105E8F4EBE8EA
:1002B000F1E0208131814091C600D901A75BBE4F9A
:1002C0004C932F5F3F4F31832083019690938E0193
:1002D00080938D0180918D0190918E0180349105E4
:1002E00019F481E08093BB0180918B0190918C0186
:1002F0008034910521F410928C0110928B0181E0E1
:100300008093BA01FF91EF91BF91AF919F918F912F
:100310004F913F912F910F900BBE0F900FBE0F90FA
:100320001F9018951F920F920FB60F9211240BB6C3
:100330000F928F939F93EF93FF938091470190913A
:1003400048018034910519F41092B90102C0892B3B
:10035000B9F0E0914301F0914401ED5FFE4F8081DF
:100360008093C600E3E4F1E080819181019691835E
:100370008083E7E4F1E0808191810197918380831C
:1003800080914301909144018034910521F41092B1
:100390004401109243018091470190914801892BBB
:1003A00039F41092BC01E1ECF0E080818F7B808316
:1003B000FF91EF919F918F910F900BBE0F900FBE09
:0A03C0000F901F901895F894FFCFDE
:00000001FF
