S01700004B616E646964617470726F6A656B742E73726563EE
S113000045C0000062C0000060C000005EC0000087
S11300105CC000005AC0000058C0000056C0000078
S113002054C0000052C0000050C000004EC0000088
S11300304CC000004AC0000048C0000046C0000098
S113004044C0000042C0000040C000000C94660E92
S11300500C947B0F3AC000000C94D60F36C00000FD
S113006034C0000032C0000030C000002EC00000C8
S11300700C946C082AC0000028C0000026C00000B0
S113008024C0000022C0000020C0000011241FBEB4
S1130090CFEFD0E4DEBFCDBF12E0A0E0B1E0EAECE8
S11300A0F4E200E00BBF02C007900D92A431B10747
S11300B0D9F723E0A4E1B2E001C01D92A036B20753
S11300C0E1F70E94BB080C9463129ACF813091052A
S11300D041F4109295001092940085E08093910071
S11300E00895892B11F41092910008950F931F9392
S11300F0E0919400F0919500DC0120E030E041EEC5
S113010050E00E9429128B019C01992324F4015090
S11301101C4F2F4F3F4FD901C801072E7AE0B595E8
S1130120A795979587957A95D1F7702D019721E03A
S113013030E0E817F90710F420E030E0C9011F911E
S11301400F9108952F923F924F925F926F927F92F8
S11301508F929F92AF92BF92CF92DF92EF92FF92D3
S11301600F931F93CF93DF93CDB7DEB7C453D24021
S11301700FB6F894DEBF0FBECDBF29E0E4E0F1E096
S1130180DE01119601900D922A95E1F726E0EDE04B
S1130190F1E0DE01519601900D922A95E1F7843B3E
S11301A02AE092072CF484EB9AE09C8F8B8F0BC08F
S11301B085354BE094072CF084E59BE09C8F8B8F76
S11301C002C09C8F8B8F77231CF41C861B860AC06D
S11301D06B3F71052CF08AEF90E09C878B8702C0FF
S11301E07C876B876E0151E2C50ED11C0F2EF4E1A2
S11301F0EF2EF12CF02D0CE010E020E030E04FEF7A
S11302005FEF63E171E0C6019DD53E0167E3660ED1
S1130210711C0F2EFFE5EF2EF12CF02D0CE310E0F6
S11302202CE330E042E150E06CE171E0C3018AD597
S11302300F2EFFEAEF2EF12CF02D0DE710E02DE745
S113024030E04BE450E061E271E0CE01835B9F4F0C
S113025079D50F2EFBEFEF2EF12CF02D0AEF10E0E5
S11302602AEF30E046E950E066E271E0CE018D59B4
S11302709F4F68D5DE86CD867EAA6DAA8DE490E078
S11302808C0F9D1F2D969FAF8EAF2D97A3E6B0E0E8
S1130290AC0FBD1FA396BFAFAEAFA397E9961FAE39
S11302A01EAEE9970F2EEE24EA94FAE0FF2EF02D0D
S11302B004EB1AE024EB3AE043EB5AE06DE271E020
S11302C08C9640D55E01BFE8AB0EB11C0F2EF3E156
S11302D0EF2EFBE0FF2EF02D0EE01BE02EE03BE0C6
S11302E049E05BE061E571E0C5012CD50F2EF8E132
S11302F0EF2EFBE0FF2EF02D03E11BE023E13BE0BA
S11303004EE05BE063E371E0CE018B559F4F1AD55D
S11303102E01EBEB4E0E511C0F2EF2E2EF2EFBE002
S1130320FF2EF02D08E11BE028E13BE04EE05BE00E
S11303306CE371E0C20106D50F2EF7E2EF2EFBE06D
S1130340FF2EF02D01E81FE62DE13BE043E15BE0E9
S113035063E471E0CE018F529F4FF4D449E750E03B
S11303604C0F5D1F5E8F4D8FC357DF4FB982A8823C
S1130370CD58D040E5EAF0E0EC0FFD1FD5015596CD
S1130380FC93EE935497C754DF4F59824882C95B5C
S1130390D040E1EDF0E0EC0FFD1FD2015596FC9347
S11303A0EE935497CB51DF4F19821882C55ED0402B
S11303B080E797E7ADE6B0E0C951DF4F88839983C2
S11303C0AA83BB83C75ED0404E01F7EF8F0E911C0A
S11303D00F2EEE24EA94FAE0FF2EF02D04EB1AE03F
S11303E024EB3AE043EB5AE068E471E0C401AAD498
S11303F06E0123EFC21A2EEFD20A0F2EF3E1EF2E75
S1130400FBE0FF2EF02D0EE01BE02EE03BE049E088
S11304105BE060E571E0C60195D41E014DED241A40
S11304204EEF340A0F2EF8E1EF2EFBE0FF2EF02DF5
S113043003E11BE023E13BE04EE05BE065E571E0B6
S1130440C10180D40F2EF2E2EF2EFBE0FF2EF02D3F
S113045008E11BE028E13BE04EE05BE06CE571E085
S1130460CE01875C9E4F6ED40F2EF7E2EF2EFBE099
S1130470FF2EF02D01E81FE62DE13BE043E15BE0B8
S113048064E671E0CE01815B9E4F5CD4CD50DF4FBA
S113049099828882C35FD040D4015596DC92CE9273
S11304A05497F601358A248AE9E3F1E0EC0FFD1F45
S11304B0D1015596FC93EE9354974FE451E04C0FC1
S11304C05D1FC35BDE4F59834883CD54D140CD5962
S11304D0DE4F19821882C356D140CE010196909303
S11304E03703809336034096988B8F8718A21F8E0C
S11304F087EE90E08C0F9D1F909335038093340317
S1130500CB50DF4F19821882C55FD0409E012B5912
S11305103E4F30933903209338038C579F4FD901B2
S113052015969C938E9314971C96FC01B583A48313
S113053047E751E04C0F5D1F15965C934E9314975B
S11305408E0103581E4FC558DE4F19830883CB57BD
S1130550D1407E015DE7E51A5EEFF50AF801F58208
S1130560E48249E851E04C0F5D1FF7015583448351
S1130570EFE8F1E0EC0FFD1FC357DE4FF983E8838A
S1130580CD58D14045E951E04C0F5D1FCD56DE4FAB
S113059059834883C359D140EBE9F1E0EC0FFD1FC7
S11305A0C756DE4FF983E883C959D14041EA51E087
S11305B04C0F5D1FC156DE4F59834883CF59D1403C
S11305C0E7EAF1E0EC0FFD1FCB55DE4FF983E8833A
S11305D0C55AD140C555DE4F19821882CB5AD14035
S11305E0BE0163557E4FF90171836083FB01138261
S11305F01282405F5F4FF90153834283FA011382F1
S113060012822A533140FB0131832083FAE08F0E9A
S1130610911CFA0191828082685F7F4FFC01718393
S11306206083485F5F4FFB0153834283FA01138267
S113063012822E563E4FFC0133832283F90113822A
S11306401282FAE0AF0EB11CFB01B182A082FAE083
S11306506F0E711CFA0171826082FAE0CF0ED11C18
S1130660F901D182C082485F5F4F11965C934E932B
S1130670285F3F4FFA0133832283F90113821282E8
S1130680825A9F4F13969C938E931297DC01139674
S11306901C921E921297BAE04B0E511CFA01518221
S11306A04082D9016D927C92BAE02B0E311CFC0180
S11306B031822082285F3F4FC958DE4F3983288317
S11306C0C757D1400896D90113969C938E931297DD
S11306D0FC01138212821896C758DE4FB983A8838F
S11306E0C957D14013961C921E92129741ED50E0C7
S11306F04C0F5D1F465F5F4FF90151834083FC013E
S1130700718260822D923C920896D8018D939C93BD
S1130710685D7F4FFC0173836283DB0113961C9237
S11307201E9212973896D8011396FC93EE93129763
S11307301382128229E730E02C0F3D1F265F3F4FC2
S1130740DC012D933C93DB016D927C92D182C082BB
S11307500C96F7019183808304591F4FDC01139693
S11307601C930E931297F801138212823496D701C8
S11307701396FC93EE9312971382128265EA70E04B
S11307806C0F7D1F665F7F4FDC016D937C93D801F6
S11307906D927C92D182C0820C96C757DE4F9983AA
S11307A08883C958D140045F1F4FFC01138302831F
S11307B0D80113961C921E9212973896C557DE4F95
S11307C0F983E883CB58D14013821282DC01AD92C5
S11307D0BC928DE490E08C0F9D1F0A96D8018D93F6
S11307E09C9331822082085F1F4FC157DE4F1983CB
S11307F00883CF58D1407E01BFEFEB1ABDEFFB0A4F
S1130800F801F382E282D70113961C921E9212978A
S11308101496CF56DE4FB983A883C159D14013969D
S11308201C921E92129751824082F7019183808319
S11308300F2EF9E3CF2EDD24D394F02DCC0EDD1E44
S1130840FAE0CF0ED11CCD92DC927E01A7EFEA1A1A
S1130850ADEFFA0ACB56DE4FF982E882C559D14092
S1130860005F1F4FF70113830283D80113961C9274
S11308701E9212971496C956DE4FB983A883C7599E
S1130880D14013961C921E92129751834083F80113
S113089091838083CD92DC92085F1F4FC556DE4F53
S11308A019830883CB59D140425C5E4FD80113961B
S11308B05C934E931297FA01138212821896C356D0
S11308C0DE4FB983A883CD59D14013961C921E9252
S11308D01297F80131832083FA01918380832D924A
S11308E03C92485F5F4FCF55DE4F59834883C15ACE
S11308F0D1402E553E4FDA0113963C932E93129716
S1130900F901138212821896CD55DE4FB983A8835C
S1130910C35AD14013961C921E921297FA01718306
S11309206083F901918380831196DC92CE921496B0
S1130930C955DE4FB983A883C75AD14013961C9278
S11309401E9212973C96C755DE4FF983E883C95A25
S1130950D1401382128283E690E08C0F9D1F0A9689
S11309608D939C938FE491E08C0F9D1F0A96918345
S11309708083B5D0DBD020D1CF50DF4F88819981DF
S1130980C15FD0408E31FBE09F074CF08091140290
S113099090911502835E944F0E94E60D11C08E3B28
S11309A02AE092072CF48EEB9AE00E94E60D08C030
S11309B02091140230911502820F931F0E94E60DBC
S11309C0CC5CDD4F0FB6F894DEBF0FBECDBFDF9118
S11309D0CF911F910F91FF90EF90DF90CF90BF9038
S11309E0AF909F908F907F906F905F904F903F90CB
S11309F02F9008954135510539F42BEF3FEF309393
S1130A0015022093140204C01092150210921402CD
S1130A1099CB0895FC01848595859B01281B390B8E
S1130A2086859785861B970B12161306F4F4181601
S1130A301906F4F460897189A289B3898A9FA00197
S1130A408B9F500D9A9F500D1124269FC001279F04
S1130A50900D369F900D1124481759070CF4CA01C4
S1130A608F3F910509F03CF408C080E090E005C098
S1130A7080E090E002C080E091E09387828708954F
S1130A800F931F93CF93DF93FC01C685D78584858D
S1130A909585C81BD90B2285338560897189C90165
S1130AA00E9416128E01061B170B62897389C901F5
S1130AB00E941612061B170BC00FD11F2C9FC001DA
S1130AC02D9F900D3C9F900D112499230CF40196B9
S1130AD095958795DF91CF911F910F9108950F936D
S1130AE01F93CF93DF9300913603109137030115C1
S1130AF01105B9F0F801C485D585209761F02097D8
S1130B0029F0F80162857385CE0184DF0C88DD89C4
S1130B10C02D2097A1F7F801068517850115110549
S1130B2049F7DF91CF911F910F9108950F931F9370
S1130B30CF93DF93C0913803D09139032097B9F153
S1130B4000E011E0E881F981309781F0202F312F06
S1130B50A081B1818D919C91821793070CF49C0123
S1130B600280F381E02D309799F702C0202F312FB6
S1130B70EA81FB813097B1F0722F632FA081B1819C
S1130B808D919C911197572F462F2817390714F4EC
S1130B90582F492F5C9311964C930280F381E02DDA
S1130BA0309761F70C80DD81C02D209759F6DF91D5
S1130BB0CF911F910F9108952F923F924F925F9280
S1130BC06F927F928F929F92AF92BF92CF92DF9259
S1130BD0EF92FF920F931F93CF93DF9300D000D037
S1130BE000D0CDB7DEB780913403909135039C8358
S1130BF08B83892B09F48DC0EB81FC810484F585FA
S1130C00E02DFE83ED83EF2B09F46EC0512C612C93
S1130C10712C412C312C212C19821A828D819E81B8
S1130C202FDFBC01882777FD8095982F0E9427111C
S1130C306B017C01ED81FE8104851585B80188274F
S1130C4077FD8095982F0E9427114B015C01ED815F
S1130C50FE8186859785801B910BBC0112F46F5F22
S1130C607F4F75956795882777FD8095982F0E940B
S1130C702711A50194010E9428109B01AC01C70112
S1130C80B6010E94B3119B01AC01632D722D8981C1
S1130C909A810E942810362E272E89839A83A701D1
S1130CA09601652D762D872D942D0E942810562EA1
S1130CB0672E782E492EED81FE810488F589E02D7A
S1130CC0FE83ED83EF2B09F0A9CF262F372F482F72
S1130CD0592F632D722D89819A810E948C10262FA1
S1130CE0372F482F592F04C020E030E040E050E077
S1130CF0622F732F842F952F0E94F410EB81FC81B7
S1130D0073876287868597859C838B83892B09F0FB
S1130D1073CF26960FB6F894DEBF0FBECDBFDF911A
S1130D20CF911F910F91FF90EF90DF90CF90BF90E4
S1130D30AF909F908F907F906F905F904F903F9077
S1130D402F900895AF92BF92CF92DF92EF92FF92CD
S1130D500F931F93CF93DF93EC016A0159010E9413
S1130D605C121B861A86DD86CC86FF86EE86B5016C
S1130D706C197D0920E031E0C9010E941612798BBB
S1130D80688BB701601B710BC9010E9416127B8B23
S1130D906A8BDF91CF911F910F91FF90EF90DF90BD
S1130DA0CF90BF90AF9008952F923F924F925F9251
S1130DB06F927F928F929F92AF92BF92CF92DF9267
S1130DC0EF92FF920F931F93CF93DF93CDB7DEB7CC
S1130DD0CE5CD1090FB6F894DEBF0FBECDBF85E05F
S1130DE0E8E6F1E09E012F5F3F4F1901D901019020
S1130DF00D928A95E1F75E0131E1A30EB11C0F2E2D
S1130E00FDE2EF2EF12CF02D00E010E020E030E0C8
S1130E104FEF5FEF6DE671E0C50194DF6E0187E28D
S1130E20C80ED11C0F2EFCE3EF2EF12CF02D0DE299
S1130E3010E02DE230E04EE150E063E771E0C601DE
S1130E4081DF2E01EDE34E0E511C0F2EFEE7EF2E37
S1130E50F12CF02D0DE710E02DE230E04DE250E0F2
S1130E606AE771E0C2016EDFBE86AD86DEA2CDA266
S1130E705CAE4BAE63961FAE1EAE63976E01F3E598
S1130E80CF0ED11C86E0EEE7F1E0D60101900D9281
S1130E908A95E1F75E0123E6A20EB11C0F2EF4E65B
S1130EA0EF2EFAE0FF2EF02D00E01AE020E03AE009
S1130EB04CE959E064E871E0C50144DF4E0139E7CB
S1130EC0830E911C0F2EE12CFAE0FF2EF02D00E68C
S1130ED019E020EC38E040EC58E06EE971E0C40120
S1130EE031DF3E018FE8680E711C0F2EF7EEEF2EF6
S1130EF0F7E0FF2EF02D06EE17E026EE37E045EE84
S1130F0057E063EA71E0C3011DDFF601B586A486EC
S1130F10F501958A848AF401758A648AF301158A35
S1130F20148A3092370320923603188A1F86D0928F
S1130F303503C0923403F60117861686CE018B550D
S1130F409F4F9093390380933803DE01A555BF4F1B
S1130F50FC01B583A483BE016F547F4F15967C9327
S1130F606E931497FB0115821482AE0149545F4FAE
S1130F70FC0151834083FA01138212829E0125549D
S1130F803F4FFC0133832283F901138212828A5872
S1130F909109FA0191838083FAE06F0E711CF901C3
S1130FA0718260822C5F3F4F11963C932E93F9011E
S1130FB01382128288559F4F13969C938E93129797
S1130FC0FC011382128246585109F901518340836E
S1130FD0FAE08F0E911CFC01918280820496FB0141
S1130FE091838083FC01138212829096FB01B38368
S1130FF0A28313961C921E921297FAE04F0E511C74
S1131000FC0151824082FAE0AF0EB11CAD92BC9259
S113101066DD8CDDD1DDF60182859385873EF7E0C0
S11310209F0724F086EE97E0ECD509C0843E2CE0BF
S1131030920724F484EE9CE0E4D501C0E2D5C253C7
S1131040DF4F0FB6F894DEBF0FBECDBFDF91CF9157
S11310501F910F91FF90EF90DF90CF90BF90AF90D2
S11310609F908F907F906F905F904F903F902F90C4
S11310700895EF92FF920F931F93CF93DF93EC01A8
S11310808A0179016237710521F484EE9CE0B9D5B7
S11310901CC06C367105C9F484EF91E027D8892B04
S11310A021F4B701C80162D510C080E090E00ED8E9
S11310B0CE01DD2324F4882799278C1B9D0B8E37C2
S11310C0910514F08DE790E06FDEDF91CF911F91D1
S11310D00F91FF90EF9008951F920F920FB60F9209
S11310E011240BB60F928F939F93EF93FF938091EC
S11310F0CE008F3F29F4109217021092160210C0EE
S1131100E0911602F0911702E65CFC4F8083809117
S1131110160290911702019690931702809316027B
S1131120FF91EF919F918F910F900BBE0F900FBE87
S11311300F901F9018953BD535D68DEC9AE090937F
S113114089008093880084E69AE090938B008093D2
S11311508A000895ECECF0E01182108220E92093DB
S1131160C9002EE02093CA00918380831092170255
S1131170109216020895CF93DF93CDB7DEB72B9765
S11311800FB6F894DEBF0FBECDBFD5DF2FEF8FEFC4
S113119090EE215080409040E1F700C0000087E0CD
S11311A090E0D8DF8FEF81B978940F2EF8E8CF2E36
S11311B0D12CF02D0F2EFAE8AF2EB12CF02D52D6F3
S11311C08823E9F31B85BE016F5F7F4FCE010B9629
S11311D053D68B85843071F4111114C01092190206
S11311E01092180281E090E00E9466008B858130A5
S11311F049F404C0813031F4113021F081E090E0F1
S11312000E9466006B81E980F12C0A8110E08885D8
S11312102A85F8949B8591110AC0F60180819181F9
S113122070E0A801E7DBB801C701A0D413C0943073
S113123039F48DEC9AE0CAD484E69AE0E2D40AC088
S1131240913041F4622F772767FD70959801A701CB
S113125090E00FDF7894F601E080F180F5010081E1
S1131260118180E0A8D58E2DA6D580E0A4D5802F4D
S1131270A2D5A5CF2F923F924F925F926F927F9209
S11312808F929F92AF92BF92CF92DF92EF92FF9292
S11312900F931F93CF93DF93CDB7DEB7CE55D240D4
S11312A00FB6F894DEBF0FBECDBFC35ADD4F99838E
S11312B08883CD55D2401B0188E0EDEAF1E0DE01E0
S11312C0119601900D928A95E1F73E0121E1620E9B
S11312D0711C0F2EFDE7EF2EF12CF02D0EE610E021
S11312E024E630E043E650E065EB71E0C3012ADD1B
S11312F04E0147E2840E911C0F2EF1E9EF2EF12CE2
S1131300F02D02E810E022E830E043E750E06EEB15
S113131071E0C40117DD2E015DE3450E511C0F2E53
S1131320F5EAEF2EF12CF02D06E910E026E930E085
S113133047E850E069EC71E0C20104DD5E0163E559
S1131340A60EB11C0F2EF9EBEF2EF12CF02D0AEAAC
S113135010E02AEA30E04BE950E060ED71E0C501AD
S1131360F1DC6E0179E6C70ED11C0F2EF9ECEF2EDD
S1131370F12CF02D08EC10E02EEB30E04FEA50E0B9
S11313806AED71E0C601DEDC7E866D869EA28DA2CA
S11313905CAE4BAE6396BFAEAEAE6397D5015596C9
S11313A0DC92CE925497F601158A148AC35ADD4F03
S11313B048815981CD55D240443651052CF484E6F8
S11313C090E09C878B8716C0C35ADD4F6881798172
S11313D0CD55D240693C71052CF088EC90E09C8797
S11313E08B8708C0C35ADD4F88819981CD55D2407F
S11313F09C878B8788E0E2EEF1E0DE01A158BF4FC5
S113140001900D928A95E1F74E019FE8890E911C97
S11314100F2EFCE3EF2EF12CF02D0EE110E02EE167
S113142030E040E050E06AEE71E0C4018BDC5E0124
S1131430A5EAAA0EB11C0F2EF6E4EF2EF12CF02D26
S113144008E210E028E230E04AE050E064EF71E0A6
S1131450C50178DC6E01BBEBCB0ED11C0F2EF0E581
S1131460EF2EF12CF02D02E310E022E330E044E112
S113147050E06FEF71E0C60165DCC557DF4F99821C
S11314808882CB58D040F401B58AA48AD5015596F8
S1131490DC92CE925497F601158A148A33203CF4D8
S11314A0C757DF4F19821882C958D04013C0F1E5DD
S11314B02F1631044CF080E590E0C757DF4F998335
S11314C08883C958D04006C0C757DF4F3982288265
S11314D0C958D0401E0121ED220E311C89E0EAE0FA
S11314E0F2E0D10101900D928A95E1F75E0141EE9F
S11314F0A40EB11C0F2EF6E5EF2EF9E0FF2EF02D11
S113150002EA18E022EA38E041EA58E063EA71E0CE
S1131510C50118DC4E0157EF850E911C0F2EFEE11C
S1131520EF2EFAE0FF2EF02D02E919E022E939E06E
S113153046E059E06EE971E0C40104DC3E0163EF6A
S1131540661A6EEF760A0F2EFAEFEF2EFAE0FF2EF0
S1131550F02D04E61AE024E63AE04EEC59E064E8A3
S113156071E0C301EFDB6E017DEDC71A7EEFD70A90
S11315700F2EF2ECEF2EFBE0FF2EF02D06E31BE026
S113158026E33BE04AEA5AE06DE871E0C601DADBA3
S11315902E0187EC481A8EEF580A0F2EF7E2EF2E31
S11315A0FCE0FF2EF02D06E21CE026E23CE042E7E0
S11315B05BE063E971E0C201C5DBD1011D965C9279
S11315C04E921C97F201D58AC48AD60155967C9214
S11315D06E925497F301958A848AD4015596BC92ED
S11315E0AE925497F501158A148ACE010196909310
S11315F0370380933603E256F109F88BEF87178699
S113160016863092350320923403D1011F961C9222
S11316101E921E97BE01615B7E4F7301BAE0EB0E12
S1131620F11CFB01F182E08213821282DE01AD5AC9
S1131630BE4F9E0127563F4F11963C932E9313960F
S11316401C921E9212978A5A9E4F3E01FBE16F0E26
S1131650711CFC0171826082B383A2831896119677
S11316609C938E9313967C936E93129715961C926B
S11316701E9214976E5E7F4FFAE08F0E911CFB0151
S113168091828082138212828E010B591E4F885AD6
S11316909109F8019183808313821282AE01475924
S11316A05E4FFA0171826082138302833496518300
S11316B0408373836283B583A483025F1F4F4E57B5
S11316C05109C35ADD4F59834883CD55D240D801BF
S11316D011965C934E9313961C921E9212975E0180
S11316E0B9E8AB1ABEEFBB0A46525109D5011196AF
S11316F05C934E9313961C921E921297665E7F4FD4
S1131700DB0111967C926E921396BC92AE92129764
S1131710149611967C936E9313961C930E931297C2
S11317201596FC93EE9314970E5E1F4FEAE0CE0ECF
S1131730D11CF801D182C082138212823E01F7E7E4
S11317406F1AFEEF7F0AF301318320831382128222
S11317505E01F1E3AF0EB11CC357DE4FB982A8821C
S1131760CD58D140C157DE4F79826882CF58D140DD
S113177038966DE871E06C0F7D1F7183608313836D
S11317800283B583A4830E5E1F4FD80111969C92E9
S11317908E9213961C921E9212973E01B5E66B1A16
S11317A0BEEF7B0AD30111969C938E9313961C92E1
S11317B01E9212976E5E7F4FDB011196BC92AE9221
S11317C013967C926E921297149611967C936E9354
S11317D013961C930E9312971596FC93EE931497FD
S11317E00E5E1F4FC35ADD4F68817981CD55D240BB
S11317F0F80171836083138212823E0173E5671AD4
S11318007EEF770AF3015183408313821282BE0173
S11318106F547E4FFB01B182A08273826282349640
S11318207183608313830283B583A4830E5E1F4F89
S1131830D8011196DC92CE9213961C921E921297A6
S11318403E01B1E46B1ABEEF7B0AD30111963C93BF
S11318502E9313961C921E9212975E01B7E4AB0E60
S1131860B11CCD53DE4FB982A882C35CD140CB53A7
S1131870DE4F79826882C55CD140189663EC71E0D2
S11318806C0F7D1F11967C936E9313961C930E938D
S113189012971596FC93EE9314970E5E1F4FF80162
S11318A0F182E082138212823E01FFE26F1AFEEFA0
S11318B07F0AF30191838083138212826E5E7F4FCD
S11318C0FB01B182A0827382628234967183608349
S11318D013830283B583A4830E5E1F4FD801119630
S11318E09C928E9213961C921E9212973E01BDE119
S11318F06B1ABEEF7B0AD30111965C934E93139639
S11319001C921E9212976E5E7F4FDB011196BC9261
S1131910AE9213967C926E921297149611967C93C3
S11319206E9313961C930E9312971596FC93EE9355
S113193014970E5E1F4FEAE04E0E511CF8015182BF
S11319404082138212823E01FBE06F1AFEEF7F0A8F
S1131950F30131832083138212825E01FDE5AF0E11
S1131960B11CC750DE4FB982A882C95FD140C550AF
S1131970DE4F79826882CB5FD140389669EF71E09F
S11319806C0F7D1F7183608313830283B583A483EB
S11319900E5E1F4FD8011196DC92CE9213961C92C4
S11319A01E9212973E01B9EF6B1ABDEF7B0AD30169
S11319B011969C938E9313961C921E9212976E5EB0
S11319C07F4FDB011196BC92AE9213967C926E927D
S11319D01297149611967C936E9313961C930E9300
S11319E012971596FC93EE9314970E5E1F4FF80111
S11319F09182808213821282625F7F4FFB01518346
S1131A004083138212824E01F3EE8F1AFDEF9F0A78
S1131A10F401B182A08273836283685F7F4FFB010C
S1131A209182808213830283B583A4835E01F9EDDE
S1131A30AF1AFDEFBF0AD50111965C924E92139630
S1131A401C921E921297149611963C932E93139601
S1131A501C921E9212972A563E4F025A1140F901C7
S1131A6011830083B383A283189611963C932E931B
S1131A701396BC92AE92129715967C936E9314971C
S1131A805E01F7ECAF1AFDEFBF0AF501D182C08207
S1131A9013821282645E7F4FFB01918380831382E1
S1131AA012822E5E3F4FF901118300837383628398
S1131AB08A569E4FFC0131832083B382A282B58370
S1131AC0A48358961196FC92EE9213961C921E9241
S1131AD012976E5E7F4FFB01518340831382128203
S1131AE02E5E3F4FF9011183008373836283349622
S1131AF031832083B383A28395838483F093390352
S1131B00E09338030E946F0511D856D8D1011A9674
S1131B108D919C911B97863EB7E09B0724F486EE3B
S1131B2097E06FD009C0853EECE09E0724F084EE78
S1131B309CE067D001C065D0C25ADD4F0FB6F8945F
S1131B40DEBF0FBECDBFDF91CF911F910F91FF90EC
S1131B50EF90DF90CF90BF90AF909F908F907F9049
S1131B606F905F904F903F902F90089531E06135D2
S1131B70710509F030E021E08130910509F020E0A1
S1131B80222331F0332321F084EE9CE03AC00895FF
S1131B9021E08230910509F020E0222331F0332343
S1131BA021F086EE97E02DC0089564CB089580E37C
S1131BB08AB982EA809380008FEF9FE89093870030
S1131BC0809386008AE180938100089580362AE01C
S1131BD092073CF48FE59AE0909389008093880003
S1131BE0089582322BE092073CF082E29BE09093CE
S1131BF089008093880008959093890080938800D9
S1131C000895843E2CE092073CF084EE9CE090938F
S1131C108B0080938A000895873E27E092073CF466
S1131C2086EE97E090938B0080938A000895EAE80B
S1131C30F0E0608171814091000150910101849F25
S1131C409001859F300D949F300D11244091020125
S1131C5050910301649FC001659F900D749F900D86
S1131C601124820F931F6AE070E0E0D371836083D4
S1131C700895F8942091A6023091A7022115310508
S1131C80A9F0E2EAF2E040815181DA01AE59BD4F98
S1131C908C914F5F5F4F51834083215031093093C2
S1131CA0A7022093A602232B21F401C08EEF1092E9
S1131CB01A022091A2023091A3022034310521F4AA
S1131CC01092A3021092A202789408951F920F9288
S1131CD00FB60F9211240BB60F922F933F938F934D
S1131CE09F93AF93BF93EF93FF9310982EB52D3F1F
S1131CF0A9F0E4EAF2E080819181DC01AE59BD4FA4
S1131D002C93019691838083E6EAF2E080819181AD
S1131D1001969183808381E080931A028091A402CA
S1131D209091A5028034910521F41092A50210929D
S1131D30A4028091600290916102892B01F1E091EB
S1131D405C02F0915D02E45EFD4F80818EBDECE5A6
S1131D50F2E080819181019691838083E0E6F2E054
S1131D60208131812150310931832083109A8034BC
S1131D70910549F410925D0210925C0204C08DEF4B
S1131D808EBD10921B02FF91EF91BF91AF919F9175
S1131D908F913F912F910F900BBE0F900FBE0F901C
S1131DA01F90189580E484B980EC8CBD089A109833
S1131DB08DEF8EBD0895F8942091600230916102F8
S1131DC02034310590F4EEE5F2E040815181DA01EE
S1131DD0A45EBD4F8C934F5F5F4F518340832F5F51
S1131DE03F4F309361022093600280915E02909194
S1131DF05F028034910521F410925F0210925E021A
S1131E0080916002909161020197F9F480911B0224
S1131E1081111BC01098E0915C02F0915D02E45EB8
S1131E20FD4F80818EBDECE5F2E0808191810196C9
S1131E3091838083E0E6F2E0808191810197918330
S1131E408083109A81E080931B0280915C029091C0
S1131E505D028034910521F410925D0210925C02BF
S1131E607894089581E02091A6023091A7022B3046
S1131E70310508F480E008950F931F93CF93DF9307
S1131E808C01EB012091A6023091A702232B69F16A
S1131E90E091A202F091A302EE59FD4F80818F3FA1
S1131EA0E1F4E0DF882311F1E4DEE3DEF80180836E
S1131EB0E0DE8883DEDE8983DCDE8A83DADE8B8300
S1131EC0D8DE8C83D6DE8D8389E39EE08F83D1DEDA
S1131ED08987CFDE888781E009C0C4DF882331F099
S1131EE0C8DEBE01C801C8DF01C080E0DF91CF9128
S1131EF01F910F9108951F920F920FB60F92112404
S1131F000BB60F922F933F934F938F939F93AF935F
S1131F10BF93EF93FF938091320390913303803406
S1131F20910531F481E080935E038091C60016C070
S1131F3080349105E8F4E0E3F3E0208131814091BD
S1131F40C600D901A251BD4F4C932F5F3F4F31833F
S1131F50208301969093330380933203809132035C
S1131F60909133038034910519F481E080935C03EC
S1131F7080913003909131038034910521F41092C3
S1131F8031031092300381E080935B03FF91EF9162
S1131F90BF91AF919F918F914F913F912F910F904E
S1131FA00BBE0F900FBE0F901F9018951F920F92AB
S1131FB00FB60F9211240BB60F928F939F93EF934A
S1131FC0FF938091EC029091ED028034910519F415
S1131FD010925A0302C0892BB9F0E091E802F09103
S1131FE0E902E855FD4F80818093C600E8EEF2E0F7
S1131FF080819181019691838083ECEEF2E080816F
S113200091810197918380838091E8029091E90204
S11320108034910521F41092E9021092E802809133
S1132020EC029091ED02892B39F410925D03E1ECFE
S1132030F0E080818F7B8083FF91EF919F918F915E
S11320400F900BBE0F900FBE0F901F901895505815
S1132050BB27AA270ED04DC13ED130F043D120F08A
S113206031F49F3F11F41EF433C10EF4E095E7FB05
S113207029C1E92F4FD180F3BA1762077307840788
S1132080950718F071F49EF567C10EF4E0950B2ED8
S1132090BA2FA02D0B01B90190010C01CA01A001B6
S11320A01124FF27591B99F0593F50F4503E68F111
S11320B01A16F040A22F232F342F4427585FF3CF52
S11320C0469537952795A795F0405395C9F77EF423
S11320D01F16BA0B620B730B840BBAF09150A1F06C
S11320E0FF0FBB1F661F771F881FC2F70EC0BA0FF2
S11320F0621F731F841F48F4879577956795B7957A
S1132100F7959E3F08F0B3CF9395880F08F0992771
S1132110EE0F9795879508950CD0EBC0E3D040F06F
S1132120DAD030F021F45F3F19F0CCC0511115C161
S1132130CFC0F0D098F39923C9F35523B1F3951B7D
S1132140550BBB27AA2762177307840738F09F5FD4
S11321505F4F220F331F441FAA1FA9F333D00E2E43
S11321603AF0E0E830D091505040E695001CCAF7B0
S113217029D0FE2F27D0660F771F881FBB1F261775
S113218037074807AB07B0E809F0BB0B802DBF0148
S1132190FF2793585F4F2AF09E3F510568F092C085
S11321A0DCC05F3FECF3983EDCF38695779567954A
S11321B0B795F7959F5FC9F7880F911D96958795F9
S11321C097F90895E1E0660F771F881FBB1F621718
S11321D073078407BA0720F0621B730B840BBA0BD6
S11321E0EE1F88F7E095089504D06894B111B5C046
S11321F0089598D088F09F5790F0B92F9927B75138
S1132200A0F0D1F0660F771F881F991F1AF0BA95B6
S1132210C9F712C0B13081F09FD0B1E008959CC0DD
S1132220672F782F8827B85F39F0B93FCCF38695AC
S113223077956795B395D9F73EF490958095709509
S113224061957F4F8F4F9F4F0895E89409C097FB86
S11322503EF490958095709561957F4F8F4F9F4F79
S11322609923A9F0F92F96E9BB279395F6958795BD
S113227077956795B795F111F8CFFAF4BB0F11F480
S113228060FF1BC06F5F7F4F8F4F9F4F16C0882327
S113229011F096E911C0772321F09EE8872F762F5D
S11322A005C0662371F096E8862F70E060E02AF09E
S11322B09A95660F771F881FDAF7880F969587958A
S11322C097F9089597F99F6780E870E060E00895B2
S11322D09FEF80EC089500240A941616170618063A
S11322E00906089500240A94121613061406050616
S11322F00895092E0394000C11F4882352F0BB0FA7
S113230040F4BF2B11F460FF04C06F5F7F4F8F4F09
S11323109F4F089557FD9058440F551F59F05F3F44
S113232071F04795880F97FB991F61F09F3F79F0F3
S113233087950895121613061406551FF2CF469575
S1132340F1DF08C0161617061806991FF1CF8695F7
S11323507105610508940895E894BB2766277727DB
S1132360CB0197F908950BD0C4CFB5DF28F0BADFBD
S113237018F0952309F0A6CFABCF1124EECFCADF16
S1132380A0F3959FD1F3950F50E0551F629FF00184
S1132390729FBB27F00DB11D639FAA27F00DB11DDD
S11323A0AA1F649F6627B00DA11D661F829F222766
S11323B0B00DA11D621F739FB00DA11D621F839FED
S11323C0A00D611D221F749F3327A00D611D231FC3
S11323D0849F600D211D822F762F6A2F11249F5711
S11323E050408AF0E1F088234AF0EE0FFF1FBB1F34
S11323F0661F771F881F91505040A9F79E3F5105D3
S113240070F060CFAACF5F3FECF3983EDCF3869583
S113241077956795B795F795E7959F5FC1F7FE2B7D
S1132420880F911D9695879597F9089597FB072E28
S113243016F4009406D077FD08D011D007FC05D01F
S11324403EF4909581959F4F0895709561957F4FC7
S11324500895B7FF18C017D0821B930B0895AA1BC9
S1132460BB1B51E107C0AA1FBB1FA617B70710F07B
S1132470A61BB70B881F991F5A95A9F780959095AD
S1132480BC01CD01089509D0A59F900DB49F900D76
S1132490A49F800D911D11240895A29FB001B39FA4
S11324A0C001A39F700D811D1124911DB29F700D59
S11324B0811D1124911D0895FB01DC0101900D92F1
S10D24C00020E1F70895F894FFCF1F
S11324CA0800020064697374616E63650073706561
S11324DA65640073746F7044697374006F6E654D3C
S11324EA0074776F4D0074687265654D0073746982
S11324FA6C6C006372756973696E67006D656469F3
S113250A756D0068696768006E6F5370656564006D
S113251A736C6F7700637275697365006D656448DF
S113252A696768006D6178007475726E007374610E
S113253A7274006D6964646C6500656E6400736529
S113254A72766F007374726169676874007269677E
S113255A68740073686172705269676874006C65A4
S113256A66740073686172704C6566740064656CA5
S113257A74615F4300666172526967687400736DBF
S113258A616C6C52696768740063656E7472650085
S113259A736D616C6C4C656674006661724C656639
S11325AA740064656C74615F56006C6566744F727E
S11325BA69656E00737472614F7269656E74007234
S11325CA6967684F7269656E7400737465657269C8
S10725DA6E67000024
S9030000FC
