S01700004B616E646964617470726F6A656B742E73726563EE
S113000045C0000061C000005FC000005DC000008A
S11300105BC0000059C0000057C0000055C000007C
S113002053C0000051C000004FC000004DC000008C
S11300304BC0000049C0000047C0000045C000009C
S113004043C0000041C00000D0C700003DC0000014
S11300500C94940839C000000C94EF0835C00000DB
S113006033C0000031C000002FC000002DC00000CC
S113007058C7000029C0000027C0000025C00000A8
S113008023C0000021C000001FC0000011241FBEB7
S1130090CFEFD0E4DEBFCDBF11E0A0E0B1E0E0EBF4
S11300A0F6E100E00BBF02C007900D92AC39B10736
S11300B0D9F722E0ACE9B1E001C01D92A136B20744
S11300C0E1F7BAD70C94560B9BCF2F923F924F92E5
S11300D05F926F927F928F929F92AF92BF92CF92D4
S11300E0DF92EF92FF920F931F93CF93DF93CDB7DD
S11300F0DEB7C059D2400FB6F894DEBF0FBECDBFF5
S113010026E0E0E0F1E0DE01119601900D922A95DF
S1130110E1F77E0111E1E10EF11C26E0E6E0F1E0F9
S1130120D70101900D922A95E1F726E0ECE0F1E089
S1130130DE01919601900D922A95E1F77C876B87F9
S11301409C8F8B8F87E0E2E1F1E0DE01D79601908E
S11301500D928A95E1F723961FAE1EAE239766E8AB
S11301607BE025967FAF6EAF25970F2EF5EFAF2E70
S1130170FBE0BF2EF02D2796BFAEAEAE279701E071
S113018010E029961FAF0EAF299724E630E02B9696
S11301903FAF2EAF2B972D961FAE1EAE2D9785E049
S11301A0E9E1F1E0DE01A35BBF4F01900D928A9576
S11301B0E1F769961FAE1EAE699748E15BE06B9666
S11301C05FAF4EAF6B978AEE9BE06D969FAF8EAF9D
S11301D06D976F961FAF0EAF6F97A1961FAF0EAFBF
S11301E0A197A7E3B0E0AC0FBD1FA396BFAFAEAF1E
S11301F0A39787E0EEE1F1E09C9601900D928A9539
S1130200E1F7AF961FAE1EAEAF97EEE6FAE0E196C9
S1130210FFAFEEAFE1970F2EF8E6CF2EFBE0DF2E17
S1130220F02DE396DFAECEAEE397E5961FAF0EAFAB
S1130230E597E7961FAF0EAFE7972DE430E02C0F5C
S11302403D1FE9963FAF2EAFE9976E0139E7C30E24
S1130250D11C89E0E5E2F1E0D60101900D928A9586
S1130260E1F7D6011B961C921E921A97ECEEF9E068
S11302701D96FC93EE931C972CED3AE01F963C934D
S11302802E931E9751961C930E93509753961C933E
S11302900E93529743E650E04C0F5D1F55965C93C6
S11302A04E93549788E0EEE2F1E0569601900D9259
S11302B08A95E1F7C756DF4F19821882C959D04091
S11302C080E699E0C556DF4F99838883CB59D040A7
S11302D0AAE5BAE0C356DF4FB983A883CD59D0400D
S11302E0C156DF4F19830883CF59D040CF55DF4F14
S11302F019830883C15AD040CD55DF4FD982C882B3
S1130300C35AD04086E0ECE8F1E0DE01AB55BF4FC4
S113031001900D928A95E1F7C155DF4F1982188239
S1130320CF5AD040EEEDF8E0CF54DF4FF983E883A5
S1130330C15BD04020EB39E0CD54DF4F39832883B3
S1130340C35BD040CB54DF4F19830883C55BD040D7
S1130350C954DF4F19830883C75BD0404FE850E08E
S11303604C0F5D1FC754DF4F59834883C95BD0408E
S113037088E0E6E3F1E0DE01A554BF4F01900D9261
S11303808A95E1F7CB53DF4F19821882C55CD040C0
S113039083ED98E0C953DF4F99838883C75CD040CD
S11303A0A2E4B9E0C753DF4FB983A883C95CD04046
S11303B0E4E6F0E0C553DF4FF983E883CB5CD0403B
S11303C0C353DF4F19830883CD5CD04025EA30E066
S11303D02C0F3D1FC153DF4F39832883CF5CD0409E
S11303E018A21F8E88E0EEE3F1E0DE01AF52BF4FAA
S11303F001900D928A95E1F7C552DF4F1982188258
S1130400CB5DD04087ED90E0C352DF4F9983888362
S1130410CD5DD0408BEF90E0C152DF4F998388834C
S1130420CF5DD04084E090E0CF51DF4F9983888343
S1130430C15ED04044E650E0CD51DF4F598348833C
S1130440C35ED040CB51DF4F19821882C55ED040C5
S11304504E0157EE850E911C26E0E6E4F1E0D4014E
S113046001900D922A95E1F7D4011B961C921E92DD
S11304701A9722E830E01D963C932E931C9720EFA8
S113048030E01F963C932E931E9722E030E0519665
S11304903C932E93509753963C932E935297E1EDB1
S11304A0F0E0EC0FFD1F5596FC93EE9354971E015C
S11304B0FDEF2F0E311C47E0ECE4F1E0D101019097
S11304C00D924A95E1F7D1011B961C921E921A9740
S11304D041E450E01D965C934E931C9749EB50E029
S11304E01F965C934E931E9751963C932E93509770
S11304F053963C932E93529755969C928E92549772
S11305002E01BDEE4B1ABEEF5B0A47E0E3E5F1E0D6
S1130510D20101900D924A95E1F7F20113861286F9
S11305204AE050E05587448748E750E057874687BC
S1130530318B208B338B228B358A248A3E01F7ED55
S11305406F1AFEEF7F0A29E0EAE5F1E0D30101909A
S11305500D922A95E1F7D3011B961C921E921A97CD
S11305602FEF3FEF1D963C932E931C9723E230E030
S11305701F963C932E931E97E4E6F0E05196FC936D
S1130580EE93509753969C938E93529755965C9204
S11305904E9254977E866D86F88AEF86CE01815CF2
S11305A09E4F28E0E3E6F1E0DC0101900D922A95EC
S11305B0E1F7DC011B961C921E921A971D967C9300
S11305C06E931C971F96BC92AE921E9751961C93E5
S11305D00E935097E4E6F0E05396FC93EE93529713
S11305E055961C921E9254975E01FBEAAF1AFEEFD9
S11305F0BF0A26E0EBE6F1E0D50101900D922A95C1
S1130600E1F7D5011B961C921E921A97E8E1FBE0D4
S11306101D96FC93EE931C972AEE3BE01F963C93A9
S11306202E931E9751961C930E93509753961C939A
S11306300E93529755969C938E9354978C9628E0DC
S1130640E1E7F1E0DC0101900D922A95E1F7DC018C
S11306501B961C921E921A97EEE6FAE01D96FC93E6
S1130660EE931C9728E63BE01F963C932E931E972F
S113067051961C930E93509753961C930E93529736
S11306805596BC92AE9254979E012F573E4F4AE026
S1130690E2E9F1E0D90101900D924A95E1F7D9011F
S11306A01B961C921E921A97ECEEF9E01D96FC9391
S11306B0EE931C974CED5AE01F965C934E931E9755
S11306C051961C930E93509753961C930E935297E6
S11306D055969C938E935497BE0169567E4F49E07C
S11306E0E9E7F1E0DB0101900D924A95E1F7DB01C6
S11306F01B961C921E921A97E0E6F9E01D96FC9355
S1130700EE931C974AE55AE01F965C934E931E970E
S113071051961C930E93509753961C930E93529795
S113072055963C932E935497AE0143555E4F0F2E2E
S1130730F7E0FF2EF02DE2E8F1E0DA0101900D92EE
S1130740FA94E1F7DA011B961C921E921A97EEEDC9
S1130750F8E01D96FC93EE931C97E0EBF9E01F96EE
S1130760FC93EE931E9751961C930E9350975396B9
S11307701C930E93529755967C936E9354970F2E19
S1130780F9E0EF2EF02DE9E8F1E0569601900D9294
S1130790EA94E1F7C353DE4F19821882CD5CD1404D
S11307A0A3EDB8E0C153DE4FB983A883CF5CD14039
S11307B0E2E4F9E0CF52DE4FF983E883C15DD14032
S11307C0A4E6B0E0CD52DE4FB983A883C35DD14027
S11307D0CB52DE4F19830883C55DD140C952DE4F29
S11307E059834883C75DD140E3ECF1E0EC0FFD1F72
S11307F0FE8FED8F8E0107521E4FAFE8B0E0AC0FB5
S1130800BD1F1A96C357DD4FB983A883CD58D24074
S1130810F801B183A083138212825697C157DD4F2A
S1130820B983A883CF58D240C352DE4FB983A8837B
S1130830CD5DD140C152DE4F19821882CF5DD140C7
S11308407E01BFE1EB1ABEEFFB0AEAE08E0E911CBB
S1130850D70111969C928E92EDEDF1E0EC0FFD1F05
S11308601396FC93EE93129714961196FC92EE92C3
S113087013961C930E93129715961C921E9214971E
S11308800E5E1F4F665F7F4FF80171836083138292
S113089012827E01F1E1EF1AFEEFFF0AC357DD4F2A
S11308A0C880D980CD58D240F701D182C08213824A
S11308B012826E01EDE0CE1AEEEFDE0AF6019182AD
S11308C08082F382E2827E01F9E0EF1AFEEFFF0AF2
S11308D0F701D182C08213830283B583A4830E5EA1
S11308E01F4FD80111967C936E9313961C921E92FF
S11308F01297149665EA70E06C0F7D1F665F7F4F58
S113090011967C936E9313961C921E9212976A5AB8
S11309107E4FFB0191828082B383A2831896119645
S11309207C936E9313961C930E9312971596FC92D8
S1130930EE921497665F7F4F465F5F4FFB015183D2
S11309404083138212827E01FDEEEF1AFDEFFF0A4F
S11309500BEB10E00C0F1D1F065F1F4FF7011183F7
S11309600083138212820E5A1E4FF80191828082F4
S1130970F382E28234961183008373836283B583A6
S1130980A483065F1F4F265F3F4FD80111963C9307
S11309902E9313961C921E92129726563F4FBAE03E
S11309A02B0E311CD90111963C922E9213961C9257
S11309B01E921297665E7F4FDB0111963C932E9335
S11309C013961C930E9312971596FC93EE9314971B
S11309D07E01B1EDEB1ABDEFFB0A0A96F701918394
S11309E08083138212821A96C157DD4FC880D98042
S11309F0CF58D2401196DC92CE9213961C921E923E
S1130A0012972E5E3F4F1AE0410E511CF90151829C
S1130A104082B383A283189611963C932E93139627
S1130A20FC92EE92129715967C936E931497265F20
S1130A303F4FF90191838083138212828E010B5BF5
S1130A401D4F63E670E06C0F7D1F665F7F4FF801FA
S1130A50718360831382128264527E4FFB01518240
S1130A6040821383028334967183608333832283A9
S1130A70B583A483665F7F4FDB0111969C938E93AD
S1130A8013961C921E9212978E519F4F2DE430E0C4
S1130A902C0F3D1F265F3F4FDC0111963C932E9394
S1130AA013961C921E9212972C5F3D4FD9011196FA
S1130AB05C924E9213969C938E9312970896DC0147
S1130AC011963C932E9313967C936E9312971596DE
S1130AD0FC93EE9314976E5E7F4FBAE0AB0EB11C9D
S1130AE0FB01B182A08213821282DE01A759BD4F9D
S1130AF027E330E02C0F3D1F265F3F4F11963C93B8
S1130B002E9313961C921E921297245D3D4FF90169
S1130B1051824082B383A283189611963C932E93FC
S1130B2013967C936E93129715969C938E931497B9
S1130B30489621ED30E02C0F3D1F265F3F4FFC010E
S1130B40318320831382128220563E4FF901518350
S1130B504083138212823496918380833383228369
S1130B60B583A4830E961AE0610E711CDC01119604
S1130B707C926E9213961C921E9212971496119662
S1130B80BC92AE9213961C921E9212979AAB89ABAA
S1130B90BCABABABFEABEDAB845592409093300253
S1130BA080932F02E1E0F0E0EC0FFD1FF0932E02A2
S1130BB0E0932D020F2EF1E2CF2ED12CF02DCC0E8E
S1130BC0DD1ED0922C02C0922B0281D0A7D0ECD093
S1130BD08BA59CA58ED2C057DD4F0FB6F894DEBF0F
S1130BE00FBECDBFDF91CF911F910F91FF90EF907A
S1130BF0DF90CF90BF90AF909F908F907F906F9039
S1130C005F904F903F902F900895FC0184859585C7
S1130C109B01281B390B86859785861B970B12161B
S1130C201306ECF418161906ECF460897189A2898C
S1130C30B3898A9FA0018B9F500D9A9F500D112458
S1130C40269FC001279F900D369F900D11244817B1
S1130C5059070CF4CA01843691053CF408C080E0BD
S1130C6090E005C080E090E002C084E690E09387C5
S1130C70828708950F931F93CF93DF93FC01C6855A
S1130C80D78584859585C81BD90B228533856089D2
S1130C907189C901E4D48E01061B170B628973891B
S1130CA0C901DDD4061B170BC00FD11F2C9FC00137
S1130CB02D9F900D3C9F900D112499230CF40196C7
S1130CC095958795DF91CF911F910F9108950F937B
S1130CD01F93CF93DF9300912D0210912E020115E3
S1130CE01105B9F0F801C485D585209761F02097E6
S1130CF029F0F80162857385CE0187DF0C88DD89D0
S1130D00C02D2097A1F7F801068517850115110557
S1130D1049F7DF91CF911F910F9108950F931F937E
S1130D20CF93DF93C0912F02D09130022097B9F175
S1130D3004E610E0E881F981309781F0202F312F0B
S1130D40A081B1818D919C91821793070CF49C0131
S1130D500280F381E02D309799F702C0202F312FC4
S1130D60EA81FB813097B1F0722F632FA081B181AA
S1130D708D919C911197572F462F2817390714F4FA
S1130D80582F492F5C9311964C930280F381E02DE8
S1130D90309761F70C80DD81C02D209759F6DF91E3
S1130DA0CF911F910F9108952F923F924F925F928E
S1130DB06F927F928F929F92AF92BF92CF92DF9267
S1130DC0EF92FF920F931F93CF93DF9300D000D045
S1130DD000D0CDB7DEB780912B0290912C029C837A
S1130DE08B83892B09F484C0EB81FC810484F58511
S1130DF0E02DFE83ED83EF2B09F466C0512C612CAA
S1130E00712C412C312C212C19821A828D819E81C6
S1130E1031DFBC01882777FD8095982F31D36B0192
S1130E207C01ED81FE8104851585B801882777FD55
S1130E308095982F25D34B015C01ED81FE81868539
S1130E409785801B910BBC0112F46F5F7F4F7595E2
S1130E506795882777FD8095982F12D3A501940173
S1130E6010D29B01AC01C701B60196D39B01AC0122
S1130E70632D722D89819A8104D2362E272E89837F
S1130E809A83A7019601652D762D872D942DF9D18E
S1130E90562E672E782E492EED81FE810488F58921
S1130EA0E02DFE83ED83EF2B09F0B0CF262F372FF3
S1130EB0482F592F632D722D89819A8146D2262F6E
S1130EC0372F482F592F04C020E030E040E050E095
S1130ED0622F732F842F952FA0D2EB81FC8173870F
S1130EE06287868597859C838B83892B09F07CCFC9
S1130EF026960FB6F894DEBF0FBECDBFDF91CF911B
S1130F001F910F91FF90EF90DF90CF90BF90AF9023
S1130F109F908F907F906F905F904F903F902F9015
S1130F2008951F920F920FB60F9211240BB60F92D1
S1130F308F939F93EF93FF938091CE008F3F29F47B
S1130F40109252021092510210C0E0915102F0919D
S1130F505202EF5CFD4F80838091510290915202C6
S1130F6001969093520280935102FF91EF919F91C9
S1130F708F910F900BBE0F900FBE0F901F9018957E
S1130F8080E484B980EC8CBD089589D0F9DF8DECC0
S1130F909AE094D084E69AE0ACD02FEF8FEF90EEF5
S1130FA0215080409040E1F700C000000895ECEC2F
S1130FB0F0E01182108220E92093C9002EE02093F2
S1130FC0CA00918380830895E9ECF0E020812F77B3
S1130FD0208320913102DC012C9310925202109252
S1130FE0510280818068808308951F920F920FB60A
S1130FF00F9211242F938F939F9380919C01909132
S11310009D018B3926E9920730F4019690939D0156
S113101080939C0109C080919E01816080939E0110
S113102010929D0110929C019F918F912F910F908E
S11310300FBE0F901F901895CF93DF93CDB7DEB7F7
S113104060970FB6F894DEBF0FBECDBF9EDF2FEFC3
S11310508FEF9CE2215080409040E1F700C00000F7
S113106083E19BE02BD078948FEF81B987E090E007
S11310709EDF0AE810E08091510290915202892B80
S113108029F0CE010196A0DF898182B9F894F80194
S113109080819181698170E018D87894ECCF80E3E5
S11310A08AB982EA809380008FEF9FE8909387004B
S11310B0809386008AE180938100089580362AE037
S11310C092073CF48FE59AE090938900809388001E
S11310D008958B332BE092073CF08BE39BE09093D5
S11310E089008093880008959093890080938800F4
S11310F00895873E27E092073CF486EE97E09093AC
S11311008B0080938A0008958F332CE092073CF083
S11311108FE39CE090938B0080938A0008959093D2
S11311208B0080938A0008951F920F920FB60F923E
S113113011240BB60F922F933F934F938F939F934A
S1131140AF93BF93EF93FF938091290290912A026A
S11311508034910531F481E080935F028091C60070
S113116016C080349105E8F4E7E2F2E02081318191
S11311704091C600D901AB51BE4F4C932F5F3F4FF6
S113118031832083019690932A02809329028091CF
S1131190290290912A028034910519F481E0809308
S11311A05D0280912702909128028034910521F4F8
S11311B0109228021092270281E080935C02FF9132
S11311C0EF91BF91AF919F918F914F913F912F914B
S11311D00F900BBE0F900FBE0F901F9018951F928B
S11311E00F920FB60F9211240BB60F928F939F9309
S11311F0EF93FF938091E3019091E4018034910592
S113120019F410925B0202C0892BB9F0E091DF015E
S1131210F091E001E156FE4F80818093C600EFED2E
S1131220F1E080819181019691838083E3EEF1E086
S1131230808191810197918380838091DF019091D6
S1131240E0018034910521F41092E0011092DF0155
S11312508091E3019091E401892B39F410925E02AC
S1131260E1ECF0E080818F7B8083FF91EF919F918F
S11312708F910F900BBE0F900FBE0F901F9018957B
S11312805058BB27AA270ED04DC13ED130F043D1D0
S113129020F031F49F3F11F41EF433C10EF4E095B5
S11312A0E7FB29C1E92F4FD180F3BA17620773070F
S11312B08407950718F071F49EF567C10EF4E09564
S11312C00B2EBA2FA02D0B01B90190010C01CA01FC
S11312D0A0011124FF27591B99F0593F50F4503EA7
S11312E068F11A16F040A22F232F342F4427585F99
S11312F0F3CF469537952795A795F0405395C9F7B1
S11313007EF41F16BA0B620B730B840BBAF0915068
S1131310A1F0FF0FBB1F661F771F881FC2F70EC007
S1131320BA0F621F731F841F48F4879577956795DA
S1131330B795F7959E3F08F0B3CF9395880F08F0C3
S11313409927EE0F9795879508950CD0EBC0E3D0BD
S113135040F0DAD030F021F45F3F19F0CCC05111E5
S113136015C1CFC0F0D098F39923C9F35523B1F335
S1131370951B550BBB27AA2762177307840738F000
S11313809F5F5F4F220F331F441FAA1FA9F333D05F
S11313900E2E3AF0E0E830D091505040E695001C13
S11313A0CAF729D0FE2F27D0660F771F881FBB1FCF
S11313B0261737074807AB07B0E809F0BB0B802DA9
S11313C0BF01FF2793585F4F2AF09E3F510568F0F5
S11313D092C0DCC05F3FECF3983EDCF386957795D2
S11313E06795B795F7959F5FC9F7880F911D9695F7
S11313F0879597F90895E1E0660F771F881FBB1F53
S1131400621773078407BA0720F0621B730B840BFF
S1131410BA0BEE1F88F7E095089504D06894B111D3
S1131420B5C0089598D088F09F5790F0B92F9927A8
S1131430B751A0F0D1F0660F771F881F991F1AF0DB
S1131440BA95C9F712C0B13081F09FD0B1E00895C8
S11314509CC0672F782F8827B85F39F0B93FCCF349
S1131460869577956795B395D9F73EF490958095D1
S1131470709561957F4F8F4F9F4F0895E89409C0F1
S113148097FB3EF490958095709561957F4F8F4FB3
S11314909F4F9923A9F0F92F96E9BB279395F695C9
S11314A0879577956795B795F111F8CFFAF4BB0F47
S11314B011F460FF1BC06F5F7F4F8F4F9F4F16C0AB
S11314C0882311F096E911C0772321F09EE8872F35
S11314D0762F05C0662371F096E8862F70E060E0F1
S11314E02AF09A95660F771F881FDAF7880F96956A
S11314F0879597F9089597F99F6780E870E060E011
S113150008959FEF80EC089500240A941616170698
S113151018060906089500240A94121613061406E0
S113152005060895092E0394000C11F4882352F043
S1131530BB0F40F4BF2B11F460FF04C06F5F7F4FFB
S11315408F4F9F4F089557FD9058440F551F59F0E2
S11315505F3F71F04795880F97FB991F61F09F3F9C
S113156079F087950895121613061406551FF2CFC5
S11315704695F1DF08C0161617061806991FF1CF15
S113158086957105610508940895E894BB2766273C
S11315907727CB0197F908950BD0C4CFB5DF28F096
S11315A0BADF18F0952309F0A6CFABCF1124EECF04
S11315B0CADFA0F3959FD1F3950F50E0551F629FAA
S11315C0F001729FBB27F00DB11D639FAA27F00D98
S11315D0B11DAA1F649F6627B00DA11D661F829FBF
S11315E02227B00DA11D621F739FB00DA11D621FA4
S11315F0839FA00D611D221F749F3327A00D611DC1
S1131600231F849F600D211D822F762F6A2F1124A2
S11316109F5750408AF0E1F088234AF0EE0FFF1FF5
S1131620BB1F661F771F881F91505040A9F79E3F2C
S1131630510570F060CFAACF5F3FECF3983EDCF326
S1131640869577956795B795F795E7959F5FC1F769
S1131650FE2B880F911D9695879597F9089597FB12
S1131660072E16F4009406D077FD08D00BD007FCA3
S113167005D03EF4909581959F4F0895709561959E
S11316807F4F0895AA1BBB1B51E107C0AA1FBB1FB4
S1131690A617B70710F0A61BB70B881F991F5A95FA
S11316A0A9F780959095BC01CD010895F894FFCFDA
S11316B06572726F7200616E676C65007365727635
S11316C06F0073684C656674006C65667400736CB7
S11316D04C65667400737472616967687400736C36
S11316E05269676874007368526967687400666158
S11316F0724C65667400654C6566740063656E744F
S11317006572006552696768740066617252696740
S11317106874006F53684C656674006F4C6566743A
S1131720006F536C4C656674006F536C5269676844
S113173074006F5269676874006F536872696768F0
S10F174074006F53747261696768740070
S9030000FC
