S01700004B616E646964617470726F6A656B742E73726563EE
S113000045C0000061C000005FC000005DC000008A
S11300105BC0000059C0000057C0000055C000007C
S113002053C0000051C000004FC000004DC000008C
S11300304BC0000049C0000047C0000045C000009C
S113004043C0000041C000003FC000000C94C20D3A
S11300500C94030F39C000000C945E0F35C00000EF
S113006033C0000031C000002FC000002DC00000CC
S1130070C1C7000029C0000027C0000025C000003F
S113008023C0000021C000001FC0000011241FBEB7
S1130090CFEFD0E4DEBFCDBF11E0A0E0B1E0E6E5F4
S11300A0F4E200E00BBF02C007900D92A63EB10738
S11300B0D9F723E0A6EEB1E001C01D92A033B20748
S11300C0E1F7E7D70C9429129BCF8130910541F4D5
S11300D0109295001092940085E080939100089509
S11300E0892B11F4109291000895CF93DF93C0915E
S11300F09400D0919500DC0120E030E041EE50E026
S11301000E94CD1120E030EA4FE050E00E94B1118E
S11301102150310981E090E0C217D30710F480E048
S113012090E0DF91CF9108952F923F924F925F928A
S11301306F927F928F929F92AF92BF92CF92DF92F3
S1130140EF92FF920F931F93CF93DF93CDB7DEB758
S1130150CA5BD2400FB6F894DEBF0FBECDBF7B01A1
S11301606A0129E0E0E0F1E0DE01119601900D92D0
S11301702A95E1F729E0E9E0F1E0DE0151960190EA
S11301800D922A95E1F705E613E723E630E009A38B
S11301901AA32BA33CA326E0E2E1F1E0DE01D19611
S11301A001900D922A95E1F7873E07E090072CF421
S11301B08AEC90E09C8F8B8F0FC0843E1CE09107EB
S11301C02CF08AE491E09C8F8B8F06C06AE070E08B
S11301D00E949E117C8F6B8F2CEDC2162AE0D206F2
S11301E02CF48CED9AE09CA78BA70CC043E2C416B8
S11301F04BE0D4062CF082E29BE09CA78BA702C0C4
S1130200DCA6CBA6FF201CF41C861B860BC06CE46A
S1130210E616F1042CF08BE490E09C878B8702C0F7
S1130220FC86EB860F2EF6EEEF2EF12CF02D0DEC66
S113023010E02AEC30E049EC50E068E171E0CE01D6
S11302408F5B9F4F8AD60F2EF6E0EF2EFF24F39498
S1130250F02D0DEE10E026EE30E04DEC50E060E2C3
S113026071E0CE01895A9F4F78D60F2EF8E2EF2E17
S1130270FF24F394F02D0AE011E02AE031E04CEE83
S113028050E065E271E0CE0183599F4F66D60F2E90
S1130290F5E4EF2EFF24F394F02D0EE211E027E2B3
S11302A031E04BE051E06EE271E0CE018D579F4F9B
S11302B054D60F2EFBE4EF2EFF24F394F02D0AE422
S11302C011E025E431E04DE251E064E371E0CE0158
S11302D087569F4F42D681E490E08C0F9D1F9E8FDE
S11302E08D8FA7E5B0E0AC0FBD1F6796BFAFAEAF73
S11302F06797EDE6F0E0EC0FFD1FAD96FFAFEEAFB4
S1130300AD9703E810E00C0F1D1FCF57DF4F198383
S11303100883C158D04089E990E08C0F9D1FC956CD
S1130320DF4F99838883C759D040C355DF4F198263
S11303301882CD5AD0400F2EF4E1EF2EF12CF02D7F
S11303400AE010E020E030E04FEF5FEF6DE371E092
S1130350469603D65E0195ECA90EB11C0F2EF2E36E
S1130360EF2EF12CF02D0EE110E02EE130E04AE00A
S113037050E066E471E0C501F0D50F2EF6E4EF2EEF
S1130380F12CF02D02E310E022E330E04EE150E0E6
S11303906CE471E0CE0185529F4FDFD50F2EFCE453
S11303A0EF2EF12CF02D0BE410E026E430E042E3D4
S11303B050E064E571E0CE018F509F4FCED5AFEA97
S11303C0B0E0AC0FBD1FBE87AD87CD53DF4FB98200
S11303D0A882C35CD0400BED10E00C0F1D1FF5018B
S11303E0158B048B81EF90E08C0F9D1FC151DF4F63
S11303F099838883CF5ED040CB5FDE4F1982188209
S1130400C550D1400F2EFEE0EF2EFBE0FF2EF02D65
S113041000EF1AE02CED3AE04BED5AE069E571E0AB
S113042046969BD50F2EFDE1EF2EFBE0FF2EF02D1F
S113043003E11BE023E13BE049E05BE063E771E0BB
S1130440CE01835E9E4F89D50F2EF0E2EF2EFBE0A6
S1130450FF2EF02D06E11BE026E13BE04CE05BE0E3
S113046061E671E0CE018D5C9E4F77D50F2EF2E2EE
S1130470EF2EFBE0FF2EF02D08E11BE028E13BE02E
S11304804EE05BE068E671E0CE01875B9E4F65D588
S1130490A7E0B1E0AC0FBD1FBEA7ADA7EDE1F1E051
S11304A0EC0FFD1FC55EDE4FF983E883CB51D140CD
S11304B003E311E00C0F1D1FCF5CDE4F198308838B
S11304C0C153D14089E491E08C0F9D1FC95BDE4F7D
S11304D099838883C754D140C35ADE4F1982188246
S11304E0CD55D140A1E0B0E0AC0FBD1FB0930703E0
S11304F0A09306034E01B1E18B0E911C988A8F865E
S11305003E01E1E26E0E711C78A26F8E18AA1FA63E
S11305106E01F1E3CF0ED11CD0920503C092040307
S113052021961FAE1EAE21972E0101EA401A0EEF4E
S1130530500A0F2EFEE0EF2EFBE0FF2EF02D02EF0F
S11305401AE02CED3AE04BED5AE06DE671E0C201A1
S113055004D51E011BE8211A1EEF310A0F2EFDE1FE
S1130560EF2EFBE0FF2EF02D03E11BE023E13BE047
S113057049E05BE062E771E0C101EFD40F2EF0E2E5
S1130580EF2EFBE0FF2EF02D06E11BE026E13BE021
S11305904CE05BE067E771E0CE0185579E4FDDD408
S11305A00F2EF2E2EF2EFBE0FF2EF02D08E11BE010
S11305B028E13BE04EE05BE06FE771E0CE018F5550
S11305C09E4FCBD45EAE4DAED20155963C922E9248
S11305D054970BE811E00C0F1D1FF101158B048BD0
S11305E081EA91E08C0F9D1FC156DE4F9983888369
S11305F0CF59D140CB54DE4F19821882C55BD1400C
S1130600A1E0B0E0AC0FBD1FB0930703A0930603B5
S1130610988A8F8678A26F8E18AA1FA6D092050397
S1130620C092040321961FAE1EAE2197BE016954E9
S11306307E4F7093090360930803AE0143545E4FE9
S1130640FB01558344838296DA0115969C938E931D
S113065014979E0127533E4FFC0135832483529601
S1130660F901B583A48305ED11E00C0F1D1F159648
S11306701C930E9314976E0115E2C11A1EEFD10A52
S1130680C752DE4FD982C882C95DD1404E01EFE125
S11306908E1AEEEF9E0AF601958284823E01F9E1FC
S11306A06F1AFEEF7F0AF401758264820DEE11E089
S11306B00C0F1D1FF30115830483E3EFF1E0EC0F2E
S11306C0FD1FCF50DE4FF983E883C15FD14009EFAE
S11306D011E00C0F1D1FC950DE4F19830883C75F3B
S11306E0D140EFEFF1E0EC0FFD1FC350DE4FF98373
S11306F0E883CD5FD14005E012E00C0F1D1FCD5FF4
S1130700DD4F19830883C350D240C75FDD4F198280
S11307101882C950D2407E0115EFE11A1DEFF10A8B
S1130720FB01F182E082F701138212828E01015FE4
S11307301D4FFB0113830283F801138212826FEAB7
S113074070E06C0F7D1F665F7F4FF70171836083DC
S1130750FAE04F0E511CF801518240820C5F1F4F8A
S1130760FA0111830083F80113821282625A7E4FC8
S1130770FA0173836283FB01138212824E5E510974
S1130780F801518340835101FAE0AF0EB11CFB0123
S1130790B182A082085F1F4FFC0111830083405B7C
S11307A05E4FF80153834283FA0113821282645F1D
S11307B07F4FFC0173836283FB011382128281EFFA
S11307C090E08C0F9D1F0A96F8019183808303E8C3
S11307D010E00C0F1D1F065F1F4FFA0111830083E9
S11307E04BE851E04C0F5D1F465F5F4FFB015183A7
S11307F040837E01F9EDEF1AFDEFFF0AF901F18262
S1130800E08202561E4FF70113830283F80113821C
S11308101282645F7F4FF90173836283FB01138249
S11308201282F7019183808327E530E02C0F3D1F6E
S1130830265F3F4FF80131832083FB0151834083BE
S1130840085F1F4F11961C930E93685F7F4FF8014A
S113085073836283FB011382128226523E4F1396E6
S11308603C932E931297D90113961C921E921297C1
S1130870F80191838083A9E9B0E0AC0FBD1F1A96FB
S1130880FB01B183A083D901AD92BC92685F7F4F15
S1130890CB52DE4F79836883C55DD140285F3F4FDB
S11308A0FB0133832283D90113961C921E92129763
S11308B01496C952DE4FB983A883C75DD1401396FD
S11308C01C921E9212979183808361E470E06C0FF6
S11308D07D1F665F7F4FF90171836083AD92BC9287
S11308E07E5FD6016D937C93045E1F4FFB011383DF
S11308F00283D80113961C921E9212973896D60141
S11309001396FC93EE931297138212822BED30E030
S11309102C0F3D1F265F3F4FDB012D933C930F2E81
S1130920F7E0CF2EDD24D394F02DCC0EDD1EBAE0FB
S1130930CB0ED11CD801CD92DC92B182A082645F2F
S11309407F4FF40171836083045F1F4FDB011396B3
S11309501C930E931297F801138212823496D401D9
S11309601396FC93EE93129713821282DB012D935C
S11309703C930F2EFDE1EF2EFF24F394F02DEC0EAB
S1130980FD1EBAE0EB0EF11CD801ED92FC925183EE
S11309904083645F7F4FF301718360834E01F9E903
S11309A08F1AFDEF9F0ADB0113969C928E92129789
S11309B0F401138212823496D3011396FC93EE93BE
S11309C0129713821282DB012D933C9303E311E00F
S11309D00C0F1D1F065F1F4FD4010D931C935183F1
S11309E0408326573E4FC351DE4F39832883CD5E63
S11309F0D140605F7F4FF901738362834E01F9E850
S1130A008F1AFDEF9F0ADB0113969C928E92129728
S1130A10F401138212823496C151DE4FF983E883C4
S1130A20CF5ED14013821282D9018D939C932DE61F
S1130A3030E02C0F3D1F265F3F4FDB012D933C938D
S1130A40D4011196DC92CE92B182A0826E01B1E8FB
S1130A50CB1ABDEFDB0ACD50DE4FD982C882C35F0B
S1130A60D140605F7F4FF601738362835096FB0130
S1130A70B383A28313961C921E9212975E01F5E72C
S1130A80AF1AFDEFBF0ACB50DE4FB982A882C55F13
S1130A90D140F50113821282F60191838083FB0118
S1130AA031832083ED92FC92D50111965C934E9391
S1130AB0645F7F4FC750DE4F79836883C95FD1403D
S1130AC042505F4FFB01538342831C96FA01B38368
S1130AD0A28313961C921E9212977E01F5E6EF1ADA
S1130AE0FDEFFF0AC550DE4FF982E882CB5FD140AB
S1130AF0F70113821282FB0191838083FA0131830F
S1130B0020830D931C9341EA51E04C0F5D1F465F17
S1130B105F4FD70111965C934E930E591E4FC150EF
S1130B20DE4F19830883CF5FD1406C5E7F4FF8019D
S1130B30738362831C96FB01B383A28313961C9276
S1130B401E9212977E01F5E5EF1AFDEFFF0ACF5FC3
S1130B50DD4FF982E882C150D240F701138212823C
S1130B60F80191838083FB013183208369E471E080
S1130B706C0F7D1F665F7F4F6D937C93D701119639
S1130B805C934E93645A7E4FCB5FDD4F79836883C9
S1130B90C550D2401896FB01B383A28313961C92CE
S1130BA01E921297085E1F4FC95FDD4F1983088399
S1130BB0C750D240F80113821282FB0191838083D3
S1130BC02D933C93D8014D935C9394D0BAD0FFD02D
S1130BD08BAD9CAD8332BBE09B0724F082E29BE0AB
S1130BE09BD709C08D3CEAE09E0724F48DEC9AE083
S1130BF093D701C091D7C654DD4F0FB6F894DEBF2A
S1130C000FBECDBFDF91CF911F910F91FF90EF9059
S1130C10DF90CF90BF90AF909F908F907F906F9018
S1130C205F904F903F902F900895FC0184859585A7
S1130C309B01281B390B86859785861B970B1216FB
S1130C401306F4F418161906F4F460897189A2895C
S1130C50B3898A9FA0018B9F500D9A9F500D112438
S1130C60269FC001279F900D369F900D1124481791
S1130C7059070CF4CA018F3F910509F03CF408C0F0
S1130C8080E090E005C080E090E002C080E091E068
S1130C909387828708950F931F93CF93DF93FC016B
S1130CA0C685D78584859585C81BD90B2285338550
S1130CB060897189C9010E949E118E01061B170B60
S1130CC062897389C9010E949E11061B170BC00F0C
S1130CD0D11F2C9FC0012D9F900D3C9F900D11247E
S1130CE099230CF4019695958795DF91CF911F91E7
S1130CF00F9108950F931F93CF93DF9300910603F1
S1130D001091070301151105B9F0F801C485D585C3
S1130D10209761F0209729F0F80162857385CE0150
S1130D2084DF0C88DD89C02D2097A1F7F8010685A2
S1130D3017850115110549F7DF91CF911F910F9187
S1130D4008950F931F93CF93DF93C0910803D0911D
S1130D5009032097B9F100E011E0E881F9813097A7
S1130D6081F0202F312FA081B1818D919C91821728
S1130D7093070CF49C010280F381E02D309799F7DE
S1130D8002C0202F312FEA81FB813097B1F0722FFE
S1130D90632FA081B1818D919C911197572F462F7C
S1130DA02817390714F4582F492F5C9311964C9344
S1130DB00280F381E02D309761F70C80DD81C02D36
S1130DC0209759F6DF91CF911F910F9108952F929B
S1130DD03F924F925F926F927F928F929F92AF92C7
S1130DE0BF92CF92DF92EF92FF920F931F93CF9314
S1130DF0DF9300D000D000D0CDB7DEB780910403DC
S1130E00909105039C838B83892B09F48DC0EB811E
S1130E10FC810484F585E02DFE83ED83EF2B09F43A
S1130E206EC0512C612C712C412C312C212C198237
S1130E301A828D819E812FDFBC01882777FD8095E2
S1130E40982F0E94AF106B017C01ED81FE81048517
S1130E501585B801882777FD8095982F0E94AF10DB
S1130E604B015C01ED81FE8186859785801B910B8A
S1130E70BC0112F46F5F7F4F75956795882777FDE6
S1130E808095982F0E94AF10A50194010E94B00F85
S1130E909B01AC01C701B6010E943B119B01AC014F
S1130EA0632D722D89819A810E94B00F362E272ED0
S1130EB089839A83A7019601652D762D872D942D1C
S1130EC00E94B00F562E672E782E492EED81FE819A
S1130ED00488F589E02DFE83ED83EF2B09F0A9CF7B
S1130EE0262F372F482F592F632D722D89819A81F0
S1130EF00E941410262F372F482F592F04C020E0AA
S1130F0030E040E050E0622F732F842F952F0E9431
S1130F107C10EB81FC8173876287868597859C832F
S1130F208B83892B09F073CF26960FB6F894DEBF16
S1130F300FBECDBFDF91CF911F910F91FF90EF9026
S1130F40DF90CF90BF90AF909F908F907F906F90E5
S1130F505F904F903F902F900895AF92BF92CF92A1
S1130F60DF92EF92FF920F931F93CF93DF93EC01E5
S1130F706A0159010E9422121B861A86DD86CC86DC
S1130F80FF86EE86B5016C197D0920E031E0C901C8
S1130F900E949E11798B688BB701601B710BC9018C
S1130FA00E949E117B8B6A8BDF91CF911F910F91D1
S1130FB0FF90EF90DF90CF90BF90AF900895119A7B
S1130FC0623729F4129A84EE9CE0C1C508956C3608
S1130FD081F4139A80EB94E088D8892B21F484E679
S1130FE09AE0B5C5089580E090E06FD886EE97E06A
S1130FF0AEC508951F920F920FB60F9211240BB62F
S11310000F928F939F93EF93FF938091CE008F3F26
S113101029F41092E7011092E60110C0E091E60174
S1131020F091E701E65FFC4F80838091E6019091A7
S1131030E70101969093E7018093E601FF91EF9118
S11310409F918F910F900BBE0F900FBE0F901F902A
S1131050189553D503D68DEC9AE09093890080932C
S1131060880084E69AE090938B0080938A00089528
S1131070ECECF0E01182108220E92093C9002EE00C
S11310802093CA00918380831092E7011092E601B5
S11310900895CF93DF93CDB7DEB72B970FB6F894AF
S11310A0DEBF0FBECDBFD5DF2FEF8FEF90EE215007
S11310B080409040E1F700C0000087E090E0D8DF76
S11310C08FEF81B978940F2EFAE8AF2EB12CF02D62
S11310D00F2EF8E8CF2ED12CF02D4DD68823E9F32E
S11310E01B85BE016F5F7F4FCE010B964ED68B855D
S11310F0843059F4111114C01092E9011092E801DE
S113110081E090E00E9465000BC0813049F4143006
S113111039F48A858C3621F481E090E00E946500E0
S11311206B8170E0098110E0EA80F12C9884F894D6
S11311309B8591110CC0F50140815181F60180819C
S113114091810E949400B701C801B6D419C09430AB
S113115039F48DEC9AE0E0D484E69AE0F8D410C037
S1131160913071F4F50140815181F60180819181C2
S11311700E9494009701A8016A85892D90E01FDFE1
S11311807894F601E080F180F5010081118180E01E
S11311909BD58E2D99D580E097D5802F95D59DCF61
S11311A02F923F924F925F926F927F928F929F9273
S11311B0AF92BF92CF92DF92EF92FF920F931F9361
S11311C0CF93DF93CDB7DEB7CE55D2400FB6F894A8
S11311D0DEBF0FBECDBFC35ADD4F99838883CD5583
S11311E0D2401B0188E0E4E8F1E0DE0111960190B1
S11311F00D928A95E1F73E0121E1620E711C0F2EDA
S1131200FDE7EF2EF12CF02D0EE610E024E630E0A1
S113121043E650E06CE871E0C3019FDE4E0147E213
S1131220840E911C0F2EF1E9EF2EF12CF02D02E823
S113123010E022E830E043E750E065E971E0C401E2
S11312408CDE2E015DE3450E511C0F2EF5EAEF2EC8
S1131250F12CF02D06E910E026E930E047E850E0F3
S11312606EE971E0C20179DE5E0163E5A60EB11C90
S11312700F2EF9EBEF2EF12CF02D0AEA10E02AEAFA
S113128030E04BE950E065EA71E0C50166DE6E01CD
S113129079E6C70ED11C0F2EF9ECEF2EF12CF02DB0
S11312A008EC10E02EEB30E04FEA50E06DEA71E01C
S11312B0C60153DE7E866D869EA28DA25CAE4BAEC9
S11312C06396BFAEAEAE6397D5015596DC92CE92CF
S11312D05497F601158A148AC35ADD4F48815981FF
S11312E0CD55D240443651052CF484E690E09C87D9
S11312F08B8716C0C35ADD4F68817981CD55D240A2
S1131300693C71052CF088EC90E09C878B8708C0C1
S1131310C35ADD4F88819981CD55D2409C878B87F4
S113132088E0E5EBF1E0DE01A158BF4F01900D929A
S11313308A95E1F74E019FE8890E911C0F2EFCE37C
S1131340EF2EF12CF02D00E010E020E030E04FEF24
S11313505FEF6DEB71E0C40100DE5E01A5EAAA0E49
S1131360B11C0F2EF6E4EF2EF12CF02D08E210E064
S113137028E230E04AE050E065EC71E0C501EDDDC3
S11313806E01BBEBCB0ED11C0F2EF1E5EF2EF12C31
S1131390F02D00E510E020E530E044E150E06DEC94
S11313A071E0C601DADDC557DF4F99828882CB58D8
S11313B0D040F401B58AA48AD5015596DC92CE9228
S11313C05497F601158A148A121413044CF081E020
S11313D090E0C757DF4F99838883C958D04013C022
S11313E0F0E52F1631044CF08FE490E0C757DF4F3F
S11313F099838883C958D04006C0C757DF4F3982C4
S11314002882C958D0406E0121EDC20ED11C89E05A
S1131410E9E0F1E0D60101900D928A95E1F75E01D1
S113142041EEA40EB11C0F2EFFEEEF2EF12CF02D89
S11314300DED10E02DED30E04CED50E066ED71E087
S1131440C5018BDD4E0157EF850E911C0F2EF3E085
S1131450EF2EFF24F394F02D05EF10E025EF30E09C
S113146047EE50E060E271E0C40177DD3E0163EFD6
S1131470661A6EEF760A0F2EF9E1EF2EFF24F3942D
S1131480F02D0AE011E02AE031E04BEF50E065E294
S113149071E0C30162DD2E017DED471A7EEF570A2C
S11314A00F2EFDE2EF2EFF24F394F02D0FE111E057
S11314B02FE131E041E151E06EE271E0C2014DDD26
S11314C01E0187EC281A8EEF380A0F2EF8E3EF2E50
S11314D0FF24F394F02D07E311E027E331E045E224
S11314E051E06EED71E0C10138DDD6011D963C92EC
S11314F02E921C97F101558A448AD20155967C920A
S11315006E925497F301958A848AD4015596BC92BD
S1131510AE925497F501158A148ACE0101969093E0
S1131520070380930603E256F109F88BEF871786C9
S11315301686D0920503C0920403D6011F961C920E
S11315401E921E97BE01615B7E4F7301BAE0EB0EE3
S1131550F11CFB01F182E08213821282DE01AD5A9A
S1131560BE4F9E0127563F4F11963C932E931396E0
S11315701C921E9212978A5A9E4F3E01FBE16F0EF7
S1131580711CFC0171826082B383A2831896119648
S11315909C938E9313967C936E93129715961C923C
S11315A01E9214976E5E7F4FFAE08F0E911CFB0122
S11315B091828082138212828E010B591E4F885AA7
S11315C09109F8019183808313821282AE014759F5
S11315D05E4FFA01718260821383028334965183D1
S11315E0408373836283B583A483025F1F4F4E5786
S11315F05109C35ADD4F59834883CD55D240D80190
S113160011965C934E9313961C921E9212975E0150
S1131610B9E8AB1ABEEFBB0A46525109D50111967F
S11316205C934E9313961C921E921297665E7F4FA4
S1131630DB0111967C926E921396BC92AE92129735
S1131640149611967C936E9313961C930E93129793
S11316501596FC93EE9314970E5E1F4FEAE04E0E20
S1131660511CF80151824082138212823E01F7E735
S11316706F1AFEEF7F0AF3013183208313821282F3
S11316805E01F1E3AF0EB11CC357DE4FB982A882ED
S1131690CD58D140C157DE4F79826882CF58D140AE
S11316A038966DE871E06C0F7D1F7183608313833E
S11316B00283B583A4830E5E1F4FD80111969C92BA
S11316C08E9213961C921E9212973E01B5E66B1AE7
S11316D0BEEF7B0AD30111969C938E9313961C92B2
S11316E01E9212976E5E7F4FDB011196BC92AE92F2
S11316F013967C926E921297149611967C936E9325
S113170013961C930E9312971596FC93EE931497CD
S11317100E5E1F4FC35ADD4F68817981CD55D2408B
S1131720F80171836083138212823E0173E5671AA4
S11317307EEF770AF3015183408313821282BE0144
S11317406F547E4FFB01B182A08273826282349611
S11317507183608313830283B583A4830E5E1F4F5A
S1131760D80111965C924E9213961C921E92129777
S11317703E01B1E46B1ABEEF7B0AD30111963C9390
S11317802E9313961C921E9212975E01B7E4AB0E31
S1131790B11CCD53DE4FB982A882C35CD140CB5378
S11317A0DE4F79826882C55CD140189663EC71E0A3
S11317B06C0F7D1F11967C936E9313961C930E935E
S11317C012971596FC93EE9314970E5E1F4FF80133
S11317D0F182E082138212823E01FFE26F1AFEEF71
S11317E07F0AF30191838083138212826E5E7F4F9E
S11317F0FB01B182A082738262823496718360831A
S113180013830283B583A4830E5E1F4FD801119600
S11318109C928E9213961C921E9212973E01BDE1E9
S11318206B1ABEEF7B0AD30111965C934E93139609
S11318301C921E9212976E5E7F4FDB011196BC9232
S1131840AE9213967C926E921297149611967C9394
S11318506E9313961C930E9312971596FC93EE9326
S113186014970E5E1F4FEAE02E0E311CF8013182F0
S11318702082138212823E01FBE06F1AFEEF7F0A80
S1131880F30131832083138212825E01FDE5AF0EE2
S1131890B11CC750DE4FB982A882C95FD140C55080
S11318A0DE4F79826882CB5FD140389669EF71E070
S11318B06C0F7D1F7183608313830283B583A483BC
S11318C00E5E1F4FD80111965C924E9213961C9295
S11318D01E9212973E01B9EF6B1ABDEF7B0AD3013A
S11318E011969C938E9313961C921E9212976E5E81
S11318F07F4FDB011196BC92AE9213967C926E924E
S11319001297149611967C936E9313961C930E93D0
S113191012971596FC93EE9314970E5E1F4FF801E1
S11319209182808213821282625F7F4FFB01518316
S11319304083138212824E01F3EE8F1AFDEF9F0A49
S1131940F401B182A08273836283685F7F4FFB01DD
S11319509182808213830283B583A4835E01F9EDAF
S1131960AF1AFDEFBF0AD50111963C922E92139641
S11319701C921E921297149611963C932E931396D2
S11319801C921E9212972A563E4F025A1140F90198
S113199011830083B383A283189611963C932E93EC
S11319A01396BC92AE92129715967C936E931497ED
S11319B05E01F7ECAF1AFDEFBF0AF50151824082D8
S11319C013821282645E7F4FFB01918380831382B2
S11319D012822E5E3F4FF901118300837383628369
S11319E08A569E4FFC0131832083B382A282B58341
S11319F0A48358961196FC92EE9213961C921E9212
S1131A0012976E5E7F4FFB015183408313821282D3
S1131A102E5E3F4FF90111830083738362833496F2
S1131A2031832083B383A28395838483F093090352
S1131A30E09308035FD985D9CAD9D6011A962D91A6
S1131A403C911B97C901880F991F220F331F220F46
S1131A50331F220F331F820F931F1B969C938E9369
S1131A601A97863EB7E09B0724F486EE97E06FD082
S1131A7009C0853EECE09E0724F084EE9CE067D02C
S1131A8001C065D0C25ADD4F0FB6F894DEBF0FBE59
S1131A90CDBFDF91CF911F910F91FF90EF90DF9019
S1131AA0CF90BF90AF909F908F907F906F905F90FA
S1131AB04F903F902F90089531E06135710509F002
S1131AC030E021E08130910509F020E0222331F05B
S1131AD0332321F084EE9CE03AC0089521E0823063
S1131AE0910509F020E0222331F0332321F086EE22
S1131AF097E02DC0089554CB089580E38AB982EA13
S1131B00809380008FEF9FE89093870080938600F6
S1131B108AE180938100089580362AE092073CF49C
S1131B208FE59AE09093890080938800089582322B
S1131B302BE092073CF082E29BE090938900809333
S1131B408800089590938900809388000895843EC6
S1131B502CE092073CF084EE9CE090938B00809301
S1131B608A000895873E27E092073CF486EE97E0CA
S1131B7090938B0080938A00089590938B008093B8
S1131B808A0008951F920F920FB60F9211240BB67C
S1131B900F922F933F938F939F93AF93BF93EF93A2
S1131BA0FF9310982EB52D3FA9F0E4E7F2E0808171
S1131BB09181DC01AE5CBD4F2C93019691838083AF
S1131BC0E6E7F2E08081918101969183808381E050
S1131BD08093EA018091740290917502803491059A
S1131BE021F4109275021092740280913002909147
S1131BF03102892B01F1E0912C02F0912D02E45184
S1131C00FE4F80818EBDECE2F2E0808191810196ED
S1131C1091838083E0E3F2E0208131812150310916
S1131C2031832083109A8034910549F410922D0257
S1131C3010922C0204C08DEF8EBD1092EB01FF9127
S1131C40EF91BF91AF919F918F913F912F910F9001
S1131C500BBE0F900FBE0F901F90189580E484B9AF
S1131C6080EC8CBD089A10988DEF8EBD0895F89481
S1131C70209176023091770221153105A9F0E2E72F
S1131C80F2E040815181DA01AE5CBD4F8C914F5F2F
S1131C905F4F518340832150310930937702209361
S1131CA07602232B21F401C08EEF1092EA012091D9
S1131CB07202309173022034310521F410927302C0
S1131CC01092720278940895F89420913002309121
S1131CD031022034310590F4EEE2F2E0408151818A
S1131CE0DA01A451BE4F8C934F5F5F4F5183408301
S1131CF02F5F3F4F309331022093300280912E02A8
S1131D0090912F028034910521F410922F021092A9
S1131D102E0280913002909131020197F9F4809162
S1131D20EB0181111BC01098E0912C02F0912D025F
S1131D30E451FE4F80818EBDECE2F2E0808191811E
S1131D40019691838083E0E3F2E0808191810197A1
S1131D5091838083109A81E08093EB0180912C021F
S1131D6090912D028034910521F410922D0210924D
S1131D702C027894089581E02091760230917702C4
S1131D802B30310508F480E008950F931F93CF930F
S1131D90DF938C01EB012091760230917702232BA3
S1131DA061F1E0917202F0917302EE5CFD4F80816B
S1131DB08F3FD9F4E0DF882309F159DF58DFF801B8
S1131DC0808355DF888353DF898351DF8A834FDF24
S1131DD08B834DDF8C834BDF8D8349DF8F8347DF1C
S1131DE0898745DF888781E009C0C5DF882331F012
S1131DF03EDFBE01C801C9DF01C080E0DF91CF91A1
S1131E001F910F9108951F920F920FB60F921124F4
S1131E100BB60F922F933F934F938F939F93AF9350
S1131E20BF93EF93FF938091020390910303803457
S1131E30910531F481E080932E038091C60016C091
S1131E4080349105E8F4E0E0F3E0208131814091B1
S1131E50C600D901A254BD4F4C932F5F3F4F31832D
S1131E6020830196909303038093020380910203DD
S1131E70909103038034910519F481E080932C033D
S1131E8080910003909101038034910521F4109214
S1131E9001031092000381E080932B03FF91EF91E3
S1131EA0BF91AF919F918F914F913F912F910F903F
S1131EB00BBE0F900FBE0F901F9018951F920F929C
S1131EC00FB60F9211240BB60F928F939F93EF933B
S1131ED0FF938091BC029091BD028034910519F466
S1131EE010922A0302C0892BB9F0E091B802F09154
S1131EF0B902E858FD4F80818093C600E8EBF2E018
S1131F0080819181019691838083ECEBF2E0808162
S1131F1091810197918380838091B8029091B90255
S1131F208034910521F41092B9021092B802809184
S1131F30BC029091BD02892B39F410922D03E1EC7F
S1131F40F0E080818F7B8083FF91EF919F918F914F
S1131F500F900BBE0F900FBE0F901F901895505806
S1131F60BB27AA270ED04DC13ED130F043D120F07B
S1131F7031F49F3F11F41EF433C10EF4E095E7FBF6
S1131F8029C1E92F4FD180F3BA1762077307840779
S1131F90950718F071F49EF567C10EF4E0950B2EC9
S1131FA0BA2FA02D0B01B90190010C01CA01A001A7
S1131FB01124FF27591B99F0593F50F4503E68F102
S1131FC01A16F040A22F232F342F4427585FF3CF43
S1131FD0469537952795A795F0405395C9F77EF414
S1131FE01F16BA0B620B730B840BBAF09150A1F05D
S1131FF0FF0FBB1F661F771F881FC2F70EC0BA0FE3
S1132000621F731F841F48F4879577956795B7956A
S1132010F7959E3F08F0B3CF9395880F08F0992762
S1132020EE0F9795879508950CD0EBC0E3D040F060
S1132030DAD030F021F45F3F19F0CCC0511115C152
S1132040CFC0F0D098F39923C9F35523B1F3951B6E
S1132050550BBB27AA2762177307840738F09F5FC5
S11320605F4F220F331F441FAA1FA9F333D00E2E34
S11320703AF0E0E830D091505040E695001CCAF7A1
S113208029D0FE2F27D0660F771F881FBB1F261766
S113209037074807AB07B0E809F0BB0B802DBF0139
S11320A0FF2793585F4F2AF09E3F510568F092C076
S11320B0DCC05F3FECF3983EDCF38695779567953B
S11320C0B795F7959F5FC9F7880F911D96958795EA
S11320D097F90895E1E0660F771F881FBB1F621709
S11320E073078407BA0720F0621B730B840BBA0BC7
S11320F0EE1F88F7E095089504D06894B111B5C037
S1132100089598D088F09F5790F0B92F9927B75128
S1132110A0F0D1F0660F771F881F991F1AF0BA95A7
S1132120C9F712C0B13081F09FD0B1E008959CC0CE
S1132130672F782F8827B85F39F0B93FCCF386959D
S113214077956795B395D9F73EF4909580957095FA
S113215061957F4F8F4F9F4F0895E89409C097FB77
S11321603EF490958095709561957F4F8F4F9F4F6A
S11321709923A9F0F92F96E9BB279395F6958795AE
S113218077956795B795F111F8CFFAF4BB0F11F471
S113219060FF1BC06F5F7F4F8F4F9F4F16C0882318
S11321A011F096E911C0772321F09EE8872F762F4E
S11321B005C0662371F096E8862F70E060E02AF08F
S11321C09A95660F771F881FDAF7880F969587957B
S11321D097F9089597F99F6780E870E060E00895A3
S11321E09FEF80EC089500240A941616170618062B
S11321F00906089500240A94121613061406050607
S11322000895092E0394000C11F4882352F0BB0F97
S113221040F4BF2B11F460FF04C06F5F7F4F8F4FFA
S11322209F4F089557FD9058440F551F59F05F3F35
S113223071F04795880F97FB991F61F09F3F79F0E4
S113224087950895121613061406551FF2CF469566
S1132250F1DF08C0161617061806991FF1CF8695E8
S11322607105610508940895E894BB2766277727CC
S1132270CB0197F908950BD0C4CFB5DF28F0BADFAE
S113228018F0952309F0A6CFABCF1124EECFCADF07
S1132290A0F3959FD1F3950F50E0551F629FF00175
S11322A0729FBB27F00DB11D639FAA27F00DB11DCE
S11322B0AA1F649F6627B00DA11D661F829F222757
S11322C0B00DA11D621F739FB00DA11D621F839FDE
S11322D0A00D611D221F749F3327A00D611D231FB4
S11322E0849F600D211D822F762F6A2F11249F5702
S11322F050408AF0E1F088234AF0EE0FFF1FBB1F25
S1132300661F771F881F91505040A9F79E3F5105C3
S113231070F060CFAACF5F3FECF3983EDCF3869574
S113232077956795B795F795E7959F5FC1F7FE2B6E
S1132330880F911D9695879597F9089597FB072E19
S113234016F4009406D077FD08D02DD007FC05D0F4
S11323503EF4909581959F4F0895709561957F4FB8
S11323600895052E97FB16F400940FD057FD05D061
S11323702ED007FC02D046F408C050954095309505
S113238021953F4F4F4F5F4F0895909580957095DD
S113239061957F4F8F4F9F4F0895B7FF3AC039D053
S11323A0821B930B0895AA1BBB1B51E107C0AA1FF4
S11323B0BB1FA617B70710F0A61BB70B881F991FE2
S11323C05A95A9F780959095BC01CD010895A1E295
S11323D01A2EAA1BBB1BFD010DC0AA1FBB1FEE1F9B
S11323E0FF1FA217B307E407F50720F0A21BB30BE6
S11323F0E40BF50B661F771F881F991F1A9469F762
S113240060957095809590959B01AC01BD01CF01BD
S1132410089509D0A59F900DB49F900DA49F800DA1
S1132420911D11240895A29FB001B39FC001A39FE1
S1132430700D811D1124911DB29F700D811D1124F9
S1132440911D0895FB01DC0101900D920020E1F73C
S10924500895F894FFCF8B
S113245664697374616E6365007374656572696E2D
S113246667007370656564006D61784C6566740019
S11324766C65667400737472616967687400726966
S1132486676874006D617852696768740073746F65
S1132496704469737400636C6F7365006469737464
S11324A6616E740066616172006E65757472616C4A
S11324B6006D656469756D0068696768007A6572A0
S11324C66F00736C6F77006176657261676500668D
S11324D66173740064656C74615F43006661725273
S11324E66967687400736D616C6C52696700636533
S11324F66E74726500736D616C6C4C650066617216
S11325064C6566740064656C74615F56006C656640
S1132516744F726900737472614F726900726967ED
S113252668744F72690073686172704C65007368F1
S10925366172705269009D
S9030000FC
