:1000000045C0000062C0000060C000005EC000008B
:100010005CC000005AC0000058C0000056C000007C
:1000200054C0000052C0000050C000004EC000008C
:100030004CC000004AC0000048C0000046C000009C
:1000400044C0000042C0000040C000000C94030EF9
:100050000C94B50F3AC000000C94101036C000008C
:1000600034C0000032C0000030C000002EC00000CC
:100070002CC000002AC0000028C0000026C00000DC
:1000800025C0000022C0000020C0000011241FBEB7
:10009000CFEFD0E4DEBFCDBF11E0A0E0B1E0E0E003
:1000A000F5E200E00BBF02C007900D92AE3FB10732
:1000B000D9F723E0AEEFB1E001C01D92A532B2073F
:1000C000E1F70E949C090C947E129ACF1F920F9226
:1000D0000FB60F9211248F93809118038F5F809336
:1000E00018038F910F900FBE0F901F90189590934B
:1000F000990080939800109295001092940082E0ED
:10010000809371008DE08093910010921803089500
:100110002F923F924F925F926F927F928F929F9217
:10012000AF92BF92CF92DF92EF92FF920F931F9305
:10013000CF93DF93CDB7DEB7CA5BD2400FB6F8944A
:10014000DEBF0FBECDBF7B016A0129E0E0E0F1E038
:10015000DE01119601900D922A95E1F729E0E9E080
:10016000F1E0DE01519601900D922A95E1F705E646
:1001700013E723E630E009A31AA32BA33CA326E050
:10018000E2E1F1E0DE01D19601900D922A95E1F7CE
:10019000873E07E090072CF48AEC90E09C8F8B8FD1
:1001A0000FC0843E1CE091072CF08AE491E09C8F04
:1001B0008B8F06C06AE070E00E9450127C8F6B8FBC
:1001C0002CEDC2162AE0D2062CF48CED9AE09CA706
:1001D0008BA70CC043E2C4164BE0D4062CF082E29D
:1001E0009BE09CA78BA702C0DCA6CBA6FF201CF43B
:1001F0001C861B860BC06CE4E616F1042CF08BE425
:1002000090E09C878B8702C0FC86EB860F2EF6EE73
:10021000EF2EF12CF02D0DEC10E02AEC30E049EC43
:1002200050E068E171E0CE018F5B9F4F8AD60F2EC0
:10023000F6E0EF2EFF24F394F02D0DEE10E026EE05
:1002400030E04DEC50E060E271E0CE01895A9F4F02
:1002500078D60F2EF8E2EF2EFF24F394F02D0AE06B
:1002600011E02AE031E04CEE50E065E271E0CE01B1
:1002700083599F4F66D60F2EF5E4EF2EFF24F3949B
:10028000F02D0EE211E027E231E04BE051E06EE2AA
:1002900071E0CE018D579F4F54D60F2EFBE4EF2E09
:1002A000FF24F394F02D0AE411E025E431E04DE25F
:1002B00051E064E371E0CE0187569F4F42D681E45E
:1002C00090E08C0F9D1F9E8F8D8FA7E5B0E0AC0F47
:1002D000BD1F6796BFAFAEAF6797EDE6F0E0EC0FDE
:1002E000FD1FAD96FFAFEEAFAD9703E810E00C0F2A
:1002F0001D1FCF57DF4F19830883C158D04089E9AC
:1003000090E08C0F9D1FC956DF4F99838883C75992
:10031000D040C355DF4F19821882CD5AD0400F2EDE
:10032000F4E1EF2EF12CF02D0AE010E020E030E0B7
:100330004FEF5FEF6DE371E0469603D65E0195ECFB
:10034000A90EB11C0F2EF2E3EF2EF12CF02D0EE1D1
:1003500010E02EE130E04AE050E066E471E0C501D3
:10036000F0D50F2EF6E4EF2EF12CF02D02E310E085
:1003700022E330E04EE150E06CE471E0CE018552C2
:100380009F4FDFD50F2EFCE4EF2EF12CF02D0BE468
:1003900010E026E430E042E350E064E571E0CE0195
:1003A0008F509F4FCED5AFEAB0E0AC0FBD1FBE87D8
:1003B000AD87CD53DF4FB982A882C35CD0400BED2F
:1003C00010E00C0F1D1FF501158B048B81EF90E0E1
:1003D0008C0F9D1FC151DF4F99838883CF5ED04022
:1003E000CB5FDE4F19821882C550D1400F2EFEE040
:1003F000EF2EFBE0FF2EF02D00EF1AE02CED3AE09F
:100400004BED5AE069E571E046969BD50F2EFDE174
:10041000EF2EFBE0FF2EF02D03E11BE023E13BE09C
:1004200049E05BE063E771E0CE01835E9E4F89D5D2
:100430000F2EF2E2EF2EFBE0FF2EF02D08E11BE085
:1004400028E13BE04EE05BE061E671E0CE018D5CCF
:100450009E4F77D50F2EF7E2EF2EFBE0FF2EF02D0B
:100460000DE11BE02DE13BE043E15BE068E671E07C
:10047000CE01875B9E4F65D5A7E0B1E0AC0FBD1FF5
:10048000BEA7ADA7EDE1F1E0EC0FFD1FC55EDE4FAD
:10049000F983E883CB51D14003E311E00C0F1D1F1A
:1004A000CF5CDE4F19830883C153D14089E491E0CA
:1004B0008C0F9D1FC95BDE4F99838883C754D14041
:1004C000C35ADE4F19821882CD55D140A1E0B0E069
:1004D000AC0FBD1FB0931C03A0931B034E01B1E1F1
:1004E0008B0E911C988A8F863E01E1E26E0E711C84
:1004F00078A26F8E18AA1FA66E01F1E3CF0ED11C51
:10050000D0921A03C092190321961FAE1EAE2197F6
:100510002E0101EA401A0EEF500A0F2EF4E0EF2EE2
:10052000FBE0FF2EF02D08EE1AE022ED3AE041ED5F
:100530005AE06DE671E0C20104D51E011BE8211AE4
:100540001EEF310A0F2EF3E1EF2EFBE0FF2EF02D10
:1005500009E01BE029E03BE04FEF5AE062E771E081
:10056000C101EFD40F2EF6E1EF2EFBE0FF2EF02DB0
:100570000CE01BE02CE03BE042E05BE067E771E071
:10058000CE0185579E4FDDD40F2EF8E1EF2EFBE014
:10059000FF2EF02D0EE01BE02EE03BE044E05BE0A0
:1005A0006FE771E0CE018F559E4FCBD45EAE4DAE5E
:1005B000D20155963C922E9254970BE811E00C0F05
:1005C0001D1FF101158B048B81EA91E08C0F9D1F9B
:1005D000C156DE4F99838883CF59D140CB54DE4F2B
:1005E00019821882C55BD140A1E0B0E0AC0FBD1FFD
:1005F000B0931C03A0931B03988A8F8678A26F8EFA
:1006000018AA1FA6D0921A03C092190321961FAEF2
:100610001EAE2197BE0169547E4F70931E036093F6
:100620001D03AE0143545E4FFB0155834483829604
:10063000DA0115969C938E9314979E0127533E4F93
:10064000FC01358324835296F901B583A48305ED1B
:1006500011E00C0F1D1F15961C930E9314976E013D
:1006600015E2C11A1EEFD10AC752DE4FD982C882E5
:10067000C95DD1404E01EFE18E1AEEEF9E0AF60100
:10068000958284823E01F9E16F1AFEEF7F0AF40140
:10069000758264820DEE11E00C0F1D1FF3011583AE
:1006A0000483E3EFF1E0EC0FFD1FCF50DE4FF98341
:1006B000E883C15FD14009EF11E00C0F1D1FC95045
:1006C000DE4F19830883C75FD140EFEFF1E0EC0FF5
:1006D000FD1FC350DE4FF983E883CD5FD14005E0B5
:1006E00012E00C0F1D1FCD5FDD4F19830883C3502F
:1006F000D240C75FDD4F19821882C950D2407E01B7
:1007000015EFE11A1DEFF10AFB01F182E082F7011A
:10071000138212828E01015F1D4FFB01138302833E
:10072000F801138212826FEA70E06C0F7D1F665F22
:100730007F4FF70171836083FAE04F0E511CF8017F
:10074000518240820C5F1F4FFA0111830083F80130
:1007500013821282625A7E4FFA0173836283FB0115
:10076000138212824E5E5109F80151834083510178
:10077000FAE0AF0EB11CFB01B182A082085F1F4FEF
:10078000FC0111830083405B5E4FF8015383428379
:10079000FA0113821282645F7F4FFC0173836283CC
:1007A000FB011382128281EF90E08C0F9D1F0A964D
:1007B000F8019183808303E810E00C0F1D1F065F92
:1007C0001F4FFA01118300834BE851E04C0F5D1F6E
:1007D000465F5F4FFB01518340837E01F9EDEF1AC5
:1007E000FDEFFF0AF901F182E08202561E4FF70188
:1007F00013830283F80113821282645F7F4FF90131
:1008000073836283FB0113821282F70191838083D9
:1008100027E530E02C0F3D1F265F3F4FF801318365
:100820002083FB0151834083085F1F4F11961C9367
:100830000E93685F7F4FF80173836283FB0113821D
:10084000128226523E4F13963C932E931297D90153
:1008500013961C921E921297F80191838083A9E946
:10086000B0E0AC0FBD1F1A96FB01B183A083D90184
:10087000AD92BC92685F7F4FCB52DE4F7983688325
:10088000C55DD140285F3F4FFB0133832283D901EF
:1008900013961C921E9212971496C952DE4FB9837A
:1008A000A883C75DD14013961C921E921297918324
:1008B000808361E470E06C0F7D1F665F7F4FF901FC
:1008C00071836083AD92BC927E5FD6016D937C9301
:1008D000045E1F4FFB0113830283D80113961C9201
:1008E0001E9212973896D6011396FC93EE931297A8
:1008F000138212822BED30E02C0F3D1F265F3F4FFD
:10090000DB012D933C930F2EF7E0CF2EDD24D39403
:10091000F02DCC0EDD1EBAE0CB0ED11CD801CD924D
:10092000DC92B182A082645F7F4FF40171836083A7
:10093000045F1F4FDB0113961C930E931297F8016F
:10094000138212823496D4011396FC93EE9312977D
:1009500013821282DB012D933C930F2EFDE1EF2ECB
:10096000FF24F394F02DEC0EFD1EBAE0EB0EF11C0B
:10097000D801ED92FC9251834083645F7F4FF30175
:10098000718360834E01F9E98F1AFDEF9F0ADB0145
:1009900013969C928E921297F401138212823496CF
:1009A000D3011396FC93EE93129713821282DB010C
:1009B0002D933C9303E311E00C0F1D1F065F1F4FA7
:1009C000D4010D931C935183408326573E4FC3514E
:1009D000DE4F39832883CD5ED140605F7F4FF901C0
:1009E000738362834E01F9E88F1AFDEF9F0ADB01E2
:1009F00013969C928E921297F4011382128234966F
:100A0000C151DE4FF983E883CF5ED1401382128259
:100A1000D9018D939C932DE630E02C0F3D1F265F6E
:100A20003F4FDB012D933C93D4011196DC92CE9283
:100A3000B182A0826E01B1E8CB1ABDEFDB0ACD50C6
:100A4000DE4FD982C882C35FD140605F7F4FF6011D
:100A5000738362835096FB01B383A28313961C9227
:100A60001E9212975E01F5E7AF1AFDEFBF0ACB5059
:100A7000DE4FB982A882C55FD140F5011382128290
:100A8000F60191838083FB0131832083ED92FC92F8
:100A9000D50111965C934E93645F7F4FC750DE4F34
:100AA00079836883C95FD14042505F4FFB01538314
:100AB00042831C96FA01B383A28313961C921E9262
:100AC00012977E01F5E6EF1AFDEFFF0AC550DE4FE3
:100AD000F982E882CB5FD140F70113821282FB01D9
:100AE00091838083FA01318320830D931C9341EA23
:100AF00051E04C0F5D1F465F5F4FD70111965C932D
:100B00004E930E591E4FC150DE4F19830883CF5F9D
:100B1000D1406C5E7F4FF801738362831C96FB01AA
:100B2000B383A28313961C921E9212977E01F5E561
:100B3000EF1AFDEFFF0ACF5FDD4FF982E882C15067
:100B4000D240F70113821282F80191838083FB0166
:100B50003183208369E471E06C0F7D1F665F7F4FF6
:100B60006D937C93D70111965C934E93645A7E4F9C
:100B7000CB5FDD4F79836883C550D2401896FB0167
:100B8000B383A28313961C921E921297085E1F4F86
:100B9000C95FDD4F19830883C750D240F801138223
:100BA0001282FB01918380832D933C93D8014D9356
:100BB0005C9394D0BAD0FFD08BAD9CAD8332BBE0B8
:100BC0009B0724F082E29BE0E8D709C08D3CEAE075
:100BD0009E0724F48DEC9AE0E0D701C0DED7C6541E
:100BE000DD4F0FB6F894DEBF0FBECDBFDF91CF91C2
:100BF0001F910F91FF90EF90DF90CF90BF90AF903B
:100C00009F908F907F906F905F904F903F902F902C
:100C10000895FC01848595859B01281B390B8685E9
:100C20009785861B970B12161306F4F418161906EF
:100C3000F4F460897189A289B3898A9FA0018B9F8E
:100C4000500D9A9F500D1124269FC001279F900D93
:100C5000369F900D1124481759070CF4CA018F3F95
:100C6000910509F03CF408C080E090E005C080E008
:100C700090E002C080E091E09387828708950F930F
:100C80001F93CF93DF93FC01C685D7858485958517
:100C9000C81BD90B2285338560897189C9010E94DF
:100CA00050128E01061B170B62897389C9010E94BD
:100CB0005012061B170BC00FD11F2C9FC0012D9F78
:100CC000900D3C9F900D112499230CF4019695955D
:100CD0008795DF91CF911F910F9108950F931F93E7
:100CE000CF93DF9300911B0310911C030115110595
:100CF000B9F0F801C485D585209761F0209729F0D7
:100D0000F80162857385CE0184DF0C88DD89C02DF2
:100D10002097A1F7F801068517850115110549F7F8
:100D2000DF91CF911F910F9108950F931F93CF9350
:100D3000DF93C0911D03D0911E032097B9F100E00D
:100D400011E0E881F981309781F0202F312FA081C7
:100D5000B1818D919C91821793070CF49C010280C4
:100D6000F381E02D309799F702C0202F312FEA81CF
:100D7000FB813097B1F0722F632FA081B1818D91EB
:100D80009C911197572F462F2817390714F4582F85
:100D9000492F5C9311964C930280F381E02D30979C
:100DA00061F70C80DD81C02D209759F6DF91CF913E
:100DB0001F910F9108952F923F924F925F926F92E1
:100DC0007F928F929F92AF92BF92CF92DF92EF92DB
:100DD000FF920F931F93CF93DF9300D000D000D0EA
:100DE000CDB7DEB78091190390911A039C838B8352
:100DF000892B09F48DC0EB81FC810484F585E02DFD
:100E0000FE83ED83EF2B09F46EC0512C612C712C05
:100E1000412C312C212C19821A828D819E812FDF49
:100E2000BC01882777FD8095982F0E9461116B0186
:100E30007C01ED81FE8104851585B801882777FD49
:100E40008095982F0E9461114B015C01ED81FE811C
:100E500086859785801B910BBC0112F46F5F7F4FD5
:100E600075956795882777FD8095982F0E94611169
:100E7000A50194010E9462109B01AC01C701B6015B
:100E80000E94ED119B01AC01632D722D89819A8125
:100E90000E946210362E272E89839A83A70196011D
:100EA000652D762D872D942D0E946210562E672E6B
:100EB000782E492EED81FE810488F589E02DFE8390
:100EC000ED83EF2B09F0A9CF262F372F482F592F6D
:100ED000632D722D89819A810E94C610262F372F8B
:100EE000482F592F04C020E030E040E050E0622F4E
:100EF000732F842F952F0E942E11EB81FC81738715
:100F00006287868597859C838B83892B09F073CFB5
:100F100026960FB6F894DEBF0FBECDBFDF91CF91FE
:100F20001F910F91FF90EF90DF90CF90BF90AF9007
:100F30009F908F907F906F905F904F903F902F90F9
:100F40000895AF92BF92CF92DF92EF92FF920F93EC
:100F50001F93CF93DF93EC016A0159010E9477122E
:100F60001B861A86DD86CC86FF86EE86B5016C1957
:100F70007D0920E031E0C9010E945012798B688B15
:100F8000B701601B710BC9010E9450127B8B6A8BE9
:100F9000DF91CF911F910F91FF90EF90DF90CF9055
:100FA000BF90AF9008954F925F926F927F928F9211
:100FB0009F92AF92BF92CF92DF92EF92FF920F93E8
:100FC0001F93CF93DF93CDB7DEB7CE5CD1090FB6B9
:100FD000F894DEBF0FBECDBF2AE0E8E9F1E0DE0104
:100FE000119601900D922A95E1F7823391052CF428
:100FF00082E390E09C878B870AC0893C91052CF0A6
:1010000088EC90E09C878B8702C09C878B875E0171
:1010100021E1A20EB11C0F2EF4E6EF2EF12CF02DE3
:1010200000E510E022E330E041E350E064E871E0E5
:10103000C50187DF6E0147E2C40ED11C0F2EF0EA16
:10104000EF2EF12CF02D08E710E028E730E040E526
:1010500050E06BE871E0C60174DF2E018DE3480EAD
:10106000511C0F2EF1E9EF2EFF24F394F02D00E92F
:1010700011E02CE231E04CE850E062E971E0C2019D
:1010800060DFBE86AD86DEA2CDA25CAE4BAE6396BF
:101090001FAE1EAE63976E01E3E5CE0ED11C89E054
:1010A000E9E0F1E0D60101900D928A95E1F73E0169
:1010B000F3E66F0E711C0F2EFCEFEF2EF12CF02DCE
:1010C00004EE10E020EE30E04FED50E060E271E021
:1010D000C30137DF5E0129E7A20EB11C0F2EFEE02F
:1010E000EF2EFF24F394F02D03E011E023E031E034
:1010F00048EF50E065E271E0C50123DF4E014FE8A3
:10110000840E911C0F2EF6E3EF2EFF24F394F02DA6
:1011100005E311E021E331E04AE051E06EE271E0E5
:10112000C4010FDFF60195868486F401B58AA48A8E
:10113000F501758A648AF301158A148ACE01019635
:1011400090931C0380931B03188A1F86D0921A0366
:10115000C0921903F601178616868C559F4F9093FF
:101160001E0380931D03DE01A555BF4FFC01B5830F
:10117000A483BE016F547F4F15967C936E93149792
:10118000FB0115821482AE0149545F4FFC0151836B
:101190004083FA01138212829E0125543F4FFC01C5
:1011A00033832283F901138212828A589109FA014A
:1011B00091838083FAE06F0E711CF9017182608265
:1011C0002C5F3F4F11963C932E93F90113821282AC
:1011D00088559F4F13969C938E931297FC01138210
:1011E0001282FAE04F0E511CF90151824082FAE05E
:1011F0008F0E911CFC01918280820496FB019183E9
:101200008083FC01138212829096FB01B383A28338
:1012100013961C921E9212972E583109FC013183AD
:101220002083FAE0AF0EB11CAD92BC9257DD7DDD9C
:10123000C2DDF60122853385C901880F991F220F6F
:10124000331F220F331F220F331F820F931F9387E9
:101250008287863EF7E09F0724F486EE97E0B8D4B5
:1012600009C0853E2CE0920724F084EE9CE0B0D4C7
:1012700001C0AED4C253DF4F0FB6F894DEBF0FBE2D
:10128000CDBFDF91CF911F910F91FF90EF90DF9035
:10129000CF90BF90AF909F908F907F906F905F9016
:1012A0004F900895992324F491958195910905C053
:1012B0008E37910514F08DE790E0623751F449972D
:1012C00024F484E59BE084C4089584EE9CE080C40B
:1012D00008956C3651F4069724F488E899E078C4B0
:1012E000089586EE97E074C40895663461F421355C
:1012F000310539F44230510521F48AEB99E068C494
:101300000895CA0150CE089539D4E9D48DEC9AE0FD
:1013100090938900809388008EE19AE090938B00EF
:1013200080938A002FEF8FEF90EE21508040904005
:10133000E1F700C000000895CF93DF93CDB7DEB78B
:101340002F970FB6F894DEBF0FBECDBF1A82198259
:101350001C821B82D9DF78940F2EFAE8AF2EB12CB5
:10136000F02D0F2EF8E8CF2ED12CF02D45D5882367
:10137000E9F34F84BE016B5F7F4FCE010F9646D5D8
:10138000EF80F12C5A840D8110E08E80912C7C84AA
:101390008E856D808F85823039F484E0481204C0D8
:1013A00080E69DE60E947700F8948F8581110DC03C
:1013B000F50140815181F60180819181B7010E9440
:1013C0008800B401C801C4D332C08F85843039F499
:1013D0008DEC9AE0E2D38EE19AE0FAD328C08F85B3
:1013E000813091F4F50140815181F6018081918134
:1013F000B7010E9488006E85872D90E09401A801B6
:101400008D5791094FDF13C08F85863061F4452DCC
:1014100050E08E010D5F1F4F9E012F5F3F4FB701C0
:10142000862D15D004C08F85823009F431D578948B
:10143000F60180819181F5018081918185E085D4DB
:1014400086E083D487E081D488E07FD48FCF0F9368
:101450001F93CF93DF93E901F89484FF06C028819E
:1014600039812B5F3F4F3983288385FF06C0288150
:101470003981255031093983288380FF07C0F8015D
:1014800020813181245631093183208381FF07C0B7
:10149000F801208131812C593F4F3183208382FF15
:1014A00003C0F8011182108283FF05C0F801118288
:1014B0001082198218826E3171055CF488819981DD
:1014C0001816190634F48DEC9AE067D31982188245
:1014D00012C04E31510554F488819981992334F416
:1014E0008DEC9AE05AD31982188205C088819981BF
:1014F0008353954F52D3F80180819181825E954F3D
:1015000067D3DF91CF911F910F9108952F923F9252
:101510004F925F926F927F928F929F92AF92BF9203
:10152000CF92DF92EF92FF920F931F93CF93DF93AF
:10153000CDB7DEB7CE5BD1400FB6F894DEBF0FBE9D
:10154000CDBFC354DE4F99838883CD5BD1401B014F
:1015500088E0E2EAF1E0DE01119601900D928A95B1
:10156000E1F73E0121E1620E711C0F2EFCE8EF2E27
:10157000F12CF02D02E810E024E630E043E650E0E4
:101580006AEA71E0C301DDDC4E0147E2840E911C82
:101590000F2EFBE9EF2EF12CF02D06E910E02CE8E0
:1015A00030E042E850E063EB71E0C401CADC2E0198
:1015B0006DE3460E511C0F2EFFEAEF2EF12CF02D9D
:1015C00000EA10E020EA30E041E950E06BE871E029
:1015D000C201B7DC5E0183E5A80EB11C0F2EFEEB45
:1015E000EF2EF12CF02D04EB10E02AEA30E045EA72
:1015F00050E06CEB71E0C501A4DC6E0199E6C90E08
:10160000D11C0F2EF3EDEF2EF12CF02D02ED10E09A
:101610002EEB30E044EB50E064EC71E0C60191DC6D
:101620007E866D869EA28DA25CAE4BAE6396BFAEEB
:10163000AEAE6397F501D58AC48AF601158A148A7D
:10164000C354DE4F88819981CD5BD14084369105AA
:101650002CF484E690E09C878B8716C0C354DE4F41
:10166000E881F981CD5BD140E33DF1052CF082EDBD
:1016700090E09C878B8708C0C354DE4F8881998196
:10168000CD5BD1409C878B8788E0ECECF1E0DE01FC
:10169000A158BF4F01900D928A95E1F74E019FE846
:1016A000890E911C0F2EFCE3EF2EF12CF02D00E0A3
:1016B00010E020E030E04FEF5FEF64ED71E0C40137
:1016C00040DC5E01E5EAAE0EB11C0F2EF6E4EF2E13
:1016D000F12CF02D08E210E028E230E04AE050E082
:1016E0006CED71E0C5012DDC6E01FBEBCF0ED11C62
:1016F0000F2EF1E5EF2EF12CF02D00E510E020E5A6
:1017000030E044E150E064EE71E0C6011ADCC557F8
:10171000DF4F99828882CB58D040F401B58AA48AE1
:10172000F501D58AC48AF601158A148A12141304A5
:101730004CF081E090E0C757DF4F99838883C95808
:10174000D04013C0F0E52F1631044CF08FE490E048
:10175000C757DF4F99838883C958D04006C0C75701
:10176000DF4F39822882C958D0406E0121EDC20E68
:10177000D11C89E0E9E0F1E0D60101900D928A9553
:10178000E1F70F2EFBEEEF2EF12CF02D09ED10E01E
:1017900029ED30E048ED50E06DEE71E0CE018F5163
:1017A0009F4FCFDB2E0147EF440E511C0F2EFEEF53
:1017B000EF2EF12CF02D0FEE10E02FEE30E040EE8A
:1017C00050E060E271E0C201BCDB1E0163EF261A4B
:1017D0006EEF360A0F2EF2E1EF2EFF24F394F02D78
:1017E00003E011E023E031E044EF50E065E271E016
:1017F000C101A7DB3E018DED681A8EEF780A0F2E2E
:10180000F6E2EF2EFF24F394F02D07E111E027E13B
:1018100031E048E051E06EE271E0C30192DB5E012D
:1018200097ECA91A9EEFB90A0F2EFFE2EF2EFF24C4
:10183000F394F02D0EE211E02EE231E04DE151E0A3
:1018400065EF71E0C5017DDBF601B586A486F50183
:10185000758A648AF301358A248AF101558A448A9B
:1018600081EE90E08C0F9D1FF201958B848BCB5005
:10187000DF4F19821882C55FD040805E9109909336
:101880001C0380931B03E857F109F88BEF87178639
:101890001686D0921A03C0921903F601178616868F
:1018A0004E01F1EB8F1AFEEF9F0A90921E03809279
:1018B0001D03BE016B5A7E4FF40175836483AE0134
:1018C000455A5E4FFB01558344839E012F593E4F7D
:1018D000FA01358324838A599E4FF90195838483C5
:1018E000DE01A359BE4FFC01B583A483E3E7F1E019
:1018F000EC0FFD1F1596FC93EE931497C958DE4F1D
:1019000019821882C757D1408E0107581E4FF40123
:1019100011830083F801138212827E01F3E8EF1A2B
:10192000FEEFFF0AF401F382E282F70113821282D2
:101930004E01F3E78F0E911CF80191828082FAE04C
:10194000AF0EB11CF701B182A082085F1F4FFB01EF
:1019500011830083F801138212827E01FBE7EF1AE4
:10196000FEEFFF0AFB01F382E282F701138212828B
:10197000685F7109F80171836083FAE06F0E711C72
:10198000F70171826082645D7E4FFA01718360832A
:10199000045F1F4FFB0113830283F801138212823D
:1019A0007E01FFE6EF1AFEEFFF0AFA01F382E28200
:1019B000F701138212825E01F7E4AF0EB11CFB0146
:1019C000B182A08246595109F80151834083FAE05F
:1019D0004F0E511CF70151824082645F7F4FF90125
:1019E000718360834C525F4FFB0153834283FA0142
:1019F00013821282005F1F4FF90113830283F801E3
:101A000013821282FB01B182A082225B3109FA01AA
:101A100031832083FAE02F0E311CF80131822082BD
:101A2000645F7F4FFC0171836083445F5F4FFB0104
:101A300053834283FA011382128226503F4FFC01E6
:101A400033832283F90113821282FB01B182A082C7
:101A50008E5C9109FA0191838083F9017182608221
:101A60002C5F3F4F11963C932E93F9011382128203
:101A7000885E9E4F13969C938E931297FC0113825F
:101A8000128244575140F90151834083FC01518235
:101A900040820496CD58DE4F99838883C357D14046
:101AA000FC0113821282A45BBF4FCB58DE4FB98377
:101AB000A883C557D14013961C921E9212972259A3
:101AC00031403183208381EE90E08C0F9D1F0A9678
:101AD0008D939C9303D929D96ED9F601228533853C
:101AE000C901880F991F220F331F220F331F220FA6
:101AF000331F820F931F93878287863EF7E09F07ED
:101B000024F486EE97E064D009C0853E2CE092076D
:101B100024F084EE9CE05CD001C05AD0C254DE4F69
:101B20000FB6F894DEBF0FBECDBFDF91CF911F91EE
:101B30000F91FF90EF90DF90CF90BF90AF909F906C
:101B40008F907F906F905F904F903F902F9008956F
:101B50008130910539F46135710571F484EE9CE0B2
:101B600037C008958230910539F46135710521F44B
:101B700086EE97E02DC00895C9CC089580E38AB918
:101B800082EA809380008FEF9FE890938700809394
:101B900086008AE180938100089580362AE09207CA
:101BA0003CF48FE59AE09093890080938800089533
:101BB00082322BE092073CF082E29BE09093890016
:101BC00080938800089590938900809388000895F9
:101BD000843E2CE092073CF084EE9CE090938B00D6
:101BE00080938A000895873E27E092073CF486EEB2
:101BF00097E090938B0080938A00089590938B00D8
:101C000080938A0008951F920F920FB60F921124AD
:101C10000BB60F922F933F938F939F93AF93BF93E6
:101C2000EF93FF9310982EB52D3FA9F0E8E8F2E06E
:101C300080819181DC01AA5BBD4F2C930196918339
:101C40008083EAE8F2E0808191810196918380832C
:101C500081E08093FE018091880290918902803416
:101C6000910521F410928902109288028091440219
:101C700090914502892B01F1E0914002F0914102DF
:101C8000E050FE4F80818EBDE0E4F2E080819181E2
:101C9000019691838083E4E4F2E020813181215038
:101CA000310931832083109A8034910549F41092D0
:101CB00041021092400204C08DEF8EBD1092FF01D0
:101CC000FF91EF91BF91AF919F918F913F912F9194
:101CD0000F900BBE0F900FBE0F901F90189580E4D1
:101CE00084B980EC8CBD089A10988DEF8EBD089554
:101CF000F89420918A0230918B0221153105A9F0C8
:101D0000E6E8F2E040815181DA01AA5BBD4F8C9197
:101D10004F5F5F4F518340832150310930938B02D5
:101D200020938A02232B21F401C08EEF1092FE0132
:101D300020918602309187022034310521F41092DF
:101D400087021092860278940895F89420914402B4
:101D5000309145022034310590F4E2E4F2E0408114
:101D60005181DA01A050BE4F8C934F5F5F4F51837A
:101D700040832F5F3F4F3093450220934402809170
:101D80004202909143028034910521F41092430263
:101D90001092420280914402909145020197F9F419
:101DA0008091FF0181111BC01098E0914002F091D9
:101DB0004102E050FE4F80818EBDE0E4F2E0808180
:101DC0009181019691838083E4E4F2E080819181A6
:101DD000019791838083109A81E08093FF01809125
:101DE0004002909141028034910521F41092410209
:101DF000109240027894089581E020918A023091F7
:101E00008B022B30310508F480E008950F931F9367
:101E1000CF93DF938C01EB0120918A0230918B02EA
:101E2000232B61F1E0918602F0918702EA5BFD4F7E
:101E300080818F3FD9F4E0DF882311F159DF58DF2B
:101E4000F801808355DF888353DF898351DF8A83DC
:101E50004FDF8B834DDF8C834BDF8D8349DF8F8397
:101E600047DF898745DF888781E00DC0C5DF88238C
:101E700049F03EDFBE01C801C9DF05C080E003C0F4
:101E800080E001C080E0DF91CF911F910F91089514
:101E900080911803811107C088E19BE07EDE84EE0B
:101EA0009CE096CE089580911803813051F488EE1D
:101EB00093E090939900809398008EE19AE088CE09
:101EC000089580911803823051F480E69DE6909346
:101ED00099008093980086EE97E07ACE08958091DD
:101EE0001803833069F48DEC9AE057DE8EE19AE0B6
:101EF0006FDE8FE398E390939900809398000895A4
:101F000080911803843069F488EE90E890939900EA
:101F10008093980088E19BE040DE86EE97E058CE03
:101F2000089580911803853051F480E69DE69093E2
:101F300099008093980084EE9CE04ACE08958091A9
:101F40001803863051F48EE19AE042DE8FE790E785
:101F5000909399008093980008958091180387309A
:101F600019F48DEC9AE019CE08951F920F920FB6D6
:101F70000F9211240BB60F922F933F934F938F9391
:101F80009F93AF93BF93EF93FF938091160390912C
:101F900017038034910531F481E08093230380910D
:101FA000C60016C080349105E8F4E4E1F3E0208136
:101FB00031814091C600D901AE52BD4F4C932F5F85
:101FC0003F4F31832083019690931703809316032C
:101FD00080911603909117038034910519F481E0E4
:101FE000809321038091140390911503803491050F
:101FF00021F4109215031092140381E080932003C2
:10200000FF91EF91BF91AF919F918F914F913F9130
:102010002F910F900BBE0F900FBE0F901F90189531
:102020001F920F920FB60F9211240BB60F928F933F
:102030009F93EF93FF938091D0029091D1028034CF
:10204000910519F410921F0302C0892BB9F0E09199
:10205000CC02F091CD02E457FD4F80818093C60001
:10206000ECECF2E080819181019691838083E0ED38
:10207000F2E0808191810197918380838091CC02ED
:102080009091CD028034910521F41092CD021092EE
:10209000CC028091D0029091D102892B39F4109218
:1020A0002203E1ECF0E080818F7B8083FF91EF9150
:1020B0009F918F910F900BBE0F900FBE0F901F90AE
:1020C00018955058BB27AA270ED04DC13ED130F0ED
:1020D00043D120F031F49F3F11F41EF433C10EF4CC
:1020E000E095E7FB29C1E92F4FD180F3BA176207CA
:1020F00073078407950718F071F49EF567C10EF415
:10210000E0950B2EBA2FA02D0B01B90190010C0107
:10211000CA01A0011124FF27591B99F0593F50F41F
:10212000503E68F11A16F040A22F232F342F442777
:10213000585FF3CF469537952795A795F04053956F
:10214000C9F77EF41F16BA0B620B730B840BBAF03F
:102150009150A1F0FF0FBB1F661F771F881FC2F7AA
:102160000EC0BA0F621F731F841F48F487957795BE
:102170006795B795F7959E3F08F0B3CF9395880F75
:1021800008F09927EE0F9795879508950CD0EBC02E
:10219000E3D040F0DAD030F021F45F3F19F0CCC04A
:1021A000511115C1CFC0F0D098F39923C9F355232D
:1021B000B1F3951B550BBB27AA276217730784073A
:1021C00038F09F5F5F4F220F331F441FAA1FA9F3F0
:1021D00033D00E2E3AF0E0E830D091505040E695E2
:1021E000001CCAF729D0FE2F27D0660F771F881F43
:1021F000BB1F261737074807AB07B0E809F0BB0B32
:10220000802DBF01FF2793585F4F2AF09E3F510555
:1022100068F092C0DCC05F3FECF3983EDCF386953B
:1022200077956795B795F7959F5FC9F7880F911DCB
:102230009695879597F90895E1E0660F771F881FB7
:10224000BB1F621773078407BA0720F0621B730B6A
:10225000840BBA0BEE1F88F7E095089504D06894BC
:10226000B111B5C0089598D088F09F5790F0B92F5C
:102270009927B751A0F0D1F0660F771F881F991FDB
:102280001AF0BA95C9F712C0B13081F09FD0B1E011
:1022900008959CC0672F782F8827B85F39F0B93F21
:1022A000CCF3869577956795B395D9F73EF49095DD
:1022B0008095709561957F4F8F4F9F4F0895E8945B
:1022C00009C097FB3EF490958095709561957F4F7E
:1022D0008F4F9F4F9923A9F0F92F96E9BB2793952C
:1022E000F695879577956795B795F111F8CFFAF43C
:1022F000BB0F11F460FF1BC06F5F7F4F8F4F9F4F6D
:1023000016C0882311F096E911C0772321F09EE8CA
:10231000872F762F05C0662371F096E8862F70E030
:1023200060E02AF09A95660F771F881FDAF7880F0A
:102330009695879597F9089597F99F6780E870E0DB
:1023400060E008959FEF80EC089500240A9416162B
:10235000170618060906089500240A941216130693
:10236000140605060895092E0394000C11F4882321
:1023700052F0BB0F40F4BF2B11F460FF04C06F5F3D
:102380007F4F8F4F9F4F089557FD9058440F551F13
:1023900059F05F3F71F04795880F97FB991F61F0E7
:1023A0009F3F79F087950895121613061406551F5E
:1023B000F2CF4695F1DF08C0161617061806991FCA
:1023C000F1CF86957105610508940895E894BB27BF
:1023D00066277727CB0197F908950BD0C4CFB5DFD7
:1023E00028F0BADF18F0952309F0A6CFABCF11245F
:1023F000EECFCADFA0F3959FD1F3950F50E0551FA4
:10240000629FF001729FBB27F00DB11D639FAA2749
:10241000F00DB11DAA1F649F6627B00DA11D661F98
:10242000829F2227B00DA11D621F739FB00DA11DB9
:10243000621F839FA00D611D221F749F3327A00D73
:10244000611D231F849F600D211D822F762F6A2F0F
:1024500011249F5750408AF0E1F088234AF0EE0F94
:10246000FF1FBB1F661F771F881F91505040A9F7A1
:102470009E3F510570F060CFAACF5F3FECF3983ECE
:10248000DCF3869577956795B795F795E7959F5F08
:10249000C1F7FE2B880F911D9695879597F90895A2
:1024A00097FB072E16F4009406D077FD08D00BD0CA
:1024B00007FC05D03EF4909581959F4F0895709547
:1024C00061957F4F0895AA1BBB1B51E107C0AA1F4E
:1024D000BB1FA617B70710F0A61BB70B881F991FC5
:1024E0005A95A9F780959095BC01CD010895FB01FF
:1024F000DC0101900D920020E1F70895F894FFCFE0
:1025000064697374616E6365007374656572696E86
:1025100067007370656564006D61784C6566740072
:102520006C656674007374726169676874007269BF
:10253000676874006D617852696768740073746FBE
:10254000704469737400636C6F73650064697374BD
:10255000616E740066616172006E65757472616CA3
:10256000006D656469756D0068696768007A6572F9
:102570006F00736C6F7700617665726167650066E6
:10258000617374006352696768740063656E747286
:102590006500634C6566740063506F736974696F9E
:1025A0006E0064656C74615F4300666172526967B6
:1025B000687400736D616C6C52696700736D616C57
:1025C0006C4C65006661724C6566740064656C7481
:1025D000615F56006C6566744F7269007374726156
:1025E0004F72690072696768744F7269007368613D
:0E25F00072704C650073686172705269000071
:00000001FF
