:1000000045C0000062C0000060C000005EC000008B
:100010005CC000005AC0000058C0000056C000007C
:1000200054C0000052C0000050C000004EC000008C
:100030004CC000004AC0000048C0000046C000009C
:1000400044C0000042C0000040C000000C940010FA
:100050000C948D123AC000000C94E81236C00000D7
:1000600034C0000032C0000030C000002EC00000CC
:100070000C94F9092AC0000028C0000026C0000026
:1000800024C0000022C0000020C0000011241FBEB8
:10009000CFEFD0E4DEBFCDBF12E0A0E0B1E0E0EBF7
:1000A000FAE200E00BBF02C007900D92A034B10746
:1000B000D9F723E0A0E4B2E001C01D92AC38B2074A
:1000C000E1F70E94480A0C9456159ACF81309105A9
:1000D00041F4109295001092940085E08093910075
:1000E0000895892B11F41092910008952F923F9258
:1000F0004F925F926F927F928F929F92AF92BF9238
:10010000CF92DF92EF92FF920F931F93CF93DF93E3
:10011000CDB7DEB7C45CD1400FB6F894DEBF0FBEDA
:10012000CDBF2C016B0188E0E4E0F1E0DE01119627
:1001300001900D928A95E1F73E0121E1620E711C5A
:100140000F2EF7E8EF2EF12CF02D08E710E024E653
:1001500030E043E650E06CE071E0C3010E94C70963
:100160004E0147E2840E911C0F2EFFEAEF2EF12C78
:10017000F02D0BE910E021E930E04DE750E066E1B9
:1001800071E0C4010E94C7095E015DE3A50EB11CC8
:100190000F2EF8ECEF2EF12CF02D07EC10E024EBF5
:1001A00030E045EA50E06DE171E0C5010E94C70909
:1001B0007E866D869EA28DA2BCAEABAE63961FAE50
:1001C0001EAE639784E6481651042CF484E690E052
:1001D0009C878B870BC0A8EC4A1651042CF087EC47
:1001E00090E09C878B8702C05C864B8688E0E6E2C5
:1001F000F1E0DE01AD5ABF4F01900D928A95E1F713
:100200003E01B3E66B0E711C0F2EF3E2EF2EF12CC4
:10021000F02D04E110E021E030E040E050E06EE23B
:1002200071E0C3010E94C7094E01E9E78E0E911CDF
:100230000F2EF7E3EF2EF12CF02D08E210E023E271
:1002400030E04FE050E066E371E0C4010E94C7096E
:100250005E01FFE8AF0EB11C0F2EFBE4EF2EF12C78
:10026000F02D0AE410E022E330E048E250E06DE3D4
:1002700071E0C5010E94C709A1967FAE6EAEA1973D
:10028000D30155969C928E925497F401B58AA48A14
:10029000D50155961C921E9254971C141D043CF0D7
:1002A00081E090E06F969FAF8EAF6F970FC0BBE479
:1002B000CB16D1043CF08AE490E06F969FAF8EAFEE
:1002C0006F9704C06F96DFAECEAE6F971E01E5EA62
:1002D0002E0E311C89E0E4E4F1E0D10101900D9291
:1002E0008A95E1F72E01F5EB4F0E511C0F2EFCE91C
:1002F000EF2EF9E0FF2EF02D08E319E028E339E0B6
:1003000047E359E06DE471E0C2010E94C7093E0174
:100310002BEC620E711C0F2EE12CFAE0FF2EF02D5B
:100320000CE919E02CE939E040E659E065E372E0B8
:10033000C3010E94C7096E0141EEC40ED11C0F2EED
:10034000F0EAEF2EFAE0FF2EF02D04E61AE024E6A4
:100350003AE048ED59E067E571E0C6010E94C7093F
:100360004E0157EF850E911C0F2EF4E5EF2EFBE0AA
:10037000FF2EF02D00EF1AE020EF3AE04CE85AE0B3
:1003800064E272E0C4010E94C7095E0183EFA81A0B
:100390008EEFB80A0F2EF1E9EF2EFBE0FF2EF02DC5
:1003A00000E91BE020E93BE04CE25BE060E671E045
:1003B000C501EDD7D1011D96BC92AE921C97F501F7
:1003C000958A848AD4015596DC92CE925497F60190
:1003D000758A648AD30155965C924E925497F201C5
:1003E000158A148ACE010196909363038093620369
:1003F000E256F109F88BEF87178616863092610373
:1004000020926003D1011F961C921E921E97A25843
:10041000BF4F8301065F1F4F11961C930E931396D7
:100420001C921E921297AE01495D5E4F3E01E9E9B2
:100430006E0E711CFA017182608213821282865DD7
:100440009E4F7E01F1E3EF0EF11CFC01F182E08290
:1004500053834283349691838083B383A28315822E
:1004600014820A962AE0820E911CDC0111969C925D
:100470008E9213961C921E921297BE01675C7E4F5D
:10048000DB0111967C926E9213961C921E9212972B
:100490004A5E5F4F9E01295B3F4FDA0111963C9304
:1004A0002E9313967C936E931297149611965C93E9
:1004B0004E9313969C938E9312971596FC93EE93FE
:1004C0001497465F5F4FEAE0AE0EB11CFA01B182AD
:1004D000A082138212825E01F5EBAF1AFEEFBF0A13
:1004E000825B9109F50191838083138212826A5E97
:1004F0007F4FFB0131832083B382A28234967183C4
:10050000608353834283B583A48356014AE0A40EDB
:10051000B11CC75ADE4FB982A882C955D140C55A0D
:10052000DE4F19821882CB55D140625F7F4F6E013A
:100530005DE6C50ED11CDB011196DC92CE921396BE
:100540001C921E921297465E5F4FDA0111963C9301
:100550002E9313967C936E931297225E3E4FD90191
:1005600011965C934E9349E551E04C0F5D1F139635
:100570005C934E9312971596FC93EE9314971696F0
:100580005AE0450E511C11965C924E9213961C92A5
:100590001E9212972E01E1E94E1AEEEF5E0AF20169
:1005A00091838083138212826A5E7F4FAE01455E23
:1005B0005F4FFB01518340835382428234967183A3
:1005C0006083B383A28335832483665F7F4FDB011F
:1005D0001196BC92AE9213961C921E921297245EB4
:1005E0003F4FD90111969C938E9313961C921E92A5
:1005F00012978E5F9E4FDC011196FC92EE9213963D
:100600003C932E931297285F3F4FD90111969C93EC
:100610008E9313967C936E9312971596FC93EE939C
:1006200014976E5E7F4FFB01118300831382128249
:100630001A9611967C926E9213961C921E921297A5
:100640004296FC0151834083B383A283189611968E
:100650009C938E9313967C936E93129715963C936E
:100660002E9314976E5E7F4FFB01118300831382DC
:1006700012820E96FC01D182C08213821282205E09
:100680003F4FF90151834083938382830896FC0195
:100690003183208373836283B583A4835896119634
:1006A0009C928E9213961C921E92129744565E4F05
:1006B000FA01D182C082138212822E5E3F4FF9016D
:1006C000F182E08253834283349631832083B38363
:1006D000A28395838483F0936503E093640324D518
:1006E0004AD58FD5D1011A968D919C911B97863E44
:1006F000B7E09B072CF486EE97E00E949B0F0BC09F
:10070000853EECE09E072CF084EE9CE00E949B0F5F
:1007100002C00E949B0FCC53DE4F0FB6F894DEBF91
:100720000FBECDBFDF91CF911F910F91FF90EF9042
:10073000DF90CF90BF90AF909F908F907F906F9001
:100740005F904F903F902F90089531E06135710593
:1007500009F030E021E08130910509F020E022230A
:1007600039F0332329F084EE9CE00E949B0F0FC0E8
:1007700021E08230910509F020E0222339F0332373
:1007800029F086EE97E00E949B0F01C0AFDC81E06C
:1007900090E008952F923F924F925F926F927F92D6
:1007A0008F929F92AF92BF92CF92DF92EF92FF9281
:1007B0000F931F93CF93DF93CDB7DEB7C453D240CF
:1007C0000FB6F894DEBF0FBECDBF29E0EBE6F1E037
:1007D000DE01119601900D922A95E1F726E0E4E7FB
:1007E000F1E0DE01519601900D922A95E1F7843BEC
:1007F0002AE092072CF484EB9AE09C8F8B8F0BC03D
:1008000085354BE094072CF084E59BE09C8F8B8F23
:1008100002C09C8F8B8F77231CF41C861B860AC01A
:100820006B3F71052CF08AEF90E09C878B8702C0AC
:100830007C876B876E0151E2C50ED11C0F2EF4E14F
:10084000EF2EF12CF02D0CE010E020E030E04FEF27
:100850005FEF6AE771E0C6019AD53E0167E3660E75
:10086000711C0F2EFFE5EF2EF12CF02D0CE310E0A4
:100870002CE330E042E150E063E871E0C30187D54A
:100880000F2EFFEAEF2EF12CF02D0DE710E02DE7F3
:1008900030E04BE450E068E871E0CE01835B9F4FAD
:1008A00076D50F2EFBEFEF2EF12CF02D0AEF10E096
:1008B0002AEF30E046E950E06DE871E0CE018D5955
:1008C0009F4F65D5DE86CD867EAA6DAA8DE490E029
:1008D0008C0F9D1F2D969FAF8EAF2D97A3E6B0E096
:1008E000AC0FBD1FA396BFAFAEAFA397E9961FAEE7
:1008F0001EAEE9970F2EEE24EA94FAE0FF2EF02DBB
:1009000004EB1AE024EB3AE043EB5AE064E971E0CF
:100910008C963DD55E01BFE8AB0EB11C0F2EF3E106
:10092000EF2EFBE0FF2EF02D0EE01BE02EE03BE073
:1009300049E05BE068EB71E0C50129D50F2EF8E1D5
:10094000EF2EFBE0FF2EF02D03E11BE023E13BE067
:100950004EE05BE06AE971E0CE018B559F4F17D501
:100960002E01EBEB4E0E511C0F2EF2E2EF2EFBE0B0
:10097000FF2EF02D08E11BE028E13BE04EE05BE0BC
:1009800063EA71E0C20103D50F2EF7E2EF2EFBE020
:10099000FF2EF02D01E81FE62DE13BE043E15BE097
:1009A0006AEA71E0CE018F529F4FF1D449E750E0DF
:1009B0004C0F5D1F5E8F4D8FC357DF4FB982A882EA
:1009C000CD58D040E5EAF0E0EC0FFD1FD50155967B
:1009D000FC93EE935497C754DF4F59824882C95B0A
:1009E000D040E1EDF0E0EC0FFD1FD2015596FC93F5
:1009F000EE935497CB51DF4F19821882C55ED040D9
:100A000080E797E7ADE6B0E0C951DF4F888399836F
:100A1000AA83BB83C75ED0404E01F7EF8F0E911CB7
:100A20000F2EEE24EA94FAE0FF2EF02D04EB1AE0EC
:100A300024EB3AE043EB5AE06FEA71E0C401A7D43B
:100A40006E0123EFC21A2EEFD20A0F2EF3E1EF2E22
:100A5000FBE0FF2EF02D0EE01BE02EE03BE049E036
:100A60005BE067EB71E0C60192D41E014DED241AE4
:100A70004EEF340A0F2EF8E1EF2EFBE0FF2EF02DA3
:100A800003E11BE023E13BE04EE05BE06CEB71E057
:100A9000C1017DD40F2EF2E2EF2EFBE0FF2EF02DF0
:100AA00008E11BE028E13BE04EE05BE063EC71E035
:100AB000CE01875C9E4F6BD40F2EF7E2EF2EFBE04A
:100AC000FF2EF02D01E81FE62DE13BE043E15BE066
:100AD0006BEC71E0CE01815B9E4F59D4CD50DF4F5E
:100AE00099828882C35FD040D4015596DC92CE9221
:100AF0005497F601358A248AE9E3F1E0EC0FFD1FF3
:100B0000D1015596FC93EE9354974FE451E04C0F6E
:100B10005D1FC35BDE4F59834883CD54D140CD590F
:100B2000DE4F19821882C356D140CE0101969093B0
:100B30006303809362034096988B8F8718A21F8E61
:100B400087EE90E08C0F9D1F90936103809360036C
:100B5000CB50DF4F19821882C55FD0409E012B59C0
:100B60003E4F30936503209364038C579F4FD90108
:100B700015969C938E9314971C96FC01B583A483C1
:100B800047E751E04C0F5D1F15965C934E93149709
:100B90008E0103581E4FC558DE4F19830883CB576B
:100BA000D1407E015DE7E51A5EEFF50AF801F582B6
:100BB000E48249E851E04C0F5D1FF70155834483FF
:100BC000EFE8F1E0EC0FFD1FC357DE4FF983E88338
:100BD000CD58D14045E951E04C0F5D1FCD56DE4F59
:100BE00059834883C359D140EBE9F1E0EC0FFD1F75
:100BF000C756DE4FF983E883C959D14041EA51E035
:100C00004C0F5D1FC156DE4F59834883CF59D140E9
:100C1000E7EAF1E0EC0FFD1FCB55DE4FF983E883E7
:100C2000C55AD140C555DE4F19821882CB5AD140E2
:100C3000BE0163557E4FF90171836083FB0113820E
:100C40001282405F5F4FF90153834283FA0113829E
:100C500012822A533140FB0131832083FAE08F0E48
:100C6000911CFA0191828082685F7F4FFC01718341
:100C70006083485F5F4FFB0153834283FA01138215
:100C800012822E563E4FFC0133832283F9011382D8
:100C90001282FAE0AF0EB11CFB01B182A082FAE031
:100CA0006F0E711CFA0171826082FAE0CF0ED11CC6
:100CB000F901D182C082485F5F4F11965C934E93D9
:100CC000285F3F4FFA0133832283F9011382128296
:100CD000825A9F4F13969C938E931297DC01139622
:100CE0001C921E921297BAE04B0E511CFA015182CF
:100CF0004082D9016D927C92BAE02B0E311CFC012E
:100D000031822082285F3F4FC958DE4F39832883C4
:100D1000C757D1400896D90113969C938E9312978A
:100D2000FC01138212821896C758DE4FB983A8833C
:100D3000C957D14013961C921E92129741ED50E074
:100D40004C0F5D1F465F5F4FF90151834083FC01EB
:100D5000718260822D923C920896D8018D939C936B
:100D6000685D7F4FFC0173836283DB0113961C92E5
:100D70001E9212973896D8011396FC93EE93129711
:100D80001382128229E730E02C0F3D1F265F3F4F70
:100D9000DC012D933C93DB016D927C92D182C08269
:100DA0000C96F7019183808304591F4FDC01139641
:100DB0001C930E931297F801138212823496D70176
:100DC0001396FC93EE9312971382128265EA70E0F9
:100DD0006C0F7D1F665F7F4FDC016D937C93D801A4
:100DE0006D927C92D182C0820C96C757DE4F998358
:100DF0008883C958D140045F1F4FFC0113830283CD
:100E0000D80113961C921E9212973896C557DE4F42
:100E1000F983E883CB58D14013821282DC01AD9272
:100E2000BC928DE490E08C0F9D1F0A96D8018D93A3
:100E30009C9331822082085F1F4FC157DE4F198378
:100E40000883CF58D1407E01BFEFEB1ABDEFFB0AFC
:100E5000F801F382E282D70113961C921E92129738
:100E60001496CF56DE4FB983A883C159D14013964B
:100E70001C921E92129751824082F70191838083C7
:100E80000F2EF9E3CF2EDD24D394F02DCC0EDD1EF2
:100E9000FAE0CF0ED11CCD92DC927E01A7EFEA1AC8
:100EA000ADEFFA0ACB56DE4FF982E882C559D14040
:100EB000005F1F4FF70113830283D80113961C9222
:100EC0001E9212971496C956DE4FB983A883C7594C
:100ED000D14013961C921E92129751834083F801C1
:100EE00091838083CD92DC92085F1F4FC556DE4F01
:100EF00019830883CB59D140425C5E4FD8011396C9
:100F00005C934E931297FA01138212821896C3567D
:100F1000DE4FB983A883CD59D14013961C921E92FF
:100F20001297F80131832083FA01918380832D92F7
:100F30003C92485F5F4FCF55DE4F59834883C15A7B
:100F4000D1402E553E4FDA0113963C932E931297C3
:100F5000F901138212821896CD55DE4FB983A8830A
:100F6000C35AD14013961C921E921297FA017183B4
:100F70006083F901918380831196DC92CE9214965E
:100F8000C955DE4FB983A883C75AD14013961C9226
:100F90001E9212973C96C755DE4FF983E883C95AD3
:100FA000D1401382128283E690E08C0F9D1F0A9637
:100FB0008D939C938FE491E08C0F9D1F0A969183F3
:100FC0008083B2D0D8D01DD1CF50DF4F8881998196
:100FD000C15FD0408E31FBE09F0744F0809140021A
:100FE00090914102835E944F8BD70FC08E3B2AE0D5
:100FF000920724F48EEB9AE083D707C02091400239
:1010000030914102820F931F7BD7CC5CDD4F0FB62E
:10101000F894DEBF0FBECDBFDF91CF911F910F912E
:10102000FF90EF90DF90CF90BF90AF909F908F9008
:101030007F906F905F904F903F902F900895413533
:10104000510539F42BEF3FEF3093410220934002DA
:1010500004C010924102109240029CCB0895FC0102
:10106000848595859B01281B390B86859785861B72
:10107000970B12161306F4F418161906F4F4608987
:101080007189A289B3898A9FA0018B9F500D9A9F75
:10109000500D1124269FC001279F900D369F900D63
:1010A0001124481759070CF4CA018F3F910509F024
:1010B0003CF408C080E090E005C080E090E002C011
:1010C00080E091E09387828708950F931F93CF93D9
:1010D000DF93FC01C685D78584859585C81BD90B10
:1010E0002285338560897189C9010E9428158E0186
:1010F000061B170B62897389C9010E942815061BFC
:10110000170BC00FD11F2C9FC0012D9F900D3C9F2E
:10111000900D112499230CF4019695958795DF91F4
:10112000CF911F910F9108950F931F93CF93DF934A
:10113000009162031091630301151105B9F0F801E4
:10114000C485D585209761F0209729F0F801628544
:101150007385CE0184DF0C88DD89C02D2097A1F72F
:10116000F801068517850115110549F7DF91CF9123
:101170001F910F9108950F931F93CF93DF93C09109
:101180006403D09165032097B9F100E011E0E88194
:10119000F981309781F0202F312FA081B1818D917D
:1011A0009C91821793070CF49C010280F381E02D3F
:1011B000309799F702C0202F312FEA81FB813097B9
:1011C000B1F0722F632FA081B1818D919C91119705
:1011D000572F462F2817390714F4582F492F5C939F
:1011E00011964C930280F381E02D309761F70C80CB
:1011F000DD81C02D209759F6DF91CF911F910F917E
:1012000008952F923F924F925F926F927F928F92AA
:101210009F92AF92BF92CF92DF92EF92FF920F9385
:101220001F93CF93DF9300D000D000D0CDB7DEB7AF
:1012300080916003909161039C838B83892B09F4D7
:101240008DC0EB81FC810484F585E02DFE83ED8368
:10125000EF2B09F46EC0512C612C712C412C312CD8
:10126000212C19821A828D819E812FDFBC01882753
:1012700077FD8095982F0E9439146B017C01ED81D8
:10128000FE8104851585B801882777FD8095982F04
:101290000E9439144B015C01ED81FE8186859785A2
:1012A000801B910BBC0112F46F5F7F4F75956795A2
:1012B000882777FD8095982F0E943914A501940105
:1012C0000E943A139B01AC01C701B6010E94C514EC
:1012D0009B01AC01632D722D89819A810E943A1382
:1012E000362E272E89839A83A7019601652D762DA8
:1012F000872D942D0E943A13562E672E782E492E54
:10130000ED81FE810488F589E02DFE83ED83EF2BCE
:1013100009F0A9CF262F372F482F592F632D722D73
:1013200089819A810E949E13262F372F482F592F8B
:1013300004C020E030E040E050E0622F732F842FA3
:10134000952F0E940614EB81FC8173876287868546
:1013500097859C838B83892B09F073CF26960FB6D4
:10136000F894DEBF0FBECDBFDF91CF911F910F91DB
:10137000FF90EF90DF90CF90BF90AF909F908F90B5
:101380007F906F905F904F903F902F900895AF9215
:10139000BF92CF92DF92EF92FF920F931F93CF9362
:1013A000DF93EC016A0159010E944F151B861A86D2
:1013B000DD86CC86FF86EE86B5016C197D0920E0BE
:1013C00031E0C9010E942815798B688BB701601B39
:1013D000710BC9010E9428157B8B6A8BDF91CF911D
:1013E0001F910F91FF90EF90DF90CF90BF90AF9043
:1013F00008951F920F920FB60F9211240BB60F9201
:101400008F939F93EF93FF938091CE008F3F29F4AA
:10141000109243021092420210C0E0914202F091F9
:101420004302EA59FC4F808380914202909143022B
:1014300001969093430280934202FF91EF919F9116
:101440008F910F900BBE0F900FBE0F901F901895AD
:1014500048D542D68DEC9AE090938900809388001D
:1014600084E69AE090938B0080938A000895ECECD8
:10147000F0E01182108220E92093C9002EE0209331
:10148000CA00918380831092430210924202089511
:10149000CF93DF93CDB7DEB72B970FB6F894DEBFAF
:1014A0000FBECDBF68E270E086E990E0F9D462E358
:1014B00070E086E990E049D9CBDF2FEF8FEF90EE17
:1014C000215080409040E1F700C0000087E090E0AC
:1014D000CEDF8FEF81B978940F2EF4E96F2E712C47
:1014E000F02D0F2EF1E94F2E512CF02D0F2EF8E894
:1014F000CF2ED12CF02D0F2EFAE8AF2EB12CF02DDF
:101500004BD68823E9F31B85BE016F5F7F4FCE0169
:101510000B964CD68B85843079F411110DC0109246
:1015200045021092440281E090E00E9466008984A6
:10153000912CE8E28E1A91086B81F9800A81F89467
:101540008B8581110CC010E0F6018081918170E0E3
:10155000A80175DDB8018F2D90E0F7D816C0843052
:10156000A1F4F301808191818F3D904130F483E1BA
:101570009BE0C6D4C40159D608C0F20110828DEC9C
:101580009AE0BED484E69AE0D6D47894F601E0805E
:10159000F180F5010081118180E0A7D58E2DA5D5C0
:1015A00080E0A3D5802FA1D5ABCF2F923F924F9251
:1015B0005F926F927F928F929F92AF92BF92CF92E3
:1015C000DF92EF92FF920F931F93CF93DF93CDB7EC
:1015D000DEB7CE55D2400FB6F894DEBF0FBECDBFFA
:1015E000C35ADD4F99838883CD55D2401B0188E0D3
:1015F000E4E0F1E0DE01119601900D928A95E1F7A9
:101600003E0121E1620E711C0F2EFDE7EF2EF12C41
:10161000F02D0EE610E024E630E043E650E06FECFB
:1016200071E0C301B4DE4E0147E2840E911C0F2E1F
:10163000F1E9EF2EF12CF02D02E810E022E830E085
:1016400043E750E068ED71E0C401A1DE2E015DE3E7
:10165000450E511C0F2EF5EAEF2EF12CF02D06E968
:1016600010E026E930E047E850E066E171E0C201B1
:101670008EDE5E0163E5A60EB11C0F2EF9EBEF2E98
:10168000F12CF02D0AEA10E02AEA30E04BE950E0B4
:1016900063EE71E0C5017BDE6E0179E6C70ED11CF9
:1016A0000F2EF9ECEF2EF12CF02D08EC10E02EEBC4
:1016B00030E04FEA50E06DEE71E0C60168DE7E86F4
:1016C0006D869EA28DA25CAE4BAE6396BFAEAEAEF3
:1016D0006397D5015596DC92CE925497F601158A00
:1016E000148AC35ADD4F48815981CD55D2404436C2
:1016F00051052CF484E690E09C878B8716C0C35A72
:10170000DD4F68817981CD55D240693C71052CF05F
:1017100088EC90E09C878B8708C0C35ADD4F888196
:101720009981CD55D2409C878B8788E0E6E2F1E035
:10173000DE01A158BF4F01900D928A95E1F74E014D
:101740009FE8890E911C0F2EFCE3EF2EF12CF02D5B
:101750000EE110E02EE130E040E050E065EF71E096
:10176000C40115DE5E01A5EAAA0EB11C0F2EF6E437
:10177000EF2EF12CF02D08E210E028E230E04AE0F4
:1017800050E06FEF71E0C50102DE6E01BBEBCB0EE6
:10179000D11C0F2EF0E5EF2EF12CF02D02E310E01E
:1017A00022E330E044E150E06AE072E0C601EFDDA0
:1017B000C557DF4F99828882CB58D040F401B58A53
:1017C000A48AD5015596DC92CE925497F601158ADB
:1017D000148A33203CF4C757DF4F19821882C95846
:1017E000D04013C0F1E52F1631044CF080E590E0B5
:1017F000C757DF4F99838883C958D04006C0C75761
:10180000DF4F39822882C958D0401E0121ED220EB7
:10181000311C89E0E4E4F1E0D10101900D928A9558
:10182000E1F75E0141EEA40EB11C0F2EF6E5EF2E9E
:10183000F9E0FF2EF02D02EA18E022EA38E041EA52
:1018400058E06DE471E0C501A2DD4E0157EF850E51
:10185000911C0F2EFEE1EF2EFAE0FF2EF02D02E993
:1018600019E022E939E046E059E065E372E0C4019D
:101870008EDD3E0163EF661A6EEF760A0F2EFAEFE9
:10188000EF2EFAE0FF2EF02D04E61AE024E63AE00F
:101890004EEC59E067E571E0C30179DD6E017DED45
:1018A000C71A7EEFD70A0F2EF2ECEF2EFBE0FF2EC9
:1018B000F02D06E31BE026E33BE04AEA5AE064E24F
:1018C00072E0C60164DD2E0187EC481A8EEF580ADB
:1018D0000F2EF7E2EF2EFCE0FF2EF02D06E21CE0CB
:1018E00026E23CE042E75BE060E671E0C2014FDDEA
:1018F000D1011D965C924E921C97F201D58AC48A42
:10190000D60155967C926E925497F301958A848AFB
:10191000D4015596BC92AE925497F501158A148A5B
:10192000CE0101969093630380936203E256F1091E
:10193000F88BEF871786168630926103209260033A
:10194000D1011F961C921E921E97BE01615B7E4FB5
:101950007301BAE0EB0EF11CFB01F182E08213820D
:101960001282DE01AD5ABE4F9E0127563F4F11969F
:101970003C932E9313961C921E9212978A5A9E4F56
:101980003E01FBE16F0E711CFC0171826082B3832A
:10199000A283189611969C938E9313967C936E93C4
:1019A000129715961C921E9214976E5E7F4FFAE066
:1019B0008F0E911CFB0191828082138212828E0114
:1019C0000B591E4F885A9109F80191838083138225
:1019D0001282AE0147595E4FFA0171826082138311
:1019E000028334965183408373836283B583A483D7
:1019F000025F1F4F4E575109C35ADD4F5983488329
:101A0000CD55D240D80111965C934E9313961C92FB
:101A10001E9212975E01B9E8AB1ABEEFBB0A46529E
:101A20005109D50111965C934E9313961C921E9208
:101A30001297665E7F4FDB0111967C926E92139631
:101A4000BC92AE921297149611967C936E93139655
:101A50001C930E9312971596FC93EE9314970E5EBB
:101A60001F4FEAE0CE0ED11CF801D182C082138252
:101A700012823E01F7E76F1AFEEF7F0AF30131830E
:101A80002083138212825E01F1E3AF0EB11CC357B3
:101A9000DE4FB982A882CD58D140C157DE4F79823E
:101AA0006882CF58D14038966DE871E06C0F7D1F89
:101AB0007183608313830283B583A4830E5E1F4FFB
:101AC000D80111969C928E9213961C921E92129798
:101AD0003E01B5E66B1ABEEF7B0AD30111969C93CB
:101AE0008E9313961C921E9212976E5E7F4FDB01AF
:101AF0001196BC92AE9213967C926E9212971496A7
:101B000011967C936E9313961C930E9312971596D1
:101B1000FC93EE9314970E5E1F4FC35ADD4F6881FE
:101B20007981CD55D240F80171836083138212828E
:101B30003E0173E5671A7EEF770AF3015183408314
:101B400013821282BE016F547E4FFB01B182A082CC
:101B50007382628234967183608313830283B583B8
:101B6000A4830E5E1F4FD8011196DC92CE9213967D
:101B70001C921E9212973E01B1E46B1ABEEF7B0AD3
:101B8000D30111963C932E9313961C921E9212979A
:101B90005E01B7E4AB0EB11CCD53DE4FB982A88213
:101BA000C35CD140CB53DE4F79826882C55CD140A3
:101BB000189663EC71E06C0F7D1F11967C936E9309
:101BC00013961C930E9312971596FC93EE9314970D
:101BD0000E5E1F4FF801F182E082138212823E01F5
:101BE000FFE26F1AFEEF7F0AF30191838083138275
:101BF00012826E5E7F4FFB01B182A082738262828D
:101C000034967183608313830283B583A4830E5E4D
:101C10001F4FD80111969C928E9213961C921E9281
:101C200012973E01BDE16B1ABEEF7B0AD3011196FC
:101C30005C934E9313961C921E9212976E5E7F4F8A
:101C4000DB011196BC92AE9213967C926E92129723
:101C5000149611967C936E9313961C930E93129781
:101C60001596FC93EE9314970E5E1F4FEAE04E0E0E
:101C7000511CF80151824082138212823E01FBE026
:101C80006F1AFEEF7F0AF3013183208313821282E1
:101C90005E01FDE5AF0EB11CC750DE4FB982A882D0
:101CA000C95FD140C550DE4F79826882CB5FD14099
:101CB000389669EF71E06C0F7D1F71836083138329
:101CC0000283B583A4830E5E1F4FD8011196DC9268
:101CD000CE9213961C921E9212973E01B9EF6B1A88
:101CE000BDEF7B0AD30111969C938E9313961C92A1
:101CF0001E9212976E5E7F4FDB011196BC92AE92E0
:101D000013967C926E921297149611967C936E9312
:101D100013961C930E9312971596FC93EE931497BB
:101D20000E5E1F4FF8019182808213821282625FE1
:101D30007F4FFB0151834083138212824E01F3EEE9
:101D40008F1AFDEF9F0AF401B182A0827383628330
:101D5000685F7F4FFB019182808213830283B5838A
:101D6000A4835E01F9EDAF1AFDEFBF0AD50111960C
:101D70005C924E9213961C921E9212971496119694
:101D80003C932E9313961C921E9212972A563E4F06
:101D9000025A1140F90111830083B383A28318967C
:101DA00011963C932E931396BC92AE921297159671
:101DB0007C936E9314975E01F7ECAF1AFDEFBF0AA8
:101DC000F501D182C08213821282645E7F4FFB01D3
:101DD00091838083138212822E5E3F4FF90111831B
:101DE0000083738362838A569E4FFC013183208374
:101DF000B382A282B583A48358961196FC92EE9288
:101E000013961C921E9212976E5E7F4FFB015183B8
:101E10004083138212822E5E3F4FF90111830083AB
:101E200073836283349631832083B383A283958343
:101E30008483F0936503E093640376D99CD9E1D958
:101E4000D1011A968D919C911B97863EB7E09B0716
:101E500024F486EE97E06FD009C0853EECE09E0743
:101E600024F084EE9CE067D001C065D0C25ADD4FFB
:101E70000FB6F894DEBF0FBECDBFDF91CF911F919B
:101E80000F91FF90EF90DF90CF90BF90AF909F9019
:101E90008F907F906F905F904F903F902F9008951C
:101EA00031E06135710509F030E021E081309105C4
:101EB00009F020E0222331F0332321F084EE9CE06E
:101EC0003AC0089521E08230910509F020E02223F4
:101ED00031F0332321F086EE97E02DC0089565CBD5
:101EE000089580E38AB982EA809380008FEF9FE8AB
:101EF00090938700809386008AE180938100089503
:101F000080362AE092073CF48FE59AE090938900AE
:101F100080938800089582322BE092073CF082E2A1
:101F20009BE09093890080938800089590938900A6
:101F3000809388000895843E2CE092073CF084EE64
:101F40009CE090938B0080938A000895873E27E061
:101F500092073CF486EE97E090938B0080938A0082
:101F60000895EAE8F0E060817181409100015091AC
:101F70000101849F9001859F300D949F300D1124A5
:101F80004091020150910301649FC001659F900D33
:101F9000749F900D1124820F931F6AE070E058D552
:101FA000718360830895F8942091D2023091D30216
:101FB00021153105A9F0EEECF2E040815181DA0102
:101FC000A257BD4F8C914F5F5F4F5183408321508B
:101FD00031093093D3022093D202232B21F401C084
:101FE0008EEF109246022091CE023091CF02203423
:101FF000310521F41092CF021092CE027894089508
:102000001F920F920FB60F9211240BB60F922F93BF
:102010003F938F939F93AF93BF93EF93FF9310984A
:102020002EB52D3FA9F0E0EDF2E080819181DC0139
:10203000A257BD4F2C93019691838083E2EDF2E08D
:102040008081918101969183808381E08093460213
:102050008091D0029091D1028034910521F41092A8
:10206000D1021092D00280918C0290918D02892B26
:1020700001F1E0918802F0918902E85BFD4F8081D7
:102080008EBDE8E8F2E080819181019691838083A2
:10209000ECE8F2E020813181215031093183208345
:1020A000109A8034910549F41092890210928802A6
:1020B00004C08DEF8EBD10924702FF91EF91BF914A
:1020C000AF919F918F913F912F910F900BBE0F90E9
:1020D0000FBE0F901F90189580E484B980EC8CBDE2
:1020E000089A10988DEF8EBD0895F89420918C0277
:1020F00030918D022034310590F4EAE8F2E040811D
:102100005181DA01A85BBD4F8C934F5F5F4F5183C4
:1021100040832F5F3F4F30938D0220938C0280913C
:102120008A0290918B028034910521F410928B02E7
:1021300010928A0280918C0290918D020197F9F49D
:102140008091470281111BC01098E0918802F091A4
:102150008902E85BFD4F80818EBDE8E8F2E0808176
:102160009181019691838083ECE8F2E080819181F6
:10217000019791838083109A81E080934702809138
:102180008802909189028034910521F4109289028D
:10219000109288027894089581E02091D2023091C3
:1021A000D3022B30310508F480E008950F931F937C
:1021B000CF93DF938C01EB012091D2023091D302B7
:1021C000232B69F1E091CE02F091CF02E257FD4F4F
:1021D00080818F3FE1F4E0DF882311F1E4DEE3DE6C
:1021E000F8018083E0DE8883DEDE8983DCDE8A839B
:1021F000DADE8B83D8DE8C83D6DE8D8383ED9FE0A1
:102200008F83D1DE8987CFDE888781E009C0C4DF74
:10221000882331F0C8DEBE01C801C8DF01C080E0FC
:10222000DF91CF911F910F9108954F925F926F921E
:102230007F928F929F92AF92BF92CF92DF92EF9256
:10224000FF920F931F93CF93DF93CDB7DEB7CE5C92
:10225000D1090FB6F894DEBF0FBECDBF2BE0E5E18C
:10226000F2E0DE01119601900D922A95E1F78C3E85
:102270002FEF92072CF48CEE9FEF9C878B870AC080
:10228000853191052CF084E190E09C878B8702C01A
:102290009C878B875E0181E1A80EB11C0F2EFBEF9E
:1022A000EF2EFF24FA94F02D0CEE1FEF2CEE3FEFF3
:1022B0004BEE5FEF60E272E0C50169D86E01E7E2C4
:1022C000CE0ED11C0F2EFAE0EF2EF12CF02D00E0F7
:1022D00010E020E030E046EF5FEF6AE272E0C60116
:1022E00056D82E01FDE34F0E511C0F2EF5E1EF2EB7
:1022F000F12CF02D04E110E024E130E045E050E065
:1023000061E372E0C20143D8BE86AD86DEA2CDA2F3
:102310005CAE4BAE63961FAE1EAE63976E0123E5B7
:10232000C20ED11C86E0EAE3F2E0D60101900D92E4
:102330008A95E1F73E0183E6680E711C0F2EF0EAE4
:10234000EF2EFAE0FF2EF02D04E61AE024E63AE044
:1023500048E25AE067E571E0C30119D85E01E9E798
:10236000AE0EB11C0F2EF8E1EF2EFBE0FF2EF02D8C
:1023700004E01BE024E03BE040EF5AE064E272E05E
:10238000C50105D84E01FFE88F0E911C0F2EF8ED08
:10239000EF2EF9E0FF2EF02D04EC19E024EC39E0EB
:1023A00040EB59E065E372E0C4010E94C709F60101
:1023B00075866486F301958A848AF401B58AA48AB5
:1023C000F501158A148ACE010196909363038093D8
:1023D0006203188A1F86D0926103C0926003F601DF
:1023E000178616868C559F4F9093650380936403E0
:1023F000DE01A555BF4FFC01B583A483BE016F5418
:102400007F4F15967C936E931497FB01158214826F
:10241000AE0149545F4FFC0151834083FA0113829E
:1024200012829E0125543F4FFC0133832283F90120
:102430001382128284579109FA0191838083FAE012
:102440006F0E711CF901718260822C5F3F4F1196F3
:102450003C932E93F901138212828E569F4F13964E
:102460009C938E931297FC01138212824C5951094E
:10247000F90151834083FAE08F0E911CFC01918297
:1024800080820496FB0191838083FC011382128277
:102490009096FB01B383A28313961C921E9212970F
:1024A000FAE04F0E511CFC0151824082FAE0AF0E5F
:1024B000B11CAD92BC920E9494080E94BB080E947D
:1024C0000109F60182859385873EF7E09F0724F096
:1024D00086EE97E030DD09C0843E2CE0920724F4BC
:1024E00084EE9CE028DD01C026DDC253DF4F0FB62D
:1024F000F894DEBF0FBECDBFDF91CF911F910F913A
:10250000FF90EF90DF90CF90BF90AF909F908F9013
:102510007F906F905F904F9008951F920F920FB62B
:102520000F9211240BB60F922F933F934F938F93DB
:102530009F93AF93BF93EF93FF9380915E0390912E
:102540005F038034910531F481E080938A038091A8
:10255000C60016C080349105E8F4ECE5F3E0208174
:1025600031814091C600D901A65EBC4F4C932F5FCC
:102570003F4F31832083019690935F0380935E03E6
:1025800080915E0390915F038034910519F481E09E
:102590008093880380915C0390915D038034910562
:1025A00021F410925D0310925C0381E08093870315
:1025B000FF91EF91BF91AF919F918F914F913F917B
:1025C0002F910F900BBE0F900FBE0F901F9018957C
:1025D0001F920F920FB60F9211240BB60F928F938A
:1025E0009F93EF93FF938091180390911903803488
:1025F000910519F41092860302C0892BB9F0E0917D
:102600001403F0911503EC52FD4F80818093C600B6
:10261000E4E1F3E080819181019691838083E8E198
:10262000F3E08081918101979183808380911403ED
:10263000909115038034910521F4109215031092A6
:1026400014038091180390911903892B39F4109287
:102650008903E1ECF0E080818F7B8083FF91EF9133
:102660009F918F910F900BBE0F900FBE0F901F90F8
:1026700018955058BB27AA270ED04DC13ED130F037
:1026800043D120F031F49F3F11F41EF433C10EF416
:10269000E095E7FB29C1E92F4FD180F3BA17620714
:1026A00073078407950718F071F49EF567C10EF45F
:1026B000E0950B2EBA2FA02D0B01B90190010C0152
:1026C000CA01A0011124FF27591B99F0593F50F46A
:1026D000503E68F11A16F040A22F232F342F4427C2
:1026E000585FF3CF469537952795A795F0405395BA
:1026F000C9F77EF41F16BA0B620B730B840BBAF08A
:102700009150A1F0FF0FBB1F661F771F881FC2F7F4
:102710000EC0BA0F621F731F841F48F48795779508
:102720006795B795F7959E3F08F0B3CF9395880FBF
:1027300008F09927EE0F9795879508950CD0EBC078
:10274000E3D040F0DAD030F021F45F3F19F0CCC094
:10275000511115C1CFC0F0D098F39923C9F3552377
:10276000B1F3951B550BBB27AA2762177307840784
:1027700038F09F5F5F4F220F331F441FAA1FA9F33A
:1027800033D00E2E3AF0E0E830D091505040E6952C
:10279000001CCAF729D0FE2F27D0660F771F881F8D
:1027A000BB1F261737074807AB07B0E809F0BB0B7C
:1027B000802DBF01FF2793585F4F2AF09E3F5105A0
:1027C00068F092C0DCC05F3FECF3983EDCF3869586
:1027D00077956795B795F7959F5FC9F7880F911D16
:1027E0009695879597F90895E1E0660F771F881F02
:1027F000BB1F621773078407BA0720F0621B730BB5
:10280000840BBA0BEE1F88F7E095089504D0689406
:10281000B111B5C0089598D088F09F5790F0B92FA6
:102820009927B751A0F0D1F0660F771F881F991F25
:102830001AF0BA95C9F712C0B13081F09FD0B1E05B
:1028400008959CC0672F782F8827B85F39F0B93F6B
:10285000CCF3869577956795B395D9F73EF4909527
:102860008095709561957F4F8F4F9F4F0895E894A5
:1028700009C097FB3EF490958095709561957F4FC8
:102880008F4F9F4F9923A9F0F92F96E9BB27939576
:10289000F695879577956795B795F111F8CFFAF486
:1028A000BB0F11F460FF1BC06F5F7F4F8F4F9F4FB7
:1028B00016C0882311F096E911C0772321F09EE815
:1028C000872F762F05C0662371F096E8862F70E07B
:1028D00060E02AF09A95660F771F881FDAF7880F55
:1028E0009695879597F9089597F99F6780E870E026
:1028F00060E008959FEF80EC089500240A94161676
:10290000170618060906089500240A9412161306DD
:10291000140605060895092E0394000C11F488236B
:1029200052F0BB0F40F4BF2B11F460FF04C06F5F87
:102930007F4F8F4F9F4F089557FD9058440F551F5D
:1029400059F05F3F71F04795880F97FB991F61F031
:102950009F3F79F087950895121613061406551FA8
:10296000F2CF4695F1DF08C0161617061806991F14
:10297000F1CF86957105610508940895E894BB2709
:1029800066277727CB0197F908950BD0C4CFB5DF21
:1029900028F0BADF18F0952309F0A6CFABCF1124A9
:1029A000EECFCADFA0F3959FD1F3950F50E0551FEE
:1029B000629FF001729FBB27F00DB11D639FAA2794
:1029C000F00DB11DAA1F649F6627B00DA11D661FE3
:1029D000829F2227B00DA11D621F739FB00DA11D04
:1029E000621F839FA00D611D221F749F3327A00DBE
:1029F000611D231F849F600D211D822F762F6A2F5A
:102A000011249F5750408AF0E1F088234AF0EE0FDE
:102A1000FF1FBB1F661F771F881F91505040A9F7EB
:102A20009E3F510570F060CFAACF5F3FECF3983E18
:102A3000DCF3869577956795B795F795E7959F5F52
:102A4000C1F7FE2B880F911D9695879597F90895EC
:102A500097FB072E16F4009406D077FD08D00BD014
:102A600007FC05D03EF4909581959F4F0895709591
:102A700061957F4F0895AA1BBB1B51E107C0AA1F98
:102A8000BB1FA617B70710F0A61BB70B881F991F0F
:102A90005A95A9F780959095BC01CD010895FB0149
:102AA000DC0101900D920020E1F70895F894FFCF2A
:102AB0000800020064656C74615F430072696768B6
:102AC00074536964650063656E747265006C656655
:102AD00074536964650064656C74615F5600696E67
:102AE0004D696E757300696E4E796C6C00696E503D
:102AF0006C7573007374656572696E6700736861E5
:102B000072704C65667400737472616967687400F2
:102B10007368617270526967687400646973746184
:102B20006E63650073706565640073746F704469EB
:102B30007374006F6E654D0074776F4D007468722A
:102B400065654D007374696C6C00637275697369B7
:102B50006E67006D656469756D0068696768006E11
:102B60006F537065656400736C6F7700637275698D
:102B70007365006D656448696768006D617800661B
:102B80006172526967687400736D616C6C52696739
:102B9000687400736D616C6C4C656674006661727C
:102BA0004C656674006C6566744F7269656E00737F
:102BB0007472614F7269656E7400726967684F72F2
:102BC00069656E74006F7269656E746174696F0017
:102BD0006F66665F7269676874006D6964646C65CE
:102BE000006F66665F6C65667400736572766F0071
:00000001FF
