S01700004B616E646964617470726F6A656B742E73726563EE
S113000045C0000062C0000060C000005EC0000087
S11300105CC000005AC0000058C0000056C0000078
S113002054C0000052C0000050C000004EC0000088
S11300304CC000004AC0000048C0000046C0000098
S113004044C0000042C000000C94B80C3EC0000044
S11300500C944B0D3AC000000C94A60D36C0000061
S113006034C0000032C0000030C000002EC00000C8
S11300700C94540C2AC0000028C0000026C00000C4
S113008024C0000022C0000020C0000011241FBEB4
S1130090CFEFD0E4DEBFCDBF11E0A0E0B1E0EEE1F0
S11300A0F0E200E00BBF02C007900D92AE3FB10733
S11300B0D9F722E0AEEFB1E001C01D92A33CB20734
S11300C0E1F70E94DF0C0C940D109ACF2F923F920F
S11300D04F925F926F927F928F929F92AF92BF9254
S11300E0CF92DF92EF92FF920F931F93CF93DF9300
S11300F0CDB7DEB7C859D2400FB6F894DEBF0FBEF5
S1130100CDBF99231CF41C861B860AC08E3C910526
S11301102CF08DEC90E09C878B8702C09C878B87AA
S1130120643D08E070072CF484ED98E09C8F8B8F7D
S11301300BC0653F1BE071072CF084EF9BE09C8FA4
S11301408B8F02C07C8F6B8F55231CF41CA61BA6BF
S11301500AC0413551052CF080E590E09CA78BA79F
S113016002C05CA74BA788E0E0E0F1E0DE01119655
S113017001900D928A95E1F79E012F5C3F4F89E033
S1130180E8E0F1E0D90101900D928A95E1F71CAE07
S11301901BAE8CE290E09EAF8DAF8EE690E0219690
S11301A09FAF8EAF219744E650E023965FAF4EAFEA
S11301B0239782E090E025969FAF8EAF25974AE77C
S11301C055E662E770E02B964CAF5DAF6EAF7FAF44
S11301D02B9763961FAE1EAE63974BE450E0659673
S11301E05FAF4EAF65974FEA50E067965FAF4EAF93
S11301F0679769969FAF8EAF69976B969FAF8EAFE7
S11302006B9749E0E1E1F1E0DE01A35ABF4F0190B1
S11302100D924A95E1F7A9961FAE1EAEA9974CE838
S113022050E0AB965FAF4EAFAB974EEC50E0AD965F
S11302305FAF4EAFAD97AF969FAF8EAFAF9764E60B
S113024070E0E1967FAF6EAFE1973E872D8787E43C
S113025090E08C0F9D1F27969FAF8EAF2797ADE53B
S1130260B0E0AC0FBD1F6D96BFAFAEAF6D97E39618
S11302701FAE1EAEE39789E0EAE1F1E0AC54B109A8
S113028001900D928A95E1F78AE0E5E9F1E0DE015B
S1130290AD58BF4F01900D928A95E1F7EF961FAECE
S11302A01EAEEF97E3EDF8E0C158DF4FF983E88322
S11302B0CF57D0400F2EF0E64F2EF9E05F2EF02DF1
S11302C0CF57DF4F59824882C158D040CD57DF4FB6
S11302D079836883C358D04081E090E0CB57DF4FE7
S11302E099838883C558D0404E01F9E88F0E911C3C
S11302F028E0E3E2F1E0D40101900D922A95E1F7C0
S1130300D4011B961C921E921A972CEF38E01D966E
S11303103C932E931C9724E13AE01F963C932E9332
S11303201E9751969C938E93509753969C938E93BD
S113033052972BE0EBE2F1E0569601900D922A954C
S1130340E1F7C755DF4F19821882C95AD040E0EB54
S1130350F9E0C555DF4FF983E883CB5AD04008E173
S11303601BE0C355DF4F19830883CD5AD040C155D4
S1130370DF4F99838883CF5AD040CF54DF4F99837E
S11303808883C15BD04027E0E6E3F1E0DE01AB54B3
S1130390BF4F01900D922A95E1F7C154DF4F1982A6
S11303A01882CF5BD04024EB3AE0CF53DF4F398340
S11303B02883C15CD0402CEC3BE0CD53DF4F398324
S11303C02883C35CD040CB53DF4F99838883C55CBB
S11303D0D040C953DF4F99838883C75CD0409E01C6
S11303E025533F4F49E0EDE3F1E0D90101900D922F
S11303F04A95E1F7D9011B961C921E921A970F2E6B
S1130400F8E6AF2EFBE0BF2EF02D1D96BC92AE9207
S11304101C9765EF7BE01F967C936E931E97519615
S11304209C938E935097E4E6F0E05396FC93EE93FE
S1130430529743E750E04C0F5D1F5E8F4D8FC957B5
S1130440DF4F99828882C758D040EFE9F0E0EC0F83
S1130450FD1FD4015596FC93EE93549745EB50E061
S11304604C0F5D1FCD54DF4F59834883C35BD0408D
S1130470C753DF4F39832883C95CD040D9015596CF
S11304801C921E92549728E0E6E4F1E0AA5AB109BE
S113049001900D922A95E1F71E01B1EE2B0E311C4D
S11304A026E0EEE4F1E0D10101900D922A95E1F706
S11304B0F101138612862FEF3FEF358724872EE153
S11304C030E03787268724E630E0318B208B25E027
S11304D030E0338B228B3E0147EF640E711C47E002
S11304E0E4E5F1E0D30101900D924A95E1F7D301DF
S11304F01B961C921E921A9744E150E01D965C9341
S11305004E931C974CE350E01F965C934E931E97BA
S113051051963C932E93509753963C932E93529717
S11305207E01B3EFEB1ABEEFFB0A45E0EBE5F1E029
S1130530D70101900D924A95E1F7F70113861286CF
S113054042E350E05587448741E550E057874687AA
S1130550318B208B24E630E0338B228B3EA62DA6F4
S1130560D10155967C926E925497F301F58AE48AF0
S1130570D70155961C921E92549726E0E0E6F1E0CE
S1130580569601900D922A95E1F7AE014D5C5E4FAF
S113059028E0E6E6F1E0DA0101900D922A95E1F710
S11305A0FA011386128626E83BE03587248777878D
S11305B06687918B808B24E630E0338B228B158AFF
S11305C0148A9E01275B3E4F66E0EEE6F1E0D90116
S11305D001900D926A95E1F7D9011B961C921E9227
S11305E01A971D961C930E931C976AEE7BE01F9638
S11305F07C936E931E9751969C938E93509753962B
S11306009C938E93529755965C934E9354976E0198
S1130610B1EACB1ABEEFDB0A68E0E4E7F1E0D60109
S113062001900D926A95E1F7F601138612866EE643
S11306307AE075876487B786A686918B808B938BC7
S1130640828B358B248B245D3F4F6AE0EFE9F1E028
S1130650D90101900D926A95E1F7D9011B961C927C
S11306601E921A976CEE79E01D967C936E931C97FC
S11306706CED7AE01F967C936E931E9751969C9333
S11306808E93509753969C938E9352975596DC92E3
S1130690CE9254978E0105571E4F69E0ECE7F1E0C6
S11306A0D80101900D926A95E1F7F801138612863C
S11306B0558644866AE57AE077876687918B808BD6
S11306C0938B828B358B248B5E01FFE5AF1AFEEF93
S11306D0BF0A67E0E5E8F1E0D50101900D926A9563
S11306E0E1F7D5011B961C921E921A976EED78E0E5
S11306F01D967C936E931C97E0EBF9E01F96FC9398
S1130700EE931E9751969C938E93509753969C9379
S11307108E93529755961C930E935497BE01695429
S11307207E4F0F2EF9E04F2EF02DECE8F1E0DB01C7
S113073001900D924A94E1F7DB011B961C921E92E4
S11307401A97E3EDF8E01D96FC93EE931C97E2E410
S1130750F9E01F96FC93EE931E97E4E6F0E05196C1
S1130760FC93EE93509753969C938E935297559681
S1130770BC92AE925497C15DDE4F79836883CF52A9
S1130780D140CF5CDE4F19821882C153D1405E0143
S1130790F3E3AF1AFEEFBF0AC6010A96CD56DD4F4A
S11307A099838883C359D240D50111969C938E9323
S11307B013961C921E92129788599F4FBAE0EB0E23
S11307C0F11CFC01F182E08213821282DE01AB5241
S11307D0BE4FFAE08F0E911C11969C928E92139646
S11307E09C938E93129708960F2EF7E44F2E512C5C
S11307F0F02D4C0E5D1EEAE04E0E511CFC015182A0
S11308004082B383A283189611969C938E93139679
S1130810BC92AE92129715961C921E9214976E017A
S1130820FDE1CF1AFEEFDF0A84549109CB56DD4F68
S113083099838883C559D240F601918380831382BA
S11308401282045A1F4FF801F182E082138212824D
S11308500F2EFFE9AF2EB12CF02DAC0EBD1EFAE029
S1130860AF0EB11CC551DE4FB982A882CB5ED14018
S1130870C351DE4F19830883CD5ED1407E0101E16F
S1130880E01A0EEFF00A8DE590E08C0F9D1F0A969A
S1130890C956DD4F99838883C759D240F7019183A4
S11308A080830BEE11E00C0F1D1F1383028334961B
S11308B0F182E082D382C282B583A483665F7F4FD4
S11308C0C750DE4F79836883C95FD140C550DE4F7E
S11308D019821882CB5FD1408A569E4F1AE0610E6E
S11308E0711CDC0111967C926E9213961C921E92DE
S11308F012977E01BFEFEB1ABDEFFB0A0F2EF5EB4B
S1130900CF2ED12CF02DCC0EDD1E0AE0C00ED11C52
S1130910D7011196DC92CE9213969C938E931297E4
S11309200896C956DD4F08811981C759D240DC01A8
S113093011961C930E931396FC92EE9212978E01CD
S1130940075F1D4FD80111969C938E9389EF91E018
S11309508C0F9D1F13969C938E9312971596FC9360
S1130960EE9314977E0191EFE91A9DEFF90AD701EE
S113097011967C936E9313961C921E9212974A962C
S1130980FC01718260821382128218961196DC92A5
S1130990CE9213969C938E9312970896FC015182E3
S11309A04082B383A283189611969C938E931396D8
S11309B0FC92EE92129715961C930E9314976C5911
S11309C07F4F465F5F4FFB01518340831382128246
S11309D00E96FC0171826082138212827E01F3ED15
S11309E0EF1AFDEFFF0AF7019182808293838283DD
S11309F0085D1F4F8E5E9140F80191838083F382DE
S1130A00E28234961183008373836283B583A48363
S1130A106A5E7F4F265F3F4FDB0111963C932E9316
S1130A2013961C921E92129720543F4FD90111968F
S1130A307C926E9213961C921E9212970E5E1F4F1A
S1130A40D8011196BC92AE9213963C932E931297B2
S1130A50285F3F4FD90111965C924E9213961C93D6
S1130A600E931297149611963C932E9313967C939F
S1130A706E9312971596FC93EE931497025F1F4F93
S1130A80F8015183408313821282485E5E4FFA015B
S1130A9071826082138212822E5E3F4F63E770E0A0
S1130AA06C0F7D1F665F7F4FF901718360835383F1
S1130AB04283485F5F4FFA019183808333832283AB
S1130AC0285F3F4FF9015183408313830283B58329
S1130AD0A4830A5E1F4FCD56DD4FE881F981C359C7
S1130AE0D240D8011196FC93EE9313961C921E9259
S1130AF01297425F5F4F62597F4FDA0111967C93E0
S1130B006E9313961C921E92129714961196BC9291
S1130B10AE9213965C934E931297485F5F4FFA011F
S1130B2091838083B383A283189611965C934E932A
S1130B3013961C930E93129715963C932E93149729
S1130B40465F5F4FCB56DD4F08811981C559D240AE
S1130B50FA0111830083138212828A5B9D4FFC0188
S1130B6071836083138212822C5D3F4FF901D1821D
S1130B70C082938382830896FC015182408233832E
S1130B802283285F3F4FF9019183808353834283FB
S1130B90B583A48301E110E00C0F1D1F188B0F8790
S1130BA041E250E04C0F5D1F58A34F8F18AA1FA6B7
S1130BB0309392022093910261E070E06C0F7D1FEC
S1130BC07093900260938F0283E291E08C0F9D1FDB
S1130BD090938E0280938D023DD563D5A8D5C35DD5
S1130BE0DE4F88819981CD52D1403AD7C856DD4F26
S1130BF00FB6F894DEBF0FBECDBFDF91CF911F912A
S1130C000F91FF90EF90DF90CF90BF90AF909F90A7
S1130C108F907F906F905F904F903F902F900895AA
S1130C202F923F924F925F926F927F928F929F92F8
S1130C30AF92BF92CF92DF92EF92FF920F931F93E6
S1130C40CF93DF93CDB7DEB7C452D2400FB6F8943A
S1130C50DEBF0FBECDBF29E0E9EAF1E0DE01119667
S1130C6001900D922A95E1F76E0121E1C20ED11C8B
S1130C7029E0E2EBF1E0D60101900D922A95E1F72B
S1130C801C8E1B8E2FEF3FEF3E8F2D8F2EE330E017
S1130C9038A32F8F0F2EF4E68F2E912CF02D9AA2CD
S1130CA089A242E050E05CA34BA37E0137E2E30E4D
S1130CB0F11C25E0EBEBF1E0D70101900D922A95B0
S1130CC0E1F71AAA19AA26E130E03CAB2BAB0F2EB0
S1130CD0F6E9AF2EB12CF02DBEAAADAA58AF4FAB9A
S1130CE05AAF49AF8E01035C1F4F25E0E0ECF1E001
S1130CF0D80101900D922A95E1F729961FAE1EAEF8
S1130D0029972EE630E02B963FAF2EAF2B972EED92
S1130D1030E02D963FAF2EAF2D972F965FAF4EAF9D
S1130D202F9761965FAF4EAF61979E012D5A3F4F4B
S1130D300F2EF7E07F2EF02DE5ECF1E0D9010190C4
S1130D400D927A94E1F7D9011B961C921E921A9780
S1130D501D96BC92AE921C97EDE2F1E01F96FC93B7
S1130D60EE931E9751965C934E93509753969C9294
S1130D708E925297DE86CD86FEA2EDA21CAF0BAFFB
S1130D8063963FAF2EAF639755961C921E9254976D
S1130D9077231CF41C861B860BC06D32B1E07B07E5
S1130DA02CF02CE231E03C872B8702C07C876B87D8
S1130DB026E0ECECF1E0DE01A759BF4F01900D9263
S1130DC02A95E1F77E01E9E7EE0EF11C26E0E2ED5B
S1130DD0F1E0D70101900D922A95E1F7D7011B9616
S1130DE01C921E921A972DEB3AE01D963C932E937B
S1130DF01C9722ED3AE01F963C932E931E970F2EDC
S1130E00F4E6CF2ED12CF02D5196DC92CE92509751
S1130E1024E130E053963C932E9352978E01015770
S1130E201F4F4CE65FE667E770E0F80140835183AB
S1130E3062837383138612862DEC3AE03587248708
S1130E4023E13BE03787268724E030E0318B208B99
S1130E50338B228BBE016B557F4F49E0E8EDF1E007
S1130E60DB0101900D924A95E1F7DB011B961C9280
S1130E701E921A9740EF5AE01D965C934E931C976E
S1130E8040E45BE01F965C934E931E9751963C930F
S1130E902E93509753963C932E935297AE014554FC
S1130EA05F4F27E0E4E5F1E0DA0101900D922A9525
S1130EB0E1F7FA01138612862DE13BE0358724879A
S1130EC02DE63BE03787268723E030E0318B208B0B
S1130ED0338B228B9E012F523F4F0F2EF5E0BF2EF6
S1130EE0F02DEBE5F1E0D90101900D92BA94E1F710
S1130EF0D9011B961C921E921A97EAE4FBE01D96F8
S1130F00FC93EE931C97E3E7FBE01F96FC93EE93B0
S1130F101E97EAE0F0E05196FC93EE9350975396B7
S1130F20DC92CE925297E796FFAEEEAEE797F701CA
S1130F30158B048BD80155967C936E935497FB01C3
S1130F40558B448BDA0155963C932E935497F901B3
S1130F50158A148A8E3BFAE09F073CF48EEB9AE0E4
S1130F60E5969FAF8EAFE5970FC083372BE09207CE
S1130F703CF082E79BE0E5969FAF8EAFE59704C017
S1130F80E5969FAF8EAFE5973E0137EE630E711C79
S1130F9080E797E7ADE6B0E0F30180839183A28315
S1130FA0B383CE0189509F4F29E0E1EEF1E0DC01EB
S1130FB001900D922A95E1F7DC011B961C921E927A
S1130FC01A972DEB3AE01D963C932E931C9726EE30
S1130FD03AE01F963C932E931E9724E630E05196F8
S1130FE03C932E93509724E030E053963C932E93F9
S1130FF052974E01B3EF8B1ABEEF9B0A45E0EAEE1F
S1131000F1E0D40101900D924A95E1F7F4011386C1
S113101012864DEC5AE05587448744E15BE05787DC
S11310204687318B208B338B228B8E010D5D1E4FB7
S113103027E0EFEEF1E0D80101900D922A95E1F757
S1131040D8011B961C921E921A9720EF3AE01D9627
S11310503C932E931C9720E43BE01F963C932E93E5
S11310601E9723E030E051963C932E93509753966D
S11310703C932E9352979E01275C3E4F48E0E6EF47
S1131080F1E0D90101900D924A95E1F7F901138637
S113109012864CE15BE0558744874EE65BE0578758
S11310A04687E2E0F0E0D9015196FC93EE93509725
S11310B05396FC93EE9352974DE651E668E770E041
S11310C0C15BDE4F488359836A837B83CF54D1400D
S11310D0C75ADE4F19821882C955D1404AE45BE0F1
S11310E0C55ADE4F59834883CB55D1404AE95BE06A
S11310F0C35ADE4F59834883CD55D140C15ADE4F80
S1131100F983E883CF55D140CF59DE4FF983E88383
S1131110C156D140F30195878487DC0155969C9292
S11311208E925497F401158B048BD80155963C93F9
S11311302E9354972E01B1ED4B0E511CF901558A93
S1131140448AAE014F5F5F4F5093900240938F02E9
S1131150E05DF109F88BEF871786168670928E0290
S113116060928D02D3011F961C921E921E97A25864
S1131170BF4FEAE08E0E911C11969C928E921396AC
S11311801C921E9212976E01F7E9CF1AFEEFDF0A46
S1131190405D5F4FF60151834083138212825E01EA
S11311A0F3E9AF1AFEEFBF0A7E0163E8E60EF11C15
S11311B0F501F182E082D382C2823496B182A082A8
S11311C0B383A283158214827E0169E8E61A6EEF66
S11311D0F60A065F1F4FD70111961C930E931396C0
S11311E01C921E9212971E01B5E82B1ABEEF3B0A01
S11311F0BE01695B7F4FD10111967C936E93139668
S11312001C921E9212976E01B1E8CB1ABEEFDB0A54
S11312105E01A9E9AA0EB11CD6011196BC92AE9248
S113122013963C922E92129714961196DC92CE92BB
S11312301396FC92EE9212971596FC93EE931497E4
S11312407E01E7E7EE1AEEEFFE0A0F2EFFE4CF2E43
S1131250DD24D394F02DCC0EDD1EFAE0CF0ED11C8C
S1131260F701D182C082138212826E01F3E7CF1A92
S1131270FEEFDF0A1E01EDE52E0E311CF601318270
S11312802082138212823496D182C082F382E28257
S1131290B583A4837E01A9E6EA1AAEEFFA0AA05444
S11312A0B109CD5DDD4FB983A883C352D2409D01FE
S11312B0D70111963C932E9313961C921E9212976B
S11312C01E0135E6231A3EEF330AD10111967C93B1
S11312D06E9313961C921E9212976E01B1E6CB1A6E
S11312E0BEEFDB0A2AE0420E511CD60111965C9235
S11312F04E9213963C922E92129714961196DC926B
S1131300CE921396FC92EE9212971596FC93EE935E
S113131014977E01E7E5EE1AEEEFFE0ACD5DDD4F90
S113132028813981C352D240F7013183208313824B
S11313301282C355DE4F79836883CD5AD140C1559B
S1131340DE4F19821882CF5AD1406E013FE4C31A8E
S11313503EEFD30A1E01EFEA2E0E311CF601318254
S113136020822DEA31E02C0F3D1F338322833496F3
S1131370D182C082F382E282B583A4836E0135E414
S1131380C31A3EEFD30AD60111961C930E931396FB
S11313901C921E9212977E01B1E4EB1ABEEFFB0A77
S11313A0D70111967C936E9313961C921E921297FA
S11313B064587E4FDB011196BC92AE921396FC9258
S11313C0EE9212977E01B9E3EB1ABEEFFB0AD70146
S11313D011967C936E931396DC92CE921297159687
S11313E0FC93EE9314971696CD5DDD4FE881F98159
S11313F0C352D2401196FC93EE9313961C921E9204
S11314001297625F7F4FFB015183408313821282E4
S1131410285D3F4FF9015182408273836283349681
S113142031832083B383A283F582E4827E0121E2A7
S1131430E21A2EEFF20AD70111961C930E9313961B
S11314401C921E9212976E5E7F4FDB0111965C9385
S11314504E9313961C921E9212972E5E3F4F08567F
S11314601109D90111961C930E9313967C936E93D4
S11314701297685F7F4FDB0111963C932E9313966E
S1131480FC92EE9212971596FC93EE931497045DDA
S11314901E4FF8019182808213821282225F3F4F95
S11314A0D90111965C934E9313961C921E92129737
S11314B0149611963C922E9213963C932E93129767
S11314C0285F3F4FF901B183A0831383028375839F
S11314D06483369651834083138212824A525E4F4C
S11314E0DA011196BC92AE921396FC93EE93129786
S11314F038969182808213821282189611965C9398
S11315004E931396FC93EE93129715963C932E9359
S11315101497425F5F4F225E3140FA01318320838A
S11315201382128222503E4F0A96F90191838083DE
S11315301382128234965183408333832283B5838A
S1131540A483F0939202E093910284D0AAD0EFD0C6
S1131550D3011A968D919C911B9767D2CC5DDD4F78
S11315600FB6F894DEBF0FBECDBFDF91CF911F91B0
S11315700F91FF90EF90DF90CF90BF90AF909F902E
S11315808F907F906F905F904F903F902F90089531
S1131590FC01848595859B01281B390B86859785DD
S11315A0861B970B12161306ECF418161906ECF4A6
S11315B060897189A289B3898A9FA0018B9F500D8C
S11315C09A9F500D1124269FC001279F900D369F8E
S11315D0900D1124481759070CF4CA01843691055B
S11315E03CF408C080E090E005C080E090E002C0D8
S11315F084E690E09387828708950F931F93CF9397
S1131600DF93FC01C685D78584859585C81BD90BD6
S11316102285338560897189C901D8D48E01061B5E
S1131620170B62897389C901D1D4061B170BC00F2C
S1131630D11F2C9FC0012D9F900D3C9F900D112414
S113164099230CF4019695958795DF91CF911F917D
S11316500F9108950F931F93CF93DF9300918F02FF
S11316601091900201151105B9F0F801C485D585D2
S1131670209761F0209729F0F80162857385CE01E7
S113168087DF0C88DD89C02D2097A1F7F801068536
S113169017850115110549F7DF91CF911F910F911E
S11316A008950F931F93CF93DF93C0919102D0912C
S11316B092022097B9F104E610E0E881F9813097AD
S11316C081F0202F312FA081B1818D919C918217BF
S11316D093070CF49C010280F381E02D309799F775
S11316E002C0202F312FEA81FB813097B1F0722F95
S11316F0632FA081B1818D919C911197572F462F13
S11317002817390714F4582F492F5C9311964C93DA
S11317100280F381E02D309761F70C80DD81C02DCC
S1131720209759F6DF91CF911F910F9108952F9231
S11317303F924F925F926F927F928F929F92AF925D
S1131740BF92CF92DF92EF92FF920F931F93CF93AA
S1131750DF9300D000D000D0CDB7DEB780918D02EA
S113176090918E029C838B83892B09F484C0EB8136
S1131770FC810484F585E02DFE83ED83EF2B09F4D1
S113178066C0512C612C712C412C312C212C1982D6
S11317901A828D819E8131DFBC01882777FD809577
S11317A0982F25D36B017C01ED81FE81048515857D
S11317B0B801882777FD8095982F19D34B015C01D8
S11317C0ED81FE8186859785801B910BBC0112F407
S11317D06F5F7F4F75956795882777FD8095982F64
S11317E006D3A501940104D29B01AC01C701B60143
S11317F08AD39B01AC01632D722D89819A81F8D122
S1131800362E272E89839A83A7019601652D762D7E
S1131810872D942DEDD1562E672E782E492EED81ED
S1131820FE810488F589E02DFE83ED83EF2B09F01A
S1131830B0CF262F372F482F592F632D722D898132
S11318409A813AD2262F372F482F592F04C020E0EF
S113185030E040E050E0622F732F842F952F94D214
S1131860EB81FC8173876287868597859C838B8354
S1131870892B09F07CCF26960FB6F894DEBF0FBEF5
S1131880CDBFDF91CF911F910F91FF90EF90DF902B
S1131890CF90BF90AF909F908F907F906F905F900C
S11318A04F903F902F9008951F920F920FB60F9272
S11318B011240BB60F928F939F93EF93FF93809114
S11318C0CE008F3F29F41092B4021092B30210C0DC
S11318D0E091B302F091B402ED56FD4F8083809104
S11318E0B3029091B40201969093B4028093B30230
S11318F0FF91EF919F918F910F900BBE0F900FBEB0
S11319000F901F90189580E484B980EC8CBD0895E5
S11319107DD0F9DF8DEC9AE088D084E69AE0A0C00F
S11319200895ECECF0E01182108220E92093C900C4
S11319302EE02093CA00918380830895DC01E9ECB2
S1131940F0E080818F778083809193028C938091E3
S113195094021E968C931E978091950211968C93F7
S11319601092B4021092B30280818068808308953B
S11319701F920F920FB60F9211242F938F939F9360
S11319808091FE019091FF018B3926E9920730F492
S113199001969093FF018093FE0109C0809100029B
S11319A08160809300021092FF011092FE019F91CA
S11319B08F912F910F900FBE0F901F901895CF937A
S11319C0DF93CDB7DEB760970FB6F894DEBF0FBED6
S11319D0CDBF60EA70E084E69AE022D999DF83E122
S11319E09BE023D0789487E090E09BDF8FEF81B970
S11319F0CE010196A3DFF89448E250E064E67AE071
S1131A008DE790E00E9466007894F2CF80E38AB973
S1131A1082EA809380008FEF9FE890938700809301
S1131A2086008AE180938100089580362AE0920737
S1131A303CF48FE59AE090938900809388000895A0
S1131A408B332BE092073CF08BE39BE0909389006F
S1131A508093880008959093890080938800089566
S1131A60873E27E092073CF486EE97E090938B0044
S1131A7080938A0008958F332CE092073CF08FE323
S1131A809CE090938B0080938A00089590938B0040
S1131A9080938A0008951F920F920FB60F9211241B
S1131AA00BB60F922F933F934F938F939F93AF93C4
S1131AB0BF93EF93FF9380918B0290918C028034BB
S1131AC0910531F481E08093C1028091C60016C073
S1131AD080349105E8F4E9E8F2E020813181409115
S1131AE0C600D901A95BBD4F4C932F5F3F4F318393
S1131AF02083019690938C0280938B0280918B02B9
S1131B0090918C028034910519F481E08093BF0296
S1131B108091890290918A028034910521F4109277
S1131B208A021092890281E08093BE02FF91EF91B4
S1131B30BF91AF919F918F914F913F912F910F90B2
S1131B400BBE0F900FBE0F901F9018951F920F920F
S1131B500FB60F9211240BB60F928F939F93EF93AE
S1131B60FF9380914502909146028034910519F4C7
S1131B701092BD0202C0892BB9F0E0914102F091AC
S1131B804202EF5FFD4F80818093C600E1E4F2E002
S1131B9080819181019691838083E5E4F2E08081E4
S1131BA091810197918380838091410290914202B7
S1131BB08034910521F410924202109241028091E6
S1131BC0450290914602892B39F41092C002E1EC4F
S1131BD0F0E080818F7B8083FF91EF919F918F91C3
S1131BE00F900BBE0F900FBE0F901F90189550587A
S1131BF0BB27AA270ED04DC13ED130F043D120F0EF
S1131C0031F49F3F11F41EF433C10EF4E095E7FB69
S1131C1029C1E92F4FD180F3BA17620773078407EC
S1131C20950718F071F49EF567C10EF4E0950B2E3C
S1131C30BA2FA02D0B01B90190010C01CA01A0011A
S1131C401124FF27591B99F0593F50F4503E68F175
S1131C501A16F040A22F232F342F4427585FF3CFB6
S1131C60469537952795A795F0405395C9F77EF487
S1131C701F16BA0B620B730B840BBAF09150A1F0D0
S1131C80FF0FBB1F661F771F881FC2F70EC0BA0F56
S1131C90621F731F841F48F4879577956795B795DE
S1131CA0F7959E3F08F0B3CF9395880F08F09927D6
S1131CB0EE0F9795879508950CD0EBC0E3D040F0D4
S1131CC0DAD030F021F45F3F19F0CCC0511115C1C6
S1131CD0CFC0F0D098F39923C9F35523B1F3951BE2
S1131CE0550BBB27AA2762177307840738F09F5F39
S1131CF05F4F220F331F441FAA1FA9F333D00E2EA8
S1131D003AF0E0E830D091505040E695001CCAF714
S1131D1029D0FE2F27D0660F771F881FBB1F2617D9
S1131D2037074807AB07B0E809F0BB0B802DBF01AC
S1131D30FF2793585F4F2AF09E3F510568F092C0E9
S1131D40DCC05F3FECF3983EDCF3869577956795AE
S1131D50B795F7959F5FC9F7880F911D969587955D
S1131D6097F90895E1E0660F771F881FBB1F62177C
S1131D7073078407BA0720F0621B730B840BBA0B3A
S1131D80EE1F88F7E095089504D06894B111B5C0AA
S1131D90089598D088F09F5790F0B92F9927B7519C
S1131DA0A0F0D1F0660F771F881F991F1AF0BA951B
S1131DB0C9F712C0B13081F09FD0B1E008959CC042
S1131DC0672F782F8827B85F39F0B93FCCF3869511
S1131DD077956795B395D9F73EF49095809570956E
S1131DE061957F4F8F4F9F4F0895E89409C097FBEB
S1131DF03EF490958095709561957F4F8F4F9F4FDE
S1131E009923A9F0F92F96E9BB279395F695879521
S1131E1077956795B795F111F8CFFAF4BB0F11F4E4
S1131E2060FF1BC06F5F7F4F8F4F9F4F16C088238B
S1131E3011F096E911C0772321F09EE8872F762FC1
S1131E4005C0662371F096E8862F70E060E02AF002
S1131E509A95660F771F881FDAF7880F96958795EE
S1131E6097F9089597F99F6780E870E060E0089516
S1131E709FEF80EC089500240A941616170618069E
S1131E800906089500240A9412161306140605067A
S1131E900895092E0394000C11F4882352F0BB0F0B
S1131EA040F4BF2B11F460FF04C06F5F7F4F8F4F6E
S1131EB09F4F089557FD9058440F551F59F05F3FA9
S1131EC071F04795880F97FB991F61F09F3F79F058
S1131ED087950895121613061406551FF2CF4695DA
S1131EE0F1DF08C0161617061806991FF1CF86955C
S1131EF07105610508940895E894BB276627772740
S1131F00CB0197F908950BD0C4CFB5DF28F0BADF21
S1131F1018F0952309F0A6CFABCF1124EECFCADF7A
S1131F20A0F3959FD1F3950F50E0551F629FF001E8
S1131F30729FBB27F00DB11D639FAA27F00DB11D41
S1131F40AA1F649F6627B00DA11D661F829F2227CA
S1131F50B00DA11D621F739FB00DA11D621F839F51
S1131F60A00D611D221F749F3327A00D611D231F27
S1131F70849F600D211D822F762F6A2F11249F5775
S1131F8050408AF0E1F088234AF0EE0FFF1FBB1F98
S1131F90661F771F881F91505040A9F79E3F510537
S1131FA070F060CFAACF5F3FECF3983EDCF38695E8
S1131FB077956795B795F795E7959F5FC1F7FE2BE2
S1131FC0880F911D9695879597F9089597FB072E8D
S1131FD016F4009406D077FD08D00BD007FC05D08A
S1131FE03EF4909581959F4F0895709561957F4F2C
S1131FF00895AA1BBB1B51E107C0AA1FBB1FA6174C
S1132000B70710F0A61BB70B881F991F5A95A9F79D
S111201080959095BC01CD010895F894FFCF02
S113201E64656C74615F43006E65676174697665AF
S113202E00706F736974697665007374656572699F
S113203E6E6700696E526967687400696E537472D4
S113204E616967687400696E4C65667400696E53E5
S113205E684C6566740064656C74615F5600736DDC
S113206E616C6C006D656469756D00686967680004
S113207E736572766F006F53684C656674006F4CAF
S113208E656674006F536C4C656674006F536C52C6
S113209E69676874006F5269676874006F53687279
S11320AE6967687400696E53685269676874006F73
S11320BE53747261696768740064697374616E63E2
S11320CE650073746F7044697374006F6E654D00B0
S11320DE74776F4D0074687265654D007370656535
S11320EE64007374696C6C006372756973696E67EE
S11320FE006E6F53706565643200736C6F770063A6
S111210E7275697365006D65644869676800E1
S9030000FC
