S01700004B616E646964617470726F6A656B742E73726563EE
S113000045C0000062C0000060C000005EC0000087
S11300105CC000005AC0000058C0000056C0000078
S113002054C0000052C0000050C000004EC0000088
S11300304CC000004AC0000048C0000046C0000098
S113004044C0000042C0000040C000000C949A0C60
S11300500C94240F3AC000000C947F0F36C00000AB
S113006034C0000032C0000030C000002EC00000C8
S11300700C94FC0A2AC0000028C0000026C000001E
S113008024C0000022C0000020C0000011241FBEB4
S1130090CFEFD0E4DEBFCDBF11E0A0E0B1E0ECE1F2
S11300A0F4E200E00BBF02C007900D92AA3DB10735
S11300B0D9F723E0AAEDB1E001C01D92A232B20744
S11300C0E1F70E943A0B0C940C129ACF81309105FF
S11300D041F4109295001092940085E08093910071
S11300E00895892B31F41092950010929400109287
S11300F0910008950F931F93E0919400F09195005F
S1130100DC0120E030E041EE50E00E94D2118B018E
S11301109C01992324F401501C4F2F4F3F4FD901C8
S1130120C801072E7AE0B595A795979587957A9596
S1130130D1F7702D019721E030E0E817F90710F4AA
S113014020E030E0C9011F910F9108952F923F9252
S11301504F925F926F927F928F929F92AF92BF92D3
S1130160CF92DF92EF92FF920F931F93CF93DF937F
S1130170CDB7DEB7C45CD1400FB6F894DEBF0FBE76
S1130180CDBF2C016B0188E0E4E0F1E0DE011196C3
S113019001900D928A95E1F73E0121E1620E711CF6
S11301A00F2EF7E8EF2EF12CF02D08E710E024E6EF
S11301B030E043E650E06CE071E0C301EBD64E0161
S11301C047E2840E911C0F2EFFEAEF2EF12CF02D46
S11301D00BE910E021E930E04DE750E066E171E021
S11301E0C401D8D65E015DE3A50EB11C0F2EF8EC58
S11301F0EF2EF12CF02D07EC10E02AEB30E04FEA63
S113020050E06DE171E0C501C5D67E866D869EA283
S11302108DA2BCAEABAE63961FAE1EAE639784E6F2
S1130220481651042CF484E690E09C878B870BC01D
S1130230A8EC4A1651042CF087EC90E09C878B873D
S113024002C05C864B8688E0E6E2F1E0DE01AD5A4E
S1130250BF4F01900D928A95E1F73E01B3E66B0E14
S1130260711C0F2EF3E2EF2EF12CF02D04E110E0BF
S113027021E030E040E050E06EE271E0C3018AD654
S11302804E01E9E78E0E911C0F2EF7E3EF2EF12CB1
S1130290F02D08E210E023E230E04FE050E066E3A6
S11302A071E0C40177D65E01FFE8AF0EB11C0F2EDA
S11302B0FBE4EF2EF12CF02D0AE410E022E330E011
S11302C043E250E06DE371E0C50164D6A1967FAED0
S11302D06EAEA197D30155969C928E925497F401D9
S11302E0B58AA48AD50155961C921E9254971C1463
S11302F01D043CF081E090E06F969FAF8EAF6F9746
S11303000FC0BBE4CB16D1043CF08AE490E06F96B6
S11303109FAF8EAF6F9704C06F96DFAECEAE6F9770
S11303201E01E5EA2E0E311C89E0E4E4F1E0D1017E
S113033001900D928A95E1F72E01F5EB4F0E511CB9
S11303400F2EFCE9EF2EF9E0FF2EF02D08E319E063
S113035028E339E047E359E06DE471E0C2011AD6BD
S11303603E012BEC620E711C0F2EE12CFAE0FF2EE5
S1130370F02D0CE919E02CE939E040E659E064ED90
S113038071E0C30107D66E0141EEC40ED11C0F2EDD
S1130390F0EAEF2EFAE0FF2EF02D04E61AE024E650
S11303A03AE048ED59E067E571E0C601F3D54E0146
S11303B057EF850E911C0F2EF4E5EF2EFBE0FF2E78
S11303C0F02D00EF1AE020EF3AE04CE85AE06AEC36
S11303D071E0C401DFD55E0183EFA81A8EEFB80A7D
S11303E00F2EF1E9EF2EFBE0FF2EF02D00E91BE0CC
S11303F020E93BE04CE25BE060E671E0C501CAD570
S1130400D1011D96BC92AE921C97F501958A848AFF
S1130410D4015596DC92CE925497F601758A648A7B
S1130420D30155965C924E925497F201158A148A20
S1130430CE0101969093F9028093F802E256F109F5
S1130440F88BEF87178616863092F7022092F60211
S1130450D1011F961C921E921E97A258BF4F730182
S1130460EAE0EE0EF11C1196FC92EE9213961C92A9
S11304701E9212979E01295D3E4F3E01F9E96F0ECF
S1130480711CF9017182608213821282865D9E4F13
S11304908E010F5C1F4FFC01118300833383228381
S11304A0349691838083B383A28315821482225F5E
S11304B03F4F4AE0840E911CD90111969C928E9272
S11304C013961C921E921297BE01675C7E4FDB014D
S11304D011967C926E9213961C921E921297AE0104
S11304E0435C5E4F845E9109DA0111969C938E936E
S11304F013967C936E931297149611965C934E9375
S113050013963C932E9312971596FC93EE9314979F
S1130510465F5F4FEAE0AE0EB11CFA01B182A082E1
S1130520138212825E01F5EBAF1AFEEFBF0A225B63
S11305303109F50131832083138212826A5E7F4F71
S1130540FB0191838083B382A2823496718360839A
S113055053834283B583A4834AE0C40ED11CC75A93
S1130560DE4FD982C882C955D140C55ADE4F19829F
S11305701882CB55D140625F7F4F5E015DE6A50EC8
S1130580B11CDB011196BC92AE9213961C921E9282
S11305901297AE014F595E4FDA0111969C938E93D8
S11305A013967C936E931297825E9E4FDC01119694
S11305B05C934E9349E551E04C0F5D1F13965C9399
S11305C04E9312971596FC93EE93149716965AE051
S11305D0450E511C11965C924E9213961C921E92DB
S11305E012972E01E1E94E1AEEEF5E0AF201318311
S11305F02083138212826A5E7F4FAE01455E5F4F95
S1130600FB01518340835382428234967183608319
S1130610B383A28395838483665F7F4FDB01119646
S1130620DC92CE9213961C921E9212974C96DC0189
S113063011963C932E9313961C921E9212972E5F42
S11306403E4FD90111961C930E9313969C938E934F
S113065012970896DC0111963C932E9313967C9383
S11306606E9312971596FC93EE9314976E5E7F4FDC
S1130670FB01D182C082138212821A9611967C9257
S11306806E9213961C921E9212972E5E3F4FF901A2
S113069051834083B383A283189611963C932E937F
S11306A013967C936E93129715969C938E9314973E
S11306B06E5E7F4FFB01F182E082138212824C96C0
S11306C0FC01B182A082138212822E5E3F4FF90197
S11306D051834083938382830896FC013183208372
S11306E073836283B583A483589611969C928E92E9
S11306F013961C921E92129744565E4FFA01B182D1
S1130700A082138212822E5E3F4FF901118300836F
S113071053834283349631832083B383A2839583A6
S11307208483F093FB02E093FA0201D327D36CD3C2
S1130730D1011A968D919C911B97863EB7E09B0739
S11307402CF486EE97E00E94350C0BC0853EECE05D
S11307509E072CF084EE9CE00E94350C02C00E949F
S1130760350CCC53DE4F0FB6F894DEBF0FBECDBFB1
S1130770DF91CF911F910F91FF90EF90DF90CF9079
S1130780BF90AF909F908F907F906F905F904F90AD
S11307903F902F90089531E06135710509F030E004
S11307A021E08130910509F020E0222339F0332340
S11307B029F084EE9CE00E94350C0FC021E08230C9
S11307C0910509F020E0222339F0332329F086EE45
S11307D097E00E94350C01C0B9DC81E090E00895F7
S11307E02F923F924F925F926F927F928F929F923D
S11307F0AF92BF92CF92DF92EF92FF920F931F932B
S1130800CF93DF93CDB7DEB7C854D1400FB6F89479
S1130810DEBF0FBECDBF9B0149E0EBE6F1E0DE0198
S1130820119601900D924A95E1F749E0E4E4F1E074
S1130830DE01519601900D924A95E1F746E0E4E716
S1130840F1E0DE01919601900D924A95E1F7863E22
S113085047E094072CF48AEC90E09C8F8B8F0FC0B8
S1130860853E6CE096072CF08AE491E09C8F8B8F98
S113087006C06AE070E00E94BF117C8F6B8F332347
S11308801CF41C861B860AC02B3F31052CF08AEF12
S113089090E09C878B8702C03C872B876E0181E3A5
S11308A0C80ED11C0F2EFBE4EF2EFF24F394F02D81
S11308B00AE411E02AE431E044E151E06AEC71E039
S11308C0C60168D30F2EFAE4EF2EFF24F394F02D23
S11308D00AE011E02AE031E04AEC50E067E571E01B
S11308E0CE01895B9F4F56D31E019DE5290E311C15
S11308F0E12CFF24F39400E011E02AEC30E049EC11
S113090050E064ED71E0C10145D3DE8ECD8EE7E4A5
S1130910F0E0EC0FFD1F2796FFAFEEAF27976D9623
S11309203FAE2EAE6D97F101158A148A3E01F3E7AE
S11309306F0E711C0F2EFEE1EF2EF12CF02D0FE047
S113094010E020E030E04FEF5FEF6AE771E0C301B1
S113095021D35E0129E8A20EB11C0F2EF6E4EF2E7E
S1130960F12CF02D03E210E023E230E045E050E00A
S113097063E871E0C5010ED32E014FE9440E511C0A
S11309800F2EFBEFEF2EF12CF02D0AEF10E02DE7E8
S113099030E042E350E069E871E0C201FBD27E86B8
S11309A06D86F301B58AA48AF501558A448AF20159
S11309B0158A148A4E01F5EB8F0E911C0F2EFAE066
S11309C0EF2EFBE0FF2EF02D0DEC1AE02DEC3AE0BB
S11309D04CEC5AE06EE871E0C401DCD26E012BEC01
S11309E0C20ED11C0F2EF2E2EF2EFFE6FF2EF02DE9
S11309F008E11BE028E13BE04EE05BE066E971E0E2
S1130A00C601C8D20F2EF6E3EF2EFBE0FF2EF02D29
S1130A1002E21BE022E23BE04EE05BE06AE971E0C7
S1130A20CE018F519F4FB6D29EA68DA6F401D58AD2
S1130A30C48A81EE90E08C0F9D1FF601958B848B08
S1130A40CB50DF4F19821882C55FD040805E910978
S1130A509093F9028093F8024096988B8F8718A29E
S1130A601F8E40969093F7028093F60218AA1FA651
S1130A70AE0149505F4F5093FB024093FA029E012E
S1130A8023503F4FFA01358324838E519F4FF90140
S1130A9095838483DE01A75FBE4FFC01B583A483E5
S1130AA07E01F1EFEF1AFEEFFF0A1596FC92EE922B
S1130AB01497F70115821482BE016B5E7E4FFA0112
S1130AC071836083FB01138212828E01075E1E4FC5
S1130AD0FA0113830283F80113821282FAE06F0E83
S1130AE0711CFB0171826082FAE08F0E911CF80187
S1130AF0918280824A5D5F4FF90151834083FA01FC
S1130B0013821282645F7F4FF90173836283FB0156
S1130B1013821282FAE0AF0EB11CFA01B182A082F4
S1130B20FAE0CF0ED11CFB01D182C082485F5F4F37
S1130B30FC0151834083245D3F4FFA0133832283B8
S1130B40F90113821282645F7F4FFC017383628315
S1130B50FB0113821282FAE04F0E511CFA015182FA
S1130B604082885C9109F90191838083FB01D182E1
S1130B70C082445F5F4F11965C934E93245F3F4F56
S1130B80FA0133832283F9011382128282509F4F28
S1130B9013969C938E931297FC0113821282FA018E
S1130BA051824082FAE02F0E311CF90131822082F9
S1130BB0FC01D182C082285F3F4FF701318320833B
S1130BC00896F90193838283FC0113821282DC96D6
S1130BD0F701B383A28313961C921E921297F90114
S1130BE05182408227E430E02C0F3D1F265F3F4FA7
S1130BF0FC013183208381EE90E08C0F9D1F0A96C7
S1130C008D939C9394D0BAD0FFD08BA59CA58332AE
S1130C10FBE09F0724F082E29BE0D2D509C08D3C23
S1130C202AE0920724F48DEC9AE0CAD501C0C8D515
S1130C30C85BDE4F0FB6F894DEBF0FBECDBFDF91A9
S1130C40CF911F910F91FF90EF90DF90CF90BF90C5
S1130C50AF909F908F907F906F905F904F903F9058
S1130C602F900895FC01848595859B01281B390BE1
S1130C7086859785861B970B12161306F4F41816AF
S1130C801906F4F460897189A289B3898A9FA00145
S1130C908B9F500D9A9F500D1124269FC001279FB2
S1130CA0900D369F900D1124481759070CF4CA0172
S1130CB08F3F910509F03CF408C080E090E005C046
S1130CC080E090E002C080E091E0938782870895FD
S1130CD00F931F93CF93DF93FC01C685D78584853B
S1130CE09585C81BD90B2285338560897189C90113
S1130CF00E94BF118E01061B170B62897389C901FB
S1130D000E94BF11061B170BC00FD11F2C9FC001DF
S1130D102D9F900D3C9F900D112499230CF4019666
S1130D2095958795DF91CF911F910F9108950F931A
S1130D301F93CF93DF930091F8021091F9020115EC
S1130D401105B9F0F801C485D585209761F0209785
S1130D5029F0F80162857385CE0184DF0C88DD8972
S1130D60C02D2097A1F7F8010685178501151105F7
S1130D7049F7DF91CF911F910F9108950F931F931E
S1130D80CF93DF93C091FA02D091FB022097B9F17F
S1130D9000E011E0E881F981309781F0202F312FB4
S1130DA0A081B1818D919C91821793070CF49C01D1
S1130DB00280F381E02D309799F702C0202F312F64
S1130DC0EA81FB813097B1F0722F632FA081B1814A
S1130DD08D919C911197572F462F2817390714F49A
S1130DE0582F492F5C9311964C930280F381E02D88
S1130DF0309761F70C80DD81C02D209759F6DF9183
S1130E00CF911F910F9108952F923F924F925F922D
S1130E106F927F928F929F92AF92BF92CF92DF9206
S1130E20EF92FF920F931F93CF93DF9300D000D0E4
S1130E3000D0CDB7DEB78091F6029091F7029C8383
S1130E408B83892B09F48DC0EB81FC810484F585A7
S1130E50E02DFE83ED83EF2B09F46EC0512C612C41
S1130E60712C412C312C212C19821A828D819E8166
S1130E702FDFBC01882777FD8095982F0E94D01022
S1130E806B017C01ED81FE8104851585B8018827FD
S1130E9077FD8095982F0E94D0104B015C01ED8165
S1130EA0FE8186859785801B910BBC0112F46F5FD0
S1130EB07F4F75956795882777FD8095982F0E94B9
S1130EC0D010A50194010E94D10F9B01AC01C70170
S1130ED0B6010E945C119B01AC01632D722D8981C6
S1130EE09A810E94D10F362E272E89839A83A701D7
S1130EF09601652D762D872D942D0E94D10F562EA7
S1130F00672E782E492EED81FE810488F589E02D27
S1130F10FE83ED83EF2B09F0A9CF262F372F482F1F
S1130F20592F632D722D89819A810E943510262FA5
S1130F30372F482F592F04C020E030E040E050E024
S1130F40622F732F842F952F0E949D10EB81FC81BB
S1130F5073876287868597859C838B83892B09F0A9
S1130F6073CF26960FB6F894DEBF0FBECDBFDF91C8
S1130F70CF911F910F91FF90EF90DF90CF90BF9092
S1130F80AF909F908F907F906F905F904F903F9025
S1130F902F900895AF92BF92CF92DF92EF92FF927B
S1130FA00F931F93CF93DF93EC016A0159010E94C1
S1130FB005121B861A86DD86CC86FF86EE86B50171
S1130FC06C197D0920E031E0C9010E94BF11798BC1
S1130FD0688BB701601B710BC9010E94BF117B8B29
S1130FE06A8BDF91CF911F910F91FF90EF90DF906B
S1130FF0CF90BF90AF9008952F923F924F925F92FF
S11310006F927F928F929F92AF92BF92CF92DF9214
S1131010EF92FF920F931F93CF93DF93CDB7DEB779
S1131020CE5CD1090FB6F894DEBF0FBECDBF85E00C
S1131030EFE9F1E09E012F5F3F4F1901D9010190C3
S11310400D928A95E1F75E0131E1A30EB11C0F2EDA
S1131050FDE2EF2EF12CF02D00E010E020E030E076
S11310604FEF5FEF64EA71E0C50194DF6E0187E240
S1131070C80ED11C0F2EFCE3EF2EF12CF02D0DE247
S113108010E02DE230E04EE150E06AEA71E0C60182
S113109081DF2E01EDE34E0E511C0F2EFEE7EF2EE5
S11310A0F12CF02D0DE710E02DE230E04DE250E0A0
S11310B061EB71E0C2016EDFBE86AD86DEA2CDA219
S11310C05CAE4BAE63961FAE1EAE63976E01F3E546
S11310D0CF0ED11C86E0E5EBF1E0D60101900D9234
S11310E08A95E1F75E0123E6A20EB11C0F2EEE24D1
S11310F0EA94FAE0FF2EF02D04EB1AE024EB3AE038
S113110043EB5AE067E571E0C50144DF4E0139E77E
S1131110830E911C0F2EF4E1EF2EFBE0FF2EF02D39
S113112004E01BE024E03BE044EF5AE06AEC71E0A9
S1131130C40130DF3E018FE8680E711C0F2EF5EEFE
S1131140EF2EFCE0FF2EF02D04EE1CE024EE3CE03C
S113115043EE5CE060E671E0C3011CDFF601B58696
S1131160A486F501958A848AF401758A648AF30158
S1131170158A148A3092F9022092F802188A1F867E
S1131180D092F702C092F602F60117861686CE01B7
S11311908B559F4F9093FB028093FA02DE01A55575
S11311A0BF4FFC01B583A483BE016F547F4F1596D6
S11311B07C936E931497FB0115821482AE014954FB
S11311C05F4FFC0151834083FA01138212829E0116
S11311D025543F4FFC0133832283F9011382128289
S11311E08A589109FA0191838083FAE06F0E711C89
S11311F0F901718260822C5F3F4F11963C932E93CC
S1131200F9011382128288559F4F13969C938E93F3
S11312101297FC011382128246585109F901518335
S11312204083FAE08F0E911CFC0191828082049627
S1131230FB0191838083FC01138212829096FB014F
S1131240B383A28313961C921E921297FAE04F0E58
S1131250511CFC0151824082FAE0AF0EB11CAD92E8
S1131260BC9265DD8BDDD0DDF60182859385873EFA
S1131270F7E09F0724F086EE97E0F7D209C0843E9A
S11312802CE0920724F484EE9CE0EFD201C0EDD26E
S1131290C253DF4F0FB6F894DEBF0FBECDBFDF9150
S11312A0CF911F910F91FF90EF90DF90CF90BF905F
S11312B0AF909F908F907F906F905F904F903F90F2
S11312C02F9008952F923F924F925F926F927F9248
S11312D08F929F92AF92BF92CF92DF92EF92FF9242
S11312E00F931F93CF93DF93CDB7DEB7CE5CD109B5
S11312F00FB6F894DEBF0FBECDBF85E0EFE9F1E095
S11313009E012F5F3F4F1901D90101900D928A95DB
S1131310E1F75E0131E1A30EB11C0F2EFDE2EF2EC9
S1131320F12CF02D00E010E020E030E04FEF5FEF13
S113133064EA71E0C5012EDE6E0187E2C80ED11C9D
S11313400F2EFCE3EF2EF12CF02D0DE210E02DE238
S113135030E04EE150E06AEA71E0C6011BDE2E0186
S1131360EDE34E0E511C0F2EFEE7EF2EF12CF02D67
S11313700DE710E02DE230E04DE250E061EB71E06A
S1131380C20108DEBE86AD86DEA2CDA25CAE4BAE47
S113139063961FAE1EAE63976E01F3E5CF0ED11CAC
S11313A086E0E5EBF1E0D60101900D928A95E1F734
S11313B05E0123E6A20EB11C0F2EF4E6EF2EFAE036
S11313C0FF2EF02D00E01AE020E03AE04CE959E06D
S11313D067E571E0C501DEDD4E0139E7830E911C3E
S11313E00F2EE12CFAE0FF2EF02D00E619E020ECA0
S11313F038E040EC58E064ED71E0C401CBDD3E011F
S11314008FE8680E711C0F2EF7EEEF2EF7E0FF2E1B
S1131410F02D06EE17E026EE37E045EE57E06DE4DA
S113142071E0C301B7DDF601B586A486F501958A9E
S1131430848AF401758A648AF301158A148A3092C5
S1131440F9022092F802188A1F86D092F702C092FD
S1131450F602F60117861686CE018B559F4F9093A0
S1131460FB028093FA02DE01A555BF4FFC01B58350
S1131470A483BE016F547F4F15967C936E9314978B
S1131480FB0115821482AE0149545F4FFC01518364
S11314904083FA01138212829E0125543F4FFC01BE
S11314A033832283F901138212828A589109FA0143
S11314B091838083FAE06F0E711CF901718260825E
S11314C02C5F3F4F11963C932E93F90113821282A5
S11314D088559F4F13969C938E931297FC01138209
S11314E0128246585109F90151834083FAE08F0E64
S11314F0911CFC01918280820496FB01918380837C
S1131500FC01138212829096FB01B383A28313968B
S11315101C921E921297FAE04F0E511CFC0151824C
S11315204082FAE0AF0EB11CAD92BC9200DC26DC26
S11315306BDCF60182859385873EF7E09F0724F0F4
S113154086EE97E092D109C0843E2CE0920724F401
S113155084EE9CE08AD101C088D1C253DF4F0FB61C
S1131560F894DEBF0FBECDBFDF91CF911F910F91D5
S1131570FF90EF90DF90CF90BF90AF909F908F90AF
S11315807F906F905F904F903F902F900895EF92CF
S1131590FF920F931F93CF93DF938A017901FB018D
S11315A0FF2324F4EE27FF27E61BF70BEF01EE37AA
S11315B0F10514F0CDE7D0E08237910519F4CE019E
S11315C01BDD13C08C36910581F484EF91E00E94F9
S11315D07A00892B21F4B701C801DDD806C080E068
S11315E090E00E946600CE016DDEDF91CF911F91E5
S11315F00F91FF90EF9008951F920F920FB60F92E4
S113160011240BB60F928F939F93EF93FF938091C6
S1131610CE008F3F29F41092DB011092DA0110C042
S1131620E091DA01F091DB01E450FD4F8083809179
S1131630DA019091DB0101969093DB018093DA014A
S1131640FF91EF919F918F910F900BBE0F900FBE62
S11316500F901F901895A5D0D9D18DEC9AE0909356
S113166089008093880084E69AE090938B008093AD
S11316708A000895CF93DF93CDB7DEB72B970FB6CB
S1131680F894DEBF0FBECDBFE6DF2FEF8FEF90EEF5
S1131690215080409040E1F700C000008FEF81B9F5
S11316A078940AE810E00F2EF8E86F2E712CF02DD4
S11316B00CD28823E9F33B84BE016F5F7F4FCE01D8
S11316C00B960DD2AB80B12CE980F12CCA80D12CC1
S11316D028848A84912C8B85843079F431101BC042
S11316E081E090E00E9466004984512CE8E24E1AA1
S11316F051088B85813079F406C08B85813059F48B
S1131700F1E03F1641F02CE68216910421F481E0C9
S113171090E00E946600F8948B85811109C0F8015D
S113172080819181B5015CD8B601C70134D829C044
S11317308430C1F4E4E9F0E0808191818C329140FD
S113174030F483E19BE03CD0C20108D21AC080E0AF
S113175090E00E9466008DEC9AE032D084E69AE034
S113176084D00FC0813069F4F80180819181B50182
S113177037D8822D90E09601A701B4018D579109C5
S113178006DF7894F301C080D180F801E080F18015
S113179080E045D18C2D43D180E041D18E2D3FD1C5
S11317A087CF80E38AB982EA809380008FEF9FE835
S11317B090938700809386008AE180938100089546
S11317C080362AE092073CF48FE59AE090938900F2
S11317D080938800089582322BE0920724F1E8E890
S11317E0F0E060817181409100015091010182E239
S11317F09BE0489F9001499F300D589F300D112464
S11318004091020150910301649FC001659F900DB6
S1131810749F900D1124820F931F6AE070E0AFD57E
S1131820718360830895E8E8F0E0608171814091FC
S1131830000150910101849F9001859F300D949F78
S1131840300D11244091020150910301649FC001A5
S1131850659F900D749F900D1124820F931F6AE071
S113186070E08DD5718360830895843E2CE09207E7
S11318703CF084EE9CE090938B0080938A00089562
S1131880873E27E092073CF486EE97E090938B0026
S113189080938A000895EAE8F0E0608171814091C4
S11318A0000150910101849F9001859F300D949F08
S11318B0300D11244091020150910301649FC00135
S11318C0659F900D749F900D1124820F931F6AE001
S11318D070E055D5718360830895F894209168026F
S11318E03091690221153105A9F0E4E6F2E0408166
S11318F05181DA01AC5DBD4F8C914F5F5F4F5183D5
S11319004083215031093093690220936802232BCC
S113191021F401C08EEF1092DC0120916402309119
S113192065022034310521F410926502109264029C
S1131930789408951F920F920FB60F9211240BB64C
S11319400F922F933F938F939F93AF93BF93EF93F4
S1131950FF9310982EB52D3FA9F0E6E6F2E08081C2
S11319609181DC01AC5DBD4F2C9301969183808302
S1131970E8E6F2E08081918101969183808381E0A1
S11319808093DC0180916602909167028034910516
S113199021F41092670210926602809122029091C3
S11319A02302892B01F1E0911E02F0911F02E25201
S11319B0FE4F80818EBDEEE1F2E08081918101963F
S11319C091838083E2E2F2E0208131812150310968
S11319D031832083109A8034910549F410921F02B8
S11319E010921E0204C08DEF8EBD1092DD01FF9196
S11319F0EF91BF91AF919F918F913F912F910F9054
S1131A000BBE0F900FBE0F901F90189580E484B901
S1131A1080EC8CBD089A10988DEF8EBD0895F894D3
S1131A2020912202309123022034310590F4E0E227
S1131A30F2E040815181DA01A252BE4F8C934F5F94
S1131A405F4F518340832F5F3F4F30932302209396
S1131A50220280912002909121028034910521F488
S1131A60109221021092200280912202909123026E
S1131A700197F1F48091DD0181111AC0E0911E02F9
S1131A80F0911F02E252FE4F80818EBDEEE1F2E042
S1131A9080819181019691838083E2E2F2E08081EA
S1131AA09181019791838083109A81E08093DD0175
S1131AB080911E0290911F028034910521F41092AE
S1131AC01F0210921E027894089581E0209168020A
S1131AD0309169022B30310508F480E008950F93AA
S1131AE01F93CF93DF938C01EB0120916802309117
S1131AF06902232B69F1E0916402F0916502EC5DC7
S1131B00FD4F80818F3FE1F4E0DF882311F1E5DEB2
S1131B10E4DEF8018083E1DE8883DFDE8983DDDEB5
S1131B208A83DBDE8B83D9DE8C83D7DE8D838DE6DF
S1131B309CE08F83D2DE8987D0DE888781E009C06C
S1131B40C4DF882331F0C9DEBE01C801C8DF01C08B
S1131B5080E0DF91CF911F910F9108954F925F9292
S1131B606F927F928F929F92AF92BF92CF92DF92A9
S1131B70EF92FF920F931F93CF93DF93CDB7DEB70E
S1131B80CE5CD1090FB6F894DEBF0FBECDBF2BE0FB
S1131B90EBEBF1E0DE01119601900D922A95E1F74D
S1131BA08C3E2FEF92072CF48CEE9FEF9C878B8753
S1131BB00AC0853191052CF084E190E09C878B87E5
S1131BC002C09C878B875E0181E1A80EB11C0F2E99
S1131BD0FBEFEF2EFF24FA94F02D0CEE1FEF2CEE0A
S1131BE03FEF4BEE5FEF66EC71E0C501D3D96E01B8
S1131BF0E7E2CE0ED11C0F2EFAE0EF2EF12CF02DE1
S1131C0000E010E020E030E046EF5FEF6AEA71E0C8
S1131C10C601C0D92E01FDE34F0E511C0F2EF5E174
S1131C20EF2EF12CF02D04E110E024E130E045E04A
S1131C3050E060ED71E0C201ADD9BE86AD86DEA292
S1131C40CDA25CAE4BAE63961FAE1EAE63976E0123
S1131C5023E5C20ED11C86E0E5EBF1E0D60101904C
S1131C600D928A95E1F73E0183E6680E711C0F2EF2
S1131C70F0EAEF2EFAE0FF2EF02D04E61AE024E657
S1131C803AE048E25AE067E571E0C30183D95E01B6
S1131C90E9E7AE0EB11C0F2EF8E1EF2EFBE0FF2EAC
S1131CA0F02D04E01BE024E03BE040EF5AE06AEC56
S1131CB071E0C5016FD94E01FFE88F0E911C0F2E04
S1131CC0F8EDEF2EF9E0FF2EF02D04EC19E024ECF2
S1131CD039E040EB59E064ED71E0C4015BD9F601F1
S1131CE075866486F301958A848AF401B58AA48A88
S1131CF0F501158A148ACE0101969093F902809316
S1131D00F802188A1F86D092F702C092F602F601F2
S1131D10178616868C559F4F9093FB028093FA0288
S1131D20DE01A555BF4FFC01B583A483BE016F54EA
S1131D307F4F15967C936E931497FB011582148242
S1131D40AE0149545F4FFC0151834083FA01138271
S1131D5012829E0125543F4FFC0133832283F901F3
S1131D601382128284579109FA0191838083FAE0E5
S1131D706F0E711CF901718260822C5F3F4F1196C6
S1131D803C932E93F901138212828E569F4F139621
S1131D909C938E931297FC01138212824C59510921
S1131DA0F90151834083FAE08F0E911CFC0191826A
S1131DB080820496FB0191838083FC01138212824A
S1131DC09096FB01B383A28313961C921E921297E2
S1131DD0FAE04F0E511CFC0151824082FAE0AF0E32
S1131DE0B11CAD92BC920E9497060E94BE060CD80C
S1131DF0F60182859385873EF7E09F0724F086EEFF
S1131E0097E033DD09C0843E2CE0920724F484EE8D
S1131E109CE02BDD01C029DDC253DF4F0FB6F894DF
S1131E20DEBF0FBECDBFDF91CF911F910F91FF9009
S1131E30EF90DF90CF90BF90AF909F908F907F9066
S1131E406F905F904F9008951F920F920FB60F926C
S1131E5011240BB60F922F933F934F938F939F931D
S1131E60AF93BF93EF93FF938091F4029091F502A7
S1131E708034910531F481E0809320038091C60081
S1131E8016C080349105E8F4E2EFF2E0208131815C
S1131E904091C600D901A055BD4F4C932F5F3F4FD1
S1131EA03183208301969093F5028093F40280910C
S1131EB0F4029091F5028034910519F481E0809345
S1131EC01E038091F2029091F3028034910521F473
S1131ED01092F3021092F20281E080931D03FF91AD
S1131EE0EF91BF91AF919F918F914F913F912F911E
S1131EF00F900BBE0F900FBE0F901F9018951F925E
S1131F000F920FB60F9211240BB60F928F939F93DB
S1131F10EF93FF938091AE029091AF0280349105CC
S1131F2019F410921C0302C0892BB9F0E091AA02A3
S1131F30F091AB02E659FD4F80818093C600EAEA36
S1131F40F2E080819181019691838083EEEAF2E050
S1131F50808191810197918380838091AA029091DD
S1131F60AB028034910521F41092AB021092AA02C4
S1131F708091AE029091AF02892B39F410921F0325
S1131F80E1ECF0E080818F7B8083FF91EF919F9162
S1131F908F910F900BBE0F900FBE0F901F9018954E
S1131FA05058BB27AA270ED04DC13ED130F043D1A3
S1131FB020F031F49F3F11F41EF433C10EF4E09588
S1131FC0E7FB29C1E92F4FD180F3BA1762077307E2
S1131FD08407950718F071F49EF567C10EF4E09537
S1131FE00B2EBA2FA02D0B01B90190010C01CA01CF
S1131FF0A0011124FF27591B99F0593F50F4503E7A
S113200068F11A16F040A22F232F342F4427585F6B
S1132010F3CF469537952795A795F0405395C9F783
S11320207EF41F16BA0B620B730B840BBAF091503B
S1132030A1F0FF0FBB1F661F771F881FC2F70EC0DA
S1132040BA0F621F731F841F48F4879577956795AD
S1132050B795F7959E3F08F0B3CF9395880F08F096
S11320609927EE0F9795879508950CD0EBC0E3D090
S113207040F0DAD030F021F45F3F19F0CCC05111B8
S113208015C1CFC0F0D098F39923C9F35523B1F308
S1132090951B550BBB27AA2762177307840738F0D3
S11320A09F5F5F4F220F331F441FAA1FA9F333D032
S11320B00E2E3AF0E0E830D091505040E695001CE6
S11320C0CAF729D0FE2F27D0660F771F881FBB1FA2
S11320D0261737074807AB07B0E809F0BB0B802D7C
S11320E0BF01FF2793585F4F2AF09E3F510568F0C8
S11320F092C0DCC05F3FECF3983EDCF386957795A5
S11321006795B795F7959F5FC9F7880F911D9695C9
S1132110879597F90895E1E0660F771F881FBB1F25
S1132120621773078407BA0720F0621B730B840BD2
S1132130BA0BEE1F88F7E095089504D06894B111A6
S1132140B5C0089598D088F09F5790F0B92F99277B
S1132150B751A0F0D1F0660F771F881F991F1AF0AE
S1132160BA95C9F712C0B13081F09FD0B1E008959B
S11321709CC0672F782F8827B85F39F0B93FCCF31C
S1132180869577956795B395D9F73EF490958095A4
S1132190709561957F4F8F4F9F4F0895E89409C0C4
S11321A097FB3EF490958095709561957F4F8F4F86
S11321B09F4F9923A9F0F92F96E9BB279395F6959C
S11321C0879577956795B795F111F8CFFAF4BB0F1A
S11321D011F460FF1BC06F5F7F4F8F4F9F4F16C07E
S11321E0882311F096E911C0772321F09EE8872F08
S11321F0762F05C0662371F096E8862F70E060E0C4
S11322002AF09A95660F771F881FDAF7880F96953C
S1132210879597F9089597F99F6780E870E060E0E3
S113222008959FEF80EC089500240A94161617066B
S113223018060906089500240A94121613061406B3
S113224005060895092E0394000C11F4882352F016
S1132250BB0F40F4BF2B11F460FF04C06F5F7F4FCE
S11322608F4F9F4F089557FD9058440F551F59F0B5
S11322705F3F71F04795880F97FB991F61F09F3F6F
S113228079F087950895121613061406551FF2CF98
S11322904695F1DF08C0161617061806991FF1CFE8
S11322A086957105610508940895E894BB2766270F
S11322B07727CB0197F908950BD0C4CFB5DF28F069
S11322C0BADF18F0952309F0A6CFABCF1124EECFD7
S11322D0CADFA0F3959FD1F3950F50E0551F629F7D
S11322E0F001729FBB27F00DB11D639FAA27F00D6B
S11322F0B11DAA1F649F6627B00DA11D661F829F92
S11323002227B00DA11D621F739FB00DA11D621F76
S1132310839FA00D611D221F749F3327A00D611D93
S1132320231F849F600D211D822F762F6A2F112475
S11323309F5750408AF0E1F088234AF0EE0FFF1FC8
S1132340BB1F661F771F881F91505040A9F79E3FFF
S1132350510570F060CFAACF5F3FECF3983EDCF3F9
S1132360869577956795B795F795E7959F5FC1F73C
S1132370FE2B880F911D9695879597F9089597FBE5
S1132380072E16F4009406D077FD08D011D007FC70
S113239005D03EF4909581959F4F08957095619571
S11323A07F4F0895B7FF18C017D0821B930B089571
S11323B0AA1BBB1B51E107C0AA1FBB1FA617B70767
S11323C010F0A61BB70B881F991F5A95A9F7809583
S11323D09095BC01CD01089509D0A59F900DB49F9F
S11323E0900DA49F800D911D11240895A29FB0010A
S11323F0B39FC001A39F700D811D1124911DB29F35
S1132400700D811D1124911D0895FB01DC010190C3
S10F24100D920020E1F70895F894FFCF2E
S113241C0800020064656C74615F4300726967684C
S113242C74536964650063656E747265006C6566EB
S113243C74536964650064656C74615F5600696EFD
S113244C4D696E757300696E4E796C6C00696E50D3
S113245C6C7573007374656572696E67007368617B
S113246C72704C6566740073747261696768740089
S113247C736861727052696768740064697374611B
S113248C6E63650073706565640073746F70446982
S113249C737400636C6F73650066616172006E65C2
S11324AC757472616C006C6F77006869676800748E
S11324BC75726E007374617274006D6964646C651A
S11324CC00656E6400736572766F006F7269656E79
S11324DC746174696F006F66665F72696768740013
S10D24EC6F66665F6C65667400009D
S9030000FC
