:1000000045C0000061C000005FC000005DC000008E
:100010005BC0000059C0000057C0000055C0000080
:1000200053C0000051C000004FC000004DC0000090
:100030004BC0000049C0000047C0000045C00000A0
:1000400043C0000041C000003FC000009CC500004C
:1000500077C6000039C00000CEC6000035C00000E1
:1000600033C0000031C000002FC000002DC00000D0
:1000700094C4000029C0000027C0000025C0000073
:1000800023C0000021C000001FC0000011241FBEBB
:10009000CFEFD0E4DEBFCDBF11E0A0E0B1E0E6EDF0
:1000A000F2E100E00BBF02C007900D92A436B10749
:1000B000D9F722E0A4E6B1E001C01D92AE3AB20742
:1000C000E1F7CAD40C9469099BCF2F923F924F92CB
:1000D0005F926F927F928F929F92AF92BF92CF92D8
:1000E000DF92EF92FF920F931F93CF93DF93CDB7E1
:1000F000DEB7C657D1400FB6F894DEBF0FBECDBFF6
:100100002C01CB58DE4F79836883C557D14086E0F8
:10011000E0E0F1E0DE01119601900D928A95E1F7A1
:100120003E0121E1620E711C0F2EFCE3EF2EF12C3B
:10013000F02D08E210E020E030E04FEF5FEF66E0E6
:1001400071E0C301FBD35E0147E2A40EB11C0F2E88
:10015000FAE5EF2EF12CF02D00E510E020E530E07F
:1001600042E350E06DE071E0C501E8D36E016DE35C
:10017000C60ED11C0F2EF5E6EF2EF12CF02D04E665
:1001800010E02AE530E040E550E065E171E0C601AD
:10019000D5D37E866D86BEA2ADA2DCAECBAE639615
:1001A0001FAE1EAE6397CB58DE4F88819981C5572D
:1001B000D14099231CF41C861B8616C0CB58DE4FF9
:1001C000E881F981C557D140E536F1052CF084E688
:1001D00090E09C878B8708C0CB58DE4F688179817F
:1001E000C557D1407C876B8786E0EAE1F1E0DE010C
:1001F000AD5ABF4F01900D928A95E1F73E0173E62B
:10020000670E711C0F2EFBE4EF2EF12CF02D07E38F
:1002100010E020E030E04FEF5FEF60E271E0C301FB
:100220008DD35E0189E7A80EB11C0F2EFFE5EF2EDE
:10023000F12CF02D0BE410E02BE430E047E350E02C
:1002400067E271E0C5017AD36E019FE8C90ED11C47
:100250000F2EF5E6EF2EF12CF02D04E610E02FE541
:1002600030E04BE450E06FE271E0C60167D3A19645
:100270007FAE6EAEA197F301B58AA48AF501D58A47
:10028000C48AF601158A148A55202CF46F961FAE85
:100290001EAE6F970FC0F5E64F1651043CF084E692
:1002A00090E06F969FAF8EAF6F9704C06F965FAE72
:1002B0004EAE6F974E0125EA820E911C86E0E4E374
:1002C000F1E0D40101900D928A95E1F73E0145EBF2
:1002D000640E711C0F2EF7EEEF2EF7E0FF2EF02DBF
:1002E00006EE17E026EE37E045EE57E06AE371E0F0
:1002F000C30124D36E016BECC60ED11C0F2EF0E6A9
:10030000EF2EF9E0FF2EF02D0AEC18E02AEC38E091
:1003100049E858E064E471E0C60110D32E0171EEA3
:10032000470E511C0F2EF4EEEF2EFAE0FF2EF02DAB
:1003300004E61AE024E63AE044EE59E069E471E0AC
:10034000C201FCD25E0187EFA80EB11C0F2EFFE3A5
:10035000EF2EFCE0FF2EF02D0CE11CE02CE13CE048
:1003600048EB5BE062E571E0C501E8D21E0193EF66
:10037000291A9EEF390A0F2EF0E4EF2EFCE0FF2E33
:10038000F02D0FE31CE02FE33CE04EE35CE068E57A
:1003900071E0C101D3D2F40135862486F101B58A1A
:1003A000A48AF501558A448AF201D58AC48AF601E5
:1003B000758A648AF301158A148AE256F109F0936A
:1003C0008302E0938202CE01019697878687188A7E
:1003D0001F869092810280928002F4011786168611
:1003E000AE014D5D5E4F50938502409384029E01A5
:1003F000275D3E4FFA0135832483825D9E4FF901CC
:1004000095838483DE01AB5CBE4FFC01B583A4837E
:100410006BE371E06C0F7D1F15967C936E931497C0
:10042000C15CDE4F19821882CF53D1406A5F7F4F83
:10043000FA01718360833E01FBEB6F1AFEEF7F0AC6
:10044000FB0173826282F301138212828E01075BC9
:100450001E4FFA0113830283F801138212827E0178
:10046000F7E4EF0EF11CFB01F182E082465B5109DB
:10047000F30151834083FAE0AF0EB11CF801B18261
:10048000A08240525F4FF90151834083605F7F4FEC
:10049000FA0173836283FB0113821282045F1F4F90
:1004A000F90113830283F80113821282FA01F182A7
:1004B000E08220593109FB0131832083FAE0CF0E1D
:1004C000D11CF801D182C08220543F4FFC013183FE
:1004D0002083405F5F4FF90153834283FA01138207
:1004E0001282605F7F4FFC0173836283FB01138282
:1004F0001282F901F182E0828C5A9109FA0191830A
:100500008083FAE04F0E511CFB0151824082245F30
:100510003F4F11963C932E93F901138212828A5118
:100520009F4F13969C938E931297FC011382128215
:100530004C525140F90151834083FAE02F0E311C97
:10054000FC01318220820496C55CDE4F998388834A
:10055000CB53D140FC0113821282DC96C35CDE4F88
:10056000B983A883CD53D14013961C921E92129743
:100570002A54314031832083AD92BC92B5D0DBD078
:1005800020D1F40182859385E3D2CB58DE4F688178
:100590007981C557D1406E31710534F481E090E026
:1005A0009093650180936401CA58DE4F0FB6F894AA
:1005B000DEBF0FBECDBFDF91CF911F910F91FF9096
:1005C000EF90DF90CF90BF90AF909F908F907F90F3
:1005D0006F905F904F903F902F9008950F931F93CF
:1005E000CF93DF938C01EB01633371051CF088E13D
:1005F0009BE093D2CA30D1051CF480E59AE08DD2FD
:10060000BE01C80162DD8091640190916501892B72
:1006100019F08DEC9AE081D2DF91CF911F910F916B
:100620000895FC01848595859B01281B390B8685DF
:100630009785861B970B12161306F4F418161906E5
:10064000F4F460897189A289B3898A9FA0018B9F84
:10065000500D9A9F500D1124269FC001279F900D89
:10066000369F900D1124481759070CF4CA018F3F8B
:10067000910509F03CF408C080E090E005C080E0FE
:1006800090E002C080E091E09387828708950F9305
:100690001F93CF93DF93FC01C685D785848595850D
:1006A000C81BD90B2285338560897189C901E3D5BF
:1006B0008E01061B170B62897389C901DCD5061BE5
:1006C000170BC00FD11F2C9FC0012D9F900D3C9F79
:1006D000900D112499230CF4019695958795DF913F
:1006E000CF911F910F9108950F931F93CF93DF9395
:1006F000009182021091830201151105B9F0F801F1
:10070000C485D585209761F0209729F0F80162858E
:100710007385CE0186DF0C88DD89C02D2097A1F777
:10072000F801068517850115110549F7DF91CF916D
:100730001F910F9108950F931F93CF93DF93C09153
:100740008402D09185022097B9F100E011E0E881A0
:10075000F981309781F0202F312FA081B1818D91C7
:100760009C91821793070CF49C010280F381E02D89
:10077000309799F702C0202F312FEA81FB81309703
:10078000B1F0722F632FA081B1818D919C9111974F
:10079000572F462F2817390714F4582F492F5C93E9
:1007A00011964C930280F381E02D309761F70C8015
:1007B000DD81C02D209759F6DF91CF911F910F91C8
:1007C00008952F923F924F925F926F927F928F92F5
:1007D0009F92AF92BF92CF92DF92EF92FF920F93D0
:1007E0001F93CF93DF9300D000D000D0CDB7DEB7FA
:1007F00080918002909181029C838B83892B09F4E4
:1008000084C0EB81FC810484F585E02DFE83ED83BB
:10081000EF2B09F466C0512C612C712C412C312C2A
:10082000212C19821A828D819E8131DFBC0188279B
:1008300077FD8095982F30D46B017C01ED81FE818E
:1008400004851585B801882777FD8095982F24D4D5
:100850004B015C01ED81FE8186859785801B910BA4
:10086000BC0112F46F5F7F4F75956795882777FD00
:100870008095982F11D4A50194010FD39B01AC0151
:10088000C701B60195D49B01AC01632D722D8981FE
:100890009A8103D3362E272E89839A83A701960146
:1008A000652D762D872D942DF8D2562E672E782E15
:1008B000492EED81FE810488F589E02DFE83ED83CC
:1008C000EF2B09F0B0CF262F372F482F592F632D4C
:1008D000722D89819A8145D3262F372F482F592F82
:1008E00004C020E030E040E050E0622F732F842FFE
:1008F000952F9FD3EB81FC817387628786859785CF
:100900009C838B83892B09F07CCF26960FB6F894B5
:10091000DEBF0FBECDBFDF91CF911F910F91FF9032
:10092000EF90DF90CF90BF90AF909F908F907F908F
:100930006F905F904F903F902F900895AF92BF922D
:10094000CF92DF92EF92FF920F931F93CF93DF939B
:10095000EC016A015901B6D41B861A86DD86CC8665
:10096000FF86EE86B5016C197D0920E031E0C901F2
:1009700082D4798B688BB701601B710BC9017BD462
:100980007B8B6A8BDF91CF911F910F91FF90EF903E
:10099000DF90CF90BF90AF9008951F920F920FB647
:1009A0000F9211240BB60F928F939F93EF93FF93A7
:1009B0008091CE008F3F29F41092A7021092A602D8
:1009C00010C0E091A602F091A702EA57FD4F808384
:1009D0008091A6029091A70201969093A70280931E
:1009E000A602FF91EF919F918F910F900BBE0F90F8
:1009F0000FBE0F901F90189575D031C10895ECEC83
:100A0000F0E01182108220E92093C9002EE02093AB
:100A1000CA00918380830895FC01A9ECB0E08C9119
:100A20008F778C9380918A02808380918B0281835F
:100A300080918802848380918602828380918702DC
:100A400083838091890285831092A7021092A60267
:100A50008C9180688C930895CF93DF93CDB7DEB7E8
:100A60002B970FB6F894DEBF0FBECDBF42E25BE01E
:100A700064E670E088E290E0B1DDBEDF2FEF8FEF3B
:100A800090EE215080409040E1F700C00000789443
:100A900087E090E0B4DF08E810E00F2EFAE8EF2ED0
:100AA000F12CF02D8091A6029091A7020697D4F325
:100AB000BE016F5F7F4FCE010B9611D1CE01019623
:100AC000ABDF6B8170E08C8190E0F894F80140819D
:100AD000518184DD7894F80180819181F7018081D2
:100AE0009181E0CF80E38AB982EA809380008FEF22
:100AF0009FE890938700809386008AE1809381002D
:100B00008DEC9AE0909389008093880084E69AE0C7
:100B100090938B0080938A00089580362AE0920794
:100B20003CF48FE59AE090938900809388000895C3
:100B30008B332BE092073CF08BE39BE09093890092
:100B40008093880008959093890080938800089589
:100B500080342CE092073CF08FE39CE090938B0074
:100B600080938A000895863E27E092073CF486EE43
:100B700097E090938B0080938A00089590938B0068
:100B800080938A0008951F920F920FB60F9211243E
:100B90000BB60F922F933F938F939F93AF93BF9377
:100BA000EF93FF9310982EB52D3FA9F0E0EFF1E001
:100BB00080819181DC01A255BE4F2C9301969183D7
:100BC0008083E2EFF1E080819181019691838083BF
:100BD00081E0809366018091F0019091F101803471
:100BE000910521F41092F1011092F0018091AC0175
:100BF0009091AD01892B01F1E091A801F091A9013B
:100C0000E859FE4F80818EBDE8EAF1E08081918154
:100C1000019691838083ECEAF1E0208131812150BB
:100C2000310931832083109A8034910549F4109260
:100C3000A9011092A80104C08DEF8EBD109267012A
:100C4000FF91EF91BF91AF919F918F913F912F9124
:100C50000F900BBE0F900FBE0F901F90189580E461
:100C600084B980EC8CBD089A10988DEF8EBD0895E4
:100C7000F8942091F2013091F30121153105A9F08A
:100C8000EEEEF1E040815181DA01A255BE4F8C9128
:100C90004F5F5F4F51834083215031093093F301FF
:100CA0002093F201232B21F401C08EEF10926601F4
:100CB0002091EE013091EF012034310521F41092A2
:100CC000EF011092EE017894089581E02091F201F5
:100CD0003091F3012530310508F480E008950F9339
:100CE0001F93CF93DF938C01EB012091F2013091A0
:100CF000F301232BF9F0E091EE01F091EF01E255C1
:100D0000FE4F80818F3F71F4E0DF8823A1F0B0DFD8
:100D1000AFDF8A83ADDF8B83ABDF8C83A9DF8D836D
:100D200081E009C0D2DF882331F0A2DFBE01C80113
:100D3000D6DF01C080E0DF91CF911F910F91089520
:100D40001F920F920FB60F9211240BB60F922F9392
:100D50003F934F938F939F93AF93BF93EF93FF93E3
:100D600080917E0290917F028034910531F481E080
:100D70008093AC028091C60016C080349105E8F4DF
:100D8000ECE7F2E0208131814091C600D901A65CF8
:100D9000BD4F4C932F5F3F4F31832083019690933B
:100DA0007F0280937E0280917E0290917F02803448
:100DB000910519F481E08093AA0280917C029091C0
:100DC0007D028034910521F410927D0210927C0204
:100DD00081E08093A902FF91EF91BF91AF919F9124
:100DE0008F914F913F912F910F900BBE0F900FBE9F
:100DF0000F901F9018951F920F920FB60F9211240B
:100E00000BB60F928F939F93EF93FF9380913802CD
:100E1000909139028034910519F41092A80202C011
:100E2000892BB9F0E0913402F0913502EC50FE4F7D
:100E300080818093C600E4E3F2E080819181019695
:100E400091838083E8E3F2E080819181019791832F
:100E5000808380913402909135028034910521F491
:100E6000109235021092340280913802909139022A
:100E7000892B39F41092AB02E1ECF0E080818F7B9A
:100E80008083FF91EF919F918F910F900BBE0F90F8
:100E90000FBE0F901F9018955058BB27AA270ED051
:100EA0004DC13ED130F043D120F031F49F3F11F4D9
:100EB0001EF433C10EF4E095E7FB29C1E92F4FD1B1
:100EC00080F3BA17620773078407950718F071F467
:100ED0009EF567C10EF4E0950B2EBA2FA02D0B01E5
:100EE000B90190010C01CA01A0011124FF27591B6F
:100EF00099F0593F50F4503E68F11A16F040A22F75
:100F0000232F342F4427585FF3CF469537952795E5
:100F1000A795F0405395C9F77EF41F16BA0B620BE4
:100F2000730B840BBAF09150A1F0FF0FBB1F661F2B
:100F3000771F881FC2F70EC0BA0F621F731F841F6E
:100F400048F4879577956795B795F7959E3F08F094
:100F5000B3CF9395880F08F09927EE0F9795879553
:100F600008950CD0EBC0E3D040F0DAD030F021F49B
:100F70005F3F19F0CCC0511115C1CFC0F0D098F32C
:100F80009923C9F35523B1F3951B550BBB27AA270A
:100F900062177307840738F09F5F5F4F220F331F7C
:100FA000441FAA1FA9F333D00E2E3AF0E0E830D048
:100FB00091505040E695001CCAF729D0FE2F27D04B
:100FC000660F771F881FBB1F261737074807AB0719
:100FD000B0E809F0BB0B802DBF01FF2793585F4F8E
:100FE0002AF09E3F510568F092C0DCC05F3FECF3F1
:100FF000983EDCF3869577956795B795F7959F5F53
:10100000C9F7880F911D9695879597F90895E1E0A6
:10101000660F771F881FBB1F621773078407BA0705
:1010200020F0621B730B840BBA0BEE1F88F7E09560
:10103000089504D06894B111B5C0089598D088F08F
:101040009F5790F0B92F9927B751A0F0D1F0660FB4
:10105000771F881F991F1AF0BA95C9F712C0B130CF
:1010600081F09FD0B1E008959CC0672F782F88272A
:10107000B85F39F0B93FCCF3869577956795B3950E
:10108000D9F73EF490958095709561957F4F8F4F7D
:101090009F4F0895E89409C097FB3EF49095809582
:1010A000709561957F4F8F4F9F4F9923A9F0F92F2E
:1010B00096E9BB279395F695879577956795B795AC
:1010C000F111F8CFFAF4BB0F11F460FF1BC06F5F92
:1010D0007F4F8F4F9F4F16C0882311F096E911C0A4
:1010E000772321F09EE8872F762F05C0662371F0C5
:1010F00096E8862F70E060E02AF09A95660F771FD9
:10110000881FDAF7880F9695879597F9089597F9CC
:101110009F6780E870E060E008959FEF80EC08959D
:1011200000240A94161617061806090608950024C6
:101130000A9412161306140605060895092E039440
:10114000000C11F4882352F0BB0F40F4BF2B11F4B4
:1011500060FF04C06F5F7F4F8F4F9F4F089557FD13
:101160009058440F551F59F05F3F71F04795880F15
:1011700097FB991F61F09F3F79F0879508951216AC
:1011800013061406551FF2CF4695F1DF08C0161658
:1011900017061806991FF1CF869571056105089409
:1011A0000895E894BB2766277727CB0197F9089520
:1011B0000BD0C4CFB5DF28F0BADF18F0952309F0C3
:1011C000A6CFABCF1124EECFCADFA0F3959FD1F30A
:1011D000950F50E0551F629FF001729FBB27F00DE5
:1011E000B11D639FAA27F00DB11DAA1F649F66273A
:1011F000B00DA11D661F829F2227B00DA11D621F89
:10120000739FB00DA11D621F839FA00D611D221F42
:10121000749F3327A00D611D231F849F600D211D26
:10122000822F762F6A2F11249F5750408AF0E1F0C9
:1012300088234AF0EE0FFF1FBB1F661F771F881F12
:1012400091505040A9F79E3F510570F060CFAACF52
:101250005F3FECF3983EDCF3869577956795B795FD
:10126000F795E7959F5FC1F7FE2B880F911D969527
:10127000879597F9089597FB072E16F4009406D0EA
:1012800077FD08D00BD007FC05D03EF490958195F2
:101290009F4F0895709561957F4F0895AA1BBB1BC2
:1012A00051E107C0AA1FBB1FA617B70710F0A61B66
:1012B000B70B881F991F5A95A9F780959095BC0187
:1012C000CD010895FB01DC0101900D920020E1F7B2
:0612D0000895F894FFCF21
:1012D600646973744600736D616C6C46006D656479
:1012E60069756D46006269674600646973744C00EF
:1012F600736D616C6C4C006D656469756D4C006254
:1013060069674C00736572766F0073686172704C22
:10131600656674006C6566740073747261696768EB
:1013260074007269676874007368617270526967E5
:0413360068740000D7
:00000001FF
