S01700004B616E646964617470726F6A656B742E73726563EE
S113000045C0000061C000005FC000005DC000008A
S11300105BC0000059C0000057C0000055C000007C
S113002053C0000051C000004FC000004DC000008C
S11300304BC0000049C0000047C0000045C000009C
S113004043C0000041C0000017C700003DC00000CD
S1130050A5C7000039C00000FCC7000035C000007F
S113006033C0000031C000002FC000002DC00000CC
S11300709FC6000029C0000027C0000025C0000062
S113008023C0000021C000001FC0000011241FBEB7
S1130090CFEFD0E4DEBFCDBF11E0A0E0B1E0E4E2F9
S11300A0F5E100E00BBF02C007900D92AA3AB10738
S11300B0D9F722E0AAEAB1E001C01D92AF36B20737
S11300C0E1F701D70C94900A9BCF2F923F924F9265
S11300D05F926F927F928F929F92AF92BF92CF92D4
S11300E0DF92EF92FF920F931F93CF93DF93CDB7DD
S11300F0DEB7CE56D2400FB6F894DEBF0FBECDBFEA
S113010099231CF41C861B860AC08E3C91052CF096
S11301108DEC90E09C878B8702C09C878B87643D25
S113012028E072072CF484ED98E09C8F8B8F0BC031
S1130130653F3BE073072CF084EF9BE09C8F8B8F33
S113014002C07C8F6B8F55231CF41CA61BA60AC00F
S1130150413551052CF080E590E09CA78BA702C0A7
S11301605CA74BA788E0E0E0F1E0DE011196019086
S11301700D928A95E1F79E012F5C3F4F89E0E8E0FC
S1130180F1E0D90101900D928A95E1F71CAE1BAE06
S11301908CE290E09EAF8DAF8EE690E021969FAF0B
S11301A08EAF21970F2EF4E66F2E712CF02D23962F
S11301B07FAE6EAE239782E090E025969FAF8EAF20
S11301C025974AE755E662E770E02B964CAF5DAFA2
S11301D06EAF7FAF2B9763961FAE1EAE63974BE453
S11301E050E065965FAF4EAF65974FEA50E0679673
S11301F05FAF4EAF679769969FAF8EAF69976B9667
S11302009FAF8EAF6B971E014DE5240E311C49E064
S1130210E1E1F1E0D10101900D924A95E1F7D101BC
S11302201B961C921E921A974CE850E01D965C9304
S11302304E931C974EEC50E01F965C934E931E9782
S113024051969C938E93509753967C926E925297AC
S11302503E872D87E7E4F0E0EC0FFD1F2796FFAF04
S1130260EEAF27976D963FAE2EAE6D9755961C92C6
S11302701E92549789E0EAE1F1E0AC54B10901908F
S11302800D928A95E1F77E01F3E7EF0EF11C8AE007
S1130290E5E9F1E0D70101900D928A95E1F7D701E4
S11302A01B961C921E921A97E3EDF8E01D96FC93A0
S11302B0EE931C9720E639E01F963C932E931E97ED
S11302C051967C926E92509781E090E053969C9365
S11302D08E9352978E0107571F4F28E0E3E2F1E017
S11302E0D80101900D922A95E1F7D8011B961C9232
S11302F01E921A972CEF38E01D963C932E931C9770
S113030024E13AE01F963C932E931E9751969C93BA
S11303108E93509753969C938E935297BE01615639
S11303207F4F2BE0EBE2F1E0DB0101900D922A9587
S1130330E1F7FB011386128620EB39E03587248729
S11303400F2EF8E1AF2EFBE0BF2EF02DB786A68668
S1130350918B808B938B828BAE014B545F4F27E044
S1130360E6E3F1E0DA0101900D922A95E1F7DA0172
S11303701B961C921E921A9724EB3AE01D963C930E
S11303802E931C972CEC3BE01F963C932E931E97C8
S113039051969C938E93509753969C938E93529719
S11303A09E0125533F4F0F2EF9E0DF2EF02DEDE394
S11303B0F1E0D90101900D92DA94E1F7F901138685
S11303C012860F2EF8E68F2EFBE09F2EF02D9586D9
S11303D084860F2EF5EFCF2EFBE0DF2EF02DD7868F
S11303E0C686918B808B738A628AFE8EED8ED701CE
S11303F055961C930E935497F801758B648BDB010F
S113040055965C934E935497FA01358B248BD901FE
S113041055961C921E92549728E0E6E4F1E0AA5AFD
S1130420B10901900D922A95E1F72E01B1EE4B0E20
S1130430511C26E0EEE4F1E0D20101900D922A95E0
S1130440E1F7F201138612862FEF3FEF35872487F9
S11304502EE130E037872687718A608A45E050E0D4
S1130460538B428B7E01F7EFEF0EF11C27E0E4E59E
S1130470F1E0D70101900D922A95E1F7D7011B967F
S11304801C921E921A9724E130E01D963C932E9301
S11304901C972CE330E01F963C932E931E975196A5
S11304A05C934E93509753965C934E9352979E0150
S11304B0235F3E4F65E0EBE5F1E0D90101900D9239
S11304C06A95E1F7F9011386128662E370E0758795
S11304D0648761E570E077876687518B408B738A08
S11304E0628A5EA64DA6D2015596FC92EE9254976E
S11304F0F701358B248BD90155961C921E92549783
S113050046E0E0E6F1E0569601900D924A95E1F757
S113051048E0E6E6F1E0DE01AD5CBE4F01900D92ED
S11305204A95E1F7C35CDE4F19821882CD53D1405E
S113053046E85BE0C15CDE4F59834883CF53D1402A
S1130540CF5BDE4FD982C882C154D140CD5BDE4F30
S113055099838883C354D140CB5BDE4F7982688210
S1130560C554D140C95BDE4F19821882C754D140AB
S1130570BE01675B7E4F46E0EEE6F1E0DB010190F1
S11305800D924A95E1F7FB0113861286B586A4867F
S11305904AEE5BE057874687918B808B938B828BE7
S11305A043E351E04C0F5D1F558B448B445D5F4F1B
S11305B018E0E4E7F1E0DA0101900D921A95E1F711
S11305C0DA011B961C921E921A97EEE6FAE01D962B
S11305D0FC93EE931C971F969C928E921E975196B5
S11305E09C938E93509753969C938E9352975596C3
S11305F07C936E9354974E01BBE88B1ABEEF9B0A13
S11306006AE0EFE9F1E0D40101900D926A95E1F717
S1130610F401138612866CEE79E0758764876CEDBD
S11306207AE077876687918B808B938B828B558B4F
S1130630448B5E01F5E7AF1AFEEFBF0A69E0ECE711
S1130640F1E0D50101900D926A95E1F7D5011B9671
S11306501C921E921A97E0E6F9E01D96FC93EE9325
S11306601C976AE57AE01F967C936E931E975196C9
S11306709C938E93509753969C938E935297559632
S11306809C928E925497BE016F557E4F17E0E5E819
S1130690F1E0DB0101900D921A95E1F7DB011B9665
S11306A01C921E921A97EEEDF8E01D96FC93EE93C1
S11306B01C97E0EBF9E01F96FC93EE931E9751967E
S11306C09C938E93509753969C938E9352975596E2
S11306D0BC92AE9254976E01F9E4CF1AFEEFDF0A92
S11306E019E0ECE8F1E0D60101900D921A95E1F7DA
S11306F0D6011B961C921E921A97E3EDF8E01D9604
S1130700FC93EE931C97E2E4F9E01F96FC93EE93BE
S11307101E9751967C926E92509753969C938E930B
S1130720529755967C936E935497C15DDE4FD98250
S1130730C882CF52D140CF5CDE4F19821882C15398
S1130740D140CE0183539E4F3A01FAE06F0E711CE3
S1130750DC0111967C926E9213961C921E92129753
S1130760FE01EF52FE4F265F3F4F318320831382F9
S11307701282189667E470E06C0F7D1F665F7F4FEE
S113078011967C936E931396FC93EE93129738967E
S1130790B183A08393838283158214824296BAE044
S11307A0AB0EB11CDC011196BC92AE9213961C9256
S11307B01E9212974C575F4FDA0111963C932E9379
S11307C013961C921E9212978E0109511E4F205BA4
S11307D03109D80111963C932E9313965C934E9352
S11307E01297149611961C930E9313969C938E93C2
S11307F012971596FC93EE931497065F1F4FEAE049
S1130800CE0ED11CF801D182C082138212821E0145
S1130810FBE02F1AFEEF3F0A8E5D9109F1019183EF
S11308208083138212827E01F7E0EF1AFEEFFF0A43
S1130830F70131832083338222823496F182E0826D
S113084013830283B583A4830E5E1F4FD8011196D0
S1130850DC92CE9213961C921E9212976E01B9EFFF
S1130860CB1ABDEFDB0AD60111969C938E93139697
S11308701C921E9212977E01B5EFEB1ABDEFFB0A94
S1130880D70111963C932E931396DC92CE92129735
S113089014961196FC92EE9213961C930E93129753
S11308A01596FC93EE9314970E5E1F4F0F2EF3E3F1
S11308B0EF2EFF24F394F02DEC0EFD1EEAE0EE0E75
S11308C0F11CF801F182E082138212824A5C5F4FCC
S11308D0FA0191838083138212826E01F3EECF1AA0
S11308E0FDEFDF0A2C523109F60131832083538353
S11308F042833496D182C08213830283B583A48356
S11309001E0149ED241A4DEF340A5AE0850E911C5C
S1130910D10111969C928E9213961C921E9212975C
S11309206E01B5EDCB1ABDEFDB0AD60111969C938F
S11309308E9313961C921E921297065E1F4FD80137
S113094011967C936E931396DC92CE9212976E510D
S11309507E4FDB0111961C930E9313963C922E92BC
S113096012971596FC93EE931497AE01475C5D4F76
S1130970FA01F182E082138212821A9611969C93F4
S11309808E9313961C921E921297805C9E4FFC01CC
S113099031832083B383A283189611969C938E93FC
S11309A013965C934E93129715967C936E931497BB
S11309B0685E7F4FFB0171826082138212824A5EFD
S11309C05F4FFAE04F0E511CFA01518240821382AC
S11309D012824296FC013183208353834283485F11
S11309E05F4FFA019183808373836283B583A48309
S11309F058961196BC92AE9213961C921E92129720
S1130A006A5E7F4FFB0151824082138212824296BA
S1130A10FC013183208373836283349691838083C2
S1130A20B383A28355834483F0933E02E0933D0253
S1130A3021E030E02C0F3D1F30933C0220933B0219
S1130A4043E251E04C0F5D1F50933A024093390248
S1130A5085D0ABD0F0D0C35DDE4F88819981CD5273
S1130A60D14081D2C259DD4F0FB6F894DEBF0FBE1C
S1130A70CDBFDF91CF911F910F91FF90EF90DF9049
S1130A80CF90BF90AF909F908F907F906F905F902A
S1130A904F903F902F900895FC01848595859B018C
S1130AA0281B390B86859785861B970B1216130610
S1130AB0ECF418161906ECF460897189A289B389DB
S1130AC08A9FA0018B9F500D9A9F500D1124269F41
S1130AD0C001279F900D369F900D11244817590788
S1130AE00CF4CA01843691053CF408C080E090E01F
S1130AF005C080E090E002C084E690E0938782879E
S1130B0008950F931F93CF93DF93FC01C685D78578
S1130B1084859585C81BD90B2285338560897189A5
S1130B20C901D7D48E01061B170B62897389C901C9
S1130B30D0D4061B170BC00FD11F2C9FC0012D9FB3
S1130B40900D3C9F900D112499230CF401969595DA
S1130B508795DF91CF911F910F9108950F931F9364
S1130B60CF93DF9300913B0210913C0201151105D4
S1130B70B9F0F801C485D585209761F0209729F054
S1130B80F80162857385CE0187DF0C88DD89C02D6D
S1130B902097A1F7F801068517850115110549F776
S1130BA0DF91CF911F910F9108950F931F93CF93CE
S1130BB0DF93C0913D02D0913E022097B9F104E643
S1130BC010E0E881F981309781F0202F312FA08146
S1130BD0B1818D919C91821793070CF49C01028042
S1130BE0F381E02D309799F702C0202F312FEA814D
S1130BF0FB813097B1F0722F632FA081B1818D9169
S1130C009C911197572F462F2817390714F4582F02
S1130C10492F5C9311964C930280F381E02D309719
S1130C2061F70C80DD81C02D209759F6DF91CF91BB
S1130C301F910F9108952F923F924F925F926F925E
S1130C407F928F929F92AF92BF92CF92DF92EF9258
S1130C50FF920F931F93CF93DF9300D000D000D067
S1130C60CDB7DEB78091390290913A029C838B8391
S1130C70892B09F484C0EB81FC810484F585E02D83
S1130C80FE83ED83EF2B09F466C0512C612C712C8B
S1130C90412C312C212C19821A828D819E8131DFC5
S1130CA0BC01882777FD8095982F24D36B017C01A4
S1130CB0ED81FE8104851585B801882777FD80952F
S1130CC0982F18D34B015C01ED81FE8186859785B1
S1130CD0801B910BBC0112F46F5F7F4F7595679574
S1130CE0882777FD8095982F05D3A501940103D219
S1130CF09B01AC01C701B60189D39B01AC01632DF3
S1130D00722D89819A81F7D1362E272E89839A8371
S1130D10A7019601652D762D872D942DECD1562EA5
S1130D20672E782E492EED81FE810488F589E02D09
S1130D30FE83ED83EF2B09F0B0CF262F372F482FFA
S1130D40592F632D722D89819A8139D2262F372FFD
S1130D50482F592F04C020E030E040E050E0622FDB
S1130D60732F842F952F93D2EB81FC817387628735
S1130D70868597859C838B83892B09F07CCF269667
S1130D800FB6F894DEBF0FBECDBFDF91CF911F9198
S1130D900F91FF90EF90DF90CF90BF90AF909F9016
S1130DA08F907F906F905F904F903F902F90089519
S1130DB01F920F920FB60F9211240BB60F928F93BE
S1130DC09F93EF93FF938091CE008F3F29F410926D
S1130DD0600210925F0210C0E0915F02F091600225
S1130DE0E15CFD4F808380915F02909160020196E7
S1130DF09093600280935F02FF91EF919F918F9196
S1130E000F900BBE0F900FBE0F901F90189580E4AB
S1130E1084B980EC8CBD08957CD0F9DF8DEC9AE028
S1130E2087D084E69AE09FC00895ECECF0E011824C
S1130E30108220E92093C9002EE02093CA009183F8
S1130E4080830895DC01E9ECF0E080818F77808372
S1130E5080913F028C93809140021E968C931E9742
S1130E608091410211968C931092600210925F025D
S1130E7080818068808308951F920F920FB60F922D
S1130E8011242F938F939F938091AA019091AB018A
S1130E908B3926E9920730F401969093AB01809345
S1130EA0AA0109C08091AC0181608093AC011092C9
S1130EB0AB011092AA019F918F912F910F900FBEB9
S1130EC00F901F901895CF93DF93CDB7DEB760973F
S1130ED00FB6F894DEBF0FBECDBF9EDF83E19BE06B
S1130EE027D0789487E090E0A0DF8FEF81B90AE8FB
S1130EF010E0CE010196A6DF898182B9F894F80149
S1130F006081718142E350E088EC90E0DED878940F
S1130F10F0CF80E38AB982EA809380008FEF9FE864
S1130F2090938700809386008AE1809381000895DE
S1130F3080362AE092073CF48FE59AE0909389008A
S1130F408093880008958B332BE092073CF08BE369
S1130F509BE0909389008093880008959093890082
S1130F60809388000895873E27E092073CF486EE3C
S1130F7097E090938B0080938A0008958F332CE040
S1130F8092073CF08FE39CE090938B0080938A005F
S1130F90089590938B0080938A0008951F920F9276
S1130FA00FB60F9211240BB60F922F933F934F93CA
S1130FB08F939F93AF93BF93EF93FF9380913702E7
S1130FC0909138028034910531F481E080936D0270
S1130FD08091C60016C080349105E8F4E5E3F2E0A0
S1130FE0208131814091C600D901AD50BE4F4C9350
S1130FF02F5F3F4F31832083019690933802809373
S1131000370280913702909138028034910519F4A7
S113101081E080936B028091350290913602803496
S1131020910521F4109236021092350281E08093EA
S11310306A02FF91EF91BF91AF919F918F914F9170
S11310403F912F910F900BBE0F900FBE0F901F90EA
S113105018951F920F920FB60F9211240BB60F9290
S11310608F939F93EF93FF938091F1019091F201FD
S11310708034910519F41092690202C0892BB9F0E9
S1131080E091ED01F091EE01E355FE4F80818093F4
S1131090C600EDEEF1E08081918101969183808319
S11310A0E1EFF1E0808191810197918380838091C8
S11310B0ED019091EE018034910521F41092EE013E
S11310C01092ED018091F1019091F201892B39F494
S11310D010926C02E1ECF0E080818F7B8083FF91C1
S11310E0EF919F918F910F900BBE0F900FBE0F90B9
S11310F01F9018955058BB27AA270ED04DC13ED13A
S113110030F043D120F031F49F3F11F41EF433C189
S11311100EF4E095E7FB29C1E92F4FD180F3BA170C
S1131120620773078407950718F071F49EF567C189
S11311300EF4E0950B2EBA2FA02D0B01B9019001EE
S11311400C01CA01A0011124FF27591B99F0593F32
S113115050F4503E68F11A16F040A22F232F342F7A
S11311604427585FF3CF469537952795A795F040C8
S11311705395C9F77EF41F16BA0B620B730B840BDD
S1131180BAF09150A1F0FF0FBB1F661F771F881F95
S1131190C2F70EC0BA0F621F731F841F48F48795ED
S11311A077956795B795F7959E3F08F0B3CF9395DC
S11311B0880F08F09927EE0F9795879508950CD01E
S11311C0EBC0E3D040F0DAD030F021F45F3F19F007
S11311D0CCC0511115C1CFC0F0D098F39923C9F3F5
S11311E05523B1F3951B550BBB27AA276217730729
S11311F0840738F09F5F5F4F220F331F441FAA1FDD
S1131200A9F333D00E2E3AF0E0E830D0915050409C
S1131210E695001CCAF729D0FE2F27D0660F771F4A
S1131220881FBB1F261737074807AB07B0E809F02C
S1131230BB0B802DBF01FF2793585F4F2AF09E3FC1
S1131240510568F092C0DCC05F3FECF3983EDCF3DC
S1131250869577956795B795F7959F5FC9F7880F3A
S1131260911D9695879597F90895E1E0660F771F8C
S1131270881FBB1F621773078407BA0720F0621B1D
S1131280730B840BBA0BEE1F88F7E095089504D016
S11312906894B111B5C0089598D088F09F5790F024
S11312A0B92F9927B751A0F0D1F0660F771F881F87
S11312B0991F1AF0BA95C9F712C0B13081F09FD0C6
S11312C0B1E008959CC0672F782F8827B85F39F064
S11312D0B93FCCF3869577956795B395D9F73EF4E6
S11312E090958095709561957F4F8F4F9F4F08958E
S11312F0E89409C097FB3EF49095809570956195AC
S11313007F4F8F4F9F4F9923A9F0F92F96E9BB2761
S11313109395F695879577956795B795F111F8CFDD
S1131320FAF4BB0F11F460FF1BC06F5F7F4F8F4F48
S11313309F4F16C0882311F096E911C0772321F03E
S11313409EE8872F762F05C0662371F096E8862FD6
S113135070E060E02AF09A95660F771F881FDAF72D
S1131360880F9695879597F9089597F99F6780E870
S113137070E060E008959FEF80EC089500240A94E3
S11313801616170618060906089500240A9412165C
S11313901306140605060895092E0394000C11F48F
S11313A0882352F0BB0F40F4BF2B11F460FF04C03C
S11313B06F5F7F4F8F4F9F4F089557FD9058440F95
S11313C0551F59F05F3F71F04795880F97FB991FA0
S11313D061F09F3F79F0879508951216130614065D
S11313E0551FF2CF4695F1DF08C0161617061806EA
S11313F0991FF1CF86957105610508940895E894C5
S1131400BB2766277727CB0197F908950BD0C4CF64
S1131410B5DF28F0BADF18F0952309F0A6CFABCFDB
S11314201124EECFCADFA0F3959FD1F3950F50E0BE
S1131430551F629FF001729FBB27F00DB11D639F82
S1131440AA27F00DB11DAA1F649F6627B00DA11D28
S1131450661F829F2227B00DA11D621F739FB00DCE
S1131460A11D621F839FA00D611D221F749F33273E
S1131470A00D611D231F849F600D211D822F762FD7
S11314806A2F11249F5750408AF0E1F088234AF0D4
S1131490EE0FFF1FBB1F661F771F881F9150504020
S11314A0A9F79E3F510570F060CFAACF5F3FECF3E0
S11314B0983EDCF3869577956795B795F795E7950C
S11314C09F5FC1F7FE2B880F911D9695879597F91D
S11314D0089597FB072E16F4009406D077FD08D0E4
S11314E00BD007FC05D03EF4909581959F4F08954D
S11314F0709561957F4F0895AA1BBB1B51E107C0EE
S1131500AA1FBB1FA617B70710F0A61BB70B881F8F
S1131510991F5A95A9F780959095BC01CD0108951E
S1071520F894FFCF69
S113152464656C74615F43006E65676174697665B4
S113153400706F73697469766500737465657269A4
S11315446E6700696E526967687400696E537472D9
S1131554616967687400696E4C65667400696E53EA
S1131564684C6566740064656C74615F5600736DE1
S1131574616C6C006D656469756D00686967680009
S1131584736572766F006F53684C656674006F4CB4
S1131594656674006F536C4C656674006F536C52CB
S11315A469676874006F5269676874006F5368727E
S11315B46967687400696E53685269676874006F78
S10D15C453747261696768740000D3
S9030000FC
