S01700004B616E646964617470726F6A656B742E73726563EE
S113000045C0000060C000005EC000005CC000008D
S11300105AC0000058C0000056C0000054C0000080
S113002052C0000050C000004EC000004CC0000090
S11300304AC0000048C0000046C0000044C00000A0
S113004042C0000040C000003EC00000C8C0000024
S113005061C1000038C00000B8C1000034C0000015
S113006032C0000030C000002EC000002CC00000D0
S11300702BC0000028C0000026C0000024C00000DF
S113008022C0000020C000001EC0000011241FBEBA
S1130090CFEFD0E4DEBFCDBF11E0A0E0B1E0E0E7F8
S11300A0F4E000E00BBF02C007900D92A030B1074E
S11300B0D9F722E0A0E0B1E001C01D92A234B2075A
S11300C0E1F73AD0D3C19CCF1F920F920FB60F9293
S11300D011240BB60F928F939F93EF93FF9380910C
S11300E0CE008F3F29F410923B0210923A0210C0C6
S11300F0E0913A02F0913B02E65EFD4F80838091ED
S11301003A0290913B02019690933B0280933A020B
S1130110FF91EF919F918F910F900BBE0F900FBEA7
S11301200F901F90189516D0C6D08DEC9AE021D070
S113013084E69AE039C00895F6DF2FEF8FEF90EE52
S1130140215080409040E1F700C00000BDD080E025
S113015090E0089580E38AB982EA809380008FEF6B
S11301609FE890938700809386008AE180938100C2
S1130170089580362AE092073CF48FE59AE0909344
S113018089008093880008958B332BE092073CF01C
S11301908BE39BE09093890080938800089590936B
S11301A0890080938800089580342CE092073CF005
S11301B08FE39CE090938B0080938A000895863EA1
S11301C027E092073CF486EE97E090938B008093AF
S11301D08A00089590938B0080938A0008951F925B
S11301E00F920FB60F9211240BB60F922F933F93D9
S11301F08F939F93AF93BF93EF93FF9310982EB574
S11302002D3FA9F0EAE8F1E080819181DC01A85B4F
S1130210BE4F2C93019691838083ECE8F1E08081BA
S1130220918101969183808381E080930001809184
S11302308A0190918B018034910521F410928B01F5
S113024010928A018091460190914701892B01F116
S1130250E0914201F0914301EE5FFE4F80818EBD3B
S1130260E2E4F1E080819181019691838083E6E468
S1130270F1E0208131812150310931832083109AAA
S11302808034910549F4109243011092420104C054
S11302908DEF8EBD10920101FF91EF91BF91AF914F
S11302A09F918F913F912F910F900BBE0F900FBE96
S11302B00F901F90189580E484B980EC8CBD089A47
S11302C010988DEF8EBD08950F931F93CF93DF93F6
S11302D080918A0090918B008F339C40B0F4C4E6E7
S11302E0DAE00AE810E02A96CE015EDF8FEF9FE79E
S11302F0E6E181509040E040E1F700C00000F801E1
S1130300808191818F339C4070F3DF91CF911F9155
S11303100F9108951F920F920FB60F9211240BB6EE
S11303200F922F933F934F938F939F93AF93BF93CA
S1130330EF93FF93809118029091190280349105F4
S113034031F481E0809340028091C60016C080346D
S11303509105E8F4E6E1F2E0208131814091C600A4
S1130360D901AC52BE4F4C932F5F3F4F3183208352
S1130370019690931902809318028091180290912B
S113038019028034910519F481E080933E02809132
S11303901602909117028034910521F410921702ED
S11303A01092160281E080933D02FF91EF91BF917C
S11303B0AF919F918F914F913F912F910F900BBED1
S11303C00F900FBE0F901F9018951F920F920FB6AB
S11303D00F9211240BB60F928F939F93EF93FF9379
S11303E08091D2019091D3018034910519F4109237
S11303F03C0202C0892BB9F0E091CE01F091CF010B
S1130400E257FE4F80818093C600EEECF1E08081DC
S11304109181019691838083E2EDF1E08081918165
S11304200197918380838091CE019091CF01803494
S1130430910521F41092CF011092CE018091D20146
S11304409091D301892B39F410923F02E1ECF0E052
S113045080818F7B8083FF91EF919F918F910F908B
S11304600BBE0F900FBE0F901F901895F894FFCFFE
S9030000FC
