:1000000045C0000062C0000060C000005EC000008B
:100010005CC000005AC0000058C0000056C000007C
:1000200054C0000052C0000050C000004EC000008C
:100030004CC000004AC0000048C0000046C000009C
:1000400044C0000042C0000040C000000C94190BE6
:100050000C94A10D3AC000000C94FC0D36C00000B9
:1000600034C0000032C0000030C000002EC00000CC
:100070000C94BA092AC0000028C0000026C0000065
:1000800024C0000022C0000020C0000011241FBEB8
:10009000CFEFD0E4DEBFCDBF11E0A0E0B1E0E8EDEE
:1000A000F0E200E00BBF02C007900D92AA3FB1073B
:1000B000D9F723E0AAEFB1E001C01D92A434B20742
:1000C000E1F70E940B0A0C946A109ACF2F923F928C
:1000D0004F925F926F927F928F929F92AF92BF9258
:1000E000CF92DF92EF92FF920F931F93CF93DF9304
:1000F000CDB7DEB7C45CD1400FB6F894DEBF0FBEFB
:10010000CDBF2C016B0188E0E4E0F1E0DE01119647
:1001100001900D928A95E1F73E0121E1620E711C7A
:100120000F2EF7E8EF2EF12CF02D08E710E024E673
:1001300030E043E650E06CE071E0C3010E948B09BF
:100140004E0147E2840E911C0F2EFFEAEF2EF12C98
:10015000F02D0BE910E021E930E04DE750E066E1D9
:1001600071E0C4010E948B095E015DE3A50EB11C24
:100170000F2EF8ECEF2EF12CF02D07EC10E02AEB0F
:1001800030E04FEA50E06DE171E0C5010E948B095B
:100190007E866D869EA28DA2BCAEABAE63961FAE70
:1001A0001EAE639784E6481651042CF484E690E072
:1001B0009C878B870BC0A8EC4A1651042CF087EC67
:1001C00090E09C878B8702C05C864B8688E0E6E2E5
:1001D000F1E0DE01AD5ABF4F01900D928A95E1F733
:1001E0003E01B3E66B0E711C0F2EF3E2EF2EF12CE5
:1001F000F02D04E110E021E030E040E050E06EE25C
:1002000071E0C3010E948B094E01E9E78E0E911C3B
:100210000F2EF7E3EF2EF12CF02D08E210E023E291
:1002200030E04FE050E066E371E0C4010E948B09CA
:100230005E01FFE8AF0EB11C0F2EFBE4EF2EF12C98
:10024000F02D0AE410E022E330E043E250E06DE3F9
:1002500071E0C5010E948B09A1967FAE6EAEA19799
:10026000D30155969C928E925497F401B58AA48A34
:10027000D50155961C921E9254971C141D043CF0F7
:1002800081E090E06F969FAF8EAF6F970FC0BBE499
:10029000CB16D1043CF08AE490E06F969FAF8EAF0E
:1002A0006F9704C06F96DFAECEAE6F971E01E5EA82
:1002B0002E0E311C89E0E4E4F1E0D10101900D92B1
:1002C0008A95E1F72E01F5EB4F0E511C0F2EFCE93C
:1002D000EF2EF9E0FF2EF02D08E319E028E339E0D6
:1002E00047E359E06DE471E0C2010E948B093E01D1
:1002F0002BEC620E711C0F2EE12CFAE0FF2EF02D7C
:100300000CE919E02CE939E040E659E06FEE71E0C4
:10031000C3010E948B096E0141EEC40ED11C0F2E49
:10032000F0EAEF2EFAE0FF2EF02D04E61AE024E6C4
:100330003AE048ED59E067E571E0C601ECD74E01BF
:1003400057EF850E911C0F2EF4E5EF2EFBE0FF2EEC
:10035000F02D00EF1AE020EF3AE04CE85AE06EEDA5
:1003600071E0C401D8D75E0183EFA81A8EEFB80AF6
:100370000F2EF1E9EF2EFBE0FF2EF02D00E91BE040
:1003800020E93BE04CE25BE060E671E0C501C3D7E9
:10039000D1011D96BC92AE921C97F501958A848A74
:1003A000D4015596DC92CE925497F601758A648AF0
:1003B000D30155965C924E925497F201158A148A95
:1003C000CE01019690931B0380931A03E256F10924
:1003D000F88BEF8717861686309219032092180340
:1003E000D1011F961C921E921E97A258BF4F7301F7
:1003F000EAE0EE0EF11C1196FC92EE9213961C921E
:100400001E9212979E01295D3E4F3E01F9E96F0E43
:10041000711CF9017182608213821282865D9E4F87
:100420008E010F5C1F4FFC011183008333832283F5
:10043000349691838083B383A28315821482225FD2
:100440003F4F4AE0840E911CD90111969C928E92E6
:1004500013961C921E921297BE01675C7E4FDB01C1
:1004600011967C926E9213961C921E921297AE0178
:10047000435C5E4F845E9109DA0111969C938E93E2
:1004800013967C936E931297149611965C934E93E9
:1004900013963C932E9312971596FC93EE93149714
:1004A000465F5F4FEAE0AE0EB11CFA01B182A08256
:1004B000138212825E01F5EBAF1AFEEFBF0A225BD8
:1004C0003109F50131832083138212826A5E7F4FE6
:1004D000FB0191838083B382A2823496718360830F
:1004E00053834283B583A4834AE0C40ED11CC75A08
:1004F000DE4FD982C882C955D140C55ADE4F198214
:100500001882CB55D140625F7F4F5E015DE6A50E3C
:10051000B11CDB011196BC92AE9213961C921E92F6
:100520001297AE014F595E4FDA0111969C938E934C
:1005300013967C936E931297825E9E4FDC01119608
:100540005C934E9349E551E04C0F5D1F13965C930D
:100550004E9312971596FC93EE93149716965AE0C5
:10056000450E511C11965C924E9213961C921E924F
:1005700012972E01E1E94E1AEEEF5E0AF201318385
:100580002083138212826A5E7F4FAE01455E5F4F09
:10059000FB0151834083538242823496718360838E
:1005A000B383A28395838483665F7F4FDB011196BB
:1005B000DC92CE9213961C921E9212974C96DC01FE
:1005C00011963C932E9313961C921E9212972E5FB7
:1005D0003E4FD90111961C930E9313969C938E93C4
:1005E00012970896DC0111963C932E9313967C93F8
:1005F0006E9312971596FC93EE9314976E5E7F4F51
:10060000FB01D182C082138212821A9611967C92CB
:100610006E9213961C921E9212972E5E3F4FF90116
:1006200051834083B383A283189611963C932E93F3
:1006300013967C936E93129715969C938E931497B2
:100640006E5E7F4FFB01F182E082138212824C9634
:10065000FC01B182A082138212822E5E3F4FF9010B
:1006600051834083938382830896FC0131832083E6
:1006700073836283B583A483589611969C928E925D
:1006800013961C921E92129744565E4FFA01B18245
:10069000A082138212822E5E3F4FF90111830083E4
:1006A00053834283349631832083B383A28395831B
:1006B0008483F0931D03E0931C0303D529D56ED5E5
:1006C000D1011A968D919C911B97863EB7E09B07AE
:1006D00024F486EE97E048D709C0853EECE09E07FB
:1006E00024F084EE9CE040D701C03ED7CC53DE4FCF
:1006F0000FB6F894DEBF0FBECDBFDF91CF911F9133
:100700000F91FF90EF90DF90CF90BF90AF909F90B0
:100710008F907F906F905F904F903F902F900895B3
:1007200031E06135710509F030E021E0813091055B
:1007300009F020E0222331F0332321F084EE9CE005
:1007400013D70EC021E08230910509F020E022236A
:1007500031F0332321F086EE97E006D701C0B6DCF6
:1007600081E090E008952F923F924F925F926F92B6
:100770007F928F929F92AF92BF92CF92DF92EF9231
:10078000FF920F931F93CF93DF93CDB7DEB7C45380
:10079000D2400FB6F894DEBF0FBECDBF29E0EBE626
:1007A000F1E0DE01119601900D922A95E1F726E025
:1007B000E4E7F1E0DE01519601900D922A95E1F710
:1007C000843B2AE092072CF484EB9AE09C8F8B8F79
:1007D0000BC085354BE094072CF084E59BE09C8FA3
:1007E0008B8F02C09C8F8B8F77231CF41C861B86FB
:1007F0000AC06B3F71052CF08AEF90E09C878B87D5
:1008000002C07C876B876E0151E2C50ED11C0F2E92
:10081000F4E1EF2EF12CF02D0CE010E020E030E0C0
:100820004FEF5FEF6AE771E0C60175D53E0167E300
:10083000660E711C0F2EFFE5EF2EF12CF02D0CE350
:1008400010E02CE330E042E150E063E871E0C301E6
:1008500062D50F2EFFEAEF2EF12CF02D0DE710E000
:100860002DE730E04BE450E068E871E0CE01835BB7
:100870009F4F51D50F2EFBEFEF2EF12CF02D0AEFED
:1008800010E02AEF30E046E950E06DE871E0CE017B
:100890008D599F4F40D5DE86CD867EAA6DAA8DE408
:1008A00090E08C0F9D1F2D969FAF8EAF2D97A3E6E6
:1008B000B0E0AC0FBD1FA396BFAFAEAFA397E99654
:1008C0001FAE1EAEE9970F2EEE24EA94FAE0FF2E3B
:1008D000F02D04EB1AE024EB3AE043EB5AE064E934
:1008E00071E08C9618D55E01BFE8AB0EB11C0F2EDF
:1008F000F4E1EF2EFBE0FF2EF02D04E01BE024E0FE
:100900003BE044EF5AE068EB71E0C50104D50F2EDF
:10091000FBE2EF2EFBE0FF2EF02D0BE11BE02BE1C5
:100920003BE04BE05BE06AE971E0CE018B559F4F05
:10093000F2D42E01EBEB4E0E511C0F2EF1E4EF2EF4
:10094000FBE0FF2EF02D01E31BE021E33BE041E261
:100950005BE063EA71E0C201DED40F2EF5E5EF2E15
:10096000FBE0FF2EF02D04E51BE024E53BE046E331
:100970005BE06AEA71E0CE018F529F4FCCD449E729
:1009800050E04C0F5D1F5E8F4D8FC357DF4FB98214
:10099000A882CD58D040E5EAF0E0EC0FFD1FD5016C
:1009A0005596FC93EE935497C754DF4F5982488273
:1009B000C95BD040E1EDF0E0EC0FFD1FD201559690
:1009C000FC93EE935497CB51DF4F19821882C55E8A
:1009D000D04080E797E7ADE6B0E0C951DF4F8883AC
:1009E0009983AA83BB83C75ED0404E01F7EF8F0E79
:1009F000911C0F2EEE24EA94FAE0FF2EF02D04EB6A
:100A00001AE024EB3AE043EB5AE06FEA71E0C401EC
:100A100082D46E0123EFC21A2EEFD20A0F2EF4E118
:100A2000EF2EFBE0FF2EF02D04E01BE024E03BE086
:100A300044EF5AE067EB71E0C6016DD41E014DED45
:100A4000241A4EEF340A0F2EFBE2EF2EFBE0FF2EAE
:100A5000F02D0BE11BE02BE13BE04BE05BE06CEBAE
:100A600071E0C10158D40F2EF1E4EF2EFBE0FF2E10
:100A7000F02D01E31BE021E33BE041E25BE063ECAE
:100A800071E0CE01875C9E4F46D40F2EF5E5EF2E28
:100A9000FBE0FF2EF02D04E51BE024E53BE046E300
:100AA0005BE06BEC71E0CE01815B9E4F34D4CD50A6
:100AB000DF4F99828882C35FD040D4015596DC9283
:100AC000CE925497F601358A248AE9E3F1E0EC0FDF
:100AD000FD1FD1015596FC93EE9354974FE451E0DE
:100AE0004C0F5D1FC35BDE4F59834883CD54D1400B
:100AF000CD59DE4F19821882C356D140CE010196DE
:100B000090931B0380931A034096988B8F8718A2AB
:100B10001F8E87EE90E08C0F9D1F9093190380939A
:100B20001803CB50DF4F19821882C55FD0409E0159
:100B30002B593E4F30931D0320931C038C579F4F1E
:100B4000D90115969C938E9314971C96FC01B5833E
:100B5000A48347E751E04C0F5D1F15965C934E93BD
:100B600014978E0103581E4FC558DE4F1983088312
:100B7000CB57D1407E015DE7E51A5EEFF50AF8013B
:100B8000F582E48249E851E04C0F5D1FF70155837F
:100B90004483EFE8F1E0EC0FFD1FC357DE4FF9830C
:100BA000E883CD58D14045E951E04C0F5D1FCD564B
:100BB000DE4F59834883C359D140EBE9F1E0EC0F94
:100BC000FD1FC756DE4FF983E883C959D14041EA7A
:100BD00051E04C0F5D1FC156DE4F59834883CF59FA
:100BE000D140E7EAF1E0EC0FFD1FCB55DE4FF98372
:100BF000E883C55AD140C555DE4F19821882CB5AB9
:100C0000D140BE0163557E4FF90171836083FB01C2
:100C100013821282405F5F4FF90153834283FA01CE
:100C2000138212822A533140FB0131832083FAE080
:100C30008F0E911CFA0191828082685F7F4FFC01C8
:100C400071836083485F5F4FFB0153834283FA01E6
:100C5000138212822E563E4FFC0133832283F90108
:100C600013821282FAE0AF0EB11CFB01B182A082A6
:100C7000FAE06F0E711CFA0171826082FAE0CF0E09
:100C8000D11CF901D182C082485F5F4F11965C93FD
:100C90004E93285F3F4FFA0133832283F901138279
:100CA0001282825A9F4F13969C938E931297DC0167
:100CB00013961C921E921297BAE04B0E511CFA0129
:100CC00051824082D9016D927C92BAE02B0E311C88
:100CD000FC0131822082285F3F4FC958DE4F3983A3
:100CE0002883C757D1400896D90113969C938E93B9
:100CF0001297FC01138212821896C758DE4FB983EF
:100D0000A883C957D14013961C921E92129741EDA9
:100D100050E04C0F5D1F465F5F4FF90151834083E8
:100D2000FC01718260822D923C920896D8018D93CD
:100D30009C93685D7F4FFC0173836283DB01139694
:100D40001C921E9212973896D8011396FC93EE933C
:100D500012971382128229E730E02C0F3D1F265F85
:100D60003F4FDC012D933C93DB016D927C92D1824D
:100D7000C0820C96F7019183808304591F4FDC01D8
:100D800013961C930E931297F801138212823496D5
:100D9000D7011396FC93EE9312971382128265EAA1
:100DA00070E06C0F7D1F665F7F4FDC016D937C935D
:100DB000D8016D927C92D182C0820C96C757DE4FCB
:100DC00099838883C958D140045F1F4FFC01138366
:100DD0000283D80113961C921E9212973896C5571B
:100DE000DE4FF983E883CB58D14013821282DC01B5
:100DF000AD92BC928DE490E08C0F9D1F0A96D801B5
:100E00008D939C9331822082085F1F4FC157DE4F24
:100E100019830883CF58D1407E01BFEFEB1ABDEF95
:100E2000FB0AF801F382E282D70113961C921E920C
:100E300012971496CF56DE4FB983A883C159D1407B
:100E400013961C921E92129751824082F701918351
:100E500080830F2EF9E3CF2EDD24D394F02DCC0E1A
:100E6000DD1EFAE0CF0ED11CCD92DC927E01A7EF01
:100E7000EA1AADEFFA0ACB56DE4FF982E882C5597D
:100E8000D140005F1F4FF70113830283D8011396EF
:100E90001C921E9212971496C956DE4FB983A883EE
:100EA000C759D14013961C921E92129751834083CA
:100EB000F80191838083CD92DC92085F1F4FC55665
:100EC000DE4F19830883CB59D140425C5E4FD80175
:100ED00013965C934E931297FA011382128218961E
:100EE000C356DE4FB983A883CD59D14013961C92C7
:100EF0001E921297F80131832083FA019183808337
:100F00002D923C92485F5F4FCF55DE4F5983488307
:100F1000C15AD1402E553E4FDA0113963C932E9381
:100F20001297F901138212821896CD55DE4FB983BC
:100F3000A883C35AD14013961C921E921297FA01AD
:100F400071836083F901918380831196DC92CE9244
:100F50001496C955DE4FB983A883C75AD14013965A
:100F60001C921E9212973C96C755DE4FF983E88378
:100F7000C95AD1401382128283E690E08C0F9D1FE4
:100F80000A968D939C938FE491E08C0F9D1F0A9697
:100F90009183808396D0BCD001D1CF50DF4F888120
:100FA0009981C15FD0408931FBE09F0724F088E13F
:100FB0009BE0BFD209C08E3B2AE0920724F48EEB5F
:100FC0009AE0B7D201C0B5D2CC5CDD4F0FB6F89431
:100FD000DEBF0FBECDBFDF91CF911F910F91FF906C
:100FE000EF90DF90CF90BF90AF909F908F907F90C9
:100FF0006F905F904F903F902F900895FC018485F3
:1010000095859B01281B390B86859785861B970B39
:1010100012161306F4F418161906F4F4608971898F
:10102000A289B3898A9FA0018B9F500D9A9F500D72
:101030001124269FC001279F900D369F900D1124EB
:10104000481759070CF4CA018F3F910509F03CF489
:1010500008C080E090E005C080E090E002C080E041
:1010600091E09387828708950F931F93CF93DF9327
:10107000FC01C685D78584859585C81BD90B22853B
:10108000338560897189C901F7D78E01061B170B5B
:1010900062897389C901F0D7061B170BC00FD11FD6
:1010A0002C9FC0012D9F900D3C9F900D11249923E2
:1010B0000CF4019695958795DF91CF911F910F9133
:1010C00008950F931F93CF93DF9300911A0310910C
:1010D0001B0301151105B9F0F801C485D5852097CA
:1010E00061F0209729F0F80162857385CE0186DFD3
:1010F0000C88DD89C02D2097A1F7F801068517859A
:101100000115110549F7DF91CF911F910F910895B6
:101110000F931F93CF93DF93C0911C03D0911D03B6
:101120002097B9F100E011E0E881F981309781F072
:10113000202F312FA081B1818D919C91821793072F
:101140000CF49C010280F381E02D309799F702C0E6
:10115000202F312FEA81FB813097B1F0722F632F5E
:10116000A081B1818D919C911197572F462F2817FF
:10117000390714F4582F492F5C9311964C93028031
:10118000F381E02D309761F70C80DD81C02D209731
:1011900059F6DF91CF911F910F9108952F923F92B1
:1011A0004F925F926F927F928F929F92AF92BF9277
:1011B000CF92DF92EF92FF920F931F93CF93DF9323
:1011C00000D000D000D0CDB7DEB780911803909149
:1011D00019039C838B83892B09F484C0EB81FC81E8
:1011E0000484F585E02DFE83ED83EF2B09F466C0C2
:1011F000512C612C712C412C312C212C19821A82FA
:101200008D819E8131DFBC01882777FD8095982FE5
:1012100044D66B017C01ED81FE8104851585B80102
:10122000882777FD8095982F38D64B015C01ED819A
:10123000FE8186859785801B910BBC0112F46F5F40
:101240007F4F75956795882777FD8095982F25D6D0
:10125000A501940123D59B01AC01C701B601A9D614
:101260009B01AC01632D722D89819A8117D5362E91
:10127000272E89839A83A7019601652D762D872DC8
:10128000942D0CD5562E672E782E492EED81FE8199
:101290000488F589E02DFE83ED83EF2B09F0B0CFB4
:1012A000262F372F482F592F632D722D89819A8130
:1012B00059D5262F372F482F592F04C020E030E072
:1012C00040E050E0622F732F842F952FB3D5EB8130
:1012D000FC8173876287868597859C838B83892BA6
:1012E00009F07CCF26960FB6F894DEBF0FBECDBFB7
:1012F000DF91CF911F910F91FF90EF90DF90CF90F2
:10130000BF90AF909F908F907F906F905F904F9025
:101310003F902F900895AF92BF92CF92DF92EF92BD
:10132000FF920F931F93CF93DF93EC016A01590152
:10133000CAD61B861A86DD86CC86FF86EE86B50168
:101340006C197D0920E031E0C90196D6798B688B54
:10135000B701601B710BC9018FD67B8B6A8BDF9144
:10136000CF911F910F91FF90EF90DF90CF90BF90A2
:10137000AF9008951F920F920FB60F9211240BB6E3
:101380000F928F939F93EF93FF938091CE008F3FA7
:1013900029F41092FB011092FA0110C0E091FA01B9
:1013A000F091FB01E25EFC4F80838091FA01909105
:1013B000FB0101969093FB018093FA01FF91EF915D
:1013C0009F918F910F900BBE0F900FBE0F901F90AB
:1013D0001895A0D09AD18DEC9AE0ABD084E69AE033
:1013E000C3C00895109295001092940085E08093F8
:1013F00091000895ECECF0E01182108220E9209336
:10140000C9002EE02093CA00918380831092FB01D3
:101410001092FA010895CF93DF93CDB7DEB72B97E3
:101420000FB6F894DEBF0FBECDBFD3DF2FEF8FEF27
:1014300090EE215080409040E1F700C0000087E02E
:1014400090E0D8DF8FEF81B978940F2EF4E96F2EFA
:10145000712CF02D0F2EF1E94F2E512CF02D0F2E67
:10146000F8E8CF2ED12CF02D0F2EFAE8AF2EB12CAC
:10147000F02DAAD18823E9F31B85BE016F5F7F4F52
:10148000CE010B96ABD18B85843061F411110AC06B
:101490001092FD011092FC01A5DF8984912CE8E2F5
:1014A0008E1A91086B8119810A81F8948B858111BC
:1014B0000BC0F6018081918170E055D9602F70E0FA
:1014C000812F90E02DD916C08430A1F4F3018081E2
:1014D00091818C32914030F483E19BE02AD0C401A9
:1014E000BCD108C0F20110828DEC9AE022D084E6D3
:1014F0009AE03AD07894F601E080F180F50100811D
:10150000118180E00BD18E2D09D180E007D1802F91
:1015100005D1AFCF80E38AB982EA809380008FEF54
:101520009FE890938700809386008AE180938100F2
:10153000089580362AE092073CF48FE59AE0909374
:1015400089008093880008958B332BE092073CF04C
:101550008BE39BE09093890080938800089590939B
:101560008900809388000895843E2CE092073CF027
:1015700084EE9CE090938B0080938A000895873ED0
:1015800027E092073CF486EE97E090938B008093DF
:101590008A000895EAE8F0E06081718140910001DD
:1015A00050910101849F9001859F300D949F300DD3
:1015B00011244091020150910301649FC001659F75
:1015C000900D749F900D1124820F931F6AE070E0BC
:1015D00053D5718360830895F89420918A023091E5
:1015E0008B0221153105A9F0E6E8F2E04081518136
:1015F000DA01AA5BBD4F8C914F5F5F4F51834083EF
:101600002150310930938B0220938A02232B21F43D
:1016100001C08EEF1092FE01209186023091870268
:101620002034310521F410928702109286027894BA
:1016300008951F920F920FB60F9211240BB60F92BE
:101640002F933F938F939F93AF93BF93EF93FF930A
:1016500010982EB52D3FA9F0E8E8F2E08081918145
:10166000DC01AA5BBD4F2C93019691838083EAE84D
:10167000F2E08081918101969183808381E0809363
:10168000FE0180918802909189028034910521F4B5
:101690001092890210928802809144029091450232
:1016A000892B01F1E0914002F0914102E050FE4FA0
:1016B00080818EBDE0E4F2E080819181019691838A
:1016C0008083E4E4F2E020813181215031093183CB
:1016D0002083109A8034910549F4109241021092AF
:1016E000400204C08DEF8EBD1092FF01FF91EF917B
:1016F000BF91AF919F918F913F912F910F900BBE12
:101700000F900FBE0F901F90189580E484B980EC65
:101710008CBD089A10988DEF8EBD0895F894209195
:101720004402309145022034310590F4E2E4F2E0C5
:1017300040815181DA01A050BE4F8C934F5F5F4FC3
:10174000518340832F5F3F4F3093450220934402E3
:1017500080914202909143028034910521F41092CD
:1017600043021092420280914402909145020197F7
:10177000F1F48091FF0181111AC0E0914002F091D3
:101780004102E050FE4F80818EBDE0E4F2E08081B6
:101790009181019691838083E4E4F2E080819181DC
:1017A000019791838083109A81E08093FF0180915B
:1017B0004002909141028034910521F4109241023F
:1017C000109240027894089581E020918A0230912D
:1017D0008B022B30310508F480E008950F931F939E
:1017E000CF93DF938C01EB0120918A0230918B0221
:1017F000232B69F1E0918602F0918702EA5BFD4FAD
:1018000080818F3FE1F4E0DF882311F1E5DEE4DE43
:10181000F8018083E1DE8883DFDE8983DDDE8A8371
:10182000DBDE8B83D9DE8C83D7DE8D838CEE9AE072
:101830008F83D2DE8E83D0DE888781E009C0C4DF4B
:10184000882331F0C9DEBE01C801C8DF01C080E0D5
:10185000DF91CF911F910F9108954F925F926F92F8
:101860007F928F929F92AF92BF92CF92DF92EF9230
:10187000FF920F931F93CF93DF93CDB7DEB7CE5C6C
:10188000D1090FB6F894DEBF0FBECDBF2BE0EFEC51
:10189000F1E0DE01119601900D922A95E1F78C3E60
:1018A0002FEF92072CF48CEE9FEF9C878B870AC05A
:1018B000853191052CF084E190E09C878B8702C0F4
:1018C0009C878B875E0181E1A80EB11C0F2EFBEF78
:1018D000EF2EFF24FA94F02D0CEE1FEF2CEE3FEFCD
:1018E0004BEE5FEF6AED71E0C50115DD6E01E7E2D9
:1018F000CE0ED11C0F2EFAE0EF2EF12CF02D00E0D1
:1019000010E020E030E046EF5FEF64EE71E0C601EA
:1019100002DD2E01FDE34F0E511C0F2EF5E1EF2EDF
:10192000F12CF02D04E110E024E130E045E050E03E
:101930006BEE71E0C201EFDCBE86AD86DEA2CDA209
:101940005CAE4BAE63961FAE1EAE63976E0123E591
:10195000C20ED11C86E0E4EFF1E0D60101900D92B9
:101960008A95E1F73E0183E6680E711C0F2EF0EABE
:10197000EF2EFAE0FF2EF02D04E61AE024E63AE01E
:1019800048E25AE067E571E0C301C5DC5E01E9E7C2
:10199000AE0EB11C0F2EF8E1EF2EFBE0FF2EF02D66
:1019A00004E01BE024E03BE040EF5AE06EED71E024
:1019B000C501B1DC4E01FFE88F0E911C0F2EF8ED32
:1019C000EF2EF9E0FF2EF02D04EC19E024EC39E0C5
:1019D00040EB59E06FEE71E0C4019DDCF6017586C5
:1019E0006486F301958A848AF401B58AA48AF50194
:1019F000158A148ACE01019690931B0380931A03D3
:101A0000188A1F86D0921903C0921803F601178610
:101A100016868C559F4F90931D0380931C03DE0107
:101A2000A555BF4FFC01B583A483BE016F547F4F02
:101A300015967C936E931497FB0115821482AE0168
:101A400049545F4FFC0151834083FA011382128293
:101A50009E0125543F4FFC0133832283F9011382F9
:101A6000128284579109FA0191838083FAE06F0E04
:101A7000711CF901718260822C5F3F4F11963C937B
:101A80002E93F901138212828E569F4F13969C93C8
:101A90008E931297FC01138212824C595109F9015D
:101AA00051834083FAE08F0E911CFC019182808269
:101AB0000496FB0191838083FC011382128290962D
:101AC000FB01B383A28313961C921E921297FAE035
:101AD0004F0E511CFC0151824082FAE0AF0EB11C46
:101AE000AD92BC92EEDA14DB59DBF6018285938568
:101AF000873EF7E09F0724F086EE97E035DD09C0CA
:101B0000843E2CE0920724F484EE9CE02DDD01C09D
:101B10002BDDC253DF4F0FB6F894DEBF0FBECDBF33
:101B2000DF91CF911F910F91FF90EF90DF90CF90B9
:101B3000BF90AF909F908F907F906F905F904F90ED
:101B400008951F920F920FB60F9211240BB60F92A9
:101B50002F933F934F938F939F93AF93BF93EF93A5
:101B6000FF9380911603909117038034910531F40F
:101B700081E0809342038091C60016C080349105B5
:101B8000E8F4E4E1F3E0208131814091C600D9011D
:101B9000AE52BD4F4C932F5F3F4F31832083019650
:101BA0009093170380931603809116039091170367
:101BB0008034910519F481E08093400380911403EF
:101BC000909115038034910521F410921503109221
:101BD000140381E080933F03FF91EF91BF91AF9198
:101BE0009F918F914F913F912F910F900BBE0F902E
:101BF0000FBE0F901F9018951F920F920FB60F9265
:101C000011240BB60F928F939F93EF93FF938091C4
:101C1000D0029091D1028034910519F410923E03C4
:101C200002C0892BB9F0E091CC02F091CD02E457CB
:101C3000FD4F80818093C600ECECF2E080819181C1
:101C4000019691838083E0EDF2E08081918101979C
:101C5000918380838091CC029091CD028034910554
:101C600021F41092CD021092CC028091D00290917A
:101C7000D102892B39F410924103E1ECF0E080812C
:101C80008F7B8083FF91EF919F918F910F900BBE7F
:101C90000F900FBE0F901F9018955058BB27AA2782
:101CA0000ED04DC13ED130F043D120F031F49F3FF2
:101CB00011F41EF433C10EF4E095E7FB29C1E92FBE
:101CC0004FD180F3BA17620773078407950718F09E
:101CD00071F49EF567C10EF4E0950B2EBA2FA02D7E
:101CE0000B01B90190010C01CA01A0011124FF27C9
:101CF000591B99F0593F50F4503E68F11A16F040C4
:101D0000A22F232F342F4427585FF3CF46953795C2
:101D10002795A795F0405395C9F77EF41F16BA0B87
:101D2000620B730B840BBAF09150A1F0FF0FBB1F35
:101D3000661F771F881FC2F70EC0BA0F621F731F7E
:101D4000841F48F4879577956795B795F7959E3FDB
:101D500008F0B3CF9395880F08F09927EE0F979569
:101D6000879508950CD0EBC0E3D040F0DAD030F086
:101D700021F45F3F19F0CCC0511115C1CFC0F0D094
:101D800098F39923C9F35523B1F3951B550BBB2742
:101D9000AA2762177307840738F09F5F5F4F220FEF
:101DA000331F441FAA1FA9F333D00E2E3AF0E0E8E8
:101DB00030D091505040E695001CCAF729D0FE2F34
:101DC00027D0660F771F881FBB1F261737074807C6
:101DD000AB07B0E809F0BB0B802DBF01FF2793587C
:101DE0005F4F2AF09E3F510568F092C0DCC05F3F14
:101DF000ECF3983EDCF3869577956795B795F79564
:101E00009F5FC9F7880F911D9695879597F908955B
:101E1000E1E0660F771F881FBB1F621773078407F7
:101E2000BA0720F0621B730B840BBA0BEE1F88F706
:101E3000E095089504D06894B111B5C0089598D084
:101E400088F09F5790F0B92F9927B751A0F0D1F0A3
:101E5000660F771F881F991F1AF0BA95C9F712C02D
:101E6000B13081F09FD0B1E008959CC0672F782FEA
:101E70008827B85F39F0B93FCCF386957795679599
:101E8000B395D9F73EF490958095709561957F4F05
:101E90008F4F9F4F0895E89409C097FB3EF49095AB
:101EA0008095709561957F4F8F4F9F4F9923A9F033
:101EB000F92F96E9BB279395F695879577956795C2
:101EC000B795F111F8CFFAF4BB0F11F460FF1BC006
:101ED0006F5F7F4F8F4F9F4F16C0882311F096E999
:101EE00011C0772321F09EE8872F762F05C0662347
:101EF00071F096E8862F70E060E02AF09A95660F00
:101F0000771F881FDAF7880F9695879597F90895B8
:101F100097F99F6780E870E060E008959FEF80EC9C
:101F2000089500240A94161617061806090608953F
:101F300000240A9412161306140605060895092EA5
:101F40000394000C11F4882352F0BB0F40F4BF2B14
:101F500011F460FF04C06F5F7F4F8F4F9F4F089554
:101F600057FD9058440F551F59F05F3F71F047954A
:101F7000880F97FB991F61F09F3F79F0879508952F
:101F8000121613061406551FF2CF4695F1DF08C04E
:101F9000161617061806991FF1CF8695710561056B
:101FA00008940895E894BB2766277727CB0197F913
:101FB00008950BD0C4CFB5DF28F0BADF18F0952311
:101FC00009F0A6CFABCF1124EECFCADFA0F3959FC7
:101FD000D1F3950F50E0551F629FF001729FBB2710
:101FE000F00DB11D639FAA27F00DB11DAA1F649FBC
:101FF0006627B00DA11D661F829F2227B00DA11D6F
:10200000621F739FB00DA11D621F839FA00D611DF4
:10201000221F749F3327A00D611D231F849F600D15
:10202000211D822F762F6A2F11249F5750408AF04E
:10203000E1F088234AF0EE0FFF1FBB1F661F771FDA
:10204000881F91505040A9F79E3F510570F060CF16
:10205000AACF5F3FECF3983EDCF3869577956795C2
:10206000B795F795E7959F5FC1F7FE2B880F911DF8
:102070009695879597F9089597FB072E16F4009487
:1020800006D077FD08D00BD007FC05D03EF4909524
:1020900081959F4F0895709561957F4F0895AA1B74
:1020A000BB1B51E107C0AA1FBB1FA617B70710F043
:1020B000A61BB70B881F991F5A95A9F78095909575
:1020C000BC01CD010895FB01DC0101900D920020BF
:0820D000E1F70895F894FFCF39
:1020D8000200080064656C74615F43007269676898
:1020E80074536964650063656E747265006C656637
:1020F80074536964650064656C74615F5600696E49
:102108004D696E757300696E4E796C6C00696E501E
:102118006C7573007374656572696E6700736861C6
:1021280072704C65667400737472616967687400D4
:102138007368617270526967687400646973746166
:102148006E63650073706565640073746F704469CD
:102158007374006F6E654D0074776F4D007468720C
:1021680065654D007374696C6C0063727569736999
:102178006E67006D656469756D0068696768006EF3
:102188006F537065656400736C6F7700637275696F
:102198007365006D656448696768006D6178006FF4
:1021A8007269656E746174696F006F66665F7269E3
:1021B800676874006D6964646C65006F66665F6C5F
:0A21C80065667400736572766F009F
:00000001FF
