:1000000045C0000061C000005FC000005DC000008E
:100010005BC0000059C0000057C0000055C0000080
:1000200053C0000051C000004FC000004DC0000090
:100030004BC0000049C0000047C0000045C00000A0
:1000400043C0000041C00000E8C700003DC0000000
:100050000C949A0839C000000C94F50835C00000D3
:1000600033C0000031C000002FC000002DC00000D0
:1000700070C7000029C0000027C0000025C0000094
:1000800023C0000021C000001FC0000011241FBEBB
:10009000CFEFD0E4DEBFCDBF11E0A0E0B1E0ECEBEC
:1000A000F6E100E00BBF02C007900D92AA3AB1073B
:1000B000D9F722E0AAEAB1E001C01D92AF36B2073B
:1000C000E1F7D2D70C945C0B9BCF2F923F924F92CB
:1000D0005F926F927F928F929F92AF92BF92CF92D8
:1000E000DF92EF92FF920F931F93CF93DF93CDB7E1
:1000F000DEB7C859D2400FB6F894DEBF0FBECDBFF1
:1001000099231CF41C861B860AC08E3C91052CF09A
:100110008DEC90E09C878B8702C09C878B87643D29
:1001200008E070072CF484ED98E09C8F8B8F0BC057
:10013000653F1BE071072CF084EF9BE09C8F8B8F59
:1001400002C07C8F6B8F55231CF41CA61BA60AC013
:10015000413551052CF080E590E09CA78BA702C0AB
:100160005CA74BA788E0E0E0F1E0DE01119601908A
:100170000D928A95E1F79E012F5C3F4F89E0E8E000
:10018000F1E0D90101900D928A95E1F71CAE1BAE0A
:100190008CE290E09EAF8DAF8EE690E021969FAF0F
:1001A0008EAF219744E650E023965FAF4EAF239782
:1001B00082E090E025969FAF8EAF25972E0157E401
:1001C000450E511C4AE755E662E770E0D2014D93B7
:1001D0005D936D937C9313971B961C921E921A97B6
:1001E0004BE450E01D965C934E931C974FEA50E011
:1001F0001F965C934E931E9751969C938E935097A7
:1002000053969C938E93529749E0E1E1F1E0569624
:1002100001900D924A95E1F7A9961FAE1EAEA997DF
:100220004CE850E0AB965FAF4EAFAB974EEC50E072
:10023000AD965FAF4EAFAD97AF969FAF8EAFAF9716
:10024000E4E6F0E0E196FFAFEEAFE1973E872D8761
:1002500027965FAE4EAE2797EDE5F0E0EC0FFD1F61
:10026000D2015596FC93EE935497E3961FAE1EAEC3
:10027000E39789E0EAE1F1E0D69701900D928A9543
:10028000E1F72E5B3F4F8AE0E5E9F1E0D90101900B
:100290000D928A95E1F7D9011B961C921E921A972E
:1002A000E3EDF8E01D96FC93EE931C970F2EF0E61D
:1002B0002F2EF9E03F2EF02D1F963C922E921E9786
:1002C00004E610E051961C930E93509741E050E0E5
:1002D00053965C934E9352974E0119E8810E911CF0
:1002E00088E0E3E2F1E0D40101900D928A95E1F714
:1002F000D4011B961C921E921A978CEF98E01D96C3
:100300009C938E931C9784E19AE01F969C938E9306
:100310001E9751965C934E93509753965C934E93D1
:1003200052978BE0EBE2F1E0569601900D928A95A0
:10033000E1F7C755DF4F19821882C95AD040E0EB68
:10034000F9E0C555DF4FF983E883CB5AD0400F2E33
:10035000F8E1EF2EFBE0FF2EF02DC355DF4FF982C1
:10036000E882CD5AD040C155DF4F59834883CF5AD8
:10037000D040CF54DF4F59834883C15BD04087E0E2
:10038000E6E3F1E0DE01AB54BF4F01900D928A9598
:10039000E1F7C154DF4F19821882CF5BD04084EB64
:1003A0009AE0CF53DF4F99838883C15CD0408CECB7
:1003B0009BE0CD53DF4F99838883C35CD040CB5300
:1003C000DF4F59834883C55CD040C953DF4F598301
:1003D0004883C75CD040CE0185539F4F69E0EDE371
:1003E000F1E0DC0101900D926A95E1F7DC011B96CA
:1003F0001C921E921A970F2EF8E6AF2EFBE0BF2E2E
:10040000F02D1D96BC92AE921C9765EF7BE01F9677
:100410007C936E931E9751965C934E935097E4E6AF
:10042000F0E05396FC93EE9352973E8F2D8FD901B7
:1004300055969C928E9254970FE910E00C0F1D1F59
:10044000F401158B048B25EB30E02C0F3D1FCD54B0
:10045000DF4F39832883C35BD040C753DF4F998375
:100460008883C95CD040DC0155961C921E9254973B
:1004700088E0E6E4F1E0AA5AB10901900D928A956C
:10048000E1F786E0EEE4F1E0DE01AF51BF4F01900D
:100490000D928A95E1F7C551DF4F19821882CB5E24
:1004A000D0408FEF9FEFC351DF4F99838883CD5E9C
:1004B000D0408EE190E0C151DF4F99838883CF5EB9
:1004C000D040E4E6F0E0CF50DF4FF983E883C15F2E
:1004D000D04085E090E0CD50DF4F99838883C35FA3
:1004E000D0403E01F7EF6F0E711C27E0E4E5F1E02C
:1004F000D30101900D922A95E1F7D3011B961C922E
:100500001E921A9724E130E01D963C932E931C977F
:100510002CE330E01F963C932E931E9751969C93AC
:100520008E93509753969C938E93529702591F4FD8
:1005300025E0EBE5F1E0D80101900D922A95E1F775
:10054000F8011386128622E330E03587248721E5FF
:1005500030E037872687918B808B24E630E0338B21
:10056000228B81EE90E08C0F9D1F9EA78DA7CB5014
:10057000DF4F79826882C55FD040D30155961C93C6
:100580000E935497158A148A86E0E0E6F1E09C9673
:1005900001900D928A95E1F79E012D5C3E4F88E017
:1005A000E6E6F1E0D90101900D928A95E1F7F901B3
:1005B0001386128686E89BE095878487778766870F
:1005C000518B408B64E670E0738B628B158A148AC2
:1005D000CE01875B9E4F66E0EEE6F1E0DC01019024
:1005E0000D926A95E1F7DC011B961C921E921A97F8
:1005F0001D96FC92EE921C976AEE7BE01F967C9310
:100600006E931E9751965C934E93509753965C93BE
:100610004E93529755963C932E9354976E01B1EAA0
:10062000CB1ABEEFDB0A68E0E4E7F1E0D601019007
:100630000D926A95E1F7F601138612866EE67AE06E
:1006400075876487B786A686518B408B538B428B08
:10065000958B848B8C966AE0EFE9F1E0DC010190E8
:100660000D926A95E1F7DC011B961C921E921A9777
:100670006CEE79E01D967C936E931C976CED7AE09E
:100680001F967C936E931E9751965C934E93509752
:1006900053965C934E9352975596DC92CE92549714
:1006A000BE0165577E4F0F2EF9E0FF2EF02DECE7CF
:1006B000F1E0DB0101900D92FA94E1F7FB01138662
:1006C000128635862486EAE5FAE0DB011F96FC9364
:1006D000EE931E9751965C934E93509753965C936E
:1006E0004E93529755969C938E9354975E01BFE517
:1006F000AB1ABEEFBB0A0F2EF7E0FF2EF02DE5E898
:10070000F1E0D50101900D92FA94E1F7F50113861D
:100710001286EEEDF8E0D5011D96FC93EE931C9742
:10072000E0EBF9E01F96FC93EE931E9751965C93D5
:100730004E93509753965C934E93529755967C9355
:100740006E9354977E01F9E4EF1AFEEFFF0A0F2E25
:10075000F9E02F2EF02DECE8F1E0D70101900D9299
:100760002A94E1F7D7011B961C921E921A97E3ED8B
:10077000F8E01D96FC93EE931C97E2E4F9E01F96D7
:10078000FC93EE931E97E4E6F0E05196FC93EE9313
:10079000509753965C934E9352975596BC92AE9257
:1007A0005497C15DDE4FF982E882CF52D140CF5CD1
:1007B000DE4F19821882C153D1405E01F3E3AF1AB4
:1007C000FEEFBF0AA601465F5F4FCD56DD4F59834E
:1007D0004883C359D240D50111965C934E9313962A
:1007E0001C921E9212971496F8013A96C956DD4F44
:1007F000F983E883C759D2401196FC93EE93139680
:100800001C921E92129744595F4F1401FAE02F0E6A
:10081000311CFA0131822082B383A2836E01F7E298
:10082000CF1AFEEFDF0A0AE0400E511CD6011196E6
:100830005C924E9213965C934E9312971496119677
:10084000DC92CE921396BC92AE92129715961C92A1
:100850001E921497425F5F4FE054F109CB56DD4F73
:10086000F983E883C559D2408F01FA0111830083CF
:1008700013821282645A7F4FC956DD4F0881198155
:10088000C759D240FB0111830083138212825E019B
:1008900015E1A11A1EEFB10A0F2EFFE98F2E912C40
:1008A000F02D8C0E9D1EEAE08E0E911CF5019182BA
:1008B000808273836283685F7F4F0F2EFDE5CF2EAA
:1008C000D12CF02DCC0EDD1EFAE0CF0ED11CFB0199
:1008D000D182C082B382A2823496718360835383B3
:1008E0004283B583A4830AE0E00EF11CC750DE4FBB
:1008F000F982E882C95FD140C550DE4F1982188263
:10090000CB5FD140625F7F4F425E5109DB011196A0
:100910005C934E9313961C921E9212978E010F5F5A
:100920001D4F0F2EF5EBAF2EB12CF02DAC0EBD1ED2
:10093000BAE0AB0EB11CD8011196BC92AE921396E0
:100940007C936E931297685F7F4FDB011196DC9268
:10095000CE9213961C930E931297085F1F4FD801E7
:1009600011967C936E9369EF71E06C0F7D1F139667
:100970007C936E9312971596FC93EE9314976E01E9
:1009800071EFC71A7DEFD70AD6011196FC92EE924D
:1009900013961C921E921297665E7F4FFB01518345
:1009A00040831382128218961196BC92AE921396CF
:1009B0007C936E931297685F7F4FFB015182408258
:1009C000B383A283189611967C936E931396DC9250
:1009D000CE92129715961C930E931497045E1F4F98
:1009E000265F3F4FF8013183208313821282625FBA
:1009F0007F4FFB0151834083138212826E01F3ED1E
:100A0000CF1AFDEFDF0AF601318220827383628301
:100A10007E01FFECEF1AFDEFFF0A6E5E7140F701F9
:100A200071836083D382C2823496F182E082138321
:100A30000283B583A4830A5E1F4F0A96D8011196DC
:100A40009C938E9313961C921E92129780549F4FE4
:100A5000DC0111965C934E9313961C921E92129792
:100A60007E01BDEBEB1ABDEFFB0AD70111969C92FC
:100A70008E9213969C938E9312970896DC01119692
:100A80005C924E921396FC92EE92129714961196E7
:100A90009C938E9313961C930E9312971596FC932A
:100AA000EE9314970A5E1F4FF8013183208313825F
:100AB00012820E96FC015183408313821282245EBF
:100AC0003E4FF90131822082938382830896FC0194
:100AD0007183608333832283285F3F4FF9019183C1
:100AE000808313830283B583A4830A5E1F4FCD5690
:100AF000DD4FE881F981C359D240D8011196FC93AA
:100B0000EE9313961C921E9212970E9641EE50E0B1
:100B10004C0F5D1F465F5F4FDC0111965C934E9357
:100B200013961C921E921297149611969C928E9276
:100B300013969C938E9312970896FC0171836083A1
:100B4000B383A283189611969C938E9313961C934D
:100B50000E93129715963C932E9314976E5B7D4FD0
:100B6000CB56DD4F08811981C559D240FB01118355
:100B70000083138212820E96FC01518340831382FC
:100B800012822C5D3F4FF901B182A0829383828350
:100B90000896FC015182408233832283285F3F4FB5
:100BA000F9019183808373836283B583A48301E118
:100BB00010E00C0F1D1F188B0F8741E250E04C0F07
:100BC0005D1F58A34F8F18AA1FA630933E02209393
:100BD0003D0261E070E06C0F7D1F70933C026093FA
:100BE0003B0283E291E08C0F9D1F90933A02809329
:100BF000390285D0ABD0F0D0C35DDE4F88819981BA
:100C0000CD52D1407CD2C856DD4F0FB6F894DEBF2E
:100C10000FBECDBFDF91CF911F910F91FF90EF904D
:100C2000DF90CF90BF90AF909F908F907F906F900C
:100C30005F904F903F902F900895FC01848595859B
:100C40009B01281B390B86859785861B970B1216EF
:100C50001306ECF418161906ECF460897189A28960
:100C6000B3898A9FA0018B9F500D9A9F500D11242C
:100C7000269FC001279F900D369F900D1124481785
:100C800059070CF4CA01843691053CF408C080E091
:100C900090E005C080E090E002C084E690E0938799
:100CA000828708950F931F93CF93DF93FC01C6852E
:100CB000D78584859585C81BD90B228533856089A6
:100CC0007189C901D2D48E01061B170B6289738901
:100CD000C901CBD4061B170BC00FD11F2C9FC0011D
:100CE0002D9F900D3C9F900D112499230CF401969B
:100CF00095958795DF91CF911F910F9108950F934F
:100D00001F93CF93DF9300913B0210913C0201159A
:100D10001105B9F0F801C485D585209761F02097B9
:100D200029F0F80162857385CE0187DF0C88DD89A3
:100D3000C02D2097A1F7F80106851785011511052B
:100D400049F7DF91CF911F910F9108950F931F9352
:100D5000CF93DF93C0913D02D0913E022097B9F12D
:100D600004E610E0E881F981309781F0202F312FDF
:100D7000A081B1818D919C91821793070CF49C0105
:100D80000280F381E02D309799F702C0202F312F98
:100D9000EA81FB813097B1F0722F632FA081B1817E
:100DA0008D919C911197572F462F2817390714F4CE
:100DB000582F492F5C9311964C930280F381E02DBC
:100DC000309761F70C80DD81C02D209759F6DF91B7
:100DD000CF911F910F9108952F923F924F925F9262
:100DE0006F927F928F929F92AF92BF92CF92DF923B
:100DF000EF92FF920F931F93CF93DF9300D000D019
:100E000000D0CDB7DEB78091390290913A029C8331
:100E10008B83892B09F484C0EB81FC810484F585E4
:100E2000E02DFE83ED83EF2B09F466C0512C612C7D
:100E3000712C412C312C212C19821A828D819E819A
:100E400031DFBC01882777FD8095982F1FD36B0178
:100E50007C01ED81FE8104851585B801882777FD29
:100E60008095982F13D34B015C01ED81FE8186851F
:100E70009785801B910BBC0112F46F5F7F4F7595B6
:100E80006795882777FD8095982F00D3A501940159
:100E9000FED19B01AC01C701B60184D39B01AC011B
:100EA000632D722D89819A81F2D1362E272E898366
:100EB0009A83A7019601652D762D872D942DE7D174
:100EC000562E672E782E492EED81FE810488F589F5
:100ED000E02DFE83ED83EF2B09F0B0CF262F372FC7
:100EE000482F592F632D722D89819A8134D2262F54
:100EF000372F482F592F04C020E030E040E050E069
:100F0000622F732F842F952F8ED2EB81FC817387F4
:100F10006287868597859C838B83892B09F07CCF9C
:100F200026960FB6F894DEBF0FBECDBFDF91CF91EE
:100F30001F910F91FF90EF90DF90CF90BF90AF90F7
:100F40009F908F907F906F905F904F903F902F90E9
:100F500008951F920F920FB60F9211240BB60F92A5
:100F60008F939F93EF93FF938091CE008F3F29F44F
:100F70001092600210925F0210C0E0915F02F09147
:100F80006002E15CFD4F808380915F02909160027E
:100F900001969093600280935F02FF91EF919F9181
:100FA0008F910F900BBE0F900FBE0F901F90189552
:100FB00080E484B980EC8CBD089577D0F9DF8DECA6
:100FC0009AE082D084E69AE09AC00895ECECF0E0D2
:100FD0001182108220E92093C9002EE02093CA00DC
:100FE000918380830895DC01E9ECF0E080818F77C4
:100FF000808380913F028C93809140021E968C9357
:101000001E978091410211968C931092600210926B
:101010005F0280818068808308951F920F920FB6CF
:101020000F9211242F938F939F938091AA019091F7
:10103000AB018B3926E9920730F401969093AB010E
:101040008093AA0109C08091AC0181608093AC01BA
:101050001092AB011092AA019F918F912F910F9046
:101060000FBE0F901F901895CF93DF93CDB7DEB7CB
:1010700060970FB6F894DEBF0FBECDBF9EDF83E151
:101080009BE022D0789487E090E0A0DF8FEF81B9D9
:10109000CE010196A8DFF89446E450E062E979E0D9
:1010A0008DE790E012D87894F3CF80E38AB982EA92
:1010B000809380008FEF9FE8909387008093860055
:1010C0008AE180938100089580362AE092073CF4FB
:1010D0008FE59AE0909389008093880008958B3380
:1010E0002BE092073CF08BE39BE090938900809388
:1010F0008800089590938900809388000895873E22
:1011000027E092073CF486EE97E090938B00809363
:101110008A0008958F332CE092073CF08FE39CE027
:1011200090938B0080938A00089590938B00809316
:101130008A0008951F920F920FB60F9211240BB6DA
:101140000F922F933F934F938F939F93AF93BF93A0
:10115000EF93FF938091370290913802803491058C
:1011600031F481E080936D028091C60016C0803416
:101170009105E8F4E5E3F2E0208131814091C60079
:10118000D901AD50BE4F4C932F5F3F4F3183208329
:1011900001969093380280933702809137029091A4
:1011A00038028034910519F481E080936B028091BC
:1011B0003502909136028034910521F41092360266
:1011C0001092350281E080936A02FF91EF91BF9106
:1011D000AF919F918F914F913F912F910F900BBEA7
:1011E0000F900FBE0F901F9018951F920F920FB681
:1011F0000F9211240BB60F928F939F93EF93FF934F
:101200008091F1019091F2018034910519F41092CE
:10121000690202C0892BB9F0E091ED01F091EE0175
:10122000E355FE4F80818093C600EDEEF1E08081B2
:101230009181019691838083E1EFF1E0808191813A
:101240000197918380838091ED019091EE0180342C
:10125000910521F41092EE011092ED018091F101BF
:101260009091F201892B39F410926C02E1ECF0E0DC
:1012700080818F7B8083FF91EF919F918F910F9061
:101280000BBE0F900FBE0F901F9018955058BB27A4
:10129000AA270ED04DC13ED130F043D120F031F419
:1012A0009F3F11F41EF433C10EF4E095E7FB29C112
:1012B000E92F4FD180F3BA176207730784079507A8
:1012C00018F071F49EF567C10EF4E0950B2EBA2F5D
:1012D000A02D0B01B90190010C01CA01A00111243C
:1012E000FF27591B99F0593F50F4503E68F11A16E8
:1012F000F040A22F232F342F4427585FF3CF469579
:1013000037952795A795F0405395C9F77EF41F169A
:10131000BA0B620B730B840BBAF09150A1F0FF0F64
:10132000BB1F661F771F881FC2F70EC0BA0F621F50
:10133000731F841F48F4879577956795B795F79540
:101340009E3F08F0B3CF9395880F08F09927EE0FD2
:101350009795879508950CD0EBC0E3D040F0DAD094
:1013600030F021F45F3F19F0CCC0511115C1CFC04E
:10137000F0D098F39923C9F35523B1F3951B550B7E
:10138000BB27AA2762177307840738F09F5F5F4F58
:10139000220F331F441FAA1FA9F333D00E2E3AF099
:1013A000E0E830D091505040E695001CCAF729D0B3
:1013B000FE2F27D0660F771F881FBB1F2617370702
:1013C0004807AB07B0E809F0BB0B802DBF01FF2732
:1013D00093585F4F2AF09E3F510568F092C0DCC0E1
:1013E0005F3FECF3983EDCF3869577956795B7956C
:1013F000F7959F5FC9F7880F911D9695879597F987
:101400000895E1E0660F771F881FBB1F62177307FF
:101410008407BA0720F0621B730B840BBA0BEE1F14
:1014200088F7E095089504D06894B111B5C0089587
:1014300098D088F09F5790F0B92F9927B751A0F016
:10144000D1F0660F771F881F991F1AF0BA95C9F758
:1014500012C0B13081F09FD0B1E008959CC0672FD9
:10146000782F8827B85F39F0B93FCCF38695779508
:101470006795B395D9F73EF49095809570956195F1
:101480007F4F8F4F9F4F0895E89409C097FB3EF41C
:1014900090958095709561957F4F8F4F9F4F9923C1
:1014A000A9F0F92F96E9BB279395F695879577953F
:1014B0006795B795F111F8CFFAF4BB0F11F460FFFF
:1014C0001BC06F5F7F4F8F4F9F4F16C0882311F057
:1014D00096E911C0772321F09EE8872F762F05C06B
:1014E000662371F096E8862F70E060E02AF09A9506
:1014F000660F771F881FDAF7880F9695879597F9FB
:10150000089597F99F6780E870E060E008959FEF85
:1015100080EC089500240A9416161706180609068A
:10152000089500240A941216130614060506089559
:10153000092E0394000C11F4882352F0BB0F40F4E1
:10154000BF2B11F460FF04C06F5F7F4F8F4F9F4F21
:10155000089557FD9058440F551F59F05F3F71F0A3
:101560004795880F97FB991F61F09F3F79F087950A
:101570000895121613061406551FF2CF4695F1DF93
:1015800008C0161617061806991FF1CF8695710523
:10159000610508940895E894BB2766277727CB0157
:1015A00097F908950BD0C4CFB5DF28F0BADF18F053
:1015B000952309F0A6CFABCF1124EECFCADFA0F35D
:1015C000959FD1F3950F50E0551F629FF001729FD8
:1015D000BB27F00DB11D639FAA27F00DB11DAA1FF7
:1015E000649F6627B00DA11D661F829F2227B00D44
:1015F000A11D621F739FB00DA11D621F839FA00DCF
:10160000611D221F749F3327A00D611D231F849F1E
:10161000600D211D822F762F6A2F11249F57504075
:101620008AF0E1F088234AF0EE0FFF1FBB1F661F10
:10163000771F881F91505040A9F79E3F510570F0C9
:1016400060CFAACF5F3FECF3983EDCF386957795A9
:101650006795B795F795E7959F5FC1F7FE2B880FC4
:10166000911D9695879597F9089597FB072E16F487
:10167000009406D077FD08D00BD007FC05D03EF4CF
:10168000909581959F4F0895709561957F4F08952E
:10169000AA1BBB1B51E107C0AA1FBB1FA617B70798
:1016A00010F0A61BB70B881F991F5A95A9F78095B4
:0C16B0009095BC01CD010895F894FFCF87
:1016BC0064656C74615F43006E656761746976651F
:1016CC0000706F736974697665007374656572690F
:1016DC006E6700696E526967687400696E53747244
:1016EC00616967687400696E4C65667400696E5355
:1016FC00684C6566740064656C74615F5600736D4C
:10170C00616C6C006D656469756D00686967680073
:10171C00736572766F006F53684C656674006F4C1E
:10172C00656674006F536C4C656674006F536C5235
:10173C0069676874006F5269676874006F536872E8
:10174C006967687400696E53685269676874006FE2
:0A175C00537472616967687400003D
:00000001FF
